:03000000020B40B0
:100B400078FFE4F6D8FD9000007F807E01E4F0A3FA
:0A0B5000DFFCDEFA758147020B9509
:100E72000000000100000005000A0BB800C8006471
:100E820000020000000000040000FFFFFFFFFFFF60
:100E92000014013A04082A0507CF013A040827057D
:100EA20007CF013A0408270507CF013A04082705AE
:100EB20007CF013A0408270507CE013A040828059E
:020EC20007CF58
:04121D00410061002B
:0B133F00900E7CE493FE740193FF22EB
:0B134A00900E80E493FE740193FF22DC
:08137500900E7A740193FF222F
:03139C007F0122AC
:10113D00AD07ED75F008A4249AF582E4340EF5831D
:10114D00E493FEED75F008A4249BF582E4340EF5CE
:0C115D0083E4937C002400FFEC3EFE22A3
:1012AF00EF75F008A42497F582E4340EF583E493E8
:0212BF00FF220C
:08137D00900E74740193FF222D
:0D13260074432FF582E43400F583E0FF22CC
:08138500900000E0C313FF22F9
:0A136B00900000E075F00384FF22FB
:1012850012113DEF7803C333CE33CED8F9FF7C007E
:051295007D0A12090DA5
:01129A002231
:100F5A00E4FBFAF50BF50AF509F508750BE0750AD5
:100F6A0031F509F508AF0BAE0AAD09AC08780112E4
:100F7A0009968F0B8E0A8D098C0830D71374132AA1
:100F8A00F582E43400F583EBF00AEAC394065004D0
:060F9A000BBB1FD18A33DE
:010FA000222E
:1010DB00EF14601214601414601814601A24047056
:1010EB001E900E948008900E958003900E96E493BC
:1010FB00FF22E4FF021326900E86740193FF227FDA
:02110B000022C0
:100FA100900E78740193900000F0900E927401936A
:100FB10090004EF0120F5AE4FFEFC395335020EF2B
:100FC10075F008A42498F582E4340EF583E493FEC9
:100FD10074432FF582E43400F583EEF00F80DAE4F8
:060FE10090004CF0A3F0AB
:010FE70022E7
:1004A800E4F508F50CF50BF50AF509F510F50FF567
:1004B8000EF50D1213BA50030205BA1211B38F0CC0
:1004C8008E0B8D0A8C09E4FBEBC395335047AF0CB8
:1004D800AE0BAD0AAC0978011209968F0C8E0B8D04
:1004E8000A8C0930D72CE47F01FEFDFC74132BF530
:1004F80082E43400F583E0F9F81209A9E5104FF514
:1005080010E50F4EF50FE50E4DF50EE50D4CF50D0A
:1005180005080B80B3E508C394024015D200E5082E
:10052800940340051213BD800812137DEF6002C2C8
:100538000020002CE4FFFEFDFCAB10AA0FA90EA8BA
:100548000DC3120985601090004DE004F07006900C
:10055800004CE004F08020E490004CF0A3F08017F9
:1005680090004AE004F07006900049E004F0E4F5D9
:1005780010F50FF50EF50D12133FD390004DE09FC7
:1005880090004CE09E400A1213BDE490004CF0A38A
:10059800F0D390004AE0942C900049E09401401D6B
:1005A8001213BD9000617401F0E4900049F0A3F0CB
:1005B800800B900E82E4740193FF1205CEAF10AE4B
:0505C8000FAD0EAC0DAB
:0105CD00220B
:03005B0002106A26
:10106A00C0E0C0F0C083C082C0D075D000C000C04C
:10107A0001C002C003C004C005C006C007120DBFEC
:10108A00D007D006D005D004D003D002D001D000BA
:0B109A00D0D0D082D083D0F0D0E03264
:04122100021C0000AB
:0113C000220A
:10110D008D0CC2AF75F402850CF5E4F5F38FF27515
:10111D00F1F075F60A00000000000000000000F577
:10112D00F4D2AF121255EFB50C037F01227F0022CE
:10125500C2AF75F402E51D2FF582E4351CF583E474
:0712650093FFE4F5F4D2AFA2
:01126C00225F
:05139300A202920422F9
:03139F00A2042283
:1012E50030A008D202121393021355C202121393AF
:0112F50022D6
:0313A200AF472230
:0113C1002209
:0413980043D3802299
:06138D0053D37FC2802251
:0313A5008F08228C
:0313A800AF46222B
:1012F600754701D2A11213987F011213A50213ABF1
:0B135500E4F547C2A112138D0213AE95
:101169001209C88F398E388D378C367FC07E657DE0
:10117900527C00AB39AA38A937A836C31209854071
:0511890003753A01228C
:100D60001213A2EF6058E53AB4010F0535E535C31B
:100D700094034006E4F5351200000534E534C394CD
:100D80000A403BE4F5347FC07E657D52FCAB39AA56
:100D900038A937A836120985400BE53A7003120BC3
:100DA000DA753A0122AF39AE38AD37AC36EF2401EF
:0E0DB000F539E43EF538E43DF537E43CF53620
:010DBE002212
:100BDA00AF39AE38AD37AC368F0B8E0A8D098C081B
:100BEA0075CF10E50BFFE4AD077F0F12110DAF0BA8
:100BFA00AE0AAD09AC0878081209968F0B8E0A8DD9
:100C0A00098C0875CF10E50BFFE4AD077F0E1211B2
:100C1A000DAF0BAE0AAD09AC0878081209968F0B16
:100C2A008E0A8D098C0875CF10E50BFFE4AD077F9E
:100C3A000D12110DAF0BAE0AAD09AC0878081209F6
:100C4A00968F0B8E0A8D098C0875CF10E50BFFE481
:070C5A00AD077F0C02110D34
:1009C800E4F545F544F543F54275CF107F0C121256
:1009D80055E48F45F544F543F542AE44AD43AC428A
:1009E80078081209A98F458E448D438C4275CF1023
:1009F8007F0D121255E4FCFDFEE5452FF545EE3559
:100A080044F544ED3543F543EC3542F542AF45AE88
:100A180044AD43FC78081209A98F458E448D438C58
:100A28004275CF107F0E121255E4FCFDFEE5452FEE
:100A3800F545EE3544F544ED3543F543EC3542F5DF
:100A480042AF45AE44AD43FC78081209A98F458EE4
:100A5800448D438C4275CF107F0F121255E4FCFD74
:100A6800FEE5452FF545EE3544F544ED3543F543B0
:0C0A7800EC3542F542AF45AE44AD43FC06
:010A8400224F
:1010A50075CF10E4FD7F0C12110D75CF10E4FD7F97
:1010B5000D12110D75CF10E4FD7F0E12110D75CFB8
:1010C50010E4FD7F0F12110DE4F539F538F537F50C
:0610D50036F53A020000AE
:0B136000539BFDC281439A020213AEB2
:0313AB00D28122CA
:0313AE00C28122D7
:061225000421000000009E
:10123B0090004BE0FF30E711547FF01204A88F248D
:0A124B008E238D228C211213B7228E
:10080A00E52454E0FFE5235431FEE4FDFCFB7A01C4
:10081A00F9F8C31209857016E52520E017052AE5BF
:10082A002AC39432400E432501121316800653251B
:10083A00FEE4F52AE4FFE523540FFEE4FDFCFB7A0F
:10084A0001F9F8C31209857016E52520E317052872
:10085A00E528C39432400E4325081213C28006537A
:10086A0025F7E4F5281213A2EF70030208FAE4FF51
:10087A00E523540FFEE4FDFCFB7A04F9F8C31209E0
:10088A0085701EE52520E1390527E5277002052632
:10089A00C39488E526941340284325021213B18095
:1008AA0020D3E5279432E5269400400DE527948865
:1008BA00E526941350031213065325FDE4F526F595
:1008CA0027E4FFE523540FFEE4FDFCFB7A02F9F866
:1008DA00C31209857014E52520E2150529E529C307
:1008EA009432400C4325040212C15325FBE4F52936
:0108FA0022DB
:0113C2002208
:101306001213A8BF02047F0180027F021213A522D6
:0313B1000210A582
:1012C100B2D81213A8EF6004E4FF80027F01121369
:0212D100A52254
:101316001213A2BF0106121355020BDA1212F6229D
:10102B0043D90753D8F8D2DAD2D9C2D84393EF4376
:10103B00948075A3FF439C0343B3F8E4F58F9007AB
:10104B000B7408F0A37418F0A3F0A37478F0A374D6
:0F105B00F8F0A3F0A3F0A3F0A3F0A3F0A3F0220A
:0113C3002207
:0B122B00013E00C105013F00013C0036
:10126D00538EFE5389F0858989758CE0758A18C275
:08127D008DC28CD2A9D28C2293
:03000B00020FE8F9
:100FE800C0E0C0F0C083C082C0D075D000C000C0CF
:100FF80001C002C003C004C005C006C007758CE06C
:10100800758A18D2051213C3D007D006D005D004AC
:10101800D003D002D001D000D0D0D082D083D0F07D
:03102800D0E032E3
:10129B0075CF1043913143B10312102BD2AF121201
:0412AB006D02135568
:1012D3000541E541C3940A4006E4F5417540010226
:0212E3000D609C
:0313B400B2DA2288
:100F100012129B120C6175CF10300523C205053EDD
:100F2000053DE53DC394644006E4F53D753B01E5B0
:100F30003ED3940A4006E4F53E12123B12080A1210
:100F400012E5E53BB40106E4F53B1212D3E540B4EB
:0A0F500001C4E4F5401213B480BCA4
:04123600410068000B
:1006ED0075F00290004F1209BCE0FEA3E0FFE51388
:1006FD0075F0029000190209BCE51275F002900028
:10070D00010209BCE51275F0029000310209BC74BA
:10071D00252516F582E43400F58322D3E5149FEEEA
:10072D006480F8E51364809822743D2512F582E407
:10073D003400F58322D3FFED9FEE6480F8EC6480E6
:10074D009822745B2512F582E43400F58322E004CF
:10075D00F0740D2512F582E43400F58322E513754E
:10076D00F00290004F0209BCE4F0FFFEFDFCAB2E41
:10077D00AA2DA92CA82BC3020985FEC3E5159FEE52
:10078D006480F8E51464809822E52E5532FFE52D3E
:10079D005531FEE52C5530FDE52B552FFC22742BE4
:1007AD002512F582E43400F58322E0FEA3E0FF7507
:1007BD00F002227E00900064E0FCA3E0FD1208FB35
:1007CD008EE78FE622A4FFE0C39FE5F06480F87406
:1007DD008098227D0A12090DAD037C000208FBE012
:1007ED00FCA3E0C39F2290004EE0FB3395E0FAEBB3
:0D07FD00AE022290004EE0FF3395E0FE2298
:0C133300EF4E6007EF1F70F81E80F522DF
:020CE1008F1B67
:100CE30012132690006BEFF0AF1B1212AFEFFB90C5
:100CF3000065E025E0FF900064E033FE7C0012070E
:100D0300E0E51B1207081207ECEC9E500990006BFC
:100D1300E06049148036AF1B1212AFEFFB90006402
:100D2300E0FEA3E0FF7C007D071208FB1207E075DD
:100D3300F002E51B12070BE0FCA3E0D39FEC9E40FF
:100D43001B90006BE0FF647E6012EF04FF74432589
:0C0D53001BF582E43400F583EFF0D201C0
:010D5F002271
:100DBF00C203900069E01206FDE5E5F0A3E5E4F05B
:100DCF00900069E004F0E0C39533400BE4F090002D
:100DDF004BE04480F08002D203900069E0FF1212D2
:100DEF00AF1207C0900069E0FF121326E5E25480AE
:100DFF004FF5E2900069E02413F582E43400F583A7
:0A0E0F00E04480F5E8300302D2EE63
:010E190022B6
:100C6100D2AFC201E4900069F090004BF0120FA1E5
:100C7100E4FF1210DBEF2401FDE433FC7E077FD09B
:100C810012090D900064EEF0A3EFF0E4FF1212AF31
:100C91001207C07F021210DBEFC454F0FEC006E45D
:100CA100FF1210DBD0E02FF5E17F031210DBE5E24C
:100CB10054804FF5E27F041210DBEF6008E5E25447
:100CC100804480F5E27F011210DB8FE3120EC443F2
:100CD100A910900013E04480F5E8120E1A0211D811
:0313B700D2EE2251
:10118E00E4FD90004BE0547FF0D2EE90004BE02057
:10119E00E7127FE87E0312133343CF100DEDC39495
:0411AE003240E822C1
:0111B200221A
:100E1A0075082012118EE4F509E509C39533501BB4
:100E2A00E5091206FD1207B7E50912070BEEF0A352
:100E3A00EFF0AF09120CE1050980DEAF081508EFE3
:100E4A0070D11211FC1213758F0812118EE4F50974
:100E5A00E509C395335009AF09120A85050980F0DF
:070E6A00AF081508EF70E36B
:010E7100225E
:1011D800E4FFEFC39533501B75F002EF120700E0F0
:1011E800FCA3E0FD75F002EF12070BECF0A3EDF0A5
:0311F8000F80DF86
:0111FB0022D1
:1011B300E490006AF0F511E511C39533500EAF11B9
:1011C300120A85AF11120100051180EBAF2EAE2D6F
:0411D300AD2CAC2B68
:0111D70022F5
:020100008F125C
:10010200E4F51A75F002EF12070B1207B7E51212A7
:1001120007001207ECF514EC9EF513E47F01FEFDD7
:10012200FCA912A8011209A98F328E318D308C2FB1
:10013200AF1212113D8E188F19C3E5149519E518E7
:1001420012072D40057515018003E4F515E51564C8
:1001520001600302028774252512120720E0C3946E
:10016200FA500A74252512120720E004F0120796AD
:10017200E4FBFAF9F8C3120985600302026A9000EF
:1001820000E0F51712139CEF6028E4F515F516E56B
:1001920016C39533500F12071CE0C39401400205A9
:1001A20015051680EAE515C394034006740F25175A
:1001B200F51774252512120720E0C3951750030284
:1001C200026AE4F51512137DEF7051F516E516C3B8
:1001D2009533501AE5126516601012136B12071C44
:1001E200E0C39F40057515018004051680DF1213D8
:1001F2009CEF7052E515704EF516E516C395335017
:1002020045E5126516601112136B742B2516120741
:10021200AFE0C39F4002802B051680DE12139CEFD5
:100222007024F517F516E516C39533500F12071C07
:10023200E0C3940240020517051680EAE517C3944D
:10024200034003751501E515B40102D200E52E4500
:1002520032FFE52D4531FEE52C4530FDE52B452FDE
:100262008F2E8E2D8D2CF52B120736E4F012074FB0
:10027200E4F0120711E4F0A3F0740D2512F582E404
:10028200340002045DAF12121285120728400812D0
:1002920007ABE004F0800B90006AE004F01207ABB9
:1002A200E4F0120800C3E49FFDE49EFCC3E5149D44
:1002B200EC12072D40661207285061120736E4122D
:1002C200075D12077560030203CA120711E5138561
:1002D20014F012096212134A120711E0FCA3E0C3E0
:1002E2001207454009120706E475F0018021121336
:1002F2004AC3E49FFFE49EFE120711E0FCA3E0C3A1
:1003020012074540030203CA12070674FFF5F012F2
:100312000962120711E4F0A3F00203CA90004EE052
:10032200FFFD3395E0FCC3E49DFDE49CFCC3E514B2
:100332009DEC12072D505A12073612075BE4F01299
:100342000736E0FE75F00A84E5F07037EEC3946478
:10035200400E120736E4F0D20190006104F08023CF
:10036200120706C083C082E0FCA3E0FDEFA2E71300
:10037200FF3395E0FEC3ED9FFFEC9ED082D083F069
:10038200A3EFF0900063E06512703D74FFF002038A
:10039200CA120800120728402F120736120775707A
:1003A2002712075E12075BE0B4201D12075EE4F01D
:1003B20090004EE0A2E713A2E713FF3395E0FE128E
:1003C2000706EE8FF01209621207964D4E4F700328
:1003D200020469E519AE187802CEA2E713CE13D84B
:1003E200F8FFC3E5199FFFE5189EFEC312072950C7
:1003F2006F12074FE004F01213858F17E4F516E52C
:1004020016C39533500F12071CE0C3940140020536
:1004120015051680EAE515C394034006900000E036
:10042200F51712074FE0C39517407A12074FE4F011
:10043200AF32AE31AD30AC2F120978E52E5FFFE559
:100442002D5EFEE52C5DFDE52B5C8F2E8E2D8D2C19
:10045200F52B74252512F582E43400F583E4F022AD
:1004620012074FE014F022742525121207201207FA
:10047200757005AF12120CE1E53314651270269007
:10048200006AE0C39533401DE4F516E516C39533C3
:10049200500D12071CE06003751501051680ECE58E
:0504A200157002C2000C
:0104A7002232
:1011FC00E4FFEFC39533501875F002EF120700E0CF
:10120C00FCA3E0FDEF12076CECF0A3EDF00F80E215
:01121C0022AF
:020A85008F13CD
:100A8700EF1206ED1207ECF515EC9EF514AF1312F5
:100A9700113DAD07AC06D3E5159DEC12078D500B44
:100AA700C3E49DFFE49C120787500B1206FBE0FE90
:100AB700A3E0FF020B2DECA2E713FEED13FFD31209
:100AC7000789500BC3E49FFFE49E12078750271244
:100AD700076AE0FCA3E0FDECC313FEED13FFC3EDD3
:100AE7009FFDEC9EFC1206FBE0C313FEA3E0132D53
:100AF700FFEC3EFE803012076AE0FCA3E0FDAE0487
:100B07007803CEC313CE13D8F9FFC3ED9FFDEC9E38
:100B1700FC1206FBE0FEA3E07803CEC313CE13D886
:100B2700F92DFFEC3EFE12076AEEF0A3EFF0E51396
:080B37001206EDEEF0A3EFF051
:010B3F002293
:0313BA00A201226B
:0313BD00D2012238
:100EC400E4FFEFC39533502B74252F120720E4F071
:100ED400743D2F12073AE4F0745B2F120753E4F0C9
:100EE400EF120713E4F0A3F0742B2F1207AFE4F012
:100EF4000F80CFE4F52EF52DF52CF52B90006374BF
:0B0F0400FFF0E4900066F0A3F0C201D3
:010F0F0022BF
:0205CE008F118B
:1005D000900068E0C394034035E4F0900061E0705F
:1005E00022F512E512C39533501975F002E5121287
:1005F000076F1207B7E51212070BEEF0A3EFF00535
:100600001280E0120EC4C201E4900061F02290005A
:1006100062E004F0E0B511081211FCE4900063F010
:10062000900062E0D3951150030206ECE4F512E568
:1006300012C39533507A75F002E51212076F120754
:10064000B7E5121207001207ECFFEC9EAD07FC9015
:100650000061E070291207F37802C333CE33CED89D
:10066000F91207424040E49BFFE49AFEEF7802C390
:1006700033CE33CED8F9C3120743502A8032120743
:10068000F37803C333CE33CED8F91207424017E4D0
:100690009BFFE49AFEEF7803C333CE33CED8F9FF45
:1006A000C3120744400AAF12120A85051202062F30
:1006B000E512B53306900063E004F0E51175F0082B
:1006C0009000621207D24024E4F0C200900068E07B
:1006D00004F0E51175F0049000631207D2400DE4B8
:0C06E000900068F01211D8120EC4C20184
:0106EC0022EB
:100B5A00020F10E493A3F8E493A34003F68001F292
:100B6A0008DFF48029E493A3F85407240CC8C3339C
:100B7A00C4540F4420C8834004F456800146F6DF6B
:100B8A00E4800B010204081020408090121DE47ECC
:100B9A00019360BCA3FF543F30E509541FFEE49360
:100BAA00A360010ECF54C025E060A840B8E493A327
:100BBA00FAE493A3F8E493A3C8C582C8CAC583CA52
:100BCA00F0A3C8C582C8CAC583CADFE9DEE780BE0A
:01123A0000B3
:1008FB00EF8DF0A4A8F0CF8CF0A428CE8DF0A42E11
:02090B00FE22CA
:10090D00BC000BBE0029EF8DF084FFADF022E4CCCE
:10091D00F875F008EF2FFFEE33FEEC33FCEE9DEC97
:10092D00984005FCEE9DFE0FD5F0E9E4CEFD22EDDD
:10093D00F8F5F0EE8420D21CFEADF075F008EF2F27
:10094D00FFED33FD4007985006D5F0F222C398FD18
:05095D000FD5F0EA22B5
:10096200C5F0F8A3E028F0C5F0F8E5821582700220
:060972001583E038F022BD
:0D097800CFF4CFCEF4CECDF4CDCCF4CC2214
:10098500EB9FF5F0EA9E42F0E99D42F0E89C45F0C8
:01099500223F
:10099600E8600FECC313FCED13FDEE13FEEF13FF3F
:0309A600D8F12263
:1009A900E8600FEFC333FFEE33FEED33FDEC33FCAC
:0309B900D8F12250
:0C09BC00A42582F582E5F03583F5832246
:00000001FF
