:0300000002124C9D
:10124C0078FFE4F6D8FD9000007F807E01E4F0A3E7
:0A125C00DFFCDEFA7581600212A1CA
:101B040000000001000A0005000A0BB800C80064C8
:101B140000020000000000040000FFFFFFFFFFFFC1
:101B24000014011B0408190501BB01440408260420
:101B34000152013F040827050197013304082705D2
:101B4400017501420408270501E50144040827053D
:021B540000ECA3
:0420EE00410061004C
:0B22CD00901B0EE493FE740193FF22AF
:0B22D800901B12E493FE740193FF22A0
:08231E00901B0C740193FF22D7
:03238D007F0122AB
:101F9E00AD07ED75F008A4242CF582E4341BF5830F
:101FAE00E493FEED75F008A4242DF582E4341BF5C0
:0C1FBE0083E4937C002400FFEC3EFE2234
:10220F00EF75F008A42429F582E4341BF583E493D9
:02221F00FF229C
:08232600901B06740193FF22D5
:0D22A70074432FF582E43400F583E0FF223C
:08232E00900000E0C313FF2240
:0A22EE00900000E075F00384FF2269
:1021A700121F9EEF7803C333CE33CED8F9FF7C00DE
:0521B7007D0A1207483B
:0121BC002200
:101C8600E4FBFAF50BF50AF509F508750BE0750A9C
:101C960031F509F508AF0BAE0AAD09AC08780112AB
:101CA600093A8F0B8E0A8D098C0830D71374132AC4
:101CB600F582E43400F583EBF00AEAC39406500497
:061CC6000BBB1FD18A4692
:011CCC0022F5
:101EAA00EF14601214601414601814601A24047079
:101EBA001E901B268008901B278003901B28E49302
:101ECA00FF22E4FF0222A7901B18740193FF227FCE
:021EDA000022E4
:101CCD00901B0A740193900000F0901B24740193F3
:101CDD0090004EF0121C86E4FFEFC395465020EFA6
:101CED0075F008A4242AF582E4341BF583E493FEF1
:101CFD0074432FF582E43400F583EEF00F80DAE4BF
:061D0D0090004CF0A3F071
:011D130022AD
:100CAC00E4F508F50CF50BF50AF509F510F50FF55B
:100CBC000EF50D1223A25003020DBE1220678F0CED
:100CCC008E0B8D0A8C09E4FBEBC395465047AF0C99
:100CDC00AE0BAD0AAC09780112093A8F0C8E0B8D54
:100CEC000A8C0930D72CE47F01FEFDFC74132BF524
:100CFC0082E43400F583E0F9F812094DE5104FF564
:100D0C0010E50F4EF50FE50E4DF50EE50D4CF50DFE
:100D1C0005080B80B3E508C394024015D200E50822
:100D2C00940340051223A58008122326EF6002C20B
:100D3C000020002CE4FFFEFDFCAB10AA0FA90EA8AE
:100D4C000DC3120929601090004DE004F07006905C
:100D5C00004CE004F08020E490004CF0A3F08017ED
:100D6C0090004AE004F07006900049E004F0E4F5CD
:100D7C0010F50FF50EF50D1222CDD390004DE09F1E
:100D8C0090004CE09E400A1223A5E490004CF0A386
:100D9C00F0D390004AE0942C900049E09401401D5F
:100DAC001223A59000617401F0E4900049F0A3F0C7
:100DBC00800B901B14E4740193FF120DD2AF10AE94
:050DCC000FAD0EAC0D9F
:010DD10022FF
:03005B00021DD0B3
:101DD000C0E0C0F0C083C082C0D075D000C000C0D9
:101DE00001C002C003C004C005C006C007121A51DA
:101DF000D007D006D005D004D003D002D001D00047
:0B1E0000D0D0D082D083D0F0D0E032F0
:0420F200021C0000CC
:0123BA002200
:101F40008D0CC2AF75F402850CF5E4F5F38FF275D4
:101F5000F1F075F60A00000000000000000000F536
:101F6000F4D2AF12218FEFB50C037F01227F002244
:10218F00C2AF75F402E51D2FF582E4351CF583E42B
:07219F0093FFE4F5F4D2AF59
:0121A6002216
:03239000AF492230
:101FF600E4F548539AFB439B045391BF43924043F5
:10200600C114C2C2C2C475D3C775D4B09007447494
:0720160080F0A37414F02216
:1020D100D2C49000A1E4F0A37419F0900744E04445
:0D20E10080F0A3E0F0E490009FF0A3F02257
:0D22B4000548E548D394034003E4F54822B3
:03239300AF48222E
:10140400122390EF6401704190009FE0547FFEA38B
:10141400E0FFA3E0FCA3E0FD6F7002EC6E6066D316
:10142400ED9FEC9E40109000A0E004F07016900038
:101434009FE004F0800E9000A0E024FFF090009F55
:10144400E034FFF090009F801BD39000A2E0940052
:101454009000A1E09400401BA3E024FFF09000A1C1
:10146400E034FFF0E04480FFA3E0900744CFF0A312
:10147400EFF022E49000A1F0A3F0900744E0547F41
:06148400F0C2C2C2C42246
:10215D00AF8CEFFEAD8A7C00E42DF54BEC3EF54ADD
:09216D00E4F58CF58A754E01229F
:1012E600E54E700302137CE4F54E854A4C854B4D62
:1012F600E54814602F1460311460332403703212F1
:1013060023A8EF24FE600F14600E14600D14600F06
:101316002404701D800E801180141217DB801212B7
:101326001850800D12167C80081216F180031217D1
:1013360066E547D3941540117547149000A2E00462
:10134600F070069000A1E004F0E547C39413501135
:101356007547149000A2E024FFF09000A1E034FF4E
:10136600F0D39000A2E094C69000A1E0940040065D
:07137600E4F0A374C6F022AD
:10167C00C3E54B943AE54A9400502CC3E54B940ACD
:10168C00E54A9400500F9000A2E02405F09000A1D0
:10169C00E03400F022C3E54B941EE54A940050045C
:1016AC00740A8035054722D3E54B94D2E54A940061
:1016BC00400F9000A2E024FBF09000A1E034FFF07A
:1016CC0022D3E54B943EE54A94004015D3E54B9468
:1016DC005AE54A9400400774F62547F5472215470A
:0516EC002275471422E5
:1016F100C3E54B942AE54A9401502CC3E54B94FA77
:10170100E54A9400500F9000A2E02405F09000A15A
:10171100E03400F022C3E54B940EE54A94015004F5
:10172100740A8035054722D3E54B945EE54A94015E
:10173100400F9000A2E024FBF09000A1E034FFF004
:1017410022D3E54B942EE54A94014015D3E54B9401
:101751004AE54A9401400774F62547F547221547A3
:0517610022754714226F
:10176600C3E54B9406E54A9402502CC3E54B94D648
:10177600E54A9401500F9000A2E02408F09000A1E1
:10178600E03400F022C3E54B94EAE54A94015004A4
:10179600740A8035054722D3E54B943AE54A94020C
:1017A600400F9000A2E024FBF09000A1E034FFF08F
:1017B60022D3E54B940AE54A94024015D3E54B94AF
:1017C60026E54A9402400774F62547F54722154751
:0517D6002275471422FA
:1017DB00C3E54B94C6E54A9400502CC3E54B949655
:1017EB00E54A9400500F9000A2E02405F09000A170
:1017FB00E03400F022C3E54B94AAE54A9400500470
:10180B00740A8035054722D3E54B94FAE54A9400D8
:10181B00400F9000A2E024FBF09000A1E034FFF019
:10182B0022D3E54B94CAE54A94004015D3E54B947B
:10183B00E6E54A9400400774F62547F5472215471D
:05184B00227547142284
:10185000C3E54B948EE54A9401502CC3E54B945E4E
:10186000E54A9401500F9000A2E02405F09000A1F9
:10187000E03400F022C3E54B9472E54A9401500431
:10188000740A8035054722D3E54B94C2E54A94019A
:10189000400F9000A2E024FBF09000A1E034FFF0A4
:1018A00022D3E54B9492E54A94014015D3E54B943D
:1018B000AEE54A9401400774F62547F547221547DF
:0518C00022754714220F
:1022570075490112237D1223961220D1C2DB022376
:012267003640
:10210A00E4F549122399E4FF1223B1122389121D1F
:0C211A0014D2DB12233612137D0222E3E4
:10201D001210D48F548E538D528C517F007EBA7D09
:10202D00DB7C00AB54AA53A952A851C31209294015
:05203D000375550122AE
:10199200122390EF605AE555B4010C0550E550C38F
:1019A20094034003E4F550054FE54FC3940A403BCE
:1019B200E4F54FFF7EBA7DDBFCAB54AA53A952A8D3
:1019C20051120929400CE555700312137D7555011A
:1019D2008019AF54AE53AD52AC51EF2401F554E42B
:1019E2003EF553E43DF552E43CF551AF55122289E0
:0119F20022D2
:10137D00AF54AE53AD52AC518F0B8E0A8D098C0804
:10138D0075CF10E50BFFE4AD077F0F121F40AF0BBC
:10139D00AE0AAD09AC08780812093A8F0B8E0A8D8A
:1013AD00098C0875CF10E50BFFE4AD077F0E121FFA
:1013BD0040AF0BAE0AAD09AC08780812093A8F0B95
:1013CD008E0A8D098C0875CF10E50BFFE4AD077FF4
:1013DD000D121F40AF0BAE0AAD09AC08780812090B
:1013ED003A8F0B8E0A8D098C0875CF10E50BFFE433
:0713FD00AD077F0C021F4049
:1010D400E4F50BF50AF509F50875CF107F0C12211C
:1010E4008FE48F0BF50AF509F508AE0AAD09AC08D3
:1010F400780812094D8F0B8E0A8D098C0875CF1054
:101104007F0D12218FE4FCFDFEE50B2FF50BEE3570
:101114000AF50AED3509F509EC3508F508AF0BAE0B
:101124000AAD09FC780812094D8F0B8E0A8D098CC3
:101134000875CF107F0E12218FE4FCFDFEE50B2F06
:10114400F50BEE350AF50AED3509F509EC3508F528
:1011540008AF0BAE0AAD09FC780812094D8F0B8E4F
:101164000A8D098C0875CF107F0F12218FE4FCFDC6
:10117400FEE50B2FF50BEE350AF50AED3509F509F9
:0C118400EC3508F508AF0BAE0AAD09FC15
:01119000223C
:101E420075CF10E4FD7F0C121F4075CF10E4FD7FAB
:101E52000D121F4075CF10E4FD7F0E121F4075CF8B
:101E620010E4FD7F0F121F40E4F554F553F552F5CF
:041E720051F55522AF
:0623650043C12002239990
:03239600D2C5228B
:03239900C2C52298
:0620F600042300000000BD
:101E760090004BE0FF30E72B547FF0120CAC8F261E
:101E86008E258D248C23E52654E0FFE5255431FE6E
:101E9600E4FDFCFBFAF9F8C31209296003122336A4
:041EA60012239F2242
:06236B005327BF022336D8
:08233600E49000A5F0A3F022E1
:1009A9009000A5E0FEA3E0FFE4FCFD7B607AEAF994
:1009B900F8D31209135005432740800E9000A6E092
:1009C90004F070069000A5E004F0E52654E0FFE588
:1009D900255431FEE4FDFCFB7A01F9F8C31209291B
:1009E9007021E52720E61C20E021052FE52F700264
:1009F900052EC3940AE52E940040104327011221C5
:100A0900BD80085327FEE4F52EF52F122390EF70D1
:100A190003020B75E52654E0FFE5255431FEE4FD9C
:100A2900FC7B80FAF9F8C31209297021E52720E631
:100A39001C20E2390529E52970020528C39488E5B7
:100A490028941340284327041223568020D3E529EC
:100A59009405E5289400400DE5299488E528941328
:100A6900500312234E5327FBE4F528F529E52654B4
:100A7900E0FFE5255431FEE4FDFCFB7A10F9F8C3EB
:100A89001209297021E52720E61C20E4210522E529
:100A99002270020521C3940AE521940040104327DE
:100AA9001012235E80085327EFE4F521F522E5268D
:100AB90054E0FFE5255431FEE4FDFCFB7A20F9F80A
:100AC900C31209297021E52720E61C20E1210531FF
:100AD900E53170020530C3940AE5309400401043B3
:100AE900270212234680085327FDE4F530F531E546
:100AF9002654E0FFE5255431FEE4FDFC7B40FAF97C
:100B0900F8C3120929701EE52720E321052DE52DDB
:100B19007002052CC39488E52C94134010432708D0
:100B290012239C80085327F7E4F52CF52DE526546C
:100B3900E0FFE5255431FEE4FDFC7B20FAF9F8C31A
:100B4900120929701FE52720E61A20E51F052BE564
:100B59002B7002052AC3940AE52A9400400E432704
:0D0B69002002233E5327DFE4F52AF52B225E
:07235E00B2C57F0A022377DC
:0B22E3005327BF1223367F0A02237727
:08233E001222337F0A0223770B
:082346001222217F0A02237715
:03239C000222E337
:0A22F800AF27EFC4131354031322A1
:08234E001222B47F0A0223777A
:08235600121E427F0A022377E8
:1021BD007F0A122377122390BF010612210A021300
:0521CD007D12225722E3
:101D540043D90753D8F8D2DAD2D9C2D84393EF4340
:101D6400948075A3FF439C0343B3F8E4F58F900775
:101D740010E04408F0A3E04408F0A3E04408F0A312
:0F1D8400E04408F0A3E04408F0A3E04408F02294
:10212600122390EF6015122298121B5612192F12C5
:0C2136002268121C3C121F7012160622B8
:0F228900900715E0BF01044410F02254EFF0223B
:101D1400D2D9D2D8D2DA90070BE054F7F0A3E0542A
:101D2400E7F0A3E054E7F0A3E054E7F0A3E054079E
:101D3400F0A3E0540FF0A3E0540FF0A3E0540FF02D
:101D4400A3E0540FF0A3E0540FF0A3E0540FF022EB
:04237D0043938022E4
:101C3C001223158E088F097C007D641207487D07DE
:101C4C001204A8AE08AF097C007D641207487E0020
:101C5C007F0ACFCDCFCECCCE1207487D061204A87A
:101C6C00AE08AF097C007D0A120748AF057D05124E
:091C7C0004A890070CE04410F0EC
:011C8500223C
:101606001223B7EF24FE602114603014603F2403D8
:10161600704D90070CE054F7F0A3E054F7F0A3E008
:1016260054F7F0A3E04408F02290070CE054F7F0DA
:10163600A3E054F7F0A3E04408803490070CE0548C
:10164600F7F0A3E04408F0A3E054F7802290070CDB
:10165600E04408F0A3E054F7F0A3E054F7801090BC
:10166600070CE054F7F0A3E054F7F0A3E054F7F0CA
:06167600A3E054F7F0228E
:101B56001223B4EF24FE60191460232402702C9023
:101B6600070DE054EFF0A3E054EFF0A3E04410F0CB
:101B76002290070DE054EFF0A3E044108018900780
:101B86000DE04410F0A3E054EF800B90070DE054F5
:0D1B9600EFF0A3E054EFF0A3E054EFF022D5
:101F70001223A8EF24FE6011146015146009146088
:101F80000F2404701280108000D2D9C2D8D2DA2275
:0E1F9000D2D9D2D8C2DA22C2D9D2D8D2DA221D
:102268001222F890070BE0400454F7F0224408F0DB
:012278002243
:0F229800900710E030C5044410F02254EFF022FC
:10192F00122393EF14600A146019146028240380A3
:10193F003B900711E054EFF0A3E054EFF0A3E04425
:10194F00108022900711E054EFF0A3E04410F0A3B1
:10195F00E054EF8010900711E04410F0A3E054EF33
:10196F00F0A3E054EFF0A3E054EFF022900711E062
:10197F0054EFF0A3E054EFF0A3E054EFF0A3E044F2
:03198F0010F02233
:1004A800EFB40A0040030207359004B8F82828730F
:1004B8000204D60205070205450205860205BA02AE
:1004C800060302064702068A0206C70206F29007DA
:1004D8000FE0FF7401A805088002C333D8FCFEF4BE
:1004E8005F90070FF0A3E04EF0A3E0FF7401A805AA
:1004F800088002C333D8FCFE4F9007110206E4902F
:10050800070FE0FF7401A805088002C333D8FCFE7A
:10051800F4FC5F90070FF0A3E05CF0A3E05CF0A3AD
:10052800E05CF0A3E04EF0A3E0FF7401A8050880AA
:1005380002C333D8FCFE4F9007140205F890070F4A
:10054800E0FF7401A805088002C333D8FCFE4F9071
:10055800070FF0A3E0FFEEF4FEEF5EF0A3E0FF74F8
:1005680001A805088002C333D8FCFC4F900711F09E
:10057800A3E04CF0A3E05EF0A3E04C020641900734
:100588000FE0FF7401A805088002C333D8FCFE4FB2
:1005980090070FF0A3E0FFEEF4FEEF5EF0A3E05E3D
:1005A800F0A3E0FF7401A805088002C333D8FC0259
:1005B800072390070FE0FF7401A805088002C333E2
:1005C800D8FCFE4F90070FF0A3E04EF0A3E0FFEE3B
:1005D800F4FEEF5EF0A3E05EF0A3E0FF7401A8056F
:1005E800088002C333D8FCFE4F900713F0A3E04EF7
:1005F800F0A3E0FFEEF4FEEF5EF02290070FE0FFBD
:100608007401A805088002C333D8FCFE4F90070F79
:10061800F0A3E04EF0A3E0FFEEF4FEEF5EF0A3E0FF
:10062800FF7401A805088002C333D8FCFC4F90076B
:1006380012F0A3E04CF0A3E05EF0A3E04CF02290AF
:10064800070FE0FF7401A805088002C333D8FCFE39
:100658004F90070FF0A3E04EF0A3E04EF0A3E04E5A
:10066800F0A3E04EF0A3E0FFEEF4FEEF5EF0A3E0AF
:10067800FF7401A805088002C333D8FC4F90071502
:10068800F02290070FE0FF7401A805088002C33329
:10069800D8FCFEF4FC5F90070FF0A3E05CF0A3E049
:1006A8005CF0A3E05CF0A3E04EF0A3E0FF7401A8C7
:1006B80005088002C333D8FCFE4F90071480699068
:1006C800070FE0FF7401A805088002C333D8FCFEB9
:1006D8004F90070FF0A3E04EF0A3E04EF0A3E04EDA
:1006E800F0A3E04EF0A3E04E803E90070FE0FF74C9
:1006F80001A805088002C333D8FCFE4F90070FF00D
:10070800A3E04EF0A3E0FFEEF4FEEF5EF0A3E0FFFF
:100718007401A805088002C333D8FCFE4F90071265
:0E072800F0A3E04EF0A3E04EF0A3E04EF0226E
:0520FC00013500C102E6
:101FCA00438E02438910758BC0758DF9C28ED2ABD0
:101FDA00438E04E4F5C9F5C875CBFA75CA32C2CA8C
:0C1FEA00D2ADD2CA438905C2A9D28C2214
:09230C00758B80758DEED28E22D6
:03000B000223BB12
:0123BB0032EF
:03002B0002158932
:10158900C0E0C0F0C083C082C0D075D000C000C028
:1015990001C002C003C004C005C006C007C2CFE530
:1015A9003BB40404D2DC800FE53BC394644008C219
:1015B900DC753B0012230C053B0536E536C3940A5E
:1015C9004006753401753600053AE53A7002053969
:1015D900C39410E53994274009753900753A00120A
:1015E900215DD007D006D005D004D003D002D001A8
:0D15F900D000D0D0D082D083D0F0D0E0322E
:101EDC0075CF1043913143B103121D541221E7D237
:101EEC00AF121FCA121FF612236512230212148A94
:101EFC0012236B1223BA12201D122385122279028F
:021F0C0022575A
:1021FC001209A9053DE53DC3940A4006E4F53D7579
:03220C003C012270
:10214200121E760533E533C3940A4006E4F533756F
:0B2152003201120B7612140402224529
:1021D2000538E538C3940A4006E4F538753701122C
:0521E200199202212604
:062371001218C50219F369
:101E0B00121EDC75CF10E534B40106E4F534122153
:101E1B00FCE53CB40106E4F53C122142E532B40189
:101E2B0006E4F5321221D2E537B40106E4F5371298
:071E3B0023711212E680CCB6
:03001B00021D9330
:101D9300C0E0C0F0C083C082C0D075D000C000C016
:101DA30001C002C003C004C005C006C007C28E1232
:101DB3002381D007D006D005D004D003D002D001B0
:0D1DC300D000D0D0D082D083D0F0D0E0325C
:0421010041009C00FD
:100EF10075F00290004F12099DE0FEA3E0FFE5139B
:100F010075F00290001902099DE51275F00290003A
:100F11000102099DE51275F00290003102099D74EC
:100F2100252516F582E43400F58322D3E5149FEEDE
:100F31006480F8E51364809822743D2512F582E4FB
:100F41003400F58322D3FFED9FEE6480F8EC6480DA
:100F51009822745B2512F582E43400F58322E004C3
:100F6100F0740D2512F582E43400F58322E5137542
:100F7100F00290004F02099DE4F0FFFEFDFCAB4141
:100F8100AA40A93FA83EC3020929FEC3E5159FEE69
:100F91006480F8E51464809822E5415545FFE540F9
:100FA1005544FEE53F5543FDE53E5542FC22742B79
:100FB1002512F582E43400F58322E0FEA3E0FF75FB
:100FC100F002227E00900098E0FCA3E0FD120736BB
:100FD1008EE78FE622A4FFE0C39FE5F06480F874FA
:100FE1008098227D0A120748AD037C00020736E093
:100FF100FCA3E0C39F2290004EE0FB3395E0FAEBA7
:0D100100AE022290004EE0FF3395E0FE228B
:0C22C100EF4E6007EF1F70F81E80F52242
:02150A008F1B35
:10150C001222A79000A8EFF0AF1B12220FEFFB9056
:10151C000099E025E0FF900098E033FE7C00120F6C
:10152C00E4E51B120F0C120FF0EC9E50099000A872
:10153C00E06049148036AF1B12220FEFFB9000982D
:10154C00E0FEA3E0FF7C007D07120736120FE47566
:10155C00F002E51B120F0FE0FCA3E0D39FEC9E40C2
:10156C001B9000A8E0FF647E6012EF04FF7443251B
:0C157C001BF582E43400F583EFF0D2018F
:011588002240
:101A5100C20390009DE0120F01E5E5F0A3E5E4F07B
:101A610090009DE004F0E0C39546400BE4F0900047
:101A71004BE04480F08002D20390009DE0FF1222EF
:101A81000F120FC490009DE0FF1222A7E5E25480DF
:101A91004FF5E290009DE02413F582E43400F583D4
:0A1AA100E04480F5E8300302D2EEC5
:011AAB002218
:10148A00D2AFC201E490009DF090004BF0121CCD47
:10149A00E4FF121EAAEF2401FDE433FC7E077FD08D
:1014AA00120748900098EEF0A3EFF0E4FF12220F23
:1014BA00120FC47F02121EAAEFC454F0FEC006E443
:1014CA00FF121EAAD0E02FF5E17F03121EAAE5E261
:1014DA0054804FF5E27F04121EAAEF6008E5E25439
:1014EA00804480F5E27F01121EAA8FE3121BF043AB
:1014FA00A910900013E04480F5E8121AAC02208C7F
:03239F00D2EE2259
:10204200E4FD90004BE0547FF0D2EE90004BE02094
:10205200E7127FE87E031222C143CF100DEDC39435
:042062003240E822FE
:012066002257
:101AAC00750820122042E4F509E509C39546501B40
:101ABC00E509120F01120FBBE509120F0FEEF0A38F
:101ACC00EFF0AF0912150A050980DEAF081508EF13
:101ADC0070D11220B012231E8F08122042E4F50997
:101AEC00E509C395465009AF09121191050980F01B
:071AFC00AF081508EF70E3CD
:011B030022BF
:10208C00E4FFEFC39546501B75F002EF120F04E00E
:10209C00FCA3E0FD75F002EF120F0FECF0A3EDF0D6
:0320AC000F80DFC3
:0120AF00220E
:10206700E490009EF0F511E511C39546500EAF11AF
:10207700121191AF11120100051180EBAF41AE4073
:04208700AD3FAC3E7F
:01208B002232
:020100008F125C
:10010200E4F51A75F002EF120F0F120FBBE512128F
:100112000F04120FF0F514EC9EF513E47F01FEFDBF
:10012200FCA912A80112094D8F458E448D438C42C1
:10013200AF12121F9E8E188F19C3E5149519E51878
:10014200120F3140057515018003E4F515E51564BC
:1001520001600302028774252512120F24E0C39462
:10016200FA500A74252512120F24E004F0120F9A95
:10017200E4FBFAF9F8C3120929600302026A90004B
:1001820000E0F51712238DEF6028E4F515F516E56A
:1001920016C39546500F120F20E0C394014002058A
:1001A20015051680EAE515C394034006740F25175A
:1001B200F51774252512120F24E0C3951750030278
:1001C200026AE4F515122326EF7051F516E516C3FF
:1001D2009546501AE512651660101222EE120F2093
:1001E200E0C39F40057515018004051680DF1223C8
:1001F2008DEF7052E515704EF516E516C395465013
:1002020045E512651660111222EE742B2516120FA7
:10021200B3E0C39F4002802B051680DE12238DEFD0
:100222007024F517F516E516C39546500F120F20E8
:10023200E0C3940240020517051680EAE517C3944D
:10024200034003751501E515B40102D200E54145ED
:1002520045FFE5404544FEE53F4543FDE53E454259
:100262008F418E408D3FF53E120F3AE4F0120F534C
:10027200E4F0120F15E4F0A3F0740D2512F582E4F8
:10028200340002045DAF121221A7120F2C40081293
:100292000FAFE004F0800B90009EE004F0120FAF6D
:1002A200E4F0121004C3E49FFDE49EFCC3E5149D38
:1002B200EC120F314066120F2C5061120F3AE41209
:1002C2000F61120F7960030203CA120F15E513853D
:1002D20014F01207D31222D8120F15E0FCA3E0C3C8
:1002E200120F494009120F0AE475F001802112220F
:1002F200D8C3E49FFFE49EFE120F15E0FCA3E0C307
:10030200120F4940030203CA120F0A74FFF5F012DA
:1003120007D3120F15E4F0A3F00203CA90004EE0D7
:10032200FFFD3395E0FCC3E49DFDE49CFCC3E514B2
:100332009DEC120F31505A120F3A120F5FE4F01275
:100342000F3AE0FE75F00A84E5F07037EEC394646C
:10035200400E120F3AE4F0D20190006104F08023C3
:10036200120F0AC083C082E0FCA3E0FDEFA2E713F4
:10037200FF3395E0FEC3ED9FFFEC9ED082D083F069
:10038200A3EFF0900097E06512703D74FFF0020356
:10039200CA121004120F2C402F120F3A120F79704A
:1003A20027120F62120F5FE0B4201D120F62E4F0F9
:1003B20090004EE0A2E713A2E713FF3395E0FE128E
:1003C2000F0AEE8FF01207D3120F9A4D4E4F7003A1
:1003D200020469E519AE187802CEA2E713CE13D84B
:1003E200F8FFC3E5199FFFE5189EFEC3120F2D50BB
:1003F2006F120F53E004F012232E8F17E4F516E567
:1004020016C39546500F120F20E0C3940140020517
:1004120015051680EAE515C394034006900000E036
:10042200F517120F53E0C39517407A120F53E4F0F9
:10043200AF45AE44AD43AC42120906E5415FFFE56C
:10044200405EFEE53F5DFDE53E5C8F418E408D3FA7
:10045200F53E74252512F582E43400F583E4F0229A
:10046200120F53E014F02274252512120F24120FDA
:10047200797005AF1212150AE546146512702690BE
:10048200009EE0C39546401DE4F516E516C3954669
:10049200500D120F20E06003751501051680ECE582
:0504A200157002C2000C
:0104A7002232
:1020B000E4FFEFC39546501875F002EF120F04E0ED
:1020C000FCA3E0FDEF120F70ECF0A3EDF00F80E247
:0120D00022ED
:021191008F13BA
:10119300EF120EF1120FF0F515EC9EF514AF1312CA
:1011A3001F9EAD07AC06D3E5159DEC120F91500BB6
:1011B300C3E49DFFE49C120F8B500B120EFFE0FE65
:1011C300A3E0FF021239ECA2E713FEED13FFD312E3
:1011D3000F8D500BC3E49FFFE49E120F8B50271219
:1011E3000F6EE0FCA3E0FDECC313FEED13FFC3EDB4
:1011F3009FFDEC9EFC120EFFE0C313FEA3E0132D34
:10120300FFEC3EFE8030120F6EE0FCA3E0FDAE0467
:101213007803CEC313CE13D8F9FFC3ED9FFDEC9E25
:10122300FC120EFFE0FEA3E07803CEC313CE13D867
:10123300F92DFFEC3EFE120F6EEEF0A3EFF0E51377
:08124300120EF1EEF0A3EFF032
:01124B002280
:0323A200A2012273
:0323A500D2012240
:101BF000E4FFEFC39546502B74252F120F24E4F019
:101C0000743D2F120F3EE4F0745B2F120F57E4F077
:101C1000EF120F17E4F0A3F0742B2F120FB3E4F0C0
:101C20000F80CFE4F541F540F53FF53E9000977405
:0B1C3000FFF0E490009AF0A3F0C20166
:011C3B002286
:020DD2008F117F
:100DD40090009CE0C394034035E4F0900061E0701F
:100DE40022F512E512C39546501975F002E5121268
:100DF4000F73120FBBE512120F0FEEF0A3EFF00505
:100E04001280E0121BF0C201E4900061F022900015
:100E140096E004F0E0B511081220B0E4900097F0D9
:100E2400900096E0D395115003020EF0E4F512E51C
:100E340012C39546507A75F002E512120F73120F21
:100E4400BBE512120F04120FF0FFEC9EAD07FC90ED
:100E54000061E07029120FF77802C333CE33CED885
:100E6400F9120F464040E49BFFE49AFEEF7802C378
:100E740033CE33CED8F9C3120F47502A8032120F23
:100E8400F77803C333CE33CED8F9120F464017E4B4
:100E94009BFFE49AFEEF7803C333CE33CED8F9FF39
:100EA400C3120F48400AAF121211910512020E33F9
:100EB400E512B54606900097E004F0E51175F008D8
:100EC400900096120FD64024E4F0C20090009CE0FB
:100ED40004F0E51175F004900097120FD6400DE46C
:0C0EE40090009CF012208C121BF0C20148
:010EF00022DF
:04210500410066002F
:1021E70043D9187F0F7E00121F0E90009112096CC1
:0521F7000000000022C1
:09231500900064E0FEA3E0FF2249
:10100E00E4F50BF50AF509F508FBEB25E02469F587
:10101E0082E43400F583E0FEA3E0FFE4FCFDE50B83
:10102E002FF50BE50A3EF50AED3509F509EC350805
:10103E00F5080BBB14D4E4FAF9F8AF0BAE0AAD0900
:10104E00AC08120874900091120960E47F507EC3C0
:10105E00FDFC900091E0F8A3E0F9A3E0FAA3E0FB19
:10106E001207E9E4FB7A10F9F81208748F0F8E0E4E
:10107E008D0D8C0CE47F7C7E15FDFCAB0FAA0EA9AA
:10108E000DA80CD3120929401AE50F947CF50FE533
:10109E000E9415F50EE50D9400F50DE50C9400F586
:1010AE000C8009E4F50FF50EF50DF50CE47B38FA1E
:1010BE00F9F8AF0FAE0EAD0DAC0C120874900062C5
:0510CE00EEF0A3EFF0BD
:0110D30022FA
:100B7600900095E06401703DF0AFAFEF75F010A402
:100B8600FFE5AEC4540F7C002FFFEC35F0FE90005D
:100B960066E025E02469F582E43400F583EEF0A3EF
:100BA600EFF0900066E004F0D39414400812100EA3
:100BB600E4900066F0900067E475F0011207D3FE3A
:100BC600D3E5F094C8EE94005003020CABE4900019
:100BD60067F0A3F0900063E02414FF900062E03415
:100BE60000FED3900065E09F900064E09E401912DD
:100BF6001BA37C007D0A12079DC3900065E09DF053
:100C0600900064E09CF0800D900062E0FFA3E0A3FA
:100C1600CFF0A3EFF0C3900065E094E7900064E0A6
:100C2600940340077403F0A374E7F0900064E07047
:100C360002A3E07017121BA37C007D0512079DED31
:100C46002401FEE43C900064F0A3CEF0900064E042
:100C5600FEA3E0FFD39446EE940050047560012293
:100C6600D3EF9446EE9400400DD3EF9464EE9400D7
:100C7600500475600422D3EF9464EE9400400DD3C3
:100C8600EF9496EE9400500475600222D3EF94968A
:100C9600EE9400400DD3EF94C8EE940050047560B6
:060CA60005227560032227
:0323A800AF602201
:101F0E00EF4480F5ADC3EF9408EE9400500F7401CA
:101F1E00A807088002C333D8FCF5AB8011EF24F874
:101F2E00FF7401A807088002C333D8FCF5AC75A86E
:021F3E0040223F
:0423810043AD402206
:0300330002217631
:10217600C0E0C083C08253ADDF53ADBF90009574FD
:0921860001F0D082D083D0E032D8
:0A23020043D9201223AEE4F55A225D
:1018C500E55A24FE603014605A24027059E55C45DF
:1018D5005B70031223ABE55CB45808E55BB4020307
:1018E5001223AE055CE55C7002055BC394B0E55B55
:1018F500940440358027E55C455B70031223ABE516
:101905005CB40808E55BB407031223AE055CE55C2F
:101915007002055BC39460E55B9409400CE4F55BDC
:0A192500F55C220223AB1223AE2270
:0323AB00D2DD225E
:0323AE00C2DD226B
:10222100055AE55AD394034003E4F55AE4F55BF506
:022231005C222D
:0323B1008F5A221E
:0323B400AF5A22FB
:04238500E4F55D22FC
:1019F300E55D24FE601D14602D14603D2403704DCD
:101A0300055FE55F7002055EC39410E55E940E40CA
:101A13003C8037055FE55F7002055EC39420E55E99
:101A2300941C40298024055FE55F7002055EC39422
:101A330040E55E943840168011055FE55F7002054E
:0E1A43005EC39480E55E9470400312210A2277
:10223300055DE55DD394044003E4F55DE4F55EF5E7
:022243005F2218
:04238900E4F55D22F8
:0323B700AF5D22F5
:10227900539A7F439A08C283439B807F1402237732
:102245009000A7E0D394004006D283E014F022C2A8
:022255008322E2
:062377009000A7EFF02228
:10126600021E0BE493A3F8E493A34003F68001F275
:1012760008DFF48029E493A3F85407240CC8C33389
:10128600C4540F4420C8834004F456800146F6DF58
:10129600E4800B01020408102040809020EEE47EDA
:1012A600019360BCA3FF543F30E509541FFEE4934D
:1012B600A360010ECF54C025E060A840B8E493A314
:1012C600FAE493A3F8E493A3C8C582C8CAC583CA3F
:1012D600F0A3C8C582C8CAC583CADFE9DEE780BEF7
:0121090000D5
:10073600EF8DF0A4A8F0CF8CF0A428CE8DF0A42ED7
:02074600FE2291
:10074800BC000BBE0029EF8DF084FFADF022E4CC95
:10075800F875F008EF2FFFEE33FEEC33FCEE9DEC5E
:10076800984005FCEE9DFE0FD5F0E9E4CEFD22EDA4
:10077800F8F5F0EE8420D21CFEADF075F008EF2FEE
:10078800FFED33FD4007985006D5F0F222C398FDDF
:050798000FD5F0EA227C
:10079D00C2D5EC30E709B2D5E4C39DFDE49CFCEE77
:1007AD0030E715B2D5E4C39FFFE49EFE120748C3A0
:1007BD00E49DFDE49CFC800312074830D507C3E49B
:0607CD009FFFE49EFE22E6
:1007D300C5F0F8A3E028F0C5F0F8E58215827002B1
:0607E3001583E038F0224E
:1007E900E88FF0A4CC8BF0A42CFCE98EF0A42CFCAF
:1007F9008AF0EDA42CFCEA8EF0A4CDA8F08BF0A42D
:100809002DCC3825F0FDE98FF0A42CCD35F0FCEB8B
:100819008EF0A4FEA9F0EB8FF0A4CFC5F02ECD3950
:0F082900FEE43CFCEAA42DCE35F0FDE43CFC22BD
:1008380075F008758200EF2FFFEE33FECD33CDCC77
:1008480033CCC58233C5829BED9AEC99E5829840FA
:100858000CF582EE9BFEED9AFDEC99FC0FD5F0D6D7
:10086800E4CEFBE4CDFAE4CCF9A88222B800C1B901
:100878000059BA002DEC8BF084CFCECDFCE5F0CB3F
:10088800F97818EF2FFFEE33FEED33FDEC33FCEB78
:1008980033FB10D703994004EB99FB0FD8E5E4F933
:1008A800FA227818EF2FFFEE33FEED33FDEC33FC20
:1008B800C933C910D7059BE99A4007EC9BFCE99A14
:1008C800F90FD8E0E4C9FAE4CCFB2275F010EF2F59
:1008D800FFEE33FEED33FDCC33CCC833C810D70759
:1008E8009BEC9AE899400AED9BFDEC9AFCE899F894
:0E08F8000FD5F0DAE4CDFBE4CCFAE4C8F92227
:0D090600CFF4CFCEF4CECDF4CDCCF4CC2286
:10091300EB9FF5F0EA9E42F0E99D42F0EC6480C85B
:0609230064809845F022FB
:10092900EB9FF5F0EA9E42F0E99D42F0E89C45F024
:01093900229B
:10093A00E8600FECC313FCED13FDEE13FEEF13FF9B
:03094A00D8F122BF
:10094D00E8600FEFC333FFEE33FEED33FDEC33FC08
:03095D00D8F122AC
:0C096000ECF0A3EDF0A3EEF0A3EFF0220A
:10096C00A8828583F0D083D0821209831209831266
:10097C000983120983E473E493A3C583C5F0C5838B
:10098C00C8C582C8F0A3C583C5F0C583C8C582C8D5
:01099C002238
:0C099D00A42582F582E5F03583F5832265
:101BA300AC56AD57AE58AF597810EC4D4E4F70044C
:101BB3007CA57DA5C3EC13FCED13FDEE13FEEF1323
:101BC300FF5010EC64CCFCED644CFDEE644EFEEF74
:101BD30064CEFFD8DF8C568D578E588F59EE547FC5
:0D1BE300FE228E568F5774A5F558F5592235
:00000001FF
