:030000000210C526
:1010C50078FFE4F6D8FD9000007F807E01E4F0A370
:0A10D500DFFCDEFA75816902111AD2
:1019700000000001000A0005000A0BB800C800645E
:1019800000020000000000040000FFFFFFFFFFFF57
:101990000014013A04080F05004F013A04080E052F
:1019A0000043013A04080D050046013A04080F05FA
:1019B00000B6013A04080E0500B3013A04080D050B
:0219C0000066BF
:042022004100610018
:0B22890090197AE493FE740193FF2289
:0B22940090197EE493FE740193FF227A
:08230D00901978740193FF227E
:032378007F0122C0
:101DF800AD07ED75F008A42498F582E43419F5834D
:101E0800E493FEED75F008A42499F582E43419F5FD
:0C1E180083E4937C002400FFEC3EFE22DB
:1021BA00EF75F008A42495F582E43419F583E493C5
:0221CA00FF22F2
:08231500901972740193FF227C
:0D223E0074432FF582E43400F583E0FF22A5
:08231D00900000E0C313FF2251
:0A22CB00900000E075F00384FF228C
:10212600121DF8EF7803C333CE33CED8F9FF7C0007
:052136007D0A12071FE5
:01213B002281
:101A5B00E4FBFAF528F527F526F5257528E075271B
:101A6B0031F526F525AF28AE27AD26AC257801122A
:101A7B0008FB8F288E278D268C2530D71374132ABD
:101A8B00F582E43400F583EBF00AEAC394065004C4
:061A9B000BBB1FD18A52B3
:011AA1002222
:101D6400EF14601214601414601814601A240470C0
:101D74001E90199280089019938003901994E4930B
:101D8400FF22E4FF02223E901984740193FF227F14
:021D940000222B
:101AA200901976740193900000F09019907401934C
:101AB20090004EF0121A5BE4FFEFC395525020EFF4
:101AC20075F008A42496F582E43419F583E493FEB4
:101AD20074432FF582E43400F583EEF00F80DAE4EC
:061AE20090004CF0A3F09F
:011AE80022DB
:10096A00E4F521F525F524F523F522F529F528F5F1
:10097A0027F5261223965003020A7C121F398F2567
:10098A008E248D238C22E4FBEBC395525047AF256E
:10099A00AE24AD23AC2278011208FB8F258E248D5C
:1009AA00238C2230D72CE47F01FEFDFC74132BF537
:1009BA0082E43400F583E0F9F812090EE5294FF5CF
:1009CA0029E5284EF528E5274DF527E5264CF52695
:1009DA0005210B80B3E521C394024015D200E5211D
:1009EA00940340051223998008122315EF6002C26E
:1009FA000020002CE4FFFEFDFCAB29AA28A927A8A9
:100A0A0026C31208EA601090004DE004F0700690C8
:100A1A00004CE004F08020E490004CF0A3F0801732
:100A2A0090004AE004F07006900049E004F0E4F512
:100A3A0029F528F527F526122289D390004DE09F43
:100A4A0090004CE09E400A122399E490004CF0A3D7
:100A5A00F0D390004AE0942C900049E09401401DA4
:100A6A001223999000617401F0E4900049F0A3F018
:100A7A00800B901980E4740193FF120BB0AF29AE7A
:050A8A0028AD27AC2699
:010A8F002244
:03005B00021BB0D5
:101BB000C0E0C0F0C083C082C0D075D000C000C0FB
:101BC00001C002C003C004C005C006C0071218113E
:101BD000D007D006D005D004D003D002D001D00069
:0B1BE000D0D0D082D083D0F0D0E03213
:04202600021C000098
:0123AE00220C
:101DC8008D29C2AF75F4028529F5E4F5F38FF27514
:101DD800F1F075F60A00000000000000000000F5B0
:101DE800F4D2AF1220F7EFB529037F01227F00223A
:1020F700C2AF75F402E51D2FF582E4351CF583E4C4
:0721070093FFE4F5F4D2AFF1
:01210E0022AE
:03237B00AF43224B
:101EA300E4F542539AFB439B0443C114C2C2C2C428
:101EB30075D3E875D4B39007447480F0A37414F019
:061EC3001220AC8F442246
:0E22300075CF10AD427F14121DC885424422A6
:1020AC0075CF107F141220F7EF6401600BEF640200
:0820BC006006BF0301227F0052
:0120C40022F9
:10203E00D2C49000A1E4F0A304F0900744E04480E1
:0C204E00F0A3E0F0E490009FF0A3F0226B
:0D224B000542E542D394034003E4F542222E
:03237E00AF422249
:1012700012237BEF6401704190009FE0547FFEA336
:10128000E0FFA3E0FCA3E0FD6F7002EC6E6066D3AC
:10129000ED9FEC9E40109000A0E004F070169000CE
:1012A0009FE004F0800E9000A0E024FFF090009FEB
:1012B000E034FFF090009F801BD39000A2E09400E8
:1012C0009000A1E09400401BA3E024FFF09000A157
:1012D000E034FFF0E04480FFA3E0900744CFF0A3A8
:1012E000EFF022E49000A1F0A3F0900744E0547FD7
:0612F000F0C2C2C2C422DC
:1020C500AF8CEFFEAD8A7C00E42DF546EC3EF54580
:0920D500E4F58CF58A754901223D
:10102A0012237BEF70030210C4E54970030210C457
:10103A00E4F549854547854648E542146029146028
:10104A002B14602D2403702C12239CEF24FE600FB6
:10105A0014600E14600D14600C240470178008804C
:10106A000B800E800780051213FA80081212F68090
:10107A0003121378E541D394164011754114900078
:10108A00A2E004F070069000A1E004F0E541C394E8
:10109A001250117541149000A2E024FFF09000A1B3
:1010AA00E034FFF0D39000A2E094209000A1E094F5
:0B10BA000340077403F0A37420F02231
:1013FA00C3E546945FE5459400502EC3E546943212
:10140A00E54594005002802CC3E5469446E5459490
:10141A00005004740A803FC39000A2E094669000D2
:10142A00A1E09400504A054122D3E54694FAE545E5
:10143A009400400A9000A1E4F0A3745CF022D3E582
:10144A00469466E54594004024D3E5469482E545F2
:10145A009400400774F62541F54122D39000A2E09A
:10146A0094529000A1E0940040061541227541145F
:01147A00224F
:1012F600C3E546942AE5459401502EC3E54694FA83
:10130600E54594005002802CC3E546940EE54594CD
:10131600015004740A8040C39000A2E094C5900076
:10132600A1E09401504B054122D3E54694C2E54520
:101336009401400B9000A17401F0A374BBF022D37A
:10134600E546942EE54594014024D3E546944AE5C6
:10135600459401400774F62541F54122D39000A239
:10136600E094B19000A1E094014006154122754138
:0213760014223F
:10137800C3E5469406E5459402502EC3E54694D647
:10138800E54594015002802CC3E54694EAE545946E
:10139800015004740A8040C39000A2E094B5900004
:1013A800A1E09402504B054122D3E546949EE545C1
:1013B8009402400B9000A17402F0A374ABF022D306
:1013C800E546940AE54594024024D3E5469426E58B
:1013D800459402400774F62541F54122D39000A2B6
:1013E800E094A19000A1E0940240061541227541C5
:0213F8001422BD
:0F2212009000A2E004F070069000A1E004F0221A
:0F2221009000A2E024FFF09000A1E034FFF02233
:1015FA00C3E54694C6E5459400502CC3E546949647
:10160A00E5459400500F9000A2E02414F09000A148
:10161A00E03400F022C3E54694AAE545940050045C
:10162A00740A8035054122D3E54694FAE5459400CB
:10163A00400F9000A2E024ECF09000A1E034FFF00B
:10164A0022D3E54694CAE54594004015D3E546946D
:10165A00E6E5459400400774F62541F54122154117
:05166A0022754114226D
:10166F00C3E546948EE5459401502CC3E546945E40
:10167F00E5459401500F9000A2E02414F09000A1D2
:10168F00E03400F022C3E5469472E545940150041E
:10169F00740A8035054122D3E54694C2E54594018D
:1016AF00400F9000A2E024ECF09000A1E034FFF096
:1016BF0022D3E5469492E54594014015D3E546942F
:1016CF00AEE5459401400774F62541F541221541D9
:0516DF002275411422F8
:10210F007543011223AF12238112203EC2DB12222C
:07211F009F85444202225893
:10205A00E4F543122384E4FF1223A5122374121A0F
:0C206A00E9D2DB12229F1211E90222AA27
:101EEF00120EB28F588E578D568C557F007EBA7D4D
:101EFF00DB7C00AB58AA57A956A855C31208EA4075
:051F0F000375590122D9
:1017520012237BEF605AE559B4010C0554E554C3DA
:1017620094034003E4F5540553E553C3940A403B04
:10177200E4F553FF7EBA7DDBFCAB58AA57A956A805
:10178200551208EA400CE55970031211E975590126
:101792008019AF58AE57AD56AC55EF2401F558E459
:1017A2003EF557E43DF556E43CF555AF591222E9B2
:0117B2002214
:1011E900AF58AE57AD56AC558F288E278D268C2516
:1011F90075CF10E528FFE4AD077F0F121DC8AF2892
:10120900AE27AD26AC2578081208FB8F288E278DCE
:10121900268C2575CF10E528FFE4AD077F0E121D3A
:10122900C8AF28AE27AD26AC2578081208FB8F2851
:101239008E278D268C2575CF10E528FFE4AD077F15
:101249000D121DC8AF28AE27AD26AC2578081208A7
:10125900FB8F288E278D268C2575CF10E528FFE476
:07126900AD077F0C021DC858
:100EB200E4F528F527F526F52575CF107F0C1220CD
:100EC200F7E48F28F527F526F525AE27AD26AC25C4
:100ED200780812090E8F288E278D268C2575CF1043
:100EE2007F0D1220F7E4FCFDFEE5282FF528EE35F4
:100EF20027F527ED3526F526EC3525F525AF28AE65
:100F020027AD26FC780812090E8F288E278D268C95
:100F12002575CF107F0E1220F7E4FCFDFEE5282F89
:100F2200F528EE3527F527ED3526F526EC3525F59E
:100F320025AF28AE27AD26FC780812090E8F288E21
:100F4200278D268C2575CF107F0F1220F7E4FCFD2C
:100F5200FEE5282FF528EE3527F527ED3526F5266F
:0C0F6200EC3525F525AF28AE27AD26FCA8
:010F6E002260
:101CC90075CF10E4FD7F0C121DC875CF10E4FD7FA0
:101CD9000D121DC875CF10E4FD7F0E121DC875CFFA
:101CE90010E4FD7F0F121DC8E4F558F557F556F5B8
:041CF90055F5592222
:0623540043C120022384B6
:03238100C2C522B0
:03238400D2C5229D
:06202A00040A00000000A2
:101CFD0090004BE0FF30E72B547FF012096A8F0DF7
:101D0D008E0C8D0B8C0AE50D54E0FFE50C5431FE65
:101D1D00E4FDFCFBFAF9F8C31208EA600312229FF6
:041D2D0012239322C8
:06235A00530EBF02229F9A
:0B229F009000A512092D000000002295
:1004A8007F207EBF7D027C009000A5E0F8A3E0F9E4
:1004B800A3E0FAA3E0FBC31208EA4005430E40801C
:1004C8001F9000A5E0FCA3E0FDA3E0FEA3E024014B
:1004D800FFE43EFEE43DFDE43CFC9000A51209214A
:1004E800E50D54E0FFE50C5431FEE4FDFCFB7A0118
:1004F800F9F8C31208EA7026E51B20E021E50E2072
:10050800E61C20E0520518E51870020517C3948808
:10051800E51794134041430E0112233D8039E50D40
:1005280054E0FFE50C5431FEE4FDFC7B807A01F9D0
:10053800F8C31208EA6018D3E5189432E517940056
:10054800400DE5189488E517941350031221685359
:100558000EFEE4F517F51812237BEF700302070C63
:10056800E50D54E0FFE50C5431FEE4FDFC7B807A98
:1005780001F9F8C31208EA7024E50E20E61F20E707
:100588003E0514E51470020513C39432E513940074
:10059800402D430E80431B011222B58022E50D54E5
:1005A80080FFE50C5401FEE4FDFCFBFAF9F8C312E8
:1005B80008EA7003531BFE530E7FE4F513F514E5A8
:1005C8000D54E0FFE50C5431FEE4FDFC7B80FAF9A4
:1005D800F8C31208EA7026E51B20E021E50E20E6A4
:1005E8001C20E2210510E5107002050FC39432E5C6
:1005F8000F94004010430E041223358008530EFB5D
:10060800E4F50FF510E50D54E0FFE50C5431FEE478
:10061800FDFCFB7A10F9F8C31208EA7021E50E20F8
:10062800E61C20E4210509E50970020508C3943297
:10063800E50894004010430E1012234D8008530E15
:10064800EFE4F508F509E50D54E0FFE50C5431FE3B
:10065800E4FDFCFB7A20F9F8C31208EA7021E50EE4
:1006680020E61C20E121051AE51A70020519C39439
:1006780032E51994004010430E0212232D800853CE
:100688000EFDE4F519F51AE50D54E0FFE50C5431BB
:10069800FEE4FDFC7B40FAF9F8C31208EA701EE597
:1006A8000E20E3210516E51670020515C39488E5AA
:1006B8001594134010430E081223878008530EF731
:1006C800E4F515F516E50D54E0FFE50C5431FEE4AC
:1006D800FDFC7B20FAF9F8C31208EA701FE50E202A
:1006E800E61A20E51F0512E51270020511C39432BF
:1006F800E5119400400E430E20022325530EDFE43B
:05070800F511F51222BD
:07234D00B2C57F0A022366FE
:0B22AA00530EBF12229F7F0A02236622
:082325001221DE7F0A0223668B
:08232D001221CC7F0A02236695
:0B22B50012224B1222307F0A02236627
:032387000222AA85
:0A22D500AF0EEFC413135401FF22F3
:0823350012224B7F0A0223660D
:08233D00121CC97F0A0223668D
:102168007F0A12236612237BBF010612205A02112E
:05217800E912210F2215
:101FE60043D90743A17FD2A6D2A5C2A443B1F843E1
:0E1FF600C1C3439A624391C0121F5E021AE9F2
:1020760012237BEF60151222F2121E7B121C9312A2
:0C208600226512191C121E50121C5C2254
:101FC70012237BEF7018055CE55CC394C84003E4FB
:0F1FD700F55CE55BC3955C4003C2B322D2B32235
:101EC90012237BEF701FE55AB40104055B800215EC
:101ED9005BE55BC394C84003E4F55AE55BD394140E
:061EE9005003755A0122AE
:0922E900BF0103C2DA22D2DA229D
:101AE900D2A5D2A4D2A6D281D2D9D2D8D286D28531
:101AF900D2C0D2DAD296D297D2A0D2A1D2A2D2A300
:101B0900D2B6D2C6D2C7D2B5D2B4D2C1D2B7D2B365
:101B1900E4FD7F6E122092E4FD7F6C122092E4FDB9
:051B29007F6A0220921A
:101B2E00C2A5C2A4C2A6C281C2D9C2D8C286C2856B
:101B3E00C2DAC296C2A1C2A2C2A3C2B6C2C6C2C7EE
:101B4E00C2B5C2C1C2C0C2B4C2B7C2B3C297C2A0EC
:101B5E007DFF7F6E1220927DFF7F6C1220927DFFA3
:051B6E007F6A022092D5
:0D225800C2C0C2B4C2B7C2B3C297C2A022B6
:0123AF00220B
:10191C001223048E218F227C007D6412071F121863
:10192C006CAD077F6E122092AE21AF227C007D64DD
:10193C0012071F7E007F0ACFCDCFCECCCE12071F51
:10194C0012186CAD077F6C122092AE21AF227C0076
:10195C007D0A12071FAF0512186CAD077F6A1220A3
:03196C0092C281A3
:01196F002255
:101C5C001223ABEF24FE600E1460111460172403E2
:101C6C00701CC2D9801AD2D9C2D88016D2D9D2D877
:101C7C00C286D28522D2D9D2D8D286C28522D2D9D6
:071C8C00D2D8D286D28522D6
:101E7B001223A8EF24FE600B14600F24027012C211
:101E8B00A18010D2A1C2A2D2A322D2A1D2A2C2A35C
:081E9B0022D2A1D2A2D2A3229F
:101E500012239CEF24FE601114601214600424030A
:101E60008012C2A5C2A4D2A622C2A58002D2A5D247
:0B1E7000A4C2A622C2A5D2A4D2A622C2
:0C2265001222D5EF7003D2C122C2C122A8
:0922F20020C503C29622D29622F7
:101C930012237EEF14600E14601114601724037076
:101CA3001CC2B5801AD2B5C2B68016D2B5D2B6C29E
:101CB300C6D2C722D2B5D2B6D2C6C2C722D2B5D2F5
:061CC300B6D2C6D2C72212
:10186C00EFB40A00504D901879F828287302189795
:10187C0002189B02189F0218A30218A70218AB02A9
:10188C0018AF0218B30218B70218BB7ED780267E99
:10189C001480227ECD801E7E5D801A7E1E80167E78
:1018AC005B80127EDB800E7E15800A7EDF80067EDA
:0718BC005F8002E4FEAF06AD
:0118C3002202
:101F5E00439A0143A180E4FFFE75CF100FBF00012D
:101F6E000EBE1FF5BF40F212234A12238D7D057F50
:041F7E004802209263
:102092008F258D2612213CAF25121C24121D31AF33
:0A20A20026121C24121D31022152E7
:0B22C000EF700453A17F2243A1802295
:0B227100E4FEEEC39F5004000E80F757
:01227C00223F
:101D31007F05122271D280122271C280E4FF122229
:101D4100C030A7130527E527C394F040F4E4F52735
:101D5100B2C57F011222C07F011222C0C2807F055D
:031D6100022271EA
:101C24008F28122345E4F527E5285480D3940040F7
:101C34000A12238D7F05122271800312239012232E
:101C44008A122345E52825E0F5280527E527C394CE
:081C54000840D57F0502227152
:10213C0012238D12238A7F051222711223901223EF
:06214C00457F050222712F
:1021520012239012238A7F0512227112238D1223D9
:06216200457F0502227119
:03238A00D28022DC
:052345007F051222716A
:03234A00C280222C
:03238D00D2A722B2
:03239000C2A722BF
:05203000013800C102AF
:101E2400438E02438910758BC0758DF9C28ED2AB77
:101E3400438E04E4F5C9F5C875CBFA75CA32C2CA33
:0C1E4400D2ADD2CA438905C2A9D28C22BB
:0922FB00758B80758DEED28E22E8
:03000B000223B01D
:0123B00032FA
:03002B0002147B41
:10147B00C0E0C0F0C083C082C0D075D000C000C037
:10148B0001C002C003C004C005C006C007C2CFE53F
:10149B003EB40404D2DC800FE53EC394644008C222
:1014AB00DC753E001222FB053E0539E539C3940A73
:1014BB004006753701753900053DE53D7002053C69
:1014CB00C39410E53C94274009753C00753D001210
:1014DB0020C5121FC7D007D006D005D004D003D02B
:1014EB0002D001D000D0D0D082D083D0F0D0E03267
:1016E40075CF1043913143B103121FE6122192D2F8
:1016F400AF121E24121EA31223541222DF1214FB53
:1017040012235A1223AE121EEF1223701222021257
:101714001B2EE4F524F523F522F5217F807E387D08
:10172400017C00AB24AA23A922A821C31208EA50F1
:101734001A75CF10E5242401F524E43523F523E4B8
:0E1744003522F522E43521F52180D002205A0D
:1021A7001204A80540E540C3940A4006E4F54075CB
:0321B7003F0122C3
:10200400121CFD0536E536C3940A4006E4F5367520
:0E2014003501120A901212701221F0021EC93C
:10217D00053BE53BC3940A4006E4F53B753A011275
:05218D0017520220764C
:0623600012115F0217B329
:101BEB001216E475CF10E537B40106E4F537122170
:101BFB00A7E53FB40106E4F53F122004E535B40137
:101C0B0006E4F53512217DE53AB40106E4F53A1206
:091C1B00236012102AB28080CA75
:03001B00021B7352
:101B7300C0E0C0F0C083C082C0D075D000C000C038
:101B830001C002C003C004C005C006C007C28E1254
:101B9300236CD007D006D005D004D003D002D001E7
:0D1BA300D000D0D0D082D083D0F0D0E0327E
:0420350041009C00CA
:100CCF0075F00290004F12095EE0FEA3E0FFE52CE5
:100CDF0075F00290001902095EE52B75F002900085
:100CEF000102095EE52B75F00290003102095E7476
:100CFF0025252FF582E43400F58322D3E52D9FEED1
:100D0F006480F8E52C64809822743D252BF582E4ED
:100D1F003400F58322D3FFED9FEE6480F8EC6480FE
:100D2F009822745B252BF582E43400F58322E004CE
:100D3F00F0740D252BF582E43400F58322E52C7534
:100D4F00F00290004F02095EE4F0FFFEFDFCAB4D98
:100D5F00AA4CA94BA84AC30208EAFEC3E52E9FEE90
:100D6F006480F8E52D64809822E54D5551FFE54CE0
:100D7F005550FEE54B554FFDE54A554EFC22742B61
:100D8F00252BF582E43400F58322E0FEA3E0FF7506
:100D9F00F002227E00900098E0FCA3E0FD12070D08
:100DAF008EE78FE622A4FFE0C39FE5F06480F8741E
:100DBF008098227D0A12071FAD037C0002070DE009
:100DCF00FCA3E0C39F2290004EE0FB3395E0FAEBCB
:0D0DDF00AE022290004EE0FF3395E0FE22B0
:0C227D00EF4E6007EF1F70F81E80F52286
:02157B008F34AB
:10157D0012223E9000AAEFF0AF341221BAEFFB9089
:10158D000099E025E0FF900098E033FE7C00120DFD
:10159D00C2E534120CEA120DCEEC9E50099000AA51
:1015AD00E06049148036AF341221BAEFFB900098F9
:1015BD00E0FEA3E0FF7C007D0712070D120DC27542
:1015CD00F002E534120CEDE0FCA3E0D39FEC9E405D
:1015DD001B9000AAE0FF647E6012EF04FF744325A8
:0C15ED0034F582E43400F583EFF0D20105
:0115F90022CF
:10181100C20390009DE0120CDFE5E5F0A3E5E4F0E2
:1018210090009DE004F0E0C39552400BE4F090007D
:101831004BE04480F08002D20390009DE0FF122132
:10184100BA120DA290009DE0FF12223EE5E2548003
:101851004FF5E290009DE02413F582E43400F58316
:0A186100E04480F5E8300302D2EE07
:01186B00225A
:1014FB00D2AFC201E490009DF090004BF0121AA203
:10150B00E4FF121D64EF2401FDE433FC7E077FD062
:10151B0012071F900098EEF0A3EFF0E4FF1221BA30
:10152B00120DA27F02121D64EFC454F0FEC006E43C
:10153B00FF121D64D0E02FF5E17F03121D64E5E27D
:10154B0054804FF5E27F04121D64EF6008E5E2540E
:10155B00804480F5E27F01121D648FE3121A0F4362
:10156B00A910900013E04480F5E81218C4021F8202
:03239300D2EE2265
:101F1400E4FD90004BE0547FF0D2EE90004BE020C3
:101F2400E7127FE87E0312227D43CF100DEDC394A8
:041F34003240E8222D
:011F38002286
:1018C400752520121F14E4F526E526C39552501BF6
:1018D400E526120CDF120D99E526120CEDEEF0A3AD
:1018E400EFF0AF2612157B052680DEAF251525EF18
:1018F40070D1121FA612230D8F25121F14E4F52692
:10190400E526C395525009AF26120F6F052680F0C5
:07191400AF251525EF70E37C
:01191B0022A9
:101F8200E4FFEFC39552501B75F002EF120CE2E032
:101F9200FCA3E0FD75F002EF120CEDECF0A3EDF006
:031FA2000F80DFCE
:011FA5002219
:101F3900E490009EF0F52AE52AC39552500EAF2A87
:101F4900120F6FAF2A120100052A80EBAF4DAE4C7C
:041F5900AD4BAC4A96
:011F5D002261
:020100008F2B43
:10010200E4F53375F002EF120CED120D99E52B12A6
:100112000CE2120DCEF52DEC9EF52CE47F01FEFDD6
:10012200FCA92BA80112090E8F518E508D4F8C4EB7
:10013200AF2B121DF88E318F32C3E52D9532E5318A
:10014200120D0F4005752E018003E4F52EE52E6495
:100152000160030202877425252B120D02E0C3946D
:10016200FA500A7425252B120D02E004F0120D78C4
:10017200E4FBFAF9F8C31208EA600302026A90008B
:1001820000E0F530122378EF6028E4F52EF52FE534
:100192002FC39552500F120CFEE0C394014002058A
:1001A2002E052F80EAE52EC394034006740F2530F6
:1001B200F5307425252B120D02E0C3953050030251
:1001C200026AE4F52E122315EF7051F52FE52FC3C5
:1001D2009552501AE52B652F60101222CB120CFE9D
:1001E200E0C39F4005752E018004052F80DF122396
:1001F20078EF7052E52E704EF52FE52FC3955250D1
:1002020045E52B652F60111222CB742B252F120D81
:1002120091E0C39F4002802B052F80DE122378EFEE
:100222007024F530F52FE52FC39552500F120CFEB6
:10023200E0C3940240020530052F80EAE530C39402
:10024200034003752E01E52EB40102D200E54D45AF
:1002520051FFE54C4550FEE54B454FFDE54A454E05
:100262008F4D8E4C8D4BF54A120D18E4F0120D3164
:10027200E4F0120CF3E4F0A3F0740D252BF582E404
:10028200340002045DAF2B122126120D0A4008121F
:100292000D8DE004F0800B90009EE004F0120D8DB5
:1002A200E4F0120DE2C3E49FFDE49EFCC3E52D9D44
:1002B200EC120D0F4066120D0A5061120D18E41275
:1002C2000D3F120D5760030203CA120CF3E52C8591
:1002D2002DF01207AA122294120CF3E0FCA3E0C341
:1002E200120D274009120CE8E475F0018021122258
:1002F20094C3E49FFFE49EFE120CF3E0FCA3E0C370
:10030200120D2740030203CA120CE874FFF5F01223
:1003120007AA120CF3E4F0A3F00203CA90004EE025
:10032200FFFD3395E0FCC3E49DFDE49CFCC3E52D99
:100332009DEC120D0F505A120D18120D3DE4F012E1
:100342000D18E0FE75F00A84E5F07037EEC3946490
:10035200400E120D18E4F0D20190006104F08023E7
:10036200120CE8C083C082E0FCA3E0FDEFA2E71319
:10037200FF3395E0FEC3ED9FFFEC9ED082D083F069
:10038200A3EFF0900097E0652B703D74FFF002033D
:10039200CA120DE2120D0A402F120D18120D5770DB
:1003A20027120D40120D3DE0B4201D120D40E4F065
:1003B20090004EE0A2E713A2E713FF3395E0FE128E
:1003C2000CE8EE8FF01207AA120D784D4E4F700313
:1003D200020469E532AE317802CEA2E713CE13D819
:1003E200F8FFC3E5329FFFE5319EFEC3120D0B50AD
:1003F2006F120D31E004F012231D8F30E4F52FE56A
:100402002FC39552500F120CFEE0C3940140020517
:100412002E052F80EAE52EC394034006900000E0EB
:10042200F530120D31E0C39530407A120D31E4F00F
:10043200AF51AE50AD4FAC4E1208DDE54D5FFFE55A
:100442004C5EFEE54B5DFDE54A5C8F4D8E4C8D4B5F
:10045200F54A7425252BF582E43400F583E4F02275
:10046200120D31E014F0227425252B120D02120D0B
:10047200577005AF2B12157BE55214652B70269031
:10048200009EE0C39552401DE4F52FE52FC395521F
:10049200500D120CFEE06003752E01052F80ECE575
:0504A2002E7002C200F3
:0104A7002232
:101FA600E4FFEFC39552501875F002EF120CE2E011
:101FB600FCA3E0FDEF120D4EECF0A3EDF00F80E276
:011FC60022F8
:020F6F008F2CC5
:100F7100EF120CCF120DCEF52EEC9EF52DAF2C12EB
:100F81001DF8AD07AC06D3E52E9DEC120D6F500B8D
:100F9100C3E49DFFE49C120D69500B120CDDE0FED1
:100FA100A3E0FF021017ECA2E713FEED13FFD3122B
:100FB1000D6B500BC3E49FFFE49E120D6950271285
:100FC1000D4CE0FCA3E0FDECC313FEED13FFC3EDFC
:100FD1009FFDEC9EFC120CDDE0C313FEA3E0132D7C
:100FE100FFEC3EFE8030120D4CE0FCA3E0FDAE04B0
:100FF1007803CEC313CE13D8F9FFC3ED9FFDEC9E4A
:10100100FC120CDDE0FEA3E07803CEC313CE13D8AF
:10101100F92DFFEC3EFE120D4CEEF0A3EFF0E52CA6
:08102100120CCFEEF0A3EFF07A
:0110290022A4
:03239600A201227F
:03239900D201224C
:101A0F00E4FFEFC39552502B74252F120D02E4F013
:101A1F00743D2F120D1CE4F0745B2F120D35E4F0A2
:101A2F00EF120CF5E4F0A3F0742B2F120D91E4F0EC
:101A3F000F80CFE4F54DF54CF54BF54A90009774B8
:0B1A4F00FFF0E490009AF0A3F0C20149
:011A5A002269
:020BB0008F2A8A
:100BB20090009CE0C394034035E4F0900061E07043
:100BC20022F52BE52BC39552501975F002E52B1235
:100BD2000D51120D99E52B120CEDEEF0A3EFF0057D
:100BE2002B80E0121A0FC201E4900061F022900003
:100BF20096E004F0E0B52A08121FA6E4900097F0F0
:100C0200900096E0D3952A5003020CCEE4F52BE532
:100C12002BC39552507A75F002E52B120D51120D2D
:100C220099E52B120CE2120DCEFFEC9EAD07FC9063
:100C32000061E07029120DD57802C333CE33CED8CD
:100C4200F9120D244040E49BFFE49AFEEF7802C3C0
:100C520033CE33CED8F9C3120D25502A8032120D6D
:100C6200D57803C333CE33CED8F9120D244017E41E
:100C72009BFFE49AFEEF7803C333CE33CED8F9FF5D
:100C8200C3120D26400AAF2B120F6F052B020C1157
:100C9200E52BB55206900097E004F0E52A75F008BE
:100CA200900096120DB44024E4F0C20090009CE043
:100CB20004F0E52A75F004900097120DB4400DE49B
:0C0CC20090009CF0121F82121A0FC20159
:010CCE002203
:0420390041006600FC
:1021920043D9187F0F7E00121D9690009112092DCF
:0521A200000000002216
:09230400900064E0FEA3E0FF225A
:100DEC00E4F524F523F522F521FBEB25E02469F548
:100DFC0082E43400F583E0FEA3E0FFE4FCFDE5248F
:100E0C002FF524E5233EF523ED3522F522EC352193
:100E1C00F5210BBB14D4E4FAF9F8AF24AE23AD22C0
:100E2C00AC2112084B900091120921E47F507EC333
:100E3C00FDFC900091E0F8A3E0F9A3E0FAA3E0FB3D
:100E4C001207C0E4FB7A10F9F812084B8F288E2792
:100E5C008D268C25E47FD87E0EFDFCAB28AA27A915
:100E6C0026A825D31208EA401AE52894D8F528E5D7
:100E7C0027940EF527E5269400F526E5259400F534
:100E8C00258009E4F528F527F526F525E47B38FAC5
:100E9C00F9F8AF28AE27AD26AC2512084B900062AE
:050EAC00EEF0A3EFF0E1
:010EB100221E
:100A9000900095E06401703DF0AFAFEF75F010A4E9
:100AA000FFE5AEC4540F7C002FFFEC35F0FE900044
:100AB00066E025E02469F582E43400F583EEF0A3D6
:100AC000EFF0900066E004F0D394144008120DECAF
:100AD000E4900066F0900067E475F0011207AAFE4A
:100AE000D3E5F094C8EE94005003020BAFE49000FD
:100AF00067F0A3F0900063E02414FF900062E034FC
:100B000000FED3900065E09F900064E09E401912C3
:100B100019C27C007D0A120774C3900065E09DF045
:100B2000900064E09CF0800D900062E0FFA3E0A3E1
:100B3000CFF0A3EFF0C3900065E094E7900064E08D
:100B4000940340077403F0A374E7F0900064E0702E
:100B500002A3E070171219C27C007D05120774ED24
:100B60002401FEE43C900064F0A3CEF0900064E029
:100B7000FEA3E0FFD39464EE940050047569012253
:100B8000D3EF9464EE9400400DD3EF94C8EE94003C
:100B9000500475690422D3EF94C8EE9400400DD33D
:100BA000EF942CEE940150047569022275690322BA
:03239C00AF692204
:101D9600EF4480F5ADC3EF9408EE9400500F740144
:101DA600A807088002C333D8FCF5AB8011EF24F8EE
:101DB600FF7401A807088002C333D8FCF5AC75A8E8
:021DC6004022B9
:04236C0043AD40221B
:030033000220DECA
:1020DE00C0E0C083C08253ADDF53ADBF9000957496
:0920EE0001F0D082D083D0E03271
:0A22DF0043D9201223A2E4F5632284
:10115F00E56324FE602E14605224027079E5654524
:10116F0064700312239FE565643C4564700312238A
:10117F00A20565E56570020564C3940CE5649403EC
:10118F004057804CE5654564700312239FE5656405
:10119F003C456470031223A20565E5657002056482
:1011AF00C3941CE564940240308025E56545647066
:1011BF000312239FE565643C456470031223A20567
:1011CF0065E56570020564C3942CE56494014009DC
:0A11DF00E4F564F565221223A22254
:03239F00D2DD226A
:0323A200C2DD2277
:1021CC000563E563D394034003E4F563E4F564F538
:0221DC0065227A
:0323A5008F632221
:0323A800AF6322FE
:04237000E4F5662208
:1017B300E56624FE601D14602D14603D2403704D06
:1017C3000568E56870020567C39410E567940E40E9
:1017D3003C80370568E56870020567C39420E567B8
:1017E300941C402980240568E56870020567C3944A
:1017F30040E5679438401680110568E56870020576
:0E18030067C39480E5679470400312205A2258
:1021DE000566E566D394044003E4F566E4F567F519
:0221EE00682265
:04237400E4F5662204
:0323AB00AF6622F8
:10220200539A7F439A08C283439B807F14022366BA
:1021F0009000A9E0D394004006D283E014F022C2FC
:02220000832237
:062366009000A9EFF02237
:1010DF00021BEBE493A3F8E493A34003F68001F221
:1010EF0008DFF48029E493A3F85407240CC8C33312
:1010FF00C4540F4420C8834004F456800146F6DFE1
:10110F00E4800B0102040810204080902022E47E2E
:10111F00019360BCA3FF543F30E509541FFEE493D5
:10112F00A360010ECF54C025E060A840B8E493A39C
:10113F00FAE493A3F8E493A3C8C582C8CAC583CAC7
:10114F00F0A3C8C582C8CAC583CADFE9DEE780BE7F
:01203D0000A2
:10070D00EF8DF0A4A8F0CF8CF0A428CE8DF0A42E00
:02071D00FE22BA
:10071F00BC000BBE0029EF8DF084FFADF022E4CCBE
:10072F00F875F008EF2FFFEE33FEEC33FCEE9DEC87
:10073F00984005FCEE9DFE0FD5F0E9E4CEFD22EDCD
:10074F00F8F5F0EE8420D21CFEADF075F008EF2F17
:10075F00FFED33FD4007985006D5F0F222C398FD08
:05076F000FD5F0EA22A5
:10077400C2D5EC30E709B2D5E4C39DFDE49CFCEEA0
:1007840030E715B2D5E4C39FFFE49EFE12071FC3F2
:10079400E49DFDE49CFC800312071F30D507C3E4ED
:0607A4009FFFE49EFE220F
:1007AA00C5F0F8A3E028F0C5F0F8E58215827002DA
:0607BA001583E038F02277
:1007C000E88FF0A4CC8BF0A42CFCE98EF0A42CFCD8
:1007D0008AF0EDA42CFCEA8EF0A4CDA8F08BF0A456
:1007E0002DCC3825F0FDE98FF0A42CCD35F0FCEBB5
:1007F0008EF0A4FEA9F0EB8FF0A4CFC5F02ECD397A
:0F080000FEE43CFCEAA42DCE35F0FDE43CFC22E6
:10080F0075F008758200EF2FFFEE33FECD33CDCCA0
:10081F0033CCC58233C5829BED9AEC99E582984023
:10082F000CF582EE9BFEED9AFDEC99FC0FD5F0D600
:10083F00E4CEFBE4CDFAE4CCF9A88222B800C1B92A
:10084F000059BA002DEC8BF084CFCECDFCE5F0CB68
:10085F00F97818EF2FFFEE33FEED33FDEC33FCEBA1
:10086F0033FB10D703994004EB99FB0FD8E5E4F95C
:10087F00FA227818EF2FFFEE33FEED33FDEC33FC49
:10088F00C933C910D7059BE99A4007EC9BFCE99A3D
:10089F00F90FD8E0E4C9FAE4CCFB2275F010EF2F82
:1008AF00FFEE33FEED33FDCC33CCC833C810D70782
:1008BF009BEC9AE899400AED9BFDEC9AFCE899F8BD
:0E08CF000FD5F0DAE4CDFBE4CCFAE4C8F92250
:0D08DD00CFF4CFCEF4CECDF4CDCCF4CC22B0
:1008EA00EB9FF5F0EA9E42F0E99D42F0E89C45F064
:0108FA0022DB
:1008FB00E8600FECC313FCED13FDEE13FEEF13FFDB
:03090B00D8F122FE
:10090E00E8600FEFC333FFEE33FEED33FDEC33FC47
:03091E00D8F122EB
:0C092100ECF0A3EDF0A3EEF0A3EFF02249
:10092D00A8828583F0D083D0821209441209441223
:10093D000944120944E473E493A3C583C5F0C58348
:10094D00C8C582C8F0A3C583C5F0C583C8C582C814
:01095D002277
:0C095E00A42582F582E5F03583F58322A4
:1019C200AC5FAD60AE61AF627810EC4D4E4F70040B
:1019D2007CA57DA5C3EC13FCED13FDEE13FEEF1306
:1019E200FF5010EC64CCFCED644CFDEE644EFEEF57
:1019F20064CEFFD8DF8C5F8D608E618F62EE547F84
:0D1A0200FE228E5F8F6074A5F561F56222F3
:00000001FF
