:030000000212BF2A
:1012BF0078FFE4F6D8FD9000007F807E01E4F0A374
:0A12CF00DFFCDEFA758175021314CE
:101A8A0000000001000A0005000A0BB800C8006443
:101A9A0000020000000000040000FFFFFFFFFFFF3C
:101AAA000014013A04080F05004F013A04080E0514
:101ABA000043013A04080D050046013A04080F05DF
:101ACA0000B6013A04080E0500B3013A04080D08ED
:021ADA000066A4
:04221F004100610019
:0B248000901A94E493FE740193FF2275
:0B248B00901A98E493FE740193FF2266
:08250500901A92740193FF2269
:03256A007F0122CC
:101F3B00AD07ED75F008A424B2F582E4341AF583ED
:101F4B00E493FEED75F008A424B3F582E4341AF59E
:0C1F5B0083E4937C002400FFEC3EFE2297
:1023A400EF75F008A424AFF582E4341AF583E493BE
:0223B400FF2206
:08250D00901A8C740193FF2267
:0D24290074432FF582E43400F583E0FF22B8
:08251500900000E0C313FF2257
:0A24CD00900000E075F00384FF2288
:10232500121F3BEF7803C333CE33CED8F9FF7C00C1
:052335007D0A1208EB17
:01233A002280
:101B7500E4FBFAF50FF50EF50DF50C750FE0750E96
:101B850031F50DF50CAF0FAE0EAD0DAC0C780112A5
:101B95000AC78F0F8E0E8D0D8C0C30D71374132A38
:101BA500F582E43400F583EBF00AEAC394065004A9
:061BB5000BBB1FD18A5C8E
:011BBB002207
:101E4900EF14601214601414601814601A240470DA
:101E59001E901AAC8008901AAD8003901AAEE493D4
:101E6900FF22E4FF022429901A9E740193FF227F26
:021E7900002245
:101BBC00901A90740193900000F0901AAA740193FB
:101BCC0090004EF0121B75E4FFEFC3955C5020EFB4
:101BDC0075F008A424B0F582E4341AF583E493FE7E
:101BEC0074432FF582E43400F583EEF00F80DAE4D1
:061BFC0090004CF0A3F084
:011C020022BF
:100C8400E4F508F50CF50BF50AF509F510F50FF583
:100C94000EF50D12258B5003020D961220F48F0CC5
:100CA4008E0B8D0A8C09E4FBEBC3955C5047AF0CAB
:100CB400AE0BAD0AAC097801120AC78F0C8E0B8DEE
:100CC4000A8C0930D72CE47F01FEFDFC74132BF54C
:100CD40082E43400F583E0F9F8120ADAE5104FF5FE
:100CE40010E50F4EF50FE50E4DF50EE50D4CF50D27
:100CF40005080B80B3E508C394024015D200E5084B
:100D04009403400512258E800812250DEF6002C25F
:100D14000020002CE4FFFEFDFCAB10AA0FA90EA8D6
:100D24000DC3120AB6601090004DE004F0700690F6
:100D3400004CE004F08020E490004CF0A3F0801715
:100D440090004AE004F07006900049E004F0E4F5F5
:100D540010F50FF50EF50D122480D390004DE09F91
:100D640090004CE09E400A12258EE490004CF0A3C3
:100D7400F0D390004AE0942C900049E09401401D87
:100D840012258E9000617401F0E4900049F0A3F004
:100D9400800B901A9AE4740193FF120DAAAF10AE5F
:050DA4000FAD0EAC0DC7
:010DA9002227
:03005B00021CCABA
:101CCA00C0E0C0F0C083C082C0D075D000C000C0E0
:101CDA0001C002C003C004C005C006C00712192B08
:101CEA00D007D006D005D004D003D002D001D0004E
:0B1CFA00D0D0D082D083D0F0D0E032F8
:04222300021C000099
:0125A3002215
:101EDE008D10C2AF75F4028510F5E4F5F38FF2752F
:101EEE00F1F075F60A00000000000000000000F599
:101EFE00F4D2AF12230DEFB510037F01227F002223
:10230D00C2AF75F402E51D2FF582E4351CF583E4AB
:07231D0093FFE4F5F4D2AFD9
:012324002296
:06254C007F1512230D2291
:101FBE0012254CBFAA0F7D557F15121EDE12254C21
:101FCE00BF5514800D7DAA7F15121EDE12254CBF43
:081FDE00AA057F0A1225582212
:03256D00AF4D224D
:10205E00E4F54C539AFB439B0443C114C2C2C2C461
:10206E0075D3E875D4B39007447480F0A37414F05C
:06207E001222A98F4E2280
:0E240D0075CF10AD4C7F14121EDE854C4E2292
:1022A90075CF107F1412230DEF6401600BEF6402E8
:0822B9006006BF0301227F0053
:0122C10022FA
:10223B00D2C49000A2E4F0A304F0900744E04480E1
:0C224B00F0A3E0F0E49000A0F0A3F0226B
:0D243600054CE54CD394034003E4F54C2223
:03257000AF4C224B
:10146A0012256DEF640170419000A0E0547FFEA345
:10147A00E0FFA3E0FCA3E0FD6F7002EC6E6066D3B0
:10148A00ED9FEC9E40109000A1E004F070169000D1
:10149A00A0E004F0800E9000A1E024FFF09000A0EC
:1014AA00E034FFF09000A0801BD39000A3E09400EA
:1014BA009000A2E09400401BA3E024FFF09000A259
:1014CA00E034FFF0E04480FFA3E0900744CFF0A3AC
:1014DA00EFF022E49000A2F0A3F0900744E0547FDA
:0614EA00F0C2C2C2C422E0
:1022C200AF8CEFFEAD8A7C00E42DF550EC3EF54F6D
:0922D200E4F58CF58A7553012234
:1012240012256DEF70030212BEE55370030212BE65
:10123400E4F553854F51855052E54C1460291460F0
:101244002B14602D2403702C122591EF24FE600FC3
:1012540014600E14600D14600C2404701780088050
:101264000B800E800780051215F480081214F0809C
:1012740003121572E54BD394164011754B1490006C
:10128400A3E004F070069000A2E004F0E54BC394E0
:10129400125011754B149000A3E024FFF09000A2AB
:1012A400E034FFF0D39000A3E094209000A2E094F7
:0B12B4000340077403F0A37420F02235
:1015F400C3E550945FE54F9400502EC3E5509432F8
:10160400E54F94005002802CC3E5509446E54F9476
:10161400005004740A803FC39000A3E094669000D5
:10162400A2E09400504A054B22D3E55094FAE54FCA
:101634009400400A9000A2E4F0A3745CF022D3E585
:10164400509466E54F94004024D3E5509482E54FCE
:101654009400400774F6254BF54B22D39000A3E089
:1016640094529000A2E094004006154B22754B144E
:011674002253
:1014F000C3E550942AE54F9401502EC3E55094FA69
:10150000E54F94005002802CC3E550940EE54F94B3
:10151000015004740A8040C39000A3E094C5900079
:10152000A2E09401504B054B22D3E55094C2E54F05
:101530009401400B9000A27401F0A374BBF022D37D
:10154000E550942EE54F94014024D3E550944AE5AC
:101550004F9401400774F6254BF54B22D39000A31E
:10156000E094B19000A2E094014006154B22754B27
:02157000142243
:10157200C3E5509406E54F9402502EC3E55094D62D
:10158200E54F94015002802CC3E55094EAE54F9454
:10159200015004740A8040C39000A3E094B5900007
:1015A200A2E09402504B054B22D3E550949EE54FA6
:1015B2009402400B9000A27402F0A374ABF022D309
:1015C200E550940AE54F94024024D3E5509426E571
:1015D2004F9402400774F6254BF54B22D39000A39B
:1015E200E094A19000A2E094024006154B22754BB4
:0215F2001422C1
:101FE600754D011225A4122573BFAA051225798005
:101FF600031225761222F412259A12223BC2DB1214
:082006002496854E4C02244390
:10225700E4F54D122579E4FF12259A122566121C22
:0C22670003D2DB1224961213E30224A120
:1020AA001210AC8F628E618D608C5F7F007EBA7D6C
:1020BA00DB7C00AB62AA61A960A85FC3120AB640C2
:0520CA00037563012213
:10186C0012256DEF605AE563B4010C055EE55EC3AD
:10187C0094034003E4F55E055DE55DC3940A403BCB
:10188C00E4F55DFF7EBA7DDBFCAB62AA61A960A8C2
:10189C005F120AB6400CE56370031213E375630123
:1018AC008019AF62AE61AD60AC5FEF2401F562E40C
:1018BC003EF561E43DF560E43CF55FAF631224E175
:0118CC0022F9
:1013E300AF62AE61AD60AC5F8F0F8E0E8D0D8C0C56
:1013F30075CF10E50FFFE4AD077F0F121EDEAF0FB1
:10140300AE0EAD0DAC0C7808120AC78F0F8E0E8D81
:101413000D8C0C75CF10E50FFFE4AD077F0E121E88
:10142300DEAF0FAE0EAD0DAC0C7808120AC78F0FEE
:101433008E0E8D0D8C0C75CF10E50FFFE4AD077F7D
:101443000D121EDEAF0FAE0EAD0DAC0C7808120AF6
:10145300C78F0F8E0E8D0D8C0C75CF10E50FFFE42B
:07146300AD077F0C021EDE45
:1010AC00E4F50FF50EF50DF50C75CF107F0C122332
:1010BC000DE48F0FF50EF50DF50CAE0EAD0DAC0C61
:1010CC007808120ADA8F0F8E0E8D0D8C0C75CF10DE
:1010DC007F0D12230DE4FCFDFEE50F2FF50FEE3511
:1010EC000EF50EED350DF50DEC350CF50CAF0FAE18
:1010FC000EAD0DFC7808120ADA8F0F8E0E8D0D8C4A
:10110C000C75CF107F0E12230DE4FCFDFEE50F2FA6
:10111C00F50FEE350EF50EED350DF50DEC350CF538
:10112C000CAF0FAE0EAD0DFC7808120ADA8F0F8ED5
:10113C000E8D0D8C0C75CF107F0F12230DE4FCFD62
:10114C00FEE50F2FF50FEE350EF50EED350DF50D09
:0C115C00EC350CF50CAF0FAE0EAD0DFC29
:011168002264
:101DE10075CF10E4FD7F0C121EDE75CF10E4FD7F70
:101DF1000D121EDE75CF10E4FD7F0E121EDE75CFB3
:101E010010E4FD7F0F121EDEE4F562F561F560F569
:041E11005FF56322F4
:03257300AF742220
:10200E0075CF10122573BFAA047D5580027DAA7F5D
:10201E0018121EDE7F1812230D8F74122573BFAA9D
:08202E00030225791225762238
:1023EC0043C12012257975CF107F1812230D8F74DD
:0123FC0022BE
:03257600C2C522B9
:03257900D2C522A6
:062227000423000000008A
:101E150090004BE0FF30E72B547FF0120C848F26A7
:101E25008E258D248C23E52654E0FFE5255431FECF
:101E3500E4FDFCFBFAF9F8C3120AB6600312249616
:041E450012258822B8
:101F0E00532BBF122496532BFE532BFD532BFB53F7
:101F1E002BF7532BBF532BEF532BDF532B7F533CFE
:0D1F2E00FE533CFD533CFBE4F529F52A224F
:0B2496009000A6120AF90000000022CE
:100100007F207EBF7D027C009000A6E0F8A3E0F98E
:10011000A3E0FAA3E0FBC3120AB64005432B4080DC
:100120002512256DBF011F9000A6E0FCA3E0FDA3F2
:10013000E0FEA3E02401FFE43EFEE43DFDE43CFCE0
:100140009000A6120AEDE52654E0FFE5255431FEA5
:10015000E4FDFCFB7A01F9F8C3120AB6702CE53C09
:1001600020E02720E72420E521E52B20E61C20E0E5
:10017000500539E53970020538C39488E538941381
:10018000403F432B011225358037E52654E0FFE53B
:10019000255431FEE4FDFCFBFAF9F8C3120AB670EF
:1001A00018D3E5399432E5389400400DE539948848
:1001B000E53894135003122367532BFEE4F538F50A
:1001C00039C3E52A9420E529944E5008052AE52AEA
:1001D0007002052912256DEF6003020267E52654BF
:1001E000E0FFE5255431FEE4FDFC7B807A20F9F840
:1001F000C3120AB6701EE53C20E3210535E53570D3
:10020000020534C39488E53494134010433C08122B
:100210001FBE8008E4F534F535533CF7E52654E07D
:10022000FFE5255431FEE4FDFC7BA0FAF9F8C3128A
:100230000AB66003020530C3E52A9420E529944EEE
:100240004003020530E53C30E203020530052FE5AE
:100250002F7002052EC39498E52E943A50030205A0
:1002600030433C04022119E52654E0FFE5255431D2
:10027000FEE4FDFC7B807A01F9F8C3120AB6702413
:10028000E52B20E61F20E73E0533E53370020532FB
:10029000C39432E5329400402D432B80433C01123D
:1002A00024AC8022E5265480FFE5255401FEE4FDC0
:1002B000FCFBFAF9F8C3120AB67003533CFE532B49
:1002C0007FE4F532F533E52654E0FFE5255431FEB1
:1002D000E4FDFC7B80FAF9F8C3120AB67026E53C0F
:1002E00020E021E52B20E61C20E233052DE52D70D2
:1002F00002052CC39432E52C94004022432B0412B7
:10030000252D801AE5265480FFE4FEFDFCFBFAF95A
:10031000F8C3120AB67007532BFBF52CF52DE52612
:1003200054E0FFE5255431FEE4FDFCFB7A11F9F8B9
:10033000C3120AB6702BE52B20E626E53C20E640EA
:100340000528E52870020527C39432E5279400406C
:100350002F433C40433C8012200E7F0A12255880D8
:100360001FE4FFE5255411FEE4FDFCFBFAF9F8C398
:10037000120AB67003533C7F533CBFE4F527F528BF
:10038000E52654E0FFE5255431FEE4FDFCFB7A1040
:10039000F9F8C3120AB67026E53C20E721E52B20C8
:1003A000E61C20E4340522E52270020521C39432C4
:1003B000E52194004023432B10122545801BE4FFC8
:1003C000E5255410FEE4FDFCFBFAF9F8C3120AB669
:1003D0007007532BEFF521F522E52654E0FFE525C4
:1003E0005431FEE4FDFCFB7A21F9F8C3120AB67021
:1003F00026E52B20E621E53C20E43B053EE53E706A
:1004000002053DC39432E53D9400402A433C10432D
:100410003C201224B7801FE4FFE5255421FEE4FDB3
:10042000FCFBFAF9F8C3120AB67003533CDF533CE5
:10043000EFE4F53DF53EE52654E0FFE5255431FEB9
:10044000E4FDFCFB7A20F9F8C3120AB67026E53CFD
:1004500020E521E52B20E61C20E134053BE53B703F
:1004600002053AC39432E53A94004023432B02122A
:100470002525801BE4FFE5255420FEE4FDFCFBFA66
:10048000F9F8C3120AB67007532BFDF53AF53BE5B0
:100490002654E0FFE5255431FEE4FDFC7B40FAF9EB
:1004A000F8C3120AB6701EE52B20E3330537E53793
:1004B00070020536C394B8E536940B4022432B08EE
:1004C00012257C801AE5265440FFE4FEFDFCFBFA71
:1004D000F9F8C3120AB67007532BF7F536F537E56E
:1004E0002654E0FFE5255431FEE4FDFC7B20FAF9BB
:1004F000F8C3120AB6701FE52B20E61A20E5310575
:1005000031E53170020530C39432E530940040206B
:10051000432B2002251DE5265420FFE4FEFDFCFBB5
:10052000FAF9F8C3120AB67007532BDFF530F5312C
:0105300022A8
:07254500B2C57F0A02255810
:0B24A100532BBF1224967F0A0225581F
:08251D001223C87F0A022558B1
:082525001223B67F0A022558BB
:0B24AC0012243612240D7F0A0225586E
:0B24B7001223B612241B7F0A022558D6
:03257C000224A195
:0A24D700AF2BEFC413135401FF22D2
:08252D001224367F0A02255832
:08253500121DE17F0A02255886
:102367007F0A12255812256DBF0106122257021344
:05237700E3121FE62245
:1021C50043D90743A17FD2A6D2A5D2A443B1F843F0
:0E21D500C1C3439A624391C0121C0302213D14
:1022730012256DEF60151224EA122036121DAB12DF
:0C2283002450121A36121F93121D3D2227
:102119007F01121986AD077F6E12228FE4FF121913
:1021290086AD077F6C12228F7F01121986AD077F5A
:042139006A02228F85
:1021A60012256DEF70180566E566C394C84003E412
:0F21B600F566E565C395664003C2B322D2B32236
:1020840012256DEF701FE564B40104056580021527
:1020940065E565C394C84003E4F564E565D3941429
:0620A400500375640122E7
:0924E100BF0103C2DA22D2DA22A3
:101C0300D2A5D2A4D2A6D281D2D9D2D8D286D28515
:101C1300D2C0D2DAD296D297D2A0D2A1D2A2D2A3E4
:101C2300D2B6D2C6D2C7D2B5D2B4D2C1D2B7D2B34A
:101C3300E4FD7F6E12228FE4FD7F6C12228FE4FDA0
:051C43007F6A02228F00
:101C4800C2A5C2A4C2A6C281C2D9C2D8C286C28550
:101C5800C2DAC296C2A1C2A2C2A3C2B6C2C6C2C7D3
:101C6800C2B5C2C1C2C0C2B4C2B7C2B3C297C2A0D1
:101C78007DFF7F6E12228F7DFF7F6C12228F7DFF8A
:051C88007F6A02228FBB
:0D244300C2C0C2B4C2B7C2B3C297C2A022C9
:0125A4002214
:101A36001224FC8E088F097C007D641208EB1219B3
:101A460086AD077F6E12228FAE08AF097C007D64DB
:101A56001208EB7E007F0ACFCDCFCECCCE1208EB9C
:101A6600121986AD077F6C12228FAE08AF097C0073
:101A76007D0A1208EBAF05121986AD077F6A12229E
:031A86008FC2818B
:011A8900223A
:101D3D001225A0EF24FE600E146011146017240309
:101D4D00701CC2D9801AD2D9C2D88016D2D9D2D895
:101D5D00C286D28522D2D9D2D8D286C28522D2D9F4
:071D6D00D2D8D286D28522F4
:1020360012259DEF24FE600B14600F24027012C25D
:10204600A18010D2A1C2A2D2A322D2A1D2A2C2A39F
:0820560022D2A1D2A2D2A322E2
:101F9300122591EF24FE60111460121460042403CF
:101FA3008012C2A5C2A4D2A622C2A58002D2A5D203
:0B1FB300A4C2A622C2A5D2A4D2A6227E
:0C2450001224D7EF7003D2C122C2C122B7
:0924EA0020C503C29622D29622FD
:101DAB00122570EF14600E14601114601724037069
:101DBB001CC2B5801AD2B5C2B68016D2B5D2B6C285
:101DCB00C6D2C722D2B5D2B6D2C6C2C722D2B5D2DC
:061DDB00B6D2C6D2C722F9
:10198600EFB40A00504D901993F82828730219B144
:101996000219B50219B90219BD0219C10219C50207
:1019A60019C90219CD0219D10219D57ED780267E12
:1019B6001480227ECD801E7E5D801A7E1E80167E5D
:1019C6005B80127EDB800E7E15800A7EDF80067EBF
:0719D6005F8002E4FEAF0692
:0119DD0022E7
:10213D00439A0143A180E4FFFE75CF100FBF00014C
:10214D000EBE1FF5BF40F21225421225827D057F7E
:04215D004802228F83
:10228F008F0C8D0D12233BAF0C121D05121EADAF1F
:0A229F000D121D05121EAD022351A1
:0B24C200EF700453A17F2243A1802291
:0B245C00E4FEEEC39F5004000E80F76A
:012467002252
:101EAD007F0512245CD28012245CC280E4FF1224D0
:101EBD00C230A711050EE50EC394F040F4E4F50E03
:101ECD007F011224C27F011224C2C2807F05022429
:011EDD005CA8
:101D05008F0F12253DE4F50EE50F5480D394004066
:101D15000A1225827F0512245C800312258512256F
:101D25007F12253DE50F25E0F50F050EE50EC39461
:081D35000840D57F0502245C83
:10233B0012258212257F7F0512245C12258512251A
:06234B003D7F0502245C49
:1023510012258512257F7F0512245C122582122504
:062361003D7F0502245C33
:03257F00D28022E5
:05253D007F0512245C83
:03254200C2802232
:03258200D2A722BB
:03258500C2A722C8
:05222D00014200C102A6
:101F6700438E02438910758BC0758DF9C28ED2AB33
:101F7700438E04E4F5C9F5C875CBFA75CA32C2CAEF
:0C1F8700D2ADD2CA438905C2A9D28C2277
:0924F300758B80758DEED28E22EE
:03000B000225A526
:0125A5003203
:03002B0002167545
:10167500C0E0C0F0C083C082C0D075D000C000C03B
:1016850001C002C003C004C005C006C007C2CFE543
:1016950048B40404D2DC800FE548C394644008C212
:1016A500DC7548001224F305480543E543C3940A55
:1016B50040067541017543000547E547700205463B
:1016C500C39410E5469427400975460075470012F6
:1016D50022C21221A6D007D006D005D004D003D04F
:1016E50002D001D000D0D0D082D083D0F0D0E0326B
:1017F40075CF1043913143B1031221C5122201D296
:10180400AF121F6712205E1223EC1224741216F515
:10181400121F0E1225A31220AA1225621223FD12F2
:101824001C48E4F50BF50AF509F5087F807E387D40
:10183400017C00AB0BAA0AA909A808C3120AB65076
:101844001A75CF10E50B2401F50BE4350AF50AE40B
:101854003509F509E43508F50880D012254CBFAAEE
:0718640003021FE6122257E8
:01186B00225A
:10239100120100054AE54AC3940A4006E4F54A756C
:0323A100490122CD
:1021E300121E150540E540C3940A4006E4F5407508
:0E21F3003F01120B3612146A1223DA02208406
:10237C000545E545C3940A4006E4F545754401124C
:05238C00186C02227331
:062552001213590218CD1E
:101D74001217F475CF10E541B40106E4F5411223BE
:101D840091E549B40106E4F5491221E3E53FB401C4
:101D940006E4F53F12237CE544B40106E4F544125D
:071DA400255212122480CC2D
:03001B00021C8D37
:101C8D00C0E0C0F0C083C082C0D075D000C000C01D
:101C9D0001C002C003C004C005C006C007C28E1239
:101CAD00255ED007D006D005D004D003D002D001D8
:0D1CBD00D000D0D0D082D083D0F0D0E03263
:0422320041009D00CA
:100EC90075F00290004F120B2AE0FEA3E0FFE51334
:100ED90075F002900019020B2AE51275F0029000D4
:100EE90001020B2AE51275F002900031020B2A74F7
:100EF900252516F582E43400F58322D3E5149FEE07
:100F09006480F8E51364809822743D2512F582E423
:100F19003400F58322D3FFED9FEE6480F8EC648002
:100F29009822745B2512F582E43400F58322E004EB
:100F3900F0740D2512F582E43400F58322E513756A
:100F4900F00290004F020B2AE4F0FFFEFDFCAB57C4
:100F5900AA56A955A854C3020AB6FEC3E5159FEEC1
:100F69006480F8E51464809822E557555BFFE556DF
:100F7900555AFEE5555559FDE5545558FC22742B33
:100F89002512F582E43400F58322E0FEA3E0FF7523
:100F9900F002227E00900099E0FCA3E0FD1208D93E
:100FA9008EE78FE622A4FFE0C39FE5F06480F87422
:100FB9008098227D0A1208EBAD037C000208D9E073
:100FC900FCA3E0C39F2290004EE0FB3395E0FAEBCF
:0D0FD900AE022290004EE0FF3395E0FE22B4
:0C246800EF4E6007EF1F70F81E80F52299
:021775008F1BC8
:101777001224299000ABEFF0AF1B1223A4EFFB90CC
:10178700009AE025E0FF900099E033FE7C00120FFD
:10179700BCE51B120EE4120FC8EC9E50099000AB7B
:1017A700E06049148036AF1B1223A4EFFB90009929
:1017B700E0FEA3E0FF7C007D071208D9120FBC757D
:1017C700F002E51B120EE7E0FCA3E0D39FEC9E407E
:1017D7001B9000ABE0FF647E6012EF04FF744325AB
:0C17E7001BF582E43400F583EFF0D20122
:0117F30022D3
:10192B00C20390009EE0120ED9E5E5F0A3E5E4F0CA
:10193B0090009EE004F0E0C3955C400BE4F0900057
:10194B004BE04480F08002D20390009EE0FF122314
:10195B00A4120F9C90009EE0FF122429E5E2548014
:10196B004FF5E290009EE02413F582E43400F583FA
:0A197B00E04480F5E8300302D2EEEC
:01198500223F
:1016F500D2AFC201E490009EF090004BF0121BBCEB
:10170500E4FF121E49EF2401FDE433FC7E077FD080
:101715001208EB900099EEF0A3EFF0E4FF1223A47A
:10172500120F9C7F02121E49EFC454F0FEC006E45E
:10173500FF121E49D0E02FF5E17F03121E49E5E2B5
:1017450054804FF5E27F04121E49EF6008E5E2542C
:10175500804480F5E27F01121E498FE3121B294365
:10176500A910900013E04480F5E81219DE0221610A
:03258800D2EE226E
:1020CF00E4FD90004BE0547FF0D2EE90004BE02007
:1020DF00E7127FE87E0312246843CF100DEDC394FF
:0420EF003240E82271
:0120F30022CA
:1019DE00750C201220CFE4F50DE50DC3955C501B60
:1019EE00E50D120ED9120F93E50D120EE7EEF0A3D0
:1019FE00EFF0AF0D121775050D80DEAF0C150CEF65
:101A0E0070D11221851225058F0C1220CFE4F50D11
:101A1E00E50DC3955C5009AF0D121169050D80F0EF
:071A2E00AF0C150CEF70E393
:011A3500228E
:10216100E4FFEFC3955C501B75F002EF120EDCE04B
:10217100FCA3E0FD75F002EF120EE7ECF0A3EDF029
:032181000F80DFED
:012184002238
:1020F400E490009FF0F511E511C3955C500EAF110B
:10210400121169AF11120531051180EBAF57AE56AC
:04211400AD55AC54C5
:0121180022A4
:020531008F1227
:10053300E4F51A75F002EF120EE7120F93E51212AB
:100543000EDC120FC8F514EC9EF513E47F01FEFDDB
:10055300FCA912A801120ADA8F5B8E5A8D598C58A6
:10056300AF12121F3B8E188F19C3E5149519E518A6
:10057300120F0940057515018003E4F515E51564AF
:100583000160030206B874252512120EFCE0C39421
:10059300FA500A74252512120EFCE004F0120F72B1
:1005A300E4FBFAF9F8C3120AB6600302069B900053
:1005B30000E0F51712256AEF6028E4F515F516E556
:1005C30016C3955C500F120EF8E0C3940140020568
:1005D30015051680EAE515C394034006740F251725
:1005E300F51774252512120EFCE0C395175003026C
:1005F300069BE4F51512250DEF7051F516E516C3AC
:10060300955C501AE512651660101224CD120EF88F
:10061300E0C39F40057515018004051680DF122590
:100623006AEF7052E515704EF516E516C3955C50EA
:1006330045E512651660111224CD742B2516120F91
:100643008BE0C39F4002802B051680DE12256AEFE4
:100653007024F517F516E516C3955C500F120EF8C6
:10066300E0C3940240020517051680EAE517C39418
:10067300034003751501E515B40102D200E55745A2
:100683005BFFE556455AFEE5554559FDE55445588A
:100693008F578E568D55F554120F12E4F0120F2B0F
:1006A300E4F0120EEDE4F0A3F0740D2512F582E4EC
:1006B300340002088EAF12122325120F04400812D1
:1006C3000F87E004F0800B90009FE004F0120F8787
:1006D300E4F0120FDCC3E49FFDE49EFCC3E5149D2C
:1006E300EC120F094066120F045061120F12E4124C
:1006F3000F39120F5160030207FB120EEDE513854C
:1007030014F012097612248B120EEDE0FCA3E0C361
:10071300120F214009120EE2E475F0018021122428
:100723008BC3E49FFFE49EFE120EEDE0FCA3E0C347
:10073300120F2140030207FB120EE274FFF5F012C1
:100743000976120EEDE4F0A3F00207FB90004EE0F1
:10075300FFFD3395E0FCC3E49DFDE49CFCC3E5147D
:100763009DEC120F09505A120F12120F37E4F012B8
:100773000F12E0FE75F00A84E5F07037EEC394645F
:10078300400E120F12E4F0D20190006104F08023B6
:10079300120EE2C083C082E0FCA3E0FDEFA2E713E8
:1007A300FF3395E0FEC3ED9FFFEC9ED082D083F034
:1007B300A3EFF0900098E06512703D74FFF002071C
:1007C300FB120FDC120F04402F120F12120F517085
:1007D30027120F3A120F37E0B4201D120F3AE4F03C
:1007E30090004EE0A2E713A2E713FF3395E0FE1259
:1007F3000EE2EE8FF0120976120F724D4E4F700318
:1008030002089AE519AE187802CEA2E713CE13D8E0
:10081300F8FFC3E5199FFFE5189EFEC3120F0550AD
:100823006F120F2BE004F01225158F17E4F516E570
:1008330016C3955C500F120EF8E0C39401400205F5
:1008430015051680EAE515C394034006900000E001
:10085300F517120F2BE0C39517407A120F2BE4F014
:10086300AF5BAE5AAD59AC58120AA9E5575FFFE525
:10087300565EFEE5555DFDE5545C8F578E568D55EE
:10088300F55474252512F582E43400F583E4F0224F
:10089300120F2BE014F02274252512120EFC120FF6
:1008A300517005AF12121775E55C1465127026902E
:1008B300009FE0C3955C401DE4F516E516C3955C07
:1008C300500D120EF8E06003751501051680ECE576
:0508D300157002C200D7
:0108D80022FD
:10218500E4FFEFC3955C501875F002EF120EDCE02A
:10219500FCA3E0FDEF120F48ECF0A3EDF00F80E299
:0121A5002217
:021169008F13E2
:10116B00EF120EC9120FC8F515EC9EF514AF131242
:10117B001F3BAD07AC06D3E5159DEC120F69500B69
:10118B00C3E49DFFE49C120F63500B120ED7E0FEDD
:10119B00A3E0FF021211ECA2E713FEED13FFD31233
:1011AB000F65500BC3E49FFFE49E120F6350271291
:1011BB000F46E0FCA3E0FDECC313FEED13FFC3ED04
:1011CB009FFDEC9EFC120ED7E0C313FEA3E0132D84
:1011DB00FFEC3EFE8030120F46E0FCA3E0FDAE04B8
:1011EB007803CEC313CE13D8F9FFC3ED9FFDEC9E4E
:1011FB00FC120ED7E0FEA3E07803CEC313CE13D8B8
:10120B00F92DFFEC3EFE120F46EEF0A3EFF0E513C7
:08121B00120EC9EEF0A3EFF082
:0112230022A8
:03258B00A2012288
:03258E00D2012255
:101B2900E4FFEFC3955C502B74252F120EFCE4F0F3
:101B3900743D2F120F16E4F0745B2F120F2FE4F08F
:101B4900EF120EEFE4F0A3F0742B2F120F8BE4F0D9
:101B59000F80CFE4F557F556F555F5549000987474
:0B1B6900FFF0E490009BF0A3F0C2012D
:011B7400224E
:020DAA008F11A7
:100DAC0090009DE0C394034035E4F0900061E07046
:100DBC0022F512E512C3955C501975F002E512127A
:100DCC000F4B120F93E512120EE7EEF0A3EFF005A6
:100DDC001280E0121B29C201E4900061F022900005
:100DEC0097E004F0E0B51108122185E4900098F02A
:100DFC00900097E0D395115003020EC8E4F512E56C
:100E0C0012C3955C507A75F002E512120F4B120F5B
:100E1C0093E512120EDC120FC8FFEC9EAD07FC908E
:100E2C000061E07029120FCF7802C333CE33CED8D5
:100E3C00F9120F1E4040E49BFFE49AFEEF7802C3C8
:100E4C0033CE33CED8F9C3120F1F502A8032120F73
:100E5C00CF7803C333CE33CED8F9120F1E4017E42C
:100E6C009BFFE49AFEEF7803C333CE33CED8F9FF61
:100E7C00C3120F20400AAF121211690512020E0B99
:100E8C00E512B55C06900098E004F0E51175F008E9
:100E9C00900097120FAE4024E4F0C20090009DE049
:100EAC0004F0E51175F004900098120FAE400DE4BB
:0C0EBC0090009DF0122161121B29C20160
:010EC8002207
:0422360041006700FC
:1022010043D9187F0F7E00121E7B900092120AF9AB
:0E22110000000000900065E4F0A37402F022CB
:0924FC00900065E0FEA3E0FF2260
:100FE600E4F50BF50AF509F508FBEB25E0246AF5AF
:100FF60082E43400F583E0FEA3E0FFE4FCFDE50BAC
:101006002FF50BE50A3EF50AED3509F509EC35082D
:10101600F5080BBB14D4E4FAF9F8AF0BAE0AAD0928
:10102600AC08120A17900092120AEDE47F507EC3B4
:10103600FDFC900092E0F8A3E0F9A3E0FAA3E0FB40
:1010460012098CE4FB7A10F9F8120A178F0F8E0E2C
:101056008D0D8C0CE47FD87E0EFDFCAB0FAA0EA97D
:101066000DA80CD3120AB6401AE50F94D8F50FE571
:101076000E940EF50EE50D9400F50DE50C9400F5B5
:101086000C8009E4F50FF50EF50DF50CE47B38FA46
:10109600F9F8AF0FAE0EAD0DAC0C120A1790006248
:0510A600EEF0A3EFF0E5
:0110AB002222
:100B3600900096E06401703DF0AFAFEF75F010A441
:100B4600FFE5AEC4540F7C002FFFEC35F0FE90009D
:100B560067E025E0246AF582E43400F583EEF0A32D
:100B6600EFF0900067E004F0D394144008120FE60B
:100B7600E4900067F0900068E475F001120976FED3
:100B8600D3E5F094C8EE94005003020C83E4900081
:100B960068F0A3F0900063E02414FF900062E03454
:100BA60000FED3900066E09F900065E09E4019121B
:100BB6001ADC7C007D0A120940C3900066E09DF0B5
:100BC600900065E09CF0805C900065E0FEA3E0FF8D
:100BD600900062E0FCA3E0FDD39FEC9E4019ED9FE0
:100BE600FFEC9EFED3EF9414EE9400403790006520
:100BF600ECF0A3EDF0802D900064E004F0C39405C2
:100C06004022E4F0A3ECF0A3EDF04C7017121ADCCE
:100C16007C007D05120940ED2401FEE43C90006550
:100C2600F0A3CEF0C3900066E094E7900065E094F0
:100C36000340077403F0A374E7F0900065E0FEA399
:100C4600E0FFD39464EE9400500475750122D3EF4F
:100C56009464EE9400400DD3EF94C8EE94005004D3
:100C660075750422D3EF94C8EE9400400DD3EF942B
:0E0C76002CEE94015004757502227575032250
:03259100AF752201
:101E7B00EF4480F5ADC3EF9408EE9400500F74015E
:101E8B00A807088002C333D8FCF5AB8011EF24F808
:101E9B00FF7401A807088002C333D8FCF5AC75A802
:021EAB004022D3
:04255E0043AD402227
:030033000222DBCB
:1022DB00C0E0C083C08253ADDF53ADBF9000967496
:0922EB0001F0D082D083D0E03272
:0C24740043D9201225971222F48F692210
:0E241B0075CF10AD697F1A121EDE85696A2228
:1022F40075CF107F1A12230DEF6401600BEF640297
:082304006006BF0301227F0007
:01230C0022AE
:10135900E56924FE602E14605224027079E56C451B
:101369006B7003122594E56C643C456B7003122580
:1013790097056CE56C7002056BC3940CE56B9403DF
:101389004057804CE56C456B7003122594E56C64FD
:101399003C456B7003122597056CE56C7002056B73
:1013A900C3941CE56B940240308025E56C456B7055
:1013B90003122594E56C643C456B7003122597056F
:1013C9006CE56C7002056BC3942CE56B94014009C4
:0A13D900E4F56BF56C221225972253
:03259400D2DD2273
:03259700C2DD2280
:1023B6000569E569D394034003E4F569E4F56BF533
:0223C6006C2287
:03259A008F692224
:03259D00AF692201
:04256200E4F5712209
:1018CD00E57124FE601D14602D14603D2403704DE0
:1018DD000573E57370020572C39410E572940E40A2
:1018ED003C80370573E57370020572C39420E57271
:1018FD00941C402980240573E57370020572C3940E
:10190D0040E5729438401680110573E57370020539
:0E191D0072C39480E572947040031222572228
:1023C8000571E571D394044003E4F571E4F572F501
:0223D80073226E
:04256600E4F5712205
:0325A000AF7122F6
:1023FD00539A7F439A08C283439B807F14022558CA
:1023DA009000AAE0D394004006D283E014F022C20F
:0223EA0083224C
:062558009000AAEFF02242
:1012D900021D74E493A3F8E493A34003F68001F29A
:1012E90008DFF48029E493A3F85407240CC8C33316
:1012F900C4540F4420C8834004F456800146F6DFE5
:10130900E4800B010204081020408090221FE47E33
:10131900019360BCA3FF543F30E509541FFEE493D9
:10132900A360010ECF54C025E060A840B8E493A3A0
:10133900FAE493A3F8E493A3C8C582C8CAC583CACB
:10134900F0A3C8C582C8CAC583CADFE9DEE780BE83
:01223A0000A3
:1008D900EF8DF0A4A8F0CF8CF0A428CE8DF0A42E33
:0208E900FE22ED
:1008EB00BC000BBE0029EF8DF084FFADF022E4CCF1
:1008FB00F875F008EF2FFFEE33FEEC33FCEE9DECBA
:10090B00984005FCEE9DFE0FD5F0E9E4CEFD22EDFF
:10091B00F8F5F0EE8420D21CFEADF075F008EF2F49
:10092B00FFED33FD4007985006D5F0F222C398FD3A
:05093B000FD5F0EA22D7
:10094000C2D5EC30E709B2D5E4C39DFDE49CFCEED2
:1009500030E715B2D5E4C39FFFE49EFE1208EBC357
:10096000E49DFDE49CFC80031208EB30D507C3E452
:060970009FFFE49EFE2241
:10097600C5F0F8A3E028F0C5F0F8E582158270020C
:060986001583E038F022A9
:10098C00E88FF0A4CC8BF0A42CFCE98EF0A42CFC0A
:10099C008AF0EDA42CFCEA8EF0A4CDA8F08BF0A488
:1009AC002DCC3825F0FDE98FF0A42CCD35F0FCEBE7
:1009BC008EF0A4FEA9F0EB8FF0A4CFC5F02ECD39AC
:0F09CC00FEE43CFCEAA42DCE35F0FDE43CFC2219
:1009DB0075F008758200EF2FFFEE33FECD33CDCCD3
:1009EB0033CCC58233C5829BED9AEC99E582984056
:1009FB000CF582EE9BFEED9AFDEC99FC0FD5F0D633
:100A0B00E4CEFBE4CDFAE4CCF9A88222B800C1B95C
:100A1B000059BA002DEC8BF084CFCECDFCE5F0CB9A
:100A2B00F97818EF2FFFEE33FEED33FDEC33FCEBD3
:100A3B0033FB10D703994004EB99FB0FD8E5E4F98E
:100A4B00FA227818EF2FFFEE33FEED33FDEC33FC7B
:100A5B00C933C910D7059BE99A4007EC9BFCE99A6F
:100A6B00F90FD8E0E4C9FAE4CCFB2275F010EF2FB4
:100A7B00FFEE33FEED33FDCC33CCC833C810D707B4
:100A8B009BEC9AE899400AED9BFDEC9AFCE899F8EF
:0E0A9B000FD5F0DAE4CDFBE4CCFAE4C8F92282
:0D0AA900CFF4CFCEF4CECDF4CDCCF4CC22E2
:100AB600EB9FF5F0EA9E42F0E99D42F0E89C45F096
:010AC600220D
:100AC700E8600FECC313FCED13FDEE13FEEF13FF0D
:030AD700D8F12231
:100ADA00E8600FEFC333FFEE33FEED33FDEC33FC7A
:030AEA00D8F1221E
:0C0AED00ECF0A3EDF0A3EEF0A3EFF0227C
:100AF900A8828583F0D083D082120B10120B1012BA
:100B09000B10120B10E473E493A3C583C5F0C583DE
:100B1900C8C582C8F0A3C583C5F0C583C8C582C846
:010B290022A9
:0C0B2A00A42582F582E5F03583F58322D6
:101ADC00AC6DAD6EAE6FAF707810EC4D4E4F7004B8
:101AEC007CA57DA5C3EC13FCED13FDEE13FEEF13EB
:101AFC00FF5010EC64CCFCED644CFDEE644EFEEF3C
:101B0C0064CEFFD8DF8C6D8D6E8E6F8F70EE547F30
:0D1B1C00FE228E6D8F6E74A5F56FF57022A0
:00000001FF
