:030000000210F3F8
:1010F30078FFE4F6D8FD9000007F807E01E4F0A342
:0A110300DFFCDEFA75816902114875
:10199E0000000001000A0005000A0BB800C8006430
:1019AE0000020000000000040000FFFFFFFFFFFF29
:1019BE000014013A04080F05004F013A04080E0501
:1019CE000043013A04080D050046013A04080F05CC
:1019DE0000B6013A04080E0500B3013A04080D05DD
:0219EE00006691
:04206E0041006100CC
:0B22C0009019A8E493FE740193FF2224
:0B22CB009019ACE493FE740193FF2215
:082344009019A6740193FF2219
:0323AF007F012289
:101E2600AD07ED75F008A424C6F582E43419F583F0
:101E3600E493FEED75F008A424C7F582E43419F5A1
:0C1E460083E4937C002400FFEC3EFE22AD
:1021F100EF75F008A424C3F582E43419F583E49360
:02220100FF22BA
:08234C009019A0740193FF2217
:0D22750074432FF582E43400F583E0FF226E
:08235400900000E0C313FF221A
:0A230200900000E075F00384FF2254
:10217200121E26EF7803C333CE33CED8F9FF7C008C
:052182007D0A12071F99
:012187002235
:101A8900E4FBFAF528F527F526F5257528E07527ED
:101A990031F526F525AF28AE27AD26AC25780112FC
:101AA90008FB8F288E278D268C2530D71374132A8F
:101AB900F582E43400F583EBF00AEAC39406500496
:061AC9000BBB1FD18A5285
:011ACF0022F4
:101D9200EF14601214601414601814601A24047092
:101DA2001E9019C080089019C180039019C2E49353
:101DB200FF22E4FF0222759019B2740193FF227F81
:021DC2000022FD
:101AD0009019A4740193900000F09019BE740193C2
:101AE00090004EF0121A89E4FFEFC395525020EF98
:101AF00075F008A424C4F582E43419F583E493FE58
:101B000074432FF582E43400F583EEF00F80DAE4BD
:061B100090004CF0A3F070
:011B160022AC
:100AB800E4F521F525F524F523F522F529F528F5A2
:100AC80027F5261223CD5003020BCA121F678F2564
:100AD8008E248D238C22E4FBEBC395525047AF251F
:100AE800AE24AD23AC2278011208FB8F258E248D0D
:100AF800238C2230D72CE47F01FEFDFC74132BF5E8
:100B080082E43400F583E0F9F812090EE5294FF57F
:100B180029E5284EF528E5274DF527E5264CF52645
:100B280005210B80B3E521C394024015D200E521CD
:100B3800940340051223D0800812234CEF6002C2B0
:100B48000020002CE4FFFEFDFCAB29AA28A927A859
:100B580026C31208EA601090004DE004F070069079
:100B6800004CE004F08020E490004CF0A3F08017E3
:100B780090004AE004F07006900049E004F0E4F5C3
:100B880029F528F527F5261222C0D390004DE09FBD
:100B980090004CE09E400A1223D0E490004CF0A351
:100BA800F0D390004AE0942C900049E09401401D55
:100BB8001223D09000617401F0E4900049F0A3F092
:100BC800800B9019AEE4740193FF120BDEAF29AECF
:050BD80028AD27AC264A
:010BDD0022F5
:03005B00021BDEA7
:101BDE00C0E0C0F0C083C082C0D075D000C000C0CD
:101BEE0001C002C003C004C005C006C00712183FE2
:101BFE00D007D006D005D004D003D002D001D0003B
:0B1C0E00D0D0D082D083D0F0D0E032E4
:04207200021C00004C
:0123E50022D5
:101DF6008D29C2AF75F4028529F5E4F5F38FF275E6
:101E0600F1F075F60A00000000000000000000F581
:101E1600F4D2AF122143EFB529037F01227F0022BE
:10214300C2AF75F402E51D2FF582E4351CF583E477
:0721530093FFE4F5F4D2AFA5
:01215A002262
:0323B200AF432214
:101ED100E4F542539AFB439B0443C114C2C2C2C4FA
:101EE10075D3E875D4B39007447480F0A37414F0EB
:061EF1001220F88F4422CC
:0E22670075CF10AD427F14121DF68542442241
:1020F80075CF107F14122143EF6401600BEF640267
:082108006006BF0301227F0005
:0121100022AC
:10208A00D2C49000A2E4F0A304F0900744E0448094
:0C209A00F0A3E0F0E49000A0F0A3F0221E
:0D2282000542E542D394034003E4F54222F7
:0323B500AF422212
:10129E001223B2EF640170419000A0E0547FFEA3D0
:1012AE00E0FFA3E0FCA3E0FD6F7002EC6E6066D37E
:1012BE00ED9FEC9E40109000A1E004F0701690009F
:1012CE00A0E004F0800E9000A1E024FFF09000A0BA
:1012DE00E034FFF09000A0801BD39000A3E09400B8
:1012EE009000A2E09400401BA3E024FFF09000A227
:1012FE00E034FFF0E04480FFA3E0900744CFF0A37A
:10130E00EFF022E49000A2F0A3F0900744E0547FA7
:06131E00F0C2C2C2C422AD
:10211100AF8CEFFEAD8A7C00E42DF546EC3EF54533
:09212100E4F58CF58A75490122F0
:101058001223B2EF70030210F2E54970030210F296
:10106800E4F549854547854648E5421460291460FA
:101078002B14602D2403702C1223D3EF24FE600F51
:1010880014600E14600D14600C240470178008801E
:101098000B800E8007800512142880081213248004
:1010A800031213A6E541D39416401175411490001C
:1010B800A3E004F070069000A2E004F0E541C394B8
:1010C8001250117541149000A3E024FFF09000A283
:1010D800E034FFF0D39000A3E094209000A2E094C5
:0B10E8000340077403F0A37420F02203
:10142800C3E546945FE5459400502EC3E5469432E3
:10143800E54594005002802CC3E5469446E5459462
:10144800005004740A803FC39000A3E094669000A3
:10145800A2E09400504A054122D3E54694FAE545B6
:101468009400400A9000A2E4F0A3745CF022D3E553
:10147800469466E54594004024D3E5469482E545C4
:101488009400400774F62541F54122D39000A3E06B
:1014980094529000A2E09400400615412275411430
:0114A8002221
:10132400C3E546942AE5459401502EC3E54694FA54
:10133400E54594005002802CC3E546940EE545949F
:10134400015004740A8040C39000A3E094C5900047
:10135400A2E09401504B054122D3E54694C2E545F1
:101364009401400B9000A27401F0A374BBF022D34B
:10137400E546942EE54594014024D3E546944AE598
:10138400459401400774F62541F54122D39000A30A
:10139400E094B19000A2E094014006154122754109
:0213A400142211
:1013A600C3E5469406E5459402502EC3E54694D619
:1013B600E54594015002802CC3E54694EAE5459440
:1013C600015004740A8040C39000A3E094B59000D5
:1013D600A2E09402504B054122D3E546949EE54592
:1013E6009402400B9000A27402F0A374ABF022D3D7
:1013F600E546940AE54594024024D3E5469426E55D
:10140600459402400774F62541F54122D39000A386
:10141600E094A19000A2E094024006154122754195
:0214260014228E
:0F2249009000A3E004F070069000A2E004F022E1
:0F2258009000A3E024FFF09000A2E034FFF022FA
:10162800C3E54694C6E5459400502CC3E546949618
:10163800E5459400500F9000A3E02414F09000A218
:10164800E03400F022C3E54694AAE545940050042E
:10165800740A8035054122D3E54694FAE54594009D
:10166800400F9000A3E024ECF09000A2E034FFF0DB
:1016780022D3E54694CAE54594004015D3E546943F
:10168800E6E5459400400774F62541F541221541E9
:0516980022754114223F
:10169D00C3E546948EE5459401502CC3E546945E12
:1016AD00E5459401500F9000A3E02414F09000A2A2
:1016BD00E03400F022C3E5469472E54594015004F0
:1016CD00740A8035054122D3E54694C2E54594015F
:1016DD00400F9000A3E024ECF09000A2E034FFF066
:1016ED0022D3E5469492E54594014015D3E5469401
:1016FD00AEE5459401400774F62541F541221541AB
:05170D002275411422C9
:10215B007543011223E61223B812208AC2DB122226
:07216B00D685444202228FD9
:1020A600E4F5431223BBE4FF1223DC1223AB121B1D
:0C20B60017D2DB1222D61212170222E110
:101F1D00120EE08F588E578D568C557F007EBA7DF0
:101F2D00DB7C00AB58AA57A956A855C31208EA4046
:051F3D000375590122AB
:101780001223B2EF605AE559B4010C0554E554C375
:1017900094034003E4F5540553E553C3940A403BD6
:1017A000E4F553FF7EBA7DDBFCAB58AA57A956A8D7
:1017B000551208EA400CE5597003121217755901C9
:1017C0008019AF58AE57AD56AC55EF2401F558E42B
:1017D0003EF557E43DF556E43CF555AF591223204C
:0117E00022E6
:10121700AF58AE57AD56AC558F288E278D268C25E7
:1012270075CF10E528FFE4AD077F0F121DF6AF2835
:10123700AE27AD26AC2578081208FB8F288E278DA0
:10124700268C2575CF10E528FFE4AD077F0E121D0C
:10125700F6AF28AE27AD26AC2578081208FB8F28F5
:101267008E278D268C2575CF10E528FFE4AD077FE7
:101277000D121DF6AF28AE27AD26AC25780812084B
:10128700FB8F288E278D268C2575CF10E528FFE448
:07129700AD077F0C021DF6FC
:100EE000E4F528F527F526F52575CF107F0C12219E
:100EF00043E48F28F527F526F525AE27AD26AC254A
:100F0000780812090E8F288E278D268C2575CF1014
:100F10007F0D122143E4FCFDFEE5282FF528EE3578
:100F200027F527ED3526F526EC3525F525AF28AE36
:100F300027AD26FC780812090E8F288E278D268C67
:100F40002575CF107F0E122143E4FCFDFEE5282F0E
:100F5000F528EE3527F527ED3526F526EC3525F570
:100F600025AF28AE27AD26FC780812090E8F288EF3
:100F7000278D268C2575CF107F0F122143E4FCFDB1
:100F8000FEE5282FF528EE3527F527ED3526F52641
:0C0F9000EC3525F525AF28AE27AD26FC7A
:010F9C002232
:101CF70075CF10E4FD7F0C121DF675CF10E4FD7F44
:101D07000D121DF675CF10E4FD7F0E121DF675CF6F
:101D170010E4FD7F0F121DF6E4F558F557F556F55B
:041D270055F55922F3
:06238B0043C1200223BB48
:0323B800C2C52279
:0323BB00D2C52266
:06207600040A0000000056
:101D2B0090004BE0FF30E72B547FF0120AB88F0D79
:101D3B008E0C8D0B8C0AE50D54E0FFE50C5431FE37
:101D4B00E4FDFCFBFAF9F8C31208EA60031222D691
:041D5B001223CA2263
:06239100530EBF0222D62C
:0B22D6009000A612092D00000000225D
:1004A8007F207EBF7D027C009000A6E0F8A3E0F9E3
:1004B800A3E0FAA3E0FBC31208EA4005430E40801C
:1004C8001F9000A6E0FCA3E0FDA3E0FEA3E024014A
:1004D800FFE43EFEE43DFDE43CFC9000A612092149
:1004E800E50D54E0FFE50C5431FEE4FDFCFB7A0118
:1004F800F9F8C31208EA7026E51B20E021E50E2072
:10050800E61C20E0520518E51870020517C3948808
:10051800E51794134041430E011223748039E50D09
:1005280054E0FFE50C5431FEE4FDFC7B807A01F9D0
:10053800F8C31208EA6018D3E5189432E517940056
:10054800400DE5189488E517941350031221B4530D
:100558000EFEE4F517F5181223B2EF700302070C2C
:10056800E50D54E0FFE50C5431FEE4FDFC7B807A98
:1005780001F9F8C31208EA7024E50E20E61F20E707
:100588003E0514E51470020513C39432E513940074
:10059800402D430E80431B011222EC8022E50D54AE
:1005A80080FFE50C5401FEE4FDFCFBFAF9F8C312E8
:1005B80008EA7003531BFE530E7FE4F513F514E5A8
:1005C8000D54E0FFE50C5431FEE4FDFC7B80FAF9A4
:1005D800F8C31208EA7026E51B20E021E50E20E6A4
:1005E8001C20E2210510E5107002050FC39432E5C6
:1005F8000F94004010430E0412236C8008530EFB26
:10060800E4F50FF510E50D54E0FFE50C5431FEE478
:10061800FDFCFB7A10F9F8C31208EA7021E50E20F8
:10062800E61C20E4210509E50970020508C3943297
:10063800E50894004010430E101223848008530EDE
:10064800EFE4F508F509E50D54E0FFE50C5431FE3B
:10065800E4FDFCFB7A20F9F8C31208EA7021E50EE4
:1006680020E61C20E121051AE51A70020519C39439
:1006780032E51994004010430E0212236480085397
:100688000EFDE4F519F51AE50D54E0FFE50C5431BB
:10069800FEE4FDFC7B40FAF9F8C31208EA701EE597
:1006A8000E20E3210516E51670020515C39488E5AA
:1006B8001594134010430E081223BE8008530EF7FA
:1006C800E4F515F516E50D54E0FFE50C5431FEE4AC
:1006D800FDFC7B20FAF9F8C31208EA701FE50E202A
:1006E800E61A20E51F0512E51270020511C39432BF
:1006F800E5119400400E430E2002235C530EDFE404
:05070800F511F51222BD
:07238400B2C57F0A02239D90
:0B22E100530EBF1222D67F0A02239D7D
:08235C001222157F0A02239DE5
:082364001222037F0A02239DEF
:0B22EC001222821222677F0A02239D4B
:0323BE000222E117
:0A230C00AF0EEFC413135401FF22BB
:08236C001222827F0A02239D68
:08237400121CF77F0A02239DF1
:1021B4007F0A12239D1223B2BF01061220A6021227
:0521C4001712215B224F
:1020140043D90743A17FD2A6D2A5C2A443B1F843B2
:0E202400C1C3439A624391C0121F8C021B1766
:1020C2001223B2EF6015122329121EA9121CC1128B
:0C20D200229C12194A121E7E121C8A2247
:101FF5001223B2EF7018055CE55CC394C84003E496
:0F200500F55CE55BC3955C4003C2B322D2B32206
:101EF7001223B2EF701FE55AB40104055B80021587
:101F07005BE55BC394C84003E4F55AE55BD39414DF
:061F17005003755A01227F
:09232000BF0103C2DA22D2DA2265
:101B1700D2A5D2A4D2A6D281D2D9D2D8D286D28502
:101B2700D2C0D2DAD296D297D2A0D2A1D2A2D2A3D1
:101B3700D2B6D2C6D2C7D2B5D2B4D2C1D2B7D2B337
:101B4700E4FD7F6E1220DEE4FD7F6C1220DEE4FDF3
:051B57007F6A0220DEA0
:101B5C00C2A5C2A4C2A6C281C2D9C2D8C286C2853D
:101B6C00C2DAC296C2A1C2A2C2A3C2B6C2C6C2C7C0
:101B7C00C2B5C2C1C2C0C2B4C2B7C2B3C297C2A0BE
:101B8C007DFF7F6E1220DE7DFF7F6C1220DE7DFFDD
:051B9C007F6A0220DE5B
:0D228F00C2C0C2B4C2B7C2B3C297C2A0227F
:0123E60022D4
:10194A0012233B8E218F227C007D6412071F1218FE
:10195A009AAD077F6E1220DEAE21AF227C007D6435
:10196A0012071F7E007F0ACFCDCFCECCCE12071F23
:10197A0012189AAD077F6C1220DEAE21AF227C00CE
:10198A007D0A12071FAF0512189AAD077F6A122047
:03199A00DEC28129
:01199D002227
:101C8A001223E2EF24FE600E14601114601724037D
:101C9A00701CC2D9801AD2D9C2D88016D2D9D2D849
:101CAA00C286D28522D2D9D2D8D286C28522D2D9A8
:071CBA00D2D8D286D28522A8
:101EA9001223DFEF24FE600B14600F24027012C2AC
:101EB900A18010D2A1C2A2D2A322D2A1D2A2C2A32E
:081EC90022D2A1D2A2D2A32271
:101E7E001223D3EF24FE60111460121460042403A5
:101E8E008012C2A5C2A4D2A622C2A58002D2A5D219
:0B1E9E00A4C2A622C2A5D2A4D2A62294
:0C229C0012230CEF7003D2C122C2C12239
:0923290020C503C29622D29622BF
:101CC1001223B5EF14600E14601114601724037011
:101CD1001CC2B5801AD2B5C2B68016D2B5D2B6C270
:101CE100C6D2C722D2B5D2B6D2C6C2C722D2B5D2C7
:061CF100B6D2C6D2C722E4
:10189A00EFB40A00504D9018A7F82828730218C50B
:1018AA000218C90218CD0218D10218D50218D90295
:1018BA0018DD0218E10218E50218E97ED780267EB3
:1018CA001480227ECD801E7E5D801A7E1E80167E4A
:1018DA005B80127EDB800E7E15800A7EDF80067EAC
:0718EA005F8002E4FEAF067F
:0118F10022D4
:101F8C00439A0143A180E4FFFE75CF100FBF0001FF
:101F9C000EBE1FF5BF40F21223811223C47D057FB4
:041FAC00480220DEE9
:1020DE008F258D26122188AF25121C52121D5FAF3F
:0A20EE0026121C52121D5F02219EF3
:0B22F700EF700453A17F2243A180225E
:0B22A800E4FEEEC39F5004000E80F720
:0122B3002208
:101D5F007F051222A8D2801222A8C280E4FF12228D
:101D6F00F730A7130527E527C394F040F4E4F527D0
:101D7F00B2C57F011222F77F011222F7C2807F05C1
:031D8F000222A885
:101C52008F2812237CE4F527E5285480D394004092
:101C62000A1223C47F051222A880031223C712235B
:101C7200C112237CE52825E0F5280527E527C39432
:081C82000840D57F050222A8ED
:102188001223C41223C17F051222A81223C71223C7
:062198007C7F050222A875
:10219E001223C71223C17F051222A81223C41223B1
:0621AE007C7F050222A85F
:0323C100D28022A5
:05237C007F051222A8FC
:03238100C28022F5
:0323C400D2A7227B
:0323C700C2A72288
:05207C00013800C10263
:101E5200438E02438910758BC0758DF9C28ED2AB49
:101E6200438E04E4F5C9F5C875CBFA75CA32C2CA05
:0C1E7200D2ADD2CA438905C2A9D28C228D
:09233200758B80758DEED28E22B0
:03000B000223E7E6
:0123E70032C3
:03002B000214A913
:1014A900C0E0C0F0C083C082C0D075D000C000C009
:1014B90001C002C003C004C005C006C007C2CFE511
:1014C9003EB40404D2DC800FE53EC394644008C2F4
:1014D900DC753E00122332053E0539E539C3940A0D
:1014E9004006753701753900053DE53D7002053C3B
:1014F900C39410E53C94274009753C00753D0012E2
:101509002111121FF5D007D006D005D004D003D081
:1015190002D001D000D0D0D082D083D0F0D0E03238
:1017120075CF1043913143B103122014122050D2DD
:10172200AF121E52121ED112238B1223161215292A
:101732001223911223E5121F1D1223A7122239121E
:101742001B5CE4F524F523F522F5217F807E387DAC
:10175200017C00AB24AA23A922A821C31208EA50C3
:101762001A75CF10E5242401F524E43523F523E48A
:0E1772003522F522E43521F52180D00220A693
:1021DE001204A80540E540C3940A4006E4F5407594
:0321EE003F01228C
:10203200121D2B0536E536C3940A4006E4F53675C3
:0E204200350112096A12129E122227021EF7A1
:1021C900053BE53BC3940A4006E4F53B753A011229
:0521D90017800220C286
:0623970012118D0217E196
:101C190012171275CF10E537B40106E4F537122112
:101C2900DEE53FB40106E4F53F122032E535B401A3
:101C390006E4F5351221C9E53AB40106E4F53A128C
:091C49002397121058B28080CAE2
:03001B00021BA124
:101BA100C0E0C0F0C083C082C0D075D000C000C00A
:101BB10001C002C003C004C005C006C007C28E1226
:101BC10023A3D007D006D005D004D003D002D00182
:0D1BD100D000D0D0D082D083D0F0D0E03250
:0420810041009D007D
:100CFD0075F00290004F12095EE0FEA3E0FFE52CB7
:100D0D0075F00290001902095EE52B75F002900056
:100D1D000102095EE52B75F00290003102095E7447
:100D2D0025252FF582E43400F58322D3E52D9FEEA2
:100D3D006480F8E52C64809822743D252BF582E4BF
:100D4D003400F58322D3FFED9FEE6480F8EC6480D0
:100D5D009822745B252BF582E43400F58322E004A0
:100D6D00F0740D252BF582E43400F58322E52C7506
:100D7D00F00290004F02095EE4F0FFFEFDFCAB4D6A
:100D8D00AA4CA94BA84AC30208EAFEC3E52E9FEE62
:100D9D006480F8E52D64809822E54D5551FFE54CB2
:100DAD005550FEE54B554FFDE54A554EFC22742B33
:100DBD00252BF582E43400F58322E0FEA3E0FF75D8
:100DCD00F002227E00900099E0FCA3E0FD12070DD9
:100DDD008EE78FE622A4FFE0C39FE5F06480F874F0
:100DED008098227D0A12071FAD037C0002070DE0DB
:100DFD00FCA3E0C39F2290004EE0FB3395E0FAEB9D
:0D0E0D00AE022290004EE0FF3395E0FE2281
:0C22B400EF4E6007EF1F70F81E80F5224F
:0215A9008F347D
:1015AB001222759000ABEFF0AF341221F1EFFB90EC
:1015BB00009AE025E0FF900099E033FE7C00120DCD
:1015CB00F0E534120D18120DFCEC9E50099000AB97
:1015DB00E06049148036AF341221F1EFFB90009993
:1015EB00E0FEA3E0FF7C007D0712070D120DF075E6
:1015FB00F002E534120D1BE0FCA3E0D39FEC9E4000
:10160B001B9000ABE0FF647E6012EF04FF74432578
:0C161B0034F582E43400F583EFF0D201D6
:0116270022A0
:10183F00C20390009EE0120D0DE5E5F0A3E5E4F084
:10184F0090009EE004F0E0C39552400BE4F090004E
:10185F004BE04480F08002D20390009EE0FF122103
:10186F00F1120DD090009EE0FF122275E5E2548038
:10187F004FF5E290009EE02413F582E43400F583E7
:0A188F00E04480F5E8300302D2EED9
:01189900222C
:10152900D2AFC201E490009EF090004BF0121AD0A5
:10153900E4FF121D92EF2401FDE433FC7E077FD006
:1015490012071F900099EEF0A3EFF0E4FF1221F1CA
:10155900120DD07F02121D92EFC454F0FEC006E4B2
:10156900FF121D92D0E02FF5E17F03121D92E5E2F3
:1015790054804FF5E27F04121D92EF6008E5E254B2
:10158900804480F5E27F01121D928FE3121A3D43D8
:10159900A910900013E04480F5E81218F2021FB078
:0323CA00D2EE222E
:101F4200E4FD90004BE0547FF0D2EE90004BE02095
:101F5200E7127FE87E031222B443CF100DEDC39443
:041F62003240E822FF
:011F66002258
:1018F200752520121F42E4F526E526C39552501B9A
:10190200E526120D0D120DC7E526120D1BEEF0A3F2
:10191200EFF0AF261215A9052680DEAF251525EFBB
:1019220070D1121FD41223448F25121F42E4F526D0
:10193200E526C395525009AF26120F9D052680F069
:07194200AF251525EF70E34E
:01194900227B
:101FB000E4FFEFC39552501B75F002EF120D10E0D5
:101FC000FCA3E0FD75F002EF120D1BECF0A3EDF0A9
:031FD0000F80DFA0
:011FD30022EB
:101F6700E490009FF0F52AE52AC39552500EAF2A58
:101F7700120F9DAF2A120100052A80EBAF4DAE4C20
:041F8700AD4BAC4A68
:011F8B002233
:020100008F2B43
:10010200E4F53375F002EF120D1B120DC7E52B1249
:100112000D10120DFCF52DEC9EF52CE47F01FEFD79
:10012200FCA92BA80112090E8F518E508D4F8C4EB7
:10013200AF2B121E268E318F32C3E52D9532E5315B
:10014200120D3D4005752E018003E4F52EE52E6467
:100152000160030202877425252B120D30E0C3943F
:10016200FA500A7425252B120D30E004F0120DA668
:10017200E4FBFAF9F8C31208EA600302026A90008B
:1001820000E0F5301223AFEF6028E4F52EF52FE5FD
:100192002FC39552500F120D2CE0C394014002055B
:1001A2002E052F80EAE52EC394034006740F2530F6
:1001B200F5307425252B120D30E0C3953050030223
:1001C200026AE4F52E12234CEF7051F52FE52FC38E
:1001D2009552501AE52B652F6010122302120D2C36
:1001E200E0C39F4005752E018004052F80DF122396
:1001F200AFEF7052E52E704EF52FE52FC39552509A
:1002020045E52B652F6011122302742B252F120D49
:10021200BFE0C39F4002802B052F80DE1223AFEF89
:100222007024F530F52FE52FC39552500F120D2C87
:10023200E0C3940240020530052F80EAE530C39402
:10024200034003752E01E52EB40102D200E54D45AF
:1002520051FFE54C4550FEE54B454FFDE54A454E05
:100262008F4D8E4C8D4BF54A120D46E4F0120D5F08
:10027200E4F0120D21E4F0A3F0740D252BF582E4D5
:10028200340002045DAF2B122172120D38400812A5
:100292000DBBE004F0800B90009FE004F0120DBB58
:1002A200E4F0120E10C3E49FFDE49EFCC3E52D9D15
:1002B200EC120D3D4066120D385061120D46E412EB
:1002C2000D6D120D8560030203CA120D21E52C8506
:1002D2002DF01207AA1222CB120D21E0FCA3E0C3DB
:1002E200120D554009120D16E475F00180211222FB
:1002F200CBC3E49FFFE49EFE120D21E0FCA3E0C30A
:10030200120D5540030203CA120D1674FFF5F012C6
:1003120007AA120D21E4F0A3F00203CA90004EE0F6
:10032200FFFD3395E0FCC3E49DFDE49CFCC3E52D99
:100332009DEC120D3D505A120D46120D6BE4F01257
:100342000D46E0FE75F00A84E5F07037EEC3946462
:10035200400E120D46E4F0D20190006104F08023B9
:10036200120D16C083C082E0FCA3E0FDEFA2E713EA
:10037200FF3395E0FEC3ED9FFFEC9ED082D083F069
:10038200A3EFF0900098E0652B703D74FFF002033C
:10039200CA120E10120D38402F120D46120D857022
:1003A20027120D6E120D6BE0B4201D120D6EE4F0DB
:1003B20090004EE0A2E713A2E713FF3395E0FE128E
:1003C2000D16EE8FF01207AA120DA64D4E4F7003B6
:1003D200020469E532AE317802CEA2E713CE13D819
:1003E200F8FFC3E5329FFFE5319EFEC3120D39507F
:1003F2006F120D5FE004F01223548F30E4F52FE505
:100402002FC39552500F120D2CE0C39401400205E8
:100412002E052F80EAE52EC394034006900000E0EB
:10042200F530120D5FE0C39530407A120D5FE4F0B3
:10043200AF51AE50AD4FAC4E1208DDE54D5FFFE55A
:100442004C5EFEE54B5DFDE54A5C8F4D8E4C8D4B5F
:10045200F54A7425252BF582E43400F583E4F02275
:10046200120D5FE014F0227425252B120D30120DAF
:10047200857005AF2B1215A9E55214652B702690D5
:10048200009FE0C39552401DE4F52FE52FC395521E
:10049200500D120D2CE06003752E01052F80ECE546
:0504A2002E7002C200F3
:0104A7002232
:101FD400E4FFEFC39552501875F002EF120D10E0B4
:101FE400FCA3E0FDEF120D7CECF0A3EDF00F80E21A
:011FF40022CA
:020F9D008F2C97
:100F9F00EF120CFD120DFCF52EEC9EF52DAF2C1261
:100FAF001E26AD07AC06D3E52E9DEC120D9D500B02
:100FBF00C3E49DFFE49C120D97500B120D0BE0FE46
:100FCF00A3E0FF021045ECA2E713FEED13FFD312CF
:100FDF000D99500BC3E49FFFE49E120D97502712FB
:100FEF000D7AE0FCA3E0FDECC313FEED13FFC3EDA0
:100FFF009FFDEC9EFC120D0BE0C313FEA3E0132D1F
:10100F00FFEC3EFE8030120D7AE0FCA3E0FDAE0453
:10101F007803CEC313CE13D8F9FFC3ED9FFDEC9E1B
:10102F00FC120D0BE0FEA3E07803CEC313CE13D852
:10103F00F92DFFEC3EFE120D7AEEF0A3EFF0E52C4A
:08104F00120CFDEEF0A3EFF01E
:011057002276
:0323CD00A2012248
:0323D000D2012215
:101A3D00E4FFEFC39552502B74252F120D30E4F0B7
:101A4D00743D2F120D4AE4F0745B2F120D63E4F018
:101A5D00EF120D23E4F0A3F0742B2F120DBFE4F061
:101A6D000F80CFE4F54DF54CF54BF54A9000987489
:0B1A7D00FFF0E490009BF0A3F0C2011A
:011A8800223B
:020BDE008F2A5C
:100BE00090009DE0C394034035E4F0900061E07014
:100BF00022F52BE52BC39552501975F002E52B1207
:100C00000D7F120DC7E52B120D1BEEF0A3EFF005C3
:100C10002B80E0121A3DC201E4900061F0229000A6
:100C200097E004F0E0B52A08121FD4E4900098F091
:100C3000900097E0D3952A5003020CFCE4F52BE5D5
:100C40002BC39552507A75F002E52B120D7F120DD1
:100C5000C7E52B120D10120DFCFFEC9EAD07FC90AA
:100C60000061E07029120E037802C333CE33CED870
:100C7000F9120D524040E49BFFE49AFEEF7802C364
:100C800033CE33CED8F9C3120D53502A8032120E10
:100C9000037803C333CE33CED8F9120D524017E494
:100CA0009BFFE49AFEEF7803C333CE33CED8F9FF2F
:100CB000C3120D54400AAF2B120F9D052B020C3F9F
:100CC000E52BB55206900098E004F0E52A75F0088F
:100CD000900097120DE24024E4F0C20090009DE0E5
:100CE00004F0E52A75F004900098120DE2400DE43E
:0C0CF00090009DF0121FB0121A3DC201CE
:010CFC0022D5
:0420850041006700AF
:1020500043D9187F0F7E00121DC490009212092DE3
:0E20600000000000900065E4F0A37402F0227E
:09233B00900065E0FEA3E0FF2222
:100E1A00E4F524F523F522F521FBEB25E0246AF518
:100E2A0082E43400F583E0FEA3E0FFE4FCFDE52460
:100E3A002FF524E5233EF523ED3522F522EC352165
:100E4A00F5210BBB14D4E4FAF9F8AF24AE23AD2292
:100E5A00AC2112084B900092120921E47F507EC304
:100E6A00FDFC900092E0F8A3E0F9A3E0FAA3E0FB0E
:100E7A001207C0E4FB7A10F9F812084B8F288E2764
:100E8A008D268C25E47FD87E0EFDFCAB28AA27A9E7
:100E9A0026A825D31208EA401AE52894D8F528E5A9
:100EAA0027940EF527E5269400F526E5259400F506
:100EBA00258009E4F528F527F526F525E47B38FA97
:100ECA00F9F8AF28AE27AD26AC2512084B90006280
:050EDA00EEF0A3EFF0B3
:010EDF0022F0
:10096A00900096E06401703DF0AFAFEF75F010A40F
:10097A00FFE5AEC4540F7C002FFFEC35F0FE90006B
:10098A0067E025E0246AF582E43400F583EEF0A3FB
:10099A00EFF0900067E004F0D394144008120E1AA6
:1009AA00E4900067F0900068E475F0011207AAFE6F
:1009BA00D3E5F094C8EE94005003020AB7E490001D
:1009CA0068F0A3F0900063E02414FF900062E03422
:1009DA0000FED3900066E09F900065E09E401912E9
:1009EA0019F07C007D0A120774C3900066E09DF03E
:1009FA00900065E09CF0805C900065E0FEA3E0FF5B
:100A0A00900062E0FCA3E0FDD39FEC9E4019ED9FAD
:100A1A00FFEC9EFED3EF9414EE94004037900065ED
:100A2A00ECF0A3EDF0802D900064E004F0C394058F
:100A3A004022E4F0A3ECF0A3EDF04C70171219F089
:100A4A007C007D05120774ED2401FEE43C900065EC
:100A5A00F0A3CEF0C3900066E094E7900065E094BE
:100A6A000340077403F0A374E7F0900065E0FEA367
:100A7A00E0FFD39464EE9400500475690122D3EF29
:100A8A009464EE9400400DD3EF94C8EE94005004A1
:100A9A0075690422D3EF94C8EE9400400DD3EF9405
:0E0AAA002CEE94015004756902227569032236
:0323D300AF6922CD
:101DC400EF4480F5ADC3EF9408EE9400500F740116
:101DD400A807088002C333D8FCF5AB8011EF24F8C0
:101DE400FF7401A807088002C333D8FCF5AC75A8BA
:021DF40040228B
:0423A30043AD4022E4
:0300330002212A7D
:10212A00C0E0C083C08253ADDF53ADBF9000967448
:09213A0001F0D082D083D0E03224
:0A23160043D9201223D9E4F5632215
:10118D00E56324FE602E14605224027079E56545F6
:10119D006470031223D6E565643C45647003122325
:1011AD00D90565E56570020564C3940CE564940387
:1011BD004057804CE565456470031223D6E56564A0
:1011CD003C456470031223D90565E565700205641D
:1011DD00C3941CE564940240308025E56545647038
:1011ED00031223D6E565643C456470031223D905CB
:1011FD0065E56570020564C3942CE56494014009AE
:0A120D00E4F564F565221223D922EE
:0323D600D2DD2233
:0323D900C2DD2240
:102203000563E563D394034003E4F563E4F564F500
:02221300652242
:0323DC008F6322EA
:0323DF00AF6322C7
:0423A700E4F56622D1
:1017E100E56624FE601D14602D14603D2403704DD8
:1017F1000568E56870020567C39410E567940E40BB
:101801003C80370568E56870020567C39420E56789
:10181100941C402980240568E56870020567C3941B
:1018210040E5679438401680110568E56870020547
:0E18310067C39480E567947040031220A622DE
:102215000566E566D394044003E4F566E4F567F5E1
:0222250068222D
:0423AB00E4F56622CD
:0323E200AF6622C1
:10223900539A7F439A08C283439B807F1402239D4C
:102227009000AAE0D394004006D283E014F022C2C3
:02223700832200
:06239D009000AAEFF022FF
:10110D00021C19E493A3F8E493A34003F68001F2C3
:10111D0008DFF48029E493A3F85407240CC8C333E3
:10112D00C4540F4420C8834004F456800146F6DFB2
:10113D00E4800B010204081020408090206EE47EB4
:10114D00019360BCA3FF543F30E509541FFEE493A7
:10115D00A360010ECF54C025E060A840B8E493A36E
:10116D00FAE493A3F8E493A3C8C582C8CAC583CA99
:10117D00F0A3C8C582C8CAC583CADFE9DEE780BE51
:012089000056
:10070D00EF8DF0A4A8F0CF8CF0A428CE8DF0A42E00
:02071D00FE22BA
:10071F00BC000BBE0029EF8DF084FFADF022E4CCBE
:10072F00F875F008EF2FFFEE33FEEC33FCEE9DEC87
:10073F00984005FCEE9DFE0FD5F0E9E4CEFD22EDCD
:10074F00F8F5F0EE8420D21CFEADF075F008EF2F17
:10075F00FFED33FD4007985006D5F0F222C398FD08
:05076F000FD5F0EA22A5
:10077400C2D5EC30E709B2D5E4C39DFDE49CFCEEA0
:1007840030E715B2D5E4C39FFFE49EFE12071FC3F2
:10079400E49DFDE49CFC800312071F30D507C3E4ED
:0607A4009FFFE49EFE220F
:1007AA00C5F0F8A3E028F0C5F0F8E58215827002DA
:0607BA001583E038F02277
:1007C000E88FF0A4CC8BF0A42CFCE98EF0A42CFCD8
:1007D0008AF0EDA42CFCEA8EF0A4CDA8F08BF0A456
:1007E0002DCC3825F0FDE98FF0A42CCD35F0FCEBB5
:1007F0008EF0A4FEA9F0EB8FF0A4CFC5F02ECD397A
:0F080000FEE43CFCEAA42DCE35F0FDE43CFC22E6
:10080F0075F008758200EF2FFFEE33FECD33CDCCA0
:10081F0033CCC58233C5829BED9AEC99E582984023
:10082F000CF582EE9BFEED9AFDEC99FC0FD5F0D600
:10083F00E4CEFBE4CDFAE4CCF9A88222B800C1B92A
:10084F000059BA002DEC8BF084CFCECDFCE5F0CB68
:10085F00F97818EF2FFFEE33FEED33FDEC33FCEBA1
:10086F0033FB10D703994004EB99FB0FD8E5E4F95C
:10087F00FA227818EF2FFFEE33FEED33FDEC33FC49
:10088F00C933C910D7059BE99A4007EC9BFCE99A3D
:10089F00F90FD8E0E4C9FAE4CCFB2275F010EF2F82
:1008AF00FFEE33FEED33FDCC33CCC833C810D70782
:1008BF009BEC9AE899400AED9BFDEC9AFCE899F8BD
:0E08CF000FD5F0DAE4CDFBE4CCFAE4C8F92250
:0D08DD00CFF4CFCEF4CECDF4CDCCF4CC22B0
:1008EA00EB9FF5F0EA9E42F0E99D42F0E89C45F064
:0108FA0022DB
:1008FB00E8600FECC313FCED13FDEE13FEEF13FFDB
:03090B00D8F122FE
:10090E00E8600FEFC333FFEE33FEED33FDEC33FC47
:03091E00D8F122EB
:0C092100ECF0A3EDF0A3EEF0A3EFF02249
:10092D00A8828583F0D083D0821209441209441223
:10093D000944120944E473E493A3C583C5F0C58348
:10094D00C8C582C8F0A3C583C5F0C583C8C582C814
:01095D002277
:0C095E00A42582F582E5F03583F58322A4
:1019F000AC5FAD60AE61AF627810EC4D4E4F7004DD
:101A00007CA57DA5C3EC13FCED13FDEE13FEEF13D7
:101A1000FF5010EC64CCFCED644CFDEE644EFEEF28
:101A200064CEFFD8DF8C5F8D608E618F62EE547F55
:0D1A3000FE228E5F8F6074A5F561F56222C5
:00000001FF
