:0300000002140ADD
:10140A0078FFE4F6D8FD9000007F807E01E4F0A327
:0A141A00DFFCDEFA75816002145F4A
:1019DF000000000100000005000A0BB800C80064F9
:1019EF0000020000000000040000FFFFFFFFFFFFE8
:1019FF000014013A04082A0507CF013A0408270505
:101A0F0007CF013A0408270507CF013A0408270535
:101A1F0007CF013A0408270507CE013A0408280525
:021A2F0007CFDF
:041FBC00410061007F
:0B215C009019E9E493FE740193FF2248
:0B2167009019EDE493FE740193FF2239
:0821A2009019E7740193FF227C
:0321EA007F012250
:101E4800AD07ED75F008A42407F582E4341AF5838C
:101E5800E493FEED75F008A42408F582E4341AF53D
:0C1E680083E4937C002400FFEC3EFE228B
:1020AD00EF75F008A42404F582E4341AF583E49363
:0220BD00FF2200
:0821AA009019E1740193FF227A
:0D21360074432FF582E43400F583E0FF22AE
:0821B200900000E0C313FF22BE
:0A217200900000E075F00384FF22E6
:10205900121E48EF7803C333CE33CED8F9FF7C0084
:052069007D0A1207488A
:01206E00224F
:101B6100E4FBFAF50BF50AF509F508750BE0750AC2
:101B710031F509F508AF0BAE0AAD09AC08780112D1
:101B8100093A8F0B8E0A8D098C0830D71374132AEA
:101B9100F582E43400F583EBF00AEAC394065004BD
:061BA1000BBB1FD18A46B8
:011BA700221B
:101D8500EF14601214601414601814601A2404709F
:101D95001E901A018008901A028003901A03E4939A
:101DA500FF22E4FF0221369019F3740193FF227F8D
:021DB50000220A
:101BA8009019E5740193900000F09019FF74019367
:101BB80090004EF0121B61E4FFEFC395465020EFF2
:101BC80075F008A42405F582E4341AF583E493FE3D
:101BD80074432FF582E43400F583EEF00F80DAE4E5
:061BE80090004CF0A3F098
:011BEE0022D4
:100D6F00E4F508F50CF50BF50AF509F510F50FF597
:100D7F000EF50D12220B5003020E81121F118F0C54
:100D8F008E0B8D0A8C09E4FBEBC395465047AF0CD5
:100D9F00AE0BAD0AAC09780112093A8F0C8E0B8D90
:100DAF000A8C0930D72CE47F01FEFDFC74132BF560
:100DBF0082E43400F583E0F9F812094DE5104FF5A0
:100DCF0010E50F4EF50FE50E4DF50EE50D4CF50D3B
:100DDF0005080B80B3E508C394024015D200E5085F
:100DEF009403400512220E80081221AAEF6002C25E
:100DFF000020002CE4FFFEFDFCAB10AA0FA90EA8EB
:100E0F000DC3120929601090004DE004F070069098
:100E1F00004CE004F08020E490004CF0A3F0801729
:100E2F0090004AE004F07006900049E004F0E4F509
:100E3F0010F50FF50EF50D12215CD390004DE09FCC
:100E4F0090004CE09E400A12220EE490004CF0A35A
:100E5F00F0D390004AE0942C900049E09401401D9B
:100E6F0012220E9000617401F0E4900049F0A3F09B
:100E7F00800B9019EFE4740193FF120E95AF10AE33
:050E8F000FAD0EAC0DDB
:010E9400223B
:03005B00021CABD9
:101CAB00C0E0C0F0C083C082C0D075D000C000C0FF
:101CBB0001C002C003C004C005C006C00712192C26
:101CCB00D007D006D005D004D003D002D001D0006D
:0B1CDB00D0D0D082D083D0F0D0E03217
:041FC000021C0000FF
:012223002298
:101DE9008D0CC2AF75F402850CF5E4F5F38FF2752D
:101DF900F1F075F60A00000000000000000000F58F
:101E0900F4D2AF122041EFB50C037F01227F0022EB
:10204100C2AF75F402E51D2FF582E4351CF583E47A
:0720510093FFE4F5F4D2AFA8
:012058002265
:0321ED00AF4922D5
:101EA000E4F548539AFB439B045391BF439240434C
:101EB000C114C2C2C2C475D3C775D4B090074474EC
:071EC00080F0A37414F0226E
:101F9F00D2C49000A0E4F0A3740CF0900744E04486
:0D1FAF0080F0A3E0F0E490009EF0A3F0228B
:0D2143000548E548D394034003E4F5482225
:0321F000AF4822D3
:10152B001221EDEF6401704190009EE0547FFEA309
:10153B00E0FFA3E0FCA3E0FD6F7002EC6E6066D3EE
:10154B00ED9FEC9E401090009FE004F07016900011
:10155B009EE004F0800E90009FE024FFF090009E30
:10156B00E034FFF090009E801BD39000A1E094002C
:10157B009000A0E09400401BA3E024FFF09000A09B
:10158B00E034FFF0E04480FFA3E0900744CFF0A3EA
:10159B00EFF022E49000A0F0A3F0900744E0547F1A
:0615AB00F0C2C2C2C4221E
:10200F00AF8CEFFEAD8A7C00E42DF54BEC3EF54A2C
:09201F00E4F58CF58A754E0122EE
:1009A900E54E7003020BA1E4F54E854A4C854B4D8B
:1009B900E548147003020AA3147003020ADF1470D5
:1009C90003020B1924036003020B5C122211EF24AA
:1009D900FE6049147003020A6424026003020B5C7E
:1009E900C3E54B943AE54A94005013C3E54B941E72
:1009F900E54A94005003020B2F0547020B5CD3E52F
:100A09004B943EE54A9400404FD3E54B945AE54A4E
:100A190094004003020B4D1547020B5CC3E54B9450
:100A290076E54A94005013C3E54B945AE54A94007D
:100A39005003020B2F0547020B5CD3E54B947AE573
:100A49004A94004013D3E54B9496E54A9400400339
:100A5900020B4D1547020B5C020B59C3E54B94AED3
:100A6900E54A94005013C3E54B9492E54A9400502B
:100A790003020B2F0547020B5CD3E54B94B2E54A01
:100A890094004013D3E54B94CEE54A940040030209
:100A99000B4D1547020B5C020B59C3E54B943AE524
:100AA9004A94005012C3E54B941EE54A9400500243
:100AB90080740547020B5CD3E54B943EE54A9400EC
:100AC9004012D3E54B945AE54A94004002807515CB
:100AD90047020B5C807AC3E54B9476E54A94005053
:100AE90011C3E54B945AE54A9400500280380547F2
:100AF9008061D3E54B947AE54A94004011D3E54BE4
:100B09009496E54A94004002803A15478045804012
:100B1900C3E54B94AEE54A94005013C3E54B949258
:100B2900E54A94005004740A801C05478025D3E5E2
:100B39004B94B2E54A94004017D3E54B94CEE54A6D
:100B49009400400874F62547F54780071547800348
:100B5900754714E547D3941540117547149000A1C2
:100B6900E004F070069000A0E004F0E547C3941398
:100B790050117547149000A1E024FFF09000A0E007
:100B890034FFF0D39000A1E094A09000A0E094007D
:090B99004006E4F0A374A0F02270
:1020F5007549011221DA1221F3121F9FC2DB022159
:01210500BA1F
:10206F00E4F5491221F6E4FF12221A1221E6121B9F
:06207F00EFD2DB0221BAE2
:101EC7001212928F548E538D528C517FC07E657D36
:101ED700527C00AB54AA53A952A851C312092940F6
:051EE700037555012206
:1018D0001221EDEF6055E555B4010C0550E550C3FC
:1018E00094034003E4F550054FE54FC3940A403B91
:1018F000E4F54F7FC07E657D52FCAB54AA53A952DC
:10190000A851120929400BE55570031214A475550E
:101910000122AF54AE53AD52AC51EF2401F554E463
:0B1920003EF553E43DF552E43CF55168
:01192B002299
:1014A400AF54AE53AD52AC518F0B8E0A8D098C08DC
:1014B40075CF10E50BFFE4AD077F0F121DE9AF0BED
:1014C400AE0AAD09AC08780812093A8F0B8E0A8D62
:1014D400098C0875CF10E50BFFE4AD077F0E121DD4
:1014E400E9AF0BAE0AAD09AC08780812093A8F0BC4
:1014F4008E0A8D098C0875CF10E50BFFE4AD077FCC
:101504000D121DE9AF0BAE0AAD09AC08780812093B
:101514003A8F0B8E0A8D098C0875CF10E50BFFE40A
:07152400AD077F0C021DE979
:10129200E4F50BF50AF509F50875CF107F0C12205D
:1012A20041E48F0BF50AF509F508AE0AAD09AC0861
:1012B200780812094D8F0B8E0A8D098C0875CF1094
:1012C2007F0D122041E4FCFDFEE50B2FF50BEE3500
:1012D2000AF50AED3509F509EC3508F508AF0BAE4C
:1012E2000AAD09FC780812094D8F0B8E0A8D098C04
:1012F2000875CF107F0E122041E4FCFDFEE50B2F96
:10130200F50BEE350AF50AED3509F509EC3508F568
:1013120008AF0BAE0AAD09FC780812094D8F0B8E8F
:101322000A8D098C0875CF107F0F122041E4FCFD55
:10133200FEE50B2FF50BEE350AF50AED3509F50939
:0C134200EC3508F508AF0BAE0AAD09FC55
:01134E00227C
:101D1D0075CF10E4FD7F0C121DE975CF10E4FD7F2A
:101D2D000D121DE975CF10E4FD7F0E121DE975CF63
:101D3D0010E4FD7F0F121DE9E4F554F553F552F54E
:041D4D0051F55522D5
:0621C20043C1200221F6DA
:0321F300D2C52230
:0321F600C2C5223D
:061FC400042300000000F0
:101D510090004BE0FF30E72B547FF0120D6F8F2680
:101D61008E258D248C23E52654E0FFE5255431FE94
:101D7100E4FDFCFBFAF9F8C312092960031221BA48
:041D81001222082200
:0621C8005327BF0221BAFB
:0821BA00E49000A4F0A3F02260
:100BA2009000A4E0FEA3E0FFE4FCFD7B607AEAF99A
:100BB200F8D31209135005432740800E9000A5E098
:100BC20004F070069000A4E004F0E52654E0FFE58E
:100BD200255431FEE4FDFCFB7A01F9F8C312092920
:100BE2007021E52720E61C20E021052FE52F700269
:100BF200052EC39432E52E940040104327011221A2
:100C02001780085327FEE4F52EF52F1221EDEF7021
:100C120003020D6EE52654E0FFE5255431FEE4FDA6
:100C2200FC7B80FAF9F8C31209297021E52720E636
:100C32001C20E2390529E52970020528C39488E5BC
:100C420028941340284327041222058020D3E52943
:100C52009405E5289400400DE5299488E52894132D
:100C620050031222025327FBE4F528F529E5265406
:100C7200E0FFE5255431FEE4FDFCFB7A10F9F8C3F0
:100C82001209297021E52720E61C20E4210522E52E
:100C92002270020521C3940AE521940040104327E3
:100CA200101221F980085327EFE4F521F522E526F9
:100CB20054E0FFE5255431FEE4FDFCFB7A20F9F80F
:100CC200C31209297021E52720E61C20E121053104
:100CD200E53170020530C3940AE5309400401043B8
:100CE20027021221FF80085327FDE4F530F531E594
:100CF2002654E0FFE5255431FEE4FDFC7B40FAF981
:100D0200F8C3120929701EE52720E321052DE52DE0
:100D12007002052CC39488E52C94134010432708D5
:100D22001221CE80085327F7E4F52CF52DE5265441
:100D3200E0FFE5255431FEE4FDFC7B20FAF9F8C31F
:100D4200120929701FE52720E61A20E51F052BE569
:100D52002B7002052AC3940AE52A9400400E432709
:0D0D6200200221FC5327DFE4F52AF52B22A7
:0321F900B2C5224A
:0321FC000220E3DB
:0321FF000220D1EA
:0621CE005327BF0221BAF5
:0A217C00AF27EFC41313540313221E
:0322020002214373
:03220500021D1D9A
:102117001221EDBF010612206F0214A41220F5222E
:101C2F0043D90753D8F8D2DAD2D9C2D84393EF4366
:101C3F00948075A3FF439C0343B3F8E4F58F90079B
:101C4F0010E04408F0A3E04408F0A3E04408F0A338
:0F1C5F00E04408F0A3E04408F0A3E04408F022BA
:101FD8001221EDEF6015122127121A3112180F1273
:0C1FE8002106121B17121F3612172F22A1
:101BEF00D2D9D2D8D2DA90070BE054F7F0A3E05451
:101BFF00E7F0A3E054E7F0A3E054E7F0A3E05407C5
:101C0F00F0A3E0540FF0A3E0540FF0A3E0540FF053
:101C1F00A3E0540FF0A3E0540FF0A3E0540FF02211
:0421DA004393802289
:101B17001221998E088F097C007D641207487D0782
:101B27001204A8AE08AF097C007D641207487E0046
:101B37007F0ACFCDCFCECCCE1207487D061204A8A0
:101B4700AE08AF097C007D0A120748AF057D051274
:091B570004A890070CE04410F012
:011B60002262
:10172F00122220EF24FE602114603014603F240346
:10173F00704D90070CE054F7F0A3E054F7F0A3E0DE
:10174F0054F7F0A3E04408F02290070CE054F7F0B0
:10175F00A3E054F7F0A3E04408803490070CE05462
:10176F00F7F0A3E04408F0A3E054F7802290070CB1
:10177F00E04408F0A3E054F7F0A3E054F780109092
:10178F00070CE054F7F0A3E054F7F0A3E054F7F0A0
:06179F00A3E054F7F02264
:101A310012221DEF24FE60191460232402702C90E1
:101A4100070DE054EFF0A3E054EFF0A3E04410F0F1
:101A51002290070DE054EFF0A3E0441080189007A6
:101A61000DE04410F0A3E054EF800B90070DE0541B
:0D1A7100EFF0A3E054EFF0A3E054EFF022FB
:101F3600122211EF24FE600714600B2402800ED2D9
:101F4600D9C2D8D2DA22D2D9D2D8C2DA22C2D9D2CA
:041F5600D8D2DA22E1
:1021060012217C90070BE0400454F7F0224408F0BB
:0121160022A6
:0F212700900710E030C5044410F02254EFF0226E
:10180F001221F0EF14600A14601914602824038069
:10181F003B900711E054EFF0A3E054EFF0A3E04446
:10182F00108022900711E054EFF0A3E04410F0A3D2
:10183F00E054EF8010900711E04410F0A3E054EF54
:10184F00F0A3E054EFF0A3E054EFF022900711E083
:10185F0054EFF0A3E054EFF0A3E054EFF0A3E04413
:03186F0010F02254
:1004A800EFB40A0040030207359004B8F82828730F
:1004B8000204D60205070205450205860205BA02AE
:1004C800060302064702068A0206C70206F29007DA
:1004D8000FE0FF7401A805088002C333D8FCFEF4BE
:1004E8005F90070FF0A3E04EF0A3E0FF7401A805AA
:1004F800088002C333D8FCFE4F9007110206E4902F
:10050800070FE0FF7401A805088002C333D8FCFE7A
:10051800F4FC5F90070FF0A3E05CF0A3E05CF0A3AD
:10052800E05CF0A3E04EF0A3E0FF7401A8050880AA
:1005380002C333D8FCFE4F9007140205F890070F4A
:10054800E0FF7401A805088002C333D8FCFE4F9071
:10055800070FF0A3E0FFEEF4FEEF5EF0A3E0FF74F8
:1005680001A805088002C333D8FCFC4F900711F09E
:10057800A3E04CF0A3E05EF0A3E04C020641900734
:100588000FE0FF7401A805088002C333D8FCFE4FB2
:1005980090070FF0A3E0FFEEF4FEEF5EF0A3E05E3D
:1005A800F0A3E0FF7401A805088002C333D8FC0259
:1005B800072390070FE0FF7401A805088002C333E2
:1005C800D8FCFE4F90070FF0A3E04EF0A3E0FFEE3B
:1005D800F4FEEF5EF0A3E05EF0A3E0FF7401A8056F
:1005E800088002C333D8FCFE4F900713F0A3E04EF7
:1005F800F0A3E0FFEEF4FEEF5EF02290070FE0FFBD
:100608007401A805088002C333D8FCFE4F90070F79
:10061800F0A3E04EF0A3E0FFEEF4FEEF5EF0A3E0FF
:10062800FF7401A805088002C333D8FCFC4F90076B
:1006380012F0A3E04CF0A3E05EF0A3E04CF02290AF
:10064800070FE0FF7401A805088002C333D8FCFE39
:100658004F90070FF0A3E04EF0A3E04EF0A3E04E5A
:10066800F0A3E04EF0A3E0FFEEF4FEEF5EF0A3E0AF
:10067800FF7401A805088002C333D8FC4F90071502
:10068800F02290070FE0FF7401A805088002C33329
:10069800D8FCFEF4FC5F90070FF0A3E05CF0A3E049
:1006A8005CF0A3E05CF0A3E04EF0A3E0FF7401A8C7
:1006B80005088002C333D8FCFE4F90071480699068
:1006C800070FE0FF7401A805088002C333D8FCFEB9
:1006D8004F90070FF0A3E04EF0A3E04EF0A3E04EDA
:1006E800F0A3E04EF0A3E04E803E90070FE0FF74C9
:1006F80001A805088002C333D8FCFE4F90070FF00D
:10070800A3E04EF0A3E0FFEEF4FEEF5EF0A3E0FFFF
:100718007401A805088002C333D8FCFE4F90071265
:0E072800F0A3E04EF0A3E04EF0A3E04EF0226E
:051FCA00013500C10219
:101E7400438E02438910758BC0758DF9C28ED2AB27
:101E8400438E04E4F5C9F5C875CBFA75CA32C2CAE3
:0C1E9400D2ADD2CA438905C2A9D28C226B
:09219000758B80758DEED28E2254
:03000B00022224AA
:012224003287
:03002B0002163189
:10163100C0E0C0F0C083C082C0D075D000C000C07F
:1016410001C002C003C004C005C006C007C2CFB2BA
:10165100DAE53BB40404D2DC800FE53BC39464407B
:1016610008C2DC753B00122190053B0536E536C307
:10167100940A4006753401753600053AE53A700260
:101681000539C39410E53994274009753900753A35
:101691000012200FD007D006D005D004D003D0020D
:0F16A100D001D000D0D0D082D083D0F0D0E032B2
:101E190075CF1043913143B103121C2F122085D283
:101E2900AF121E74121EA01221C21221861215B100
:0F1E39001221C8122223121EC71221E20220F525
:10209A00120BA2053DE53DC3940A4006E4F53D75E1
:0320AA003C0122D4
:101FF400121D51121FD80533E533C3940A4006E479
:0B200400F5337532011210D102152BCC
:1020BF000538E538C3940A4006E4F5387537010250
:0220CF0018D027
:0621D4001217A5021872AB
:101CE600121E1975CF10E534B40106E4F53412203E
:101CF6009AE53CB40106E4F53C121FF4E532B40162
:101D060006E4F5321220BFE537B40106E4F53712D2
:071D160021D41209A980CCC1
:03001B00021C6E56
:101C6E00C0E0C0F0C083C082C0D075D000C000C03C
:101C7E0001C002C003C004C005C006C007C28E1258
:101C8E0021DED007D006D005D004D003D002D0017B
:0D1C9E00D000D0D0D082D083D0F0D0E03282
:041FCF0041009B0032
:100FB40075F00290004F12099DE0FEA3E0FFE513D7
:100FC40075F00290001902099DE51275F002900077
:100FD4000102099DE51275F00290003102099D7429
:100FE400252516F582E43400F58322D3E5149FEE1B
:100FF4006480F8E51364809822743D2512F582E438
:101004003400F58322D3FFED9FEE6480F8EC648016
:101014009822745B2512F582E43400F58322E004FF
:10102400F0740D2512F582E43400F58322E513757E
:10103400F00290004F02099DE4F0FFFEFDFCAB417D
:10104400AA40A93FA83EC3020929FEC3E5159FEEA5
:101054006480F8E51464809822E5415545FFE54035
:101064005544FEE53F5543FDE53E5542FC22742BB5
:101074002512F582E43400F58322E0FEA3E0FF7537
:10108400F002227E00900097E0FCA3E0FD120736F8
:101094008EE78FE622A4FFE0C39FE5F06480F87436
:1010A4008098227D0A120748AD037C00020736E0CF
:1010B400FCA3E0C39F2290004EE0FB3395E0FAEBE3
:0D10C400AE022290004EE0FF3395E0FE22C8
:0C215000EF4E6007EF1F70F81E80F522B4
:0216B0008F1B8E
:1016B2001221369000A6EFF0AF1B1220ADEFFB9087
:1016C2000098E025E0FF900097E033FE7C001210C6
:1016D200A7E51B120FCF1210B3EC9E50099000A683
:1016E200E06049148036AF1B1220ADEFFB900097EB
:1016F200E0FEA3E0FF7C007D071207361210A775FB
:10170200F002E51B120FD2E0FCA3E0D39FEC9E4057
:101712001B9000A6E0FF647E6012EF04FF74432575
:0C1722001BF582E43400F583EFF0D201E7
:01172E002298
:10192C00C20390009CE0120FC4E5E5F0A3E5E4F0DF
:10193C0090009CE004F0E0C39546400BE4F090006E
:10194C004BE04480F08002D20390009CE0FF122018
:10195C00AD12108790009CE0FF122136E5E2548016
:10196C004FF5E290009CE02413F582E43400F583FB
:0A197C00E04480F5E8300302D2EEEB
:01198600223E
:1015B100D2AFC201E490009CF090004BF0121BA846
:1015C100E4FF121D85EF2401FDE433FC7E077FD08B
:1015D100120748900097EEF0A3EFF0E4FF1220AD60
:1015E1001210877F02121D85EFC454F0FEC006E47D
:1015F100FF121D85D0E02FF5E17F03121D85E5E285
:1016010054804FF5E27F04121D85EF6008E5E25436
:10161100804480F5E27F01121D858FE3121ACB43CE
:10162100A910900013E04480F5E8121987021F5AAF
:03220800D2EE22F1
:101EEC00E4FD90004BE0547FF0D2EE90004BE020EC
:101EFC00E7127FE87E0312215043CF100DEDC394FF
:041F0C003240E82255
:011F100022AE
:10198700750820121EECE4F509E509C39546501BBE
:10199700E509120FC412107EE509120FD2EEF0A36B
:1019A700EFF0AF091216B0050980DEAF081508EF92
:1019B70070D1121F7E1221A28F08121EECE4F509C6
:1019C700E509C395465009AF0912134F050980F081
:0719D700AF081508EF70E3F3
:0119DE0022E6
:101F5A00E4FFEFC39546501B75F002EF120FC7E07E
:101F6A00FCA3E0FD75F002EF120FD2ECF0A3EDF046
:031F7A000F80DFF6
:011F7D002241
:101F1100E490009DF0F511E511C39546500EAF1107
:101F210012134FAF11120100051180EBAF41AE400A
:041F3100AD3FAC3ED6
:011F35002289
:020100008F125C
:10010200E4F51A75F002EF120FD212107EE5121208
:100112000FC71210B3F514EC9EF513E47F01FEFD38
:10012200FCA912A80112094D8F458E448D438C42C1
:10013200AF12121E488E188F19C3E5149519E518CF
:10014200120FF440057515018003E4F515E51564F9
:1001520001600302028774252512120FE7E0C3949F
:10016200FA500A74252512120FE7E004F012105D0E
:10017200E4FBFAF9F8C3120929600302026A90004B
:1001820000E0F5171221EAEF6028E4F515F516E50F
:1001920016C39546500F120FE3E0C39401400205C7
:1001A20015051680EAE515C394034006740F25175A
:1001B200F51774252512120FE7E0C39517500302B5
:1001C200026AE4F5151221AAEF7051F516E516C37D
:1001D2009546501AE51265166010122172120FE34D
:1001E200E0C39F40057515018004051680DF1221CA
:1001F200EAEF7052E515704EF516E516C3954650B6
:1002020045E51265166011122172742B2516121023
:1002120076E0C39F4002802B051680DE1221EAEFB2
:100222007024F517F516E516C39546500F120FE325
:10023200E0C3940240020517051680EAE517C3944D
:10024200034003751501E515B40102D200E54145ED
:1002520045FFE5404544FEE53F4543FDE53E454259
:100262008F418E408D3FF53E120FFDE4F0121016C5
:10027200E4F0120FD8E4F0A3F0740D2512F582E435
:10028200340002045DAF12122059120FEF4008121F
:100292001072E004F0800B90009DE004F0121072E6
:1002A200E4F01210C7C3E49FFDE49EFCC3E5149D75
:1002B200EC120FF44066120FEF5061120FFDE412C0
:1002C200102412103C60030203CA120FD8E51385F2
:1002D20014F01207D3122167120FD8E0FCA3E0C377
:1002E20012100C4009120FCDE475F0018021122189
:1002F20067C3E49FFFE49EFE120FD8E0FCA3E0C3B5
:1003020012100C40030203CA120FCD74FFF5F01253
:1003120007D3120FD8E4F0A3F00203CA90004EE014
:10032200FFFD3395E0FCC3E49DFDE49CFCC3E514B2
:100332009DEC120FF4505A120FFD121022E4F0122B
:100342000FFDE0FE75F00A84E5F07037EEC39464A9
:10035200400E120FFDE4F0D20190006104F0802300
:10036200120FCDC083C082E0FCA3E0FDEFA2E71331
:10037200FF3395E0FEC3ED9FFFEC9ED082D083F069
:10038200A3EFF0900096E06512703D74FFF0020357
:10039200CA1210C7120FEF402F120FFD12103C703D
:1003A20027121025121022E0B4201D121025E4F0AD
:1003B20090004EE0A2E713A2E713FF3395E0FE128E
:1003C2000FCDEE8FF01207D312105D4D4E4F70031A
:1003D200020469E519AE187802CEA2E713CE13D84B
:1003E200F8FFC3E5199FFFE5189EFEC3120FF050F8
:1003F2006F121016E004F01221B28F17E4F516E521
:1004020016C39546500F120FE3E0C3940140020554
:1004120015051680EAE515C394034006900000E036
:10042200F517121016E0C39517407A121016E4F071
:10043200AF45AE44AD43AC42120906E5415FFFE56C
:10044200405EFEE53F5DFDE53E5C8F418E408D3FA7
:10045200F53E74252512F582E43400F583E4F0229A
:10046200121016E014F02274252512120FE7121052
:100472003C7005AF121216B0E54614651270269054
:10048200009DE0C39546401DE4F516E516C395466A
:10049200500D120FE3E06003751501051680ECE5BF
:0504A200157002C2000C
:0104A7002232
:101F7E00E4FFEFC39546501875F002EF120FC7E05D
:101F8E00FCA3E0FDEF121033ECF0A3EDF00F80E2B6
:011F9E002220
:02134F008F13FA
:10135100EF120FB41210B3F515EC9EF514AF131282
:101361001E48AD07AC06D3E5159DEC121054500B89
:10137100C3E49DFFE49C12104E500B120FC2E0FE1D
:10138100A3E0FF0213F7ECA2E713FEED13FFD31264
:101391001050500BC3E49FFFE49E12104E502712D1
:1013A1001031E0FCA3E0FDECC313FEED13FFC3ED30
:1013B1009FFDEC9EFC120FC2E0C313FEA3E0132DB0
:1013C100FFEC3EFE8030121031E0FCA3E0FDAE04E4
:1013D1007803CEC313CE13D8F9FFC3ED9FFDEC9E66
:1013E100FC120FC2E0FEA3E07803CEC313CE13D8E4
:1013F100F92DFFEC3EFE121031EEF0A3EFF0E513F4
:08140100120FB4EEF0A3EFF0AE
:0114090022C0
:03220B00A201220B
:03220E00D20122D8
:101ACB00E4FFEFC39546502B74252F120FE7E4F07C
:101ADB00743D2F121001E4F0745B2F12101AE4F016
:101AEB00EF120FDAE4F0A3F0742B2F121076E4F060
:101AFB000F80CFE4F541F540F53FF53E900096742D
:0B1B0B00FFF0E4900099F0A3F0C2018D
:011B160022AC
:020E95008F11BB
:100E970090009BE0C394034035E4F0900061E0705C
:100EA70022F512E512C39546501975F002E51212A4
:100EB700103612107EE512120FD2EEF0A3EFF005F6
:100EC7001280E0121ACBC201E4900061F022900078
:100ED70095E004F0E0B51108121F7EE4900096F04B
:100EE700900095E0D395115003020FB3E4F512E596
:100EF70012C39546507A75F002E512121036121099
:100F07007EE512120FC71210B3FFEC9EAD07FC90DF
:100F17000061E070291210BA7802C333CE33CED8FD
:100F2700F91210094040E49BFFE49AFEEF7802C3F0
:100F370033CE33CED8F9C312100A502A803212109A
:100F4700BA7803C333CE33CED8F91210094017E469
:100F57009BFFE49AFEEF7803C333CE33CED8F9FF75
:100F6700C312100B400AAF1212134F0512020EF6EE
:100F7700E512B54606900096E004F0E51175F00815
:100F87009000951210994024E4F0C20090009BE075
:100F970004F0E51175F004900096121099400DE4E5
:0C0FA70090009BF0121F5A121ACBC201DE
:010FB300221B
:041FD3004100660063
:1020850043D9187F0F7E00121DB790009012096C7E
:05209500000000002224
:09219900900064E0FEA3E0FF22C7
:1011CC00E4F50BF50AF509F508FBEB25E02468F5C9
:1011DC0082E43400F583E0FEA3E0FFE4FCFDE50BC4
:1011EC002FF50BE50A3EF50AED3509F509EC350846
:1011FC00F5080BBB14D4E4FAF9F8AF0BAE0AAD0941
:10120C00AC08120874900090120960E47F507EC301
:10121C00FDFC900090E0F8A3E0F9A3E0FAA3E0FB5A
:10122C001207E9E4FB7A10F9F81208748F0F8E0E8E
:10123C008D0D8C0CE47F7C7E15FDFCAB0FAA0EA9EA
:10124C000DA80CD3120929401AE50F947CF50FE573
:10125C000E9415F50EE50D9400F50DE50C9400F5C6
:10126C000C8009E4F50FF50EF50DF50CE47B38FA5E
:10127C00F9F8AF0FAE0EAD0DAC0C12087490006205
:05128C00EEF0A3EFF0FD
:01129100223A
:1010D100900094E06401703DF0AFAFEF75F010A4A3
:1010E100FFE5AEC4540F7C002FFFEC35F0FE9000FD
:1010F10066E025E02468F582E43400F583EEF0A390
:10110100EFF0900066E004F0D3941440081211CC83
:10111100E4900066F0900067E004F0D394965003E9
:101121000211CBE4F0900063E02414FF900062E030
:101131003400FED3900065E09F900064E09E40196A
:10114100121A7E7C007D1412079DC3900065E09DFC
:10115100F0900064E09CF0800D900062E0FFA3E05D
:10116100A3CFF0A3EFF0C3900065E094E790006493
:10117100E0940340077403F0A374E7F0900064E087
:101181007002A3E07017121A7E7C007D0512079D84
:10119100ED2401FEE43C900064F0A3CEF0900064E5
:1011A100E0FEA3E0FFD39446EE9400500475600185
:1011B10022D3EF9446EE9400400DD3EF9496EE9433
:0B11C1000050047560022275600322DC
:03221100AF602299
:101DB700EF4480F5ADC3EF9408EE9400500F740123
:101DC700A807088002C333D8FCF5AB8011EF24F8CD
:101DD700FF7401A807088002C333D8FCF5AC75A8C7
:021DE700402298
:0421DE0043AD4022AB
:0300330002202880
:10202800C0E0C083C08253ADDF53ADBF900094744D
:0920380001F0D082D083D0E03227
:0A21860043D920122217E4F55A2273
:1017A500E55A24FE603014605A24027059E55C4500
:1017B5005B7003122214E55CB45808E55BB40203C0
:1017C500122217055CE55C7002055BC394B0E55B0E
:1017D500940440358027E55C455B7003122214E5CF
:1017E5005CB40808E55BB40703122217055CE55CE9
:1017F5007002055BC39460E55B9409400CE4F55BFE
:0A180500F55C2202221412221722C1
:03221400D2DD22F6
:03221700C2DD2203
:1020D100055AE55AD394034003E4F55AE4F55BF558
:0220E1005C227F
:03221A008F5A22B6
:03221D00AF5A2293
:0421E200E4F55D22A1
:10187200E55D24FE601D14602D14603D2403704D4F
:10188200055FE55F7002055EC39410E55E940E404D
:101892003C8037055FE55F7002055EC39420E55E1C
:1018A200941C40298024055FE55F7002055EC394A5
:1018B20040E55E943840168011055FE55F700205D1
:0E18C2005EC39480E55E9470400312206F2296
:1020E300055DE55DD394044003E4F55DE4F55EF539
:0220F3005F226A
:0421E600E4F55D229D
:03222000AF5D228D
:10142400021CE6E493A3F8E493A34003F68001F2DC
:1014340008DFF48029E493A3F85407240CC8C333C9
:10144400C4540F4420C8834004F456800146F6DF98
:10145400E4800B0102040810204080901FBCE47E4D
:10146400019360BCA3FF543F30E509541FFEE4938D
:10147400A360010ECF54C025E060A840B8E493A354
:10148400FAE493A3F8E493A3C8C582C8CAC583CA7F
:10149400F0A3C8C582C8CAC583CADFE9DEE780BE37
:011FD7000009
:10073600EF8DF0A4A8F0CF8CF0A428CE8DF0A42ED7
:02074600FE2291
:10074800BC000BBE0029EF8DF084FFADF022E4CC95
:10075800F875F008EF2FFFEE33FEEC33FCEE9DEC5E
:10076800984005FCEE9DFE0FD5F0E9E4CEFD22EDA4
:10077800F8F5F0EE8420D21CFEADF075F008EF2FEE
:10078800FFED33FD4007985006D5F0F222C398FDDF
:050798000FD5F0EA227C
:10079D00C2D5EC30E709B2D5E4C39DFDE49CFCEE77
:1007AD0030E715B2D5E4C39FFFE49EFE120748C3A0
:1007BD00E49DFDE49CFC800312074830D507C3E49B
:0607CD009FFFE49EFE22E6
:1007D300C5F0F8A3E028F0C5F0F8E58215827002B1
:0607E3001583E038F0224E
:1007E900E88FF0A4CC8BF0A42CFCE98EF0A42CFCAF
:1007F9008AF0EDA42CFCEA8EF0A4CDA8F08BF0A42D
:100809002DCC3825F0FDE98FF0A42CCD35F0FCEB8B
:100819008EF0A4FEA9F0EB8FF0A4CFC5F02ECD3950
:0F082900FEE43CFCEAA42DCE35F0FDE43CFC22BD
:1008380075F008758200EF2FFFEE33FECD33CDCC77
:1008480033CCC58233C5829BED9AEC99E5829840FA
:100858000CF582EE9BFEED9AFDEC99FC0FD5F0D6D7
:10086800E4CEFBE4CDFAE4CCF9A88222B800C1B901
:100878000059BA002DEC8BF084CFCECDFCE5F0CB3F
:10088800F97818EF2FFFEE33FEED33FDEC33FCEB78
:1008980033FB10D703994004EB99FB0FD8E5E4F933
:1008A800FA227818EF2FFFEE33FEED33FDEC33FC20
:1008B800C933C910D7059BE99A4007EC9BFCE99A14
:1008C800F90FD8E0E4C9FAE4CCFB2275F010EF2F59
:1008D800FFEE33FEED33FDCC33CCC833C810D70759
:1008E8009BEC9AE899400AED9BFDEC9AFCE899F894
:0E08F8000FD5F0DAE4CDFBE4CCFAE4C8F92227
:0D090600CFF4CFCEF4CECDF4CDCCF4CC2286
:10091300EB9FF5F0EA9E42F0E99D42F0EC6480C85B
:0609230064809845F022FB
:10092900EB9FF5F0EA9E42F0E99D42F0E89C45F024
:01093900229B
:10093A00E8600FECC313FCED13FDEE13FEEF13FF9B
:03094A00D8F122BF
:10094D00E8600FEFC333FFEE33FEED33FDEC33FC08
:03095D00D8F122AC
:0C096000ECF0A3EDF0A3EEF0A3EFF0220A
:10096C00A8828583F0D083D0821209831209831266
:10097C000983120983E473E493A3C583C5F0C5838B
:10098C00C8C582C8F0A3C583C5F0C583C8C582C8D5
:01099C002238
:0C099D00A42582F582E5F03583F5832265
:101A7E00AC56AD57AE58AF597810EC4D4E4F700472
:101A8E007CA57DA5C3EC13FCED13FDEE13FEEF1349
:101A9E00FF5010EC64CCFCED644CFDEE644EFEEF9A
:101AAE0064CEFFD8DF8C568D578E588F59EE547FEB
:0D1ABE00FE228E568F5774A5F558F559225B
:00000001FF
