:030000000213BB2D
:1013BB0078FFE4F6D8FD9000007F807E01E4F0A377
:0A13CB00DFFCDEFA758160021410E9
:101990000000000100000005000A0BB800C8006448
:1019A00000020000000000040000FFFFFFFFFFFF37
:1019B0000014013A04082A0507CF013A0408270554
:1019C00007CF013A0408270507CF013A0408270585
:1019D00007CF013A0408270507CE013A0408280575
:0219E00007CF2F
:041F39004100610002
:0B20EF0090199AE493FE740193FF2205
:0B20FA0090199EE493FE740193FF22F6
:08213500901998740193FF2238
:032171007F0122C9
:101DC500AD07ED75F008A424B8F582E43419F58360
:101DD500E493FEED75F008A424B9F582E43419F511
:0C1DE50083E4937C002400FFEC3EFE220F
:10204200EF75F008A424B5F582E43419F583E4931E
:02205200FF226B
:08213D00901992740193FF2236
:0D20C90074432FF582E43400F583E0FF221C
:08214500900000E0C313FF222B
:0A210500900000E075F00384FF2253
:101FF000121DC5EF7803C333CE33CED8F9FF7C0072
:052000007D0A120748F3
:0120050022B8
:101B1200E4FBFAF50BF50AF509F508750BE0750A11
:101B220031F509F508AF0BAE0AAD09AC0878011220
:101B320009248F0B8E0A8D098C0830D71374132A4F
:101B4200F582E43400F583EBF00AEAC3940650040C
:061B52000BBB1FD18A4607
:011B5800226A
:101D0200EF14601214601414601814601A24047022
:101D12001E9019B280089019B380039019B4E4930D
:101D2200FF22E4FF0220C99019A4740193FF227FCD
:021D320000228D
:101B5900901996740193900000F09019B074019354
:101B690090004EF0121B12E4FFEFC395465020EF90
:101B790075F008A424B6F582E43419F583E493FEDC
:101B890074432FF582E43400F583EEF00F80DAE434
:061B990090004CF0A3F0E7
:011B9F002223
:100D2000E4F508F50CF50BF50AF509F510F50FF5E6
:100D30000EF50D1221925003020E32121E8E8F0CF0
:100D40008E0B8D0A8C09E4FBEBC395465047AF0C24
:100D5000AE0BAD0AAC0978011209248F0C8E0B8DF5
:100D60000A8C0930D72CE47F01FEFDFC74132BF5AF
:100D700082E43400F583E0F9F8120937E5104FF505
:100D800010E50F4EF50FE50E4DF50EE50D4CF50D8A
:100D900005080B80B3E508C394024015D200E508AE
:100DA00094034005122195800812213DEF6002C294
:100DB0000020002CE4FFFEFDFCAB10AA0FA90EA83A
:100DC0000DC3120913601090004DE004F0700690FE
:100DD000004CE004F08020E490004CF0A3F0801779
:100DE00090004AE004F07006900049E004F0E4F559
:100DF00010F50FF50EF50D1220EFD390004DE09F8A
:100E000090004CE09E400A122195E490004CF0A323
:100E1000F0D390004AE0942C900049E09401401DEA
:100E20001221959000617401F0E4900049F0A3F064
:100E3000800B9019A0E4740193FF120E46AF10AE20
:050E40000FAD0EAC0D2A
:010E4500228A
:03005B00021C5C28
:101C5C00C0E0C0F0C083C082C0D075D000C000C04E
:101C6C0001C002C003C004C005C006C0071218DDC5
:101C7C00D007D006D005D004D003D002D001D000BC
:0B1C8C00D0D0D082D083D0F0D0E03266
:041F3D00021C000082
:0121AA002212
:101D66008D0CC2AF75F402850CF5E4F5F38FF275B0
:101D7600F1F075F60A00000000000000000000F512
:101D8600F4D2AF121FD8EFB50C037F01227F0022D9
:101FD800C2AF75F402E51D2FF582E4351CF583E4E4
:071FE80093FFE4F5F4D2AF12
:011FEF0022CF
:03217400AF49224E
:101E1D00E4F548539AFB439B045391BF43924043CF
:101E2D00C114C2C2C2C475D3C775D4B0900744746F
:071E3D0080F0A37414F022F1
:101F1C00D2C49000A0E4F0A3740CF0900744E04409
:0D1F2C0080F0A3E0F0E490009EF0A3F0220E
:0D20D6000548E548D394034003E4F5482293
:03217700AF48224C
:1014DC00122174EF6401704190009EE0547FFEA3D2
:1014EC00E0FFA3E0FCA3E0FD6F7002EC6E6066D33E
:1014FC00ED9FEC9E401090009FE004F07016900061
:10150C009EE004F0800E90009FE024FFF090009E7F
:10151C00E034FFF090009E801BD39000A1E094007B
:10152C009000A0E09400401BA3E024FFF09000A0EA
:10153C00E034FFF0E04480FFA3E0900744CFF0A339
:10154C00EFF022E49000A0F0A3F0900744E0547F69
:06155C00F0C2C2C2C4226D
:101FA600AF8CEFFEAD8A7C00E42DF54BEC3EF54A96
:091FB600E4F58CF58A754E012258
:10099300E54E7003020B8BE4F54E854A4C854B4DB7
:1009A300E548147003020A8D147003020AC9147017
:1009B30003020B0324036003020B46122198EF2466
:1009C300FE6049147003020A4E24026003020B46C0
:1009D300C3E54B943AE54A94005013C3E54B941E88
:1009E300E54A94005003020B190547020B46D3E571
:1009F3004B943EE54A9400404FD3E54B945AE54A65
:100A030094004003020B371547020B46C3E54B9492
:100A130076E54A94005013C3E54B945AE54A940093
:100A23005003020B190547020B46D3E54B947AE5B5
:100A33004A94004013D3E54B9496E54A940040034F
:100A4300020B371547020B46020B43C3E54B94AE2B
:100A5300E54A94005013C3E54B9492E54A94005041
:100A630003020B190547020B46D3E54B94B2E54A43
:100A730094004013D3E54B94CEE54A94004003021F
:100A83000B371547020B46020B43C3E54B943AE57C
:100A93004A94005012C3E54B941EE54A9400500259
:100AA30080740547020B46D3E54B943EE54A940018
:100AB3004012D3E54B945AE54A94004002807515E1
:100AC30047020B46807AC3E54B9476E54A9400507F
:100AD30011C3E54B945AE54A940050028038054708
:100AE3008061D3E54B947AE54A94004011D3E54BFA
:100AF3009496E54A94004002803A15478045804029
:100B0300C3E54B94AEE54A94005013C3E54B94926E
:100B1300E54A94005004740A801C05478025D3E5F8
:100B23004B94B2E54A94004017D3E54B94CEE54A83
:100B33009400400874F62547F5478007154780035E
:100B4300754714E547D3941540117547149000A1D8
:100B5300E004F070069000A0E004F0E547C39413AE
:100B630050117547149000A1E024FFF09000A0E01D
:100B730034FFF0D39000A1E094A09000A0E0940093
:090B83004006E4F0A374A0F02286
:0F20AB0075490112216112217A121F1CC2DB221A
:10201B00E4F54912217DE4FF1221A112216D121B5F
:04202B00A0D2DB2242
:101E44001212438F548E538D528C517FC07E657D08
:101E5400527C00AB54AA53A952A851C3120913408F
:051E6400037555012289
:10188100122174EF6055E555B4010C0550E550C3C4
:1018910094034003E4F550054FE54FC3940A403BE0
:1018A100E4F54F7FC07E657D52FCAB54AA53A9522B
:1018B100A851120913400BE55570031214557555C3
:1018C1000122AF54AE53AD52AC51EF2401F554E4B3
:0B18D1003EF553E43DF552E43CF551B8
:0118DC0022E9
:10145500AF54AE53AD52AC518F0B8E0A8D098C082B
:1014650075CF10E50BFFE4AD077F0F121D66AF0BBF
:10147500AE0AAD09AC0878081209248F0B8E0A8DC7
:10148500098C0875CF10E50BFFE4AD077F0E121D23
:1014950066AF0BAE0AAD09AC0878081209248F0BAC
:1014A5008E0A8D098C0875CF10E50BFFE4AD077F1B
:1014B5000D121D66AF0BAE0AAD09AC08780812090E
:1014C500248F0B8E0A8D098C0875CF10E50BFFE470
:0714D500AD077F0C021D664C
:10124300E4F50BF50AF509F50875CF107F0C121FAD
:10125300D8E48F0BF50AF509F508AE0AAD09AC0819
:1012630078081209378F0B8E0A8D098C0875CF10F9
:101273007F0D121FD8E4FCFDFEE50B2FF50BEE35B9
:101283000AF50AED3509F509EC3508F508AF0BAE9B
:101293000AAD09FC78081209378F0B8E0A8D098C69
:1012A3000875CF107F0E121FD8E4FCFDFEE50B2F4F
:1012B300F50BEE350AF50AED3509F509EC3508F5B8
:1012C30008AF0BAE0AAD09FC78081209378F0B8EF5
:1012D3000A8D098C0875CF107F0F121FD8E4FCFD0F
:1012E300FEE50B2FF50BEE350AF50AED3509F50989
:0C12F300EC3508F508AF0BAE0AAD09FCA5
:0112FF0022CC
:101CCE0075CF10E4FD7F0C121D6675CF10E4FD7FFD
:101CDE000D121D6675CF10E4FD7F0E121D6675CFB9
:101CEE0010E4FD7F0F121D66E4F554F553F552F521
:041CFE0051F5552225
:06214D0043C12002217DC8
:03217A00D2C522A9
:03217D00C2C522B6
:061F410004230000000073
:101F8C0090004BE0FF30E711547FF0120D208F26AC
:0A1F9C008E258D248C2312218F2244
:042159005327BF2227
:100B8C00E52654E0FFE5255431FEE4FDFCFB7A013B
:100B9C00F9F8C3120913701EE52720E021052FE593
:100BAC002F7002052EC39432E52E9400401043277B
:100BBC000112209B80085327FEE4F52EF52F1221FD
:100BCC0074EF7003020D1FE52654E0FFE525543148
:100BDC00FEE4FDFC7B80FAF9F8C3120913701EE5E4
:100BEC002720E2390529E52970020528C39488E5F8
:100BFC00289413402843270412218C8020D3E52904
:100C0C009405E5289400400DE5299488E528941373
:100C1C0050031221895327FBE4F528F529E52654C6
:100C2C00E0FFE5255431FEE4FDFCFB7A10F9F8C336
:100C3C00120913701EE52720E4210522E52270021B
:100C4C000521C3940AE5219400401043271012217A
:100C5C008080085327EFE4F521F522E52654E0FFC8
:100C6C00E5255431FEE4FDFCFB7A20F9F8C31209AA
:100C7C0013701EE52720E1210531E53170020530A6
:100C8C00C3940AE530940040104327021221868059
:100C9C00085327FDE4F530F531E52654E0FFE52552
:100CAC005431FEE4FDFC7B40FAF9F8C312091370D1
:100CBC001EE52720E321052DE52D7002052CC3949C
:100CCC0088E52C9413401043270812215D800853AB
:100CDC0027F7E4F52CF52DE52654E0FFE5255431F6
:100CEC00FEE4FDFC7B20FAF9F8C3120913701CE535
:100CFC002720E51F052BE52B7002052AC3940AE576
:100D0C002A9400400E4327200221835327DFE4F569
:040D1C002AF52B2267
:03218000B2C522C3
:03218300022078BF
:03218600022066CE
:04215D005327BF2223
:0A210F00AF27EFC41313540313228B
:032189000220D65B
:03218C00021CCE64
:10209B00122174BF010612201B0214551220AB2211
:101BE00043D90753D8F8D2DAD2D9C2D84393EF43B6
:101BF000948075A3FF439C0343B3F8E4F58F9007EB
:101C000010E04408F0A3E04408F0A3E04408F0A387
:0F1C1000E04408F0A3E04408F0A3E04408F02209
:101F5500122174EF60151220BA1219E21217C0127D
:0C1F6500208A121AC8121EB31216E022C5
:101BA000D2D9D2D8D2DA90070BE054F7F0A3E054A0
:101BB000E7F0A3E054E7F0A3E054E7F0A3E0540714
:101BC000F0A3E0540FF0A3E0540FF0A3E0540FF0A3
:101BD000A3E0540FF0A3E0540FF0A3E0540FF02261
:042161004393802202
:101AC80012212C8E088F097C007D641207487D073F
:101AD8001204A8AE08AF097C007D641207487E0096
:101AE8007F0ACFCDCFCECCCE1207487D061204A8F0
:101AF800AE08AF097C007D0A120748AF057D0512C4
:091B080004A890070CE04410F061
:011B110022B1
:1016E0001221A7EF24FE602114603014603F240310
:1016F000704D90070CE054F7F0A3E054F7F0A3E02E
:1017000054F7F0A3E04408F02290070CE054F7F0FF
:10171000A3E054F7F0A3E04408803490070CE054B1
:10172000F7F0A3E04408F0A3E054F7802290070C00
:10173000E04408F0A3E054F7F0A3E054F7801090E1
:10174000070CE054F7F0A3E054F7F0A3E054F7F0EF
:06175000A3E054F7F022B3
:1019E2001221A4EF24FE60191460232402702C90AB
:1019F200070DE054EFF0A3E054EFF0A3E04410F041
:101A02002290070DE054EFF0A3E0441080189007F5
:101A12000DE04410F0A3E054EF800B90070DE0546A
:0D1A2200EFF0A3E054EFF0A3E054EFF0224A
:101EB300122198EF24FE600714600B2402800ED2D7
:101EC300D9C2D8D2DA22D2D9D2D8C2DA22C2D9D24E
:041ED300D8D2DA2265
:10208A0012210F90070BE0400454F7F0224408F0A5
:01209A002223
:0F20BA00900710E030C5044410F02254EFF022DC
:1017C000122177EF14600A14601914602824038032
:1017D0003B900711E054EFF0A3E054EFF0A3E04496
:1017E000108022900711E054EFF0A3E04410F0A322
:1017F000E054EF8010900711E04410F0A3E054EFA4
:10180000F0A3E054EFF0A3E054EFF022900711E0D2
:1018100054EFF0A3E054EFF0A3E054EFF0A3E04462
:0318200010F022A3
:1004A800EFB40A0040030207359004B8F82828730F
:1004B8000204D60205070205450205860205BA02AE
:1004C800060302064702068A0206C70206F29007DA
:1004D8000FE0FF7401A805088002C333D8FCFEF4BE
:1004E8005F90070FF0A3E04EF0A3E0FF7401A805AA
:1004F800088002C333D8FCFE4F9007110206E4902F
:10050800070FE0FF7401A805088002C333D8FCFE7A
:10051800F4FC5F90070FF0A3E05CF0A3E05CF0A3AD
:10052800E05CF0A3E04EF0A3E0FF7401A8050880AA
:1005380002C333D8FCFE4F9007140205F890070F4A
:10054800E0FF7401A805088002C333D8FCFE4F9071
:10055800070FF0A3E0FFEEF4FEEF5EF0A3E0FF74F8
:1005680001A805088002C333D8FCFC4F900711F09E
:10057800A3E04CF0A3E05EF0A3E04C020641900734
:100588000FE0FF7401A805088002C333D8FCFE4FB2
:1005980090070FF0A3E0FFEEF4FEEF5EF0A3E05E3D
:1005A800F0A3E0FF7401A805088002C333D8FC0259
:1005B800072390070FE0FF7401A805088002C333E2
:1005C800D8FCFE4F90070FF0A3E04EF0A3E0FFEE3B
:1005D800F4FEEF5EF0A3E05EF0A3E0FF7401A8056F
:1005E800088002C333D8FCFE4F900713F0A3E04EF7
:1005F800F0A3E0FFEEF4FEEF5EF02290070FE0FFBD
:100608007401A805088002C333D8FCFE4F90070F79
:10061800F0A3E04EF0A3E0FFEEF4FEEF5EF0A3E0FF
:10062800FF7401A805088002C333D8FCFC4F90076B
:1006380012F0A3E04CF0A3E05EF0A3E04CF02290AF
:10064800070FE0FF7401A805088002C333D8FCFE39
:100658004F90070FF0A3E04EF0A3E04EF0A3E04E5A
:10066800F0A3E04EF0A3E0FFEEF4FEEF5EF0A3E0AF
:10067800FF7401A805088002C333D8FC4F90071502
:10068800F02290070FE0FF7401A805088002C33329
:10069800D8FCFEF4FC5F90070FF0A3E05CF0A3E049
:1006A8005CF0A3E05CF0A3E04EF0A3E0FF7401A8C7
:1006B80005088002C333D8FCFE4F90071480699068
:1006C800070FE0FF7401A805088002C333D8FCFEB9
:1006D8004F90070FF0A3E04EF0A3E04EF0A3E04EDA
:1006E800F0A3E04EF0A3E04E803E90070FE0FF74C9
:1006F80001A805088002C333D8FCFE4F90070FF00D
:10070800A3E04EF0A3E0FFEEF4FEEF5EF0A3E0FFFF
:100718007401A805088002C333D8FCFE4F90071265
:0E072800F0A3E04EF0A3E04EF0A3E04EF0226E
:051F4700013500C1029C
:101DF100438E02438910758BC0758DF9C28ED2ABAB
:101E0100438E04E4F5C9F5C875CBFA75CA32C2CA66
:0C1E1100D2ADD2CA438905C2A9D28C22EE
:09212300758B80758DEED28E22C1
:03000B000221AB24
:0121AB003201
:03002B000215E2D9
:1015E200C0E0C0F0C083C082C0D075D000C000C0CF
:1015F20001C002C003C004C005C006C007C2CFB20A
:10160200DAE53BB40404D2DC800FE53BC3946440CA
:1016120008C2DC753B00122123053B0536E536C3C3
:10162200940A4006753401753600053AE53A7002AF
:101632000539C39410E53994274009753900753A84
:1016420000121FA6D007D006D005D004D003D002C6
:0F165200D001D000D0D0D082D083D0F0D0E03201
:101D960075CF1043913143B103121BE0122006D2D6
:101DA600AF121DF1121E1D12214D122119121562BC
:0F1DB6001221591221AA121E441221690220ABD8
:10202F00120B8C053DE53DC3940A4006E4F53D7562
:03203F003C01223F
:101F7100121F8C121F550533E533C3940A4006E442
:0B1F8100F5337532011210820214DCEF
:102054000538E538C3940A4006E4F53875370102BB
:022064001881E1
:06215300121756021823CA
:101C9700121D9675CF10E534B40106E4F534122011
:101CA7002FE53CB40106E4F53C121F71E532B4019F
:101CB70006E4F532122054E537B40106E4F537128D
:071CC700215312099380CCA8
:03001B00021C1FA5
:101C1F00C0E0C0F0C083C082C0D075D000C000C08B
:101C2F0001C002C003C004C005C006C007C28E12A7
:101C3F002165D007D006D005D004D003D002D00143
:0D1C4F00D000D0D0D082D083D0F0D0E032D1
:041F4C0041009B00B5
:100F650075F00290004F120987E0FEA3E0FFE5133C
:100F750075F002900019020987E51275F0029000DC
:100F850001020987E51275F00290003102098774A4
:100F9500252516F582E43400F58322D3E5149FEE6A
:100FA5006480F8E51364809822743D2512F582E487
:100FB5003400F58322D3FFED9FEE6480F8EC648066
:100FC5009822745B2512F582E43400F58322E0044F
:100FD500F0740D2512F582E43400F58322E51375CE
:100FE500F00290004F020987E4F0FFFEFDFCAB41E3
:100FF500AA40A93FA83EC3020913FEC3E5159FEE0B
:101005006480F8E51464809822E5415545FFE54084
:101015005544FEE53F5543FDE53E5542FC22742B04
:101025002512F582E43400F58322E0FEA3E0FF7586
:10103500F002227E00900097E0FCA3E0FD12073647
:101045008EE78FE622A4FFE0C39FE5F06480F87485
:101055008098227D0A120748AD037C00020736E01E
:10106500FCA3E0C39F2290004EE0FB3395E0FAEB32
:0D107500AE022290004EE0FF3395E0FE2217
:0C20E300EF4E6007EF1F70F81E80F52222
:021661008F1BDD
:101663001220C99000A4EFF0AF1B122042EFFB90B1
:101673000098E025E0FF900097E033FE7C00121015
:1016830058E51B120F80121064EC9E50099000A4C1
:10169300E06049148036AF1B122042EFFB900097A5
:1016A300E0FEA3E0FF7C007D071207361210587599
:1016B300F002E51B120F83E0FCA3E0D39FEC9E40F6
:1016C3001B9000A4E0FF647E6012EF04FF744325C7
:0C16D3001BF582E43400F583EFF0D20137
:0116DF0022E8
:1018DD00C20390009CE0120F75E5E5F0A3E5E4F07E
:1018ED0090009CE004F0E0C39546400BE4F09000BE
:1018FD004BE04480F08002D20390009CE0FF122068
:10190D004212103890009CE0FF1220C9E5E254808D
:10191D004FF5E290009CE02413F582E43400F5834A
:0A192D00E04480F5E8300302D2EE3A
:01193700228D
:10156200D2AFC201E490009CF090004BF0121B59E4
:10157200E4FF121D02EF2401FDE433FC7E077FD05D
:10158200120748900097EEF0A3EFF0E4FF1220421A
:101592001210387F02121D02EFC454F0FEC006E49E
:1015A200FF121D02D0E02FF5E17F03121D02E5E2DA
:1015B20054804FF5E27F04121D02EF6008E5E25409
:1015C200804480F5E27F01121D028FE3121A7C43F0
:1015D200A910900013E04480F5E8121938021ED7D2
:03218F00D2EE226B
:101E6900E4FD90004BE0547FF0D2EE90004BE0206F
:101E7900E7127FE87E031220E343CF100DEDC394F0
:041E89003240E822D9
:011E8D002232
:10193800750820121E69E4F509E509C39546501B90
:10194800E509120F7512102FE509120F83EEF0A3A7
:10195800EFF0AF09121661050980DEAF081508EF30
:1019680070D1121EFB1221358F08121E69E4F50989
:10197800E509C395465009AF09121300050980F01F
:07198800AF081508EF70E342
:01198F002235
:101ED700E4FFEFC39546501B75F002EF120F78E051
:101EE700FCA3E0FD75F002EF120F83ECF0A3EDF019
:031EF7000F80DF7A
:011EFA0022C5
:101E8E00E490009DF0F511E511C39546500EAF118B
:101E9E00121300AF11120100051180EBAF41AE40DD
:041EAE00AD3FAC3E5A
:011EB200220D
:020100008F125C
:10010200E4F51A75F002EF120F8312102FE51212A6
:100112000F78121064F514EC9EF513E47F01FEFDD6
:10012200FCA912A8011209378F458E448D438C42D7
:10013200AF12121DC58E188F19C3E5149519E51853
:10014200120FA540057515018003E4F515E5156448
:1001520001600302028774252512120F98E0C394EE
:10016200FA500A74252512120F98E004F012100EAC
:10017200E4FBFAF9F8C3120913600302026A900061
:1001820000E0F517122171EF6028E4F515F516E588
:1001920016C39546500F120F94E0C3940140020516
:1001A20015051680EAE515C394034006740F25175A
:1001B200F51774252512120F98E0C3951750030204
:1001C200026AE4F51512213DEF7051F516E516C3EA
:1001D2009546501AE51265166010122105120F9409
:1001E200E0C39F40057515018004051680DF1221CA
:1001F20071EF7052E515704EF516E516C39546502F
:1002020045E51265166011122105742B2516121090
:1002120027E0C39F4002802B051680DE122171EF7A
:100222007024F517F516E516C39546500F120F9474
:10023200E0C3940240020517051680EAE517C3944D
:10024200034003751501E515B40102D200E54145ED
:1002520045FFE5404544FEE53F4543FDE53E454259
:100262008F418E408D3FF53E120FAEE4F0120FC764
:10027200E4F0120F89E4F0A3F0740D2512F582E484
:10028200340002045DAF12121FF0120FA0400812D8
:100292001023E004F0800B90009DE004F012102384
:1002A200E4F0121078C3E49FFDE49EFCC3E5149DC4
:1002B200EC120FA54066120FA05061120FAEE412AD
:1002C2000FD5120FED60030203CA120F89E51385E1
:1002D20014F01207D31220FA120F89E0FCA3E0C334
:1002E200120FBD4009120F7EE475F0018021122029
:1002F200FAC3E49FFFE49EFE120F89E0FCA3E0C371
:10030200120FBD40030203CA120F7E74FFF5F012F2
:1003120007D3120F89E4F0A3F00203CA90004EE063
:10032200FFFD3395E0FCC3E49DFDE49CFCC3E514B2
:100332009DEC120FA5505A120FAE120FD3E4F01219
:100342000FAEE0FE75F00A84E5F07037EEC39464F8
:10035200400E120FAEE4F0D20190006104F080234F
:10036200120F7EC083C082E0FCA3E0FDEFA2E71380
:10037200FF3395E0FEC3ED9FFFEC9ED082D083F069
:10038200A3EFF0900096E06512703D74FFF0020357
:10039200CA121078120FA0402F120FAE120FED707A
:1003A20027120FD6120FD3E0B4201D120FD6E4F09D
:1003B20090004EE0A2E713A2E713FF3395E0FE128E
:1003C2000F7EEE8FF01207D312100E4D4E4F7003B8
:1003D200020469E519AE187802CEA2E713CE13D84B
:1003E200F8FFC3E5199FFFE5189EFEC3120FA15047
:1003F2006F120FC7E004F01221458F17E4F516E5DE
:1004020016C39546500F120F94E0C39401400205A3
:1004120015051680EAE515C394034006900000E036
:10042200F517120FC7E0C39517407A120FC7E4F011
:10043200AF45AE44AD43AC42120906E5415FFFE56C
:10044200405EFEE53F5DFDE53E5C8F418E408D3FA7
:10045200F53E74252512F582E43400F583E4F0229A
:10046200120FC7E014F02274252512120F98120FF2
:10047200ED7005AF12121661E546146512702690F2
:10048200009DE0C39546401DE4F516E516C395466A
:10049200500D120F94E06003751501051680ECE50E
:0504A200157002C2000C
:0104A7002232
:101EFB00E4FFEFC39546501875F002EF120F78E030
:101F0B00FCA3E0FDEF120FE4ECF0A3EDF00F80E289
:011F1B0022A3
:021300008F1349
:10130200EF120F65121064F515EC9EF514AF13126F
:101312001DC5AD07AC06D3E5159DEC121005500BAB
:10132200C3E49DFFE49C120FFF500B120F73E0FE0B
:10133200A3E0FF0213A8ECA2E713FEED13FFD31202
:101342001001500BC3E49FFFE49E120FFF502712BF
:101352000FE2E0FCA3E0FDECC313FEED13FFC3EDCF
:101362009FFDEC9EFC120F73E0C313FEA3E0132D4E
:10137200FFEC3EFE8030120FE2E0FCA3E0FDAE0483
:101382007803CEC313CE13D8F9FFC3ED9FFDEC9EB5
:10139200FC120F73E0FEA3E07803CEC313CE13D882
:1013A200F92DFFEC3EFE120FE2EEF0A3EFF0E51393
:0813B200120F65EEF0A3EFF04D
:0113BA002210
:03219200A2012285
:03219500D2012252
:101A7C00E4FFEFC39546502B74252F120F98E4F01A
:101A8C00743D2F120FB2E4F0745B2F120FCBE4F005
:101A9C00EF120F8BE4F0A3F0742B2F121027E4F04D
:101AAC000F80CFE4F541F540F53FF53E900096747C
:0B1ABC00FFF0E4900099F0A3F0C201DD
:011AC70022FC
:020E46008F110A
:100E480090009BE0C394034035E4F0900061E070AB
:100E580022F512E512C39546501975F002E51212F3
:100E68000FE712102FE512120F83EEF0A3EFF00533
:100E78001280E0121A7CC201E4900061F022900016
:100E880095E004F0E0B51108121EFBE4900096F01E
:100E9800900095E0D395115003020F64E4F512E534
:100EA80012C39546507A75F002E512120FE7121038
:100EB8002FE512120F78121064FFEC9EAD07FC901C
:100EC8000061E0702912106B7802C333CE33CED89C
:100ED800F9120FBA4040E49BFFE49AFEEF7802C390
:100EE80033CE33CED8F9C3120FBB502A803212103A
:100EF8006B7803C333CE33CED8F9120FBA4017E458
:100F08009BFFE49AFEEF7803C333CE33CED8F9FFC4
:100F1800C3120FBC400AAF121213000512020EA72B
:100F2800E512B54606900096E004F0E51175F00864
:100F380090009512104A4024E4F0C20090009BE013
:100F480004F0E51175F00490009612104A400DE483
:0C0F580090009BF0121ED7121A7CC20100
:010F6400226A
:041F500041006600E6
:1020060043D9187F0F7E00121D3490009012095696
:052016000000000022A3
:09212C00900064E0FEA3E0FF2234
:10117D00E4F50BF50AF509F508FBEB25E02468F518
:10118D0082E43400F583E0FEA3E0FFE4FCFDE50B13
:10119D002FF50BE50A3EF50AED3509F509EC350895
:1011AD00F5080BBB14D4E4FAF9F8AF0BAE0AAD0990
:1011BD00AC0812087490009012094AE47F507EC367
:1011CD00FDFC900090E0F8A3E0F9A3E0FAA3E0FBAA
:1011DD001207E9E4FB7A10F9F81208748F0F8E0EDE
:1011ED008D0D8C0CE47F7C7E15FDFCAB0FAA0EA93A
:1011FD000DA80CD3120913401AE50F947CF50FE5D9
:10120D000E9415F50EE50D9400F50DE50C9400F515
:10121D000C8009E4F50FF50EF50DF50CE47B38FAAD
:10122D00F9F8AF0FAE0EAD0DAC0C12087490006254
:05123D00EEF0A3EFF04C
:011242002289
:10108200900094E06401703DF0AFAFEF75F010A4F2
:10109200FFE5AEC4540F7C002FFFEC35F0FE90004C
:1010A20066E025E02468F582E43400F583EEF0A3DF
:1010B200EFF0900066E004F0D39414400812117D22
:1010C200E4900066F0900067E004F0D39496500339
:1010D20002117CE4F0900063E02414FF900062E0CF
:1010E2003400FED3900065E09F900064E09E4019BA
:1010F200121A2F7C007D1412079DC3900065E09D9B
:10110200F0900064E09CF0800D900062E0FFA3E0AC
:10111200A3CFF0A3EFF0C3900065E094E7900064E2
:10112200E0940340077403F0A374E7F0900064E0D6
:101132007002A3E07017121A2F7C007D0512079D22
:10114200ED2401FEE43C900064F0A3CEF090006434
:10115200E0FEA3E0FFD39446EE94005004756001D4
:1011620022D3EF9446EE9400400DD3EF9496EE9482
:0B11720000500475600222756003222B
:03219800AF602213
:101D3400EF4480F5ADC3EF9408EE9400500F7401A6
:101D4400A807088002C333D8FCF5AB8011EF24F850
:101D5400FF7401A807088002C333D8FCF5AC75A84A
:021D640040221B
:0421650043AD402224
:03003300021FBFEA
:101FBF00C0E0C083C08253ADDF53ADBF90009474B7
:091FCF0001F0D082D083D0E03291
:0A21190043D92012219EE4F55A225A
:10175600E55A24FE603014605A24027059E55C454F
:101766005B700312219BE55CB45808E55BB4020389
:1017760012219E055CE55C7002055BC394B0E55BD7
:10178600940440358027E55C455B700312219BE598
:101796005CB40808E55BB4070312219E055CE55CB2
:1017A6007002055BC39460E55B9409400CE4F55B4D
:0A17B600F55C2202219B12219E2205
:03219B00D2DD2270
:03219E00C2DD227D
:10206600055AE55AD394034003E4F55AE4F55BF5C3
:022076005C22EA
:0321A1008F5A2230
:0321A400AF5A220D
:04216900E4F55D221A
:10182300E55D24FE601D14602D14603D2403704D9E
:10183300055FE55F7002055EC39410E55E940E409C
:101843003C8037055FE55F7002055EC39420E55E6B
:10185300941C40298024055FE55F7002055EC394F4
:1018630040E55E943840168011055FE55F70020520
:0E1873005EC39480E55E9470400312201B2239
:10207800055DE55DD394044003E4F55DE4F55EF5A4
:022088005F22D5
:04216D00E4F55D2216
:0321A700AF5D2207
:1013D500021C97E493A3F8E493A34003F68001F27B
:1013E50008DFF48029E493A3F85407240CC8C33319
:1013F500C4540F4420C8834004F456800146F6DFE8
:10140500E4800B0102040810204080901F39E47E1F
:10141500019360BCA3FF543F30E509541FFEE493DC
:10142500A360010ECF54C025E060A840B8E493A3A3
:10143500FAE493A3F8E493A3C8C582C8CAC583CACE
:10144500F0A3C8C582C8CAC583CADFE9DEE780BE86
:011F5400008C
:10073600EF8DF0A4A8F0CF8CF0A428CE8DF0A42ED7
:02074600FE2291
:10074800BC000BBE0029EF8DF084FFADF022E4CC95
:10075800F875F008EF2FFFEE33FEEC33FCEE9DEC5E
:10076800984005FCEE9DFE0FD5F0E9E4CEFD22EDA4
:10077800F8F5F0EE8420D21CFEADF075F008EF2FEE
:10078800FFED33FD4007985006D5F0F222C398FDDF
:050798000FD5F0EA227C
:10079D00C2D5EC30E709B2D5E4C39DFDE49CFCEE77
:1007AD0030E715B2D5E4C39FFFE49EFE120748C3A0
:1007BD00E49DFDE49CFC800312074830D507C3E49B
:0607CD009FFFE49EFE22E6
:1007D300C5F0F8A3E028F0C5F0F8E58215827002B1
:0607E3001583E038F0224E
:1007E900E88FF0A4CC8BF0A42CFCE98EF0A42CFCAF
:1007F9008AF0EDA42CFCEA8EF0A4CDA8F08BF0A42D
:100809002DCC3825F0FDE98FF0A42CCD35F0FCEB8B
:100819008EF0A4FEA9F0EB8FF0A4CFC5F02ECD3950
:0F082900FEE43CFCEAA42DCE35F0FDE43CFC22BD
:1008380075F008758200EF2FFFEE33FECD33CDCC77
:1008480033CCC58233C5829BED9AEC99E5829840FA
:100858000CF582EE9BFEED9AFDEC99FC0FD5F0D6D7
:10086800E4CEFBE4CDFAE4CCF9A88222B800C1B901
:100878000059BA002DEC8BF084CFCECDFCE5F0CB3F
:10088800F97818EF2FFFEE33FEED33FDEC33FCEB78
:1008980033FB10D703994004EB99FB0FD8E5E4F933
:1008A800FA227818EF2FFFEE33FEED33FDEC33FC20
:1008B800C933C910D7059BE99A4007EC9BFCE99A14
:1008C800F90FD8E0E4C9FAE4CCFB2275F010EF2F59
:1008D800FFEE33FEED33FDCC33CCC833C810D70759
:1008E8009BEC9AE899400AED9BFDEC9AFCE899F894
:0E08F8000FD5F0DAE4CDFBE4CCFAE4C8F92227
:0D090600CFF4CFCEF4CECDF4CDCCF4CC2286
:10091300EB9FF5F0EA9E42F0E99D42F0E89C45F03A
:0109230022B1
:10092400E8600FECC313FCED13FDEE13FEEF13FFB1
:03093400D8F122D5
:10093700E8600FEFC333FFEE33FEED33FDEC33FC1E
:03094700D8F122C2
:0C094A00ECF0A3EDF0A3EEF0A3EFF02220
:10095600A8828583F0D083D08212096D12096D12A8
:10096600096D12096DE473E493A3C583C5F0C583CD
:10097600C8C582C8F0A3C583C5F0C583C8C582C8EB
:01098600224E
:0C098700A42582F582E5F03583F583227B
:101A2F00AC56AD57AE58AF597810EC4D4E4F7004C1
:101A3F007CA57DA5C3EC13FCED13FDEE13FEEF1398
:101A4F00FF5010EC64CCFCED644CFDEE644EFEEFE9
:101A5F0064CEFFD8DF8C568D578E588F59EE547F3A
:0D1A6F00FE228E568F5774A5F558F55922AA
:00000001FF
