:03000000021236B3
:1012360078FFE4F6D8FD9000007F807E01E4F0A3FD
:0A124600DFFCDEFA75816002128BF6
:101B5D0000000001000A0005000A0BB800C800646F
:101B6D0000020000000000040000FFFFFFFFFFFF68
:101B7D000014011B0408190501BB014404082604C7
:101B8D000152013F04082705019701330408270579
:101B9D00017501420408270501E5014404082705E4
:021BAD0000EC4A
:042135004100610004
:0B233400901B67E493FE740193FF22EE
:0B233F00901B6BE493FE740193FF22DF
:08239000901B65740193FF220C
:0323F7007F012241
:101FD700AD07ED75F008A42485F582E4341BF5837D
:101FE700E493FEED75F008A42486F582E4341BF52E
:0C1FF70083E4937C002400FFEC3EFE22FB
:10228700EF75F008A42482F582E4341BF583E49308
:02229700FF2224
:08239800901B5F740193FF220A
:0D230E0074432FF582E43400F583E0FF22D4
:0823A000900000E0C313FF22CE
:0A236000900000E075F00384FF22F6
:10220A00121FD7EF7803C333CE33CED8F9FF7C0041
:05221A007D0A120748D7
:01221F00229C
:101CDF00E4FBFAF50FF50EF50DF50C750FE0750E2B
:101CEF0031F50DF50CAF0FAE0EAD0DAC0C7801123A
:101CFF0009248F0F8E0E8D0D8C0C30D71374132A71
:101D0F00F582E43400F583EBF00AEAC3940650043D
:061D1F000BBB1FD18A4638
:011D2500229B
:101F4300EF14601214601414601814601A240470DF
:101F53001E901B7F8008901B808003901B81E4935D
:101F6300FF22E4FF02230E901B71740193FF227F73
:021F730000224A
:101D2600901B63740193900000F0901B7D740193E7
:101D360090004EF0121CDFE4FFEFC395465020EFF3
:101D460075F008A42483F582E4341BF583E493FE3E
:101D560074432FF582E43400F583EEF00F80DAE465
:061D660090004CF0A3F018
:011D6C002254
:100B7600E4F508F50CF50BF50AF509F510F50FF592
:100B86000EF50D12240C5003020C881220CB8F0C8C
:100B96008E0B8D0A8C09E4FBEBC395465047AF0CD0
:100BA600AE0BAD0AAC0978011209248F0C8E0B8DA1
:100BB6000A8C0930D72CE47F01FEFDFC74132BF55B
:100BC60082E43400F583E0F9F8120937E5104FF5B1
:100BD60010E50F4EF50FE50E4DF50EE50D4CF50D36
:100BE60005080B80B3E508C394024015D200E5085A
:100BF6009403400512240F8008122398EF6002C266
:100C06000020002CE4FFFEFDFCAB10AA0FA90EA8E5
:100C16000DC3120913601090004DE004F0700690A9
:100C2600004CE004F08020E490004CF0A3F0801724
:100C360090004AE004F07006900049E004F0E4F504
:100C460010F50FF50EF50D122334D390004DE09FED
:100C560090004CE09E400A12240FE490004CF0A352
:100C6600F0D390004AE0942C900049E09401401D96
:100C760012240F9000617401F0E4900049F0A3F093
:100C8600800B901B6DE4740193FF120DBCAF10AE88
:050C96000FAD0EAC0DD6
:010C9B002236
:03005B00021E6919
:101E6900C0E0C0F0C083C082C0D075D000C000C03F
:101E790001C002C003C004C005C006C007121AAAE7
:101E8900D007D006D005D004D003D002D001D000AD
:0B1E9900D0D0D082D083D0F0D0E03257
:04213900021C000084
:012424002295
:101FA7008D10C2AF75F4028510F5E4F5F38FF27565
:101FB700F1F075F60A00000000000000000000F5CF
:101FC700F4D2AF1221F2EFB510037F01227F002276
:1021F200C2AF75F402E51D2FF582E4351CF583E4C8
:0722020093FFE4F5F4D2AFF5
:0122090022B2
:0323FA00AF4922C6
:10205A00E4F548539AFB439B045391BF4392404390
:10206A00C114C2C2C2C475D3E875D4B3900744740C
:07207A0080F0A37414F022B2
:10215100D2C49000A1E4F0A304F0900744E04480CD
:0C216100F0A3E0F0E490009FF0A3F02257
:0D231B000548E548D394034003E4F548224B
:0323FD00AF4822C4
:1013EF001223FAEF6401704190009FE0547FFEA337
:1013FF00E0FFA3E0FCA3E0FD6F7002EC6E6066D32C
:10140F00ED9FEC9E40109000A0E004F0701690004D
:10141F009FE004F0800E9000A0E024FFF090009F6A
:10142F00E034FFF090009F801BD39000A2E0940067
:10143F009000A1E09400401BA3E024FFF09000A1D6
:10144F00E034FFF0E04480FFA3E0900744CFF0A327
:10145F00EFF022E49000A1F0A3F0900744E0547F56
:06146F00F0C2C2C2C4225B
:1021C000AF8CEFFEAD8A7C00E42DF54BEC3EF54A7A
:0921D000E4F58CF58A754E01223C
:1012D000E54E7003021367E4F54E854A4C854B4D8D
:1012E000E54814602F146031146033240370321207
:1012F0002412EF24FE600F14600E14600D14600FB2
:101300002404701D800E801180141217C6801212E2
:10131000183B800D12166780081216DC8003121726
:1013200051E547D3941540117547149000A2E0048D
:10133000F070069000A1E004F0E547C3941350114B
:101340007547149000A2E024FFF09000A1E034FF64
:10135000F0D39000A2E094209000A1E09403400715
:081360007403F0A37420F022D5
:10166700C3E54B945FE54A9400502CC3E54B943295
:10167700E54A9400500F9000A2E02414F09000A1D6
:10168700E03400F022C3E54B9446E54A9400500449
:10169700740A8035054722D3E54B94FAE54A94004E
:1016A700400F9000A2E024ECF09000A1E034FFF09E
:1016B70022D3E54B9466E54A94004015D3E54B9455
:1016C70082E54A9400400774F62547F547221547F7
:0516D7002275471422FA
:1016DC00C3E54B942AE54A9401502CC3E54B94FA8C
:1016EC00E54A9400500F9000A2E02414F09000A161
:1016FC00E03400F022C3E54B940EE54A940150040B
:10170C00740A8035054722D3E54B945EE54A940173
:10171C00400F9000A2E024ECF09000A1E034FFF028
:10172C0022D3E54B942EE54A94014015D3E54B9416
:10173C004AE54A9401400774F62547F547221547B8
:05174C00227547142284
:10175100C3E54B9406E54A9402502CC3E54B94D65D
:10176100E54A9401500F9000A2E02414F09000A1EA
:10177100E03400F022C3E54B94EAE54A94015004B9
:10178100740A8035054722D3E54B943AE54A940221
:10179100400F9000A2E024ECF09000A1E034FFF0B3
:1017A10022D3E54B940AE54A94024015D3E54B94C4
:1017B10026E54A9402400774F62547F54722154766
:0517C10022754714220F
:1017C600C3E54B94A8E54A9400502CC3E54B9478A6
:1017D600E54A9400500F9000A2E02414F09000A176
:1017E600E03400F022C3E54B948CE54A94005004A3
:1017F600740A8035054722D3E54B94DCE54A94000C
:10180600400F9000A2E024ECF09000A1E034FFF03D
:1018160022D3E54B94ACE54A94004015D3E54B94AE
:10182600C8E54A9400400774F62547F54722154750
:05183600227547142299
:10183B00C3E54B948EE54A9401502CC3E54B945E63
:10184B00E54A9401500F9000A2E02414F09000A1FF
:10185B00E03400F022C3E54B9472E54A9401500446
:10186B00740A8035054722D3E54B94C2E54A9401AF
:10187B00400F9000A2E024ECF09000A1E034FFF0C8
:10188B0022D3E54B9492E54A94014015D3E54B9452
:10189B00AEE54A9401400774F62547F547221547F4
:0518AB00227547142224
:102220007549011223E7122400122151C2DB122347
:052230004AE4F548221C
:10216D00E4F549122403E4FF12241B1223F3121D7C
:0C217D006DD2DB12234A121368022355B6
:102081001210BE8F548E538D528C517F007EBA7DBB
:10209100DB7C00AB54AA53A952A851C312091340C7
:0520A10003755501224A
:1019EB001223FAEF605AE555B4010C0550E550C3CC
:1019FB0094034003E4F550054FE54FC3940A403B75
:101A0B00E4F54FFF7EBA7DDBFCAB54AA53A952A879
:101A1B0051120913400CE5557003121368755501EB
:101A2B008019AF54AE53AD52AC51EF2401F554E4D1
:101A3B003EF553E43DF552E43CF551AF551222F01F
:011A4B002278
:10136800AF54AE53AD52AC518F0F8E0E8D0D8C0C09
:1013780075CF10E50FFFE4AD077F0F121FA7AF0F62
:10138800AE0EAD0DAC0C78081209248F0F8E0E8DA1
:101398000D8C0C75CF10E50FFFE4AD077F0E121F03
:1013A800A7AF0FAE0EAD0DAC0C78081209248F0F45
:1013B8008E0E8D0D8C0C75CF10E50FFFE4AD077FF9
:1013C8000D121FA7AF0FAE0EAD0DAC0C78081209A9
:1013D800248F0F8E0E8D0D8C0C75CF10E50FFFE44A
:0713E800AD077F0C021FA7F7
:1010BE00E4F50FF50EF50DF50C75CF107F0C122122
:1010CE00F2E48F0FF50EF50DF50CAE0EAD0DAC0C6A
:1010DE0078081209378F0F8E0E8D0D8C0C75CF1070
:1010EE007F0D1221F2E4FCFDFEE50F2FF50FEE351C
:1010FE000EF50EED350DF50DEC350CF50CAF0FAE06
:10110E000EAD0DFC78081209378F0F8E0E8D0D8CDB
:10111E000C75CF107F0E1221F2E4FCFDFEE50F2FB1
:10112E00F50FEE350EF50EED350DF50DEC350CF526
:10113E000CAF0FAE0EAD0DFC78081209378F0F8E67
:10114E000E8D0D8C0C75CF107F0F1221F2E4FCFD6D
:10115E00FEE50F2FF50FEE350EF50EED350DF50DF7
:0C116E00EC350CF50CAF0FAE0EAD0DFC17
:01117A002252
:101EDB0075CF10E4FD7F0C121FA775CF10E4FD7FAB
:101EEB000D121FA775CF10E4FD7F0E121FA775CF24
:101EFB0010E4FD7F0F121FA7E4F554F553F552F5CF
:041F0B0051F5552215
:0623CF0043C120022403BB
:03240000C2C52230
:03240300D2C5221D
:06213D0004230000000075
:101F0F0090004BE0FF30E72B547FF0120B768F26BB
:101F1F008E258D248C23E52654E0FFE5255431FED4
:101F2F00E4FDFCFBFAF9F8C3120913600312234A0C
:041F3F00122409223D
:0623D5005327BF02234A5A
:0B234A009000A51209560000000022C0
:100993007F207EBF7D027C009000A5E0F8A3E0F9F4
:1009A300A3E0FAA3E0FBC3120913400543274080E9
:1009B3001F9000A5E0FCA3E0FDA3E0FEA3E024015B
:1009C300FFE43EFEE43DFDE43CFC9000A512094A31
:1009D300E52654E0FFE5255431FEE4FDFCFB7A01F6
:1009E300F9F8C31209137021E52720E61C20E0392A
:1009F300052FE52F7002052EC39488E52E9413402E
:100A0300284327011223C08020D3E52F9405E52E28
:100A13009400400DE52F9488E52E94135003122281
:100A2300355327FEE4F52EF52F1223FAEF70030258
:100A33000B75E52654E0FFE5255431FEE4FDFC7B10
:100A430080FAF9F8C31209137021E52720E61C2068
:100A5300E2210529E52970020528C39432E528948B
:100A63000040104327041223B880085327FBE4F502
:100A730028F529E52654E0FFE5255431FEE4FDFC85
:100A8300FB7A10F9F8C31209137021E52720E61C3D
:100A930020E4210522E52270020521C3940AE52101
:100AA300940040104327101223C880085327EFE413
:100AB300F521F522E52654E0FFE5255431FEE4FD5A
:100AC300FCFB7A20F9F8C31209137021E52720E60D
:100AD3001C20E1210531E53170020530C3940AE59C
:100AE30030940040104327021223B080085327FD9F
:100AF300E4F530F531E52654E0FFE5255431FEE415
:100B0300FDFC7B40FAF9F8C3120913701EE5272098
:100B1300E321052DE52D7002052CC39488E52C9463
:100B230013401043270812240680085327F7E4F5DF
:100B33002CF52DE52654E0FFE5255431FEE4FDFCBC
:100B43007B20FAF9F8C3120913701FE52720E61A70
:100B530020E51F052BE52B7002052AC3940AE52A1D
:100B63009400400E4327200223A85327DFE4F52AED
:030B7300F52B223D
:0723C800B2C57F0A0223E108
:0B2355005327BF12234A7F0A0223E136
:0823A8001222AB7F0A0223E1BF
:0823B0001222997F0A0223E1C9
:0324060002235559
:0A236A00AF27EFC41313540313222E
:0823B80012231B7F0A0223E13E
:0823C000121EDB7F0A0223E17B
:102235007F0A1223E11223FABF010612216D021350
:052245006812222022B6
:101DED0043D90753D8F8D2DAD2D9C2D84393EF43A7
:101DFD00948075A3FF439C0343B3F8E4F58F9007DC
:101E0D0010E04408F0A3E04408F0A3E04408F0A378
:0F1E1D00E04408F0A3E04408F0A3E04408F022FA
:102189001223FAEF60151222FF121BAF12198812DF
:0C21990022CF121C9512202F1215F122EB
:0F22F000900715E0BF01044410F02254EFF022D4
:101D6D00D2D9D2D8D2DA90070BE054F7F0A3E054D1
:101D7D00E7F0A3E054E7F0A3E054E7F0A3E0540745
:101D8D00F0A3E0540FF0A3E0540FF0A3E0540FF0D4
:101D9D00A3E0540FF0A3E0540FF0A3E0540FF02292
:101DAD00C2D9C2D8C2DA90070BE04408F0A3E044D0
:101DBD0018F0A3E04418F0A3E04418F0A3E044F8B1
:101DCD00F0A3E044F8F0A3E044F8F0A3E044F8F009
:101DDD00A3E044F8F0A3E044F8F0A3E044F8F022C7
:0423E700439380227A
:101C95001223878E088F097C007D641207487D0713
:101CA5001204A8AE08AF097C007D641207487E00C7
:101CB5007F0ACFCDCFCECCCE1207487D061204A821
:101CC500AE08AF097C007D0A120748AF057D0512F5
:091CD50004A890070CE04410F093
:011CDE0022E3
:1015F100122421EF24FE602114603014603F240383
:10160100704D90070CE054F7F0A3E054F7F0A3E01D
:1016110054F7F0A3E04408F02290070CE054F7F0EF
:10162100A3E054F7F0A3E04408803490070CE054A1
:10163100F7F0A3E04408F0A3E054F7802290070CF0
:10164100E04408F0A3E054F7F0A3E054F7801090D1
:10165100070CE054F7F0A3E054F7F0A3E054F7F0DF
:06166100A3E054F7F022A3
:101BAF0012241EEF24FE60191460232402702C905F
:101BBF00070DE054EFF0A3E054EFF0A3E04410F072
:101BCF002290070DE054EFF0A3E044108018900727
:101BDF000DE04410F0A3E054EF800B90070DE0549C
:0D1BEF00EFF0A3E054EFF0A3E054EFF0227C
:10202F00122412EF24FE60111460121460042403B2
:10203F008012C2D9C2D8D2DA22C2D98002D2D9D262
:0B204F00D8C2DA22C2D9D2D8D2DA22DD
:1022CF0012236A90070BE0400454F7F0224408F001
:0122DF0022DC
:0F22FF00900710E020C5044410F02254EFF022A5
:101988001223FDEF14600A146019146028240380E0
:101998003B900711E054EFF0A3E054EFF0A3E044CC
:1019A800108022900711E054EFF0A3E04410F0A358
:1019B800E054EF8010900711E04410F0A3E054EFDA
:1019C800F0A3E054EFF0A3E054EFF022900711E009
:1019D80054EFF0A3E054EFF0A3E054EFF0A3E04499
:0319E80010F022DA
:1004A800EFB40A0040030207359004B8F82828730F
:1004B8000204D60205070205450205860205BA02AE
:1004C800060302064702068A0206C70206F29007DA
:1004D8000FE0FF7401A805088002C333D8FCFEF4BE
:1004E8005F90070FF0A3E04EF0A3E0FF7401A805AA
:1004F800088002C333D8FCFE4F9007110206E4902F
:10050800070FE0FF7401A805088002C333D8FCFE7A
:10051800F4FC5F90070FF0A3E05CF0A3E05CF0A3AD
:10052800E05CF0A3E04EF0A3E0FF7401A8050880AA
:1005380002C333D8FCFE4F9007140205F890070F4A
:10054800E0FF7401A805088002C333D8FCFE4F9071
:10055800070FF0A3E0FFEEF4FEEF5EF0A3E0FF74F8
:1005680001A805088002C333D8FCFC4F900711F09E
:10057800A3E04CF0A3E05EF0A3E04C020641900734
:100588000FE0FF7401A805088002C333D8FCFE4FB2
:1005980090070FF0A3E0FFEEF4FEEF5EF0A3E05E3D
:1005A800F0A3E0FF7401A805088002C333D8FC0259
:1005B800072390070FE0FF7401A805088002C333E2
:1005C800D8FCFE4F90070FF0A3E04EF0A3E0FFEE3B
:1005D800F4FEEF5EF0A3E05EF0A3E0FF7401A8056F
:1005E800088002C333D8FCFE4F900713F0A3E04EF7
:1005F800F0A3E0FFEEF4FEEF5EF02290070FE0FFBD
:100608007401A805088002C333D8FCFE4F90070F79
:10061800F0A3E04EF0A3E0FFEEF4FEEF5EF0A3E0FF
:10062800FF7401A805088002C333D8FCFC4F90076B
:1006380012F0A3E04CF0A3E05EF0A3E04CF02290AF
:10064800070FE0FF7401A805088002C333D8FCFE39
:100658004F90070FF0A3E04EF0A3E04EF0A3E04E5A
:10066800F0A3E04EF0A3E0FFEEF4FEEF5EF0A3E0AF
:10067800FF7401A805088002C333D8FC4F90071502
:10068800F02290070FE0FF7401A805088002C33329
:10069800D8FCFEF4FC5F90070FF0A3E05CF0A3E049
:1006A8005CF0A3E05CF0A3E04EF0A3E0FF7401A8C7
:1006B80005088002C333D8FCFE4F90071480699068
:1006C800070FE0FF7401A805088002C333D8FCFEB9
:1006D8004F90070FF0A3E04EF0A3E04EF0A3E04EDA
:1006E800F0A3E04EF0A3E04E803E90070FE0FF74C9
:1006F80001A805088002C333D8FCFE4F90070FF00D
:10070800A3E04EF0A3E0FFEEF4FEEF5EF0A3E0FFFF
:100718007401A805088002C333D8FCFE4F90071265
:0E072800F0A3E04EF0A3E04EF0A3E04EF0226E
:05214300013500C1029E
:10200300438E02438910758BC0758DF9C28ED2AB96
:10201300438E04E4F5C9F5C875CBFA75CA32C2CA52
:0C202300D2ADD2CA438905C2A9D28C22DA
:09237E00758B80758DEED28E2264
:03000B00022425A7
:012425003284
:03002B0002157447
:10157400C0E0C0F0C083C082C0D075D000C000C03D
:1015840001C002C003C004C005C006C007C2CFE545
:101594003BB40404D2DC800FE53BC394644008C22E
:1015A400DC753B0012237E053B0536E536C3940A01
:1015B4004006753401753600053AE53A700205397E
:1015C400C39410E53994274009753900753A00121F
:1015D40021C0D007D006D005D004D003D002D0015A
:0D15E400D000D0D0D082D083D0F0D0E03243
:1018B00075CF1043913143B103121DED12225FD257
:1018C000AF12200312205A1223CF12237412147560
:1018D0001223D51224241220811223EF1222E012A7
:1018E0001DADE4F50BF50AF509F5087F807E387D1E
:1018F000017C00AB0BAA0AA909A808C3120913505E
:101900001A75CF10E50B2401F50BE4350AF50AE44E
:0E1910003509F509E43508F50880D002216D8F
:10227400120993053DE53DC3940A4006E4F53D7516
:032284003C0122F8
:1021A500121F0F0533E533C3940A4006E4F5337572
:0B21B5003201120C9C1213EF0222BD3D
:10224A000538E538C3940A4006E4F53875370112B3
:05225A0019EB022189CF
:0623DB0012191E021A4C4B
:101EA4001218B075CF10E534B40106E4F5341222EB
:101EB40074E53CB40106E4F53C1221A5E532B40115
:101EC40006E4F53212224AE537B40106E4F5371286
:071ED40023DB1212D080CCC9
:03001B00021E2C96
:101E2C00C0E0C0F0C083C082C0D075D000C000C07C
:101E3C0001C002C003C004C005C006C007C28E1298
:101E4C0023EBD007D006D005D004D003D002D001AC
:0D1E5C00D000D0D0D082D083D0F0D0E032C2
:0421480041009C00B6
:100EDB0075F00290004F120987E0FEA3E0FFE513C7
:100EEB0075F002900019020987E51275F002900067
:100EFB0001020987E51275F002900031020987742F
:100F0B00252516F582E43400F58322D3E5149FEEF4
:100F1B006480F8E51364809822743D2512F582E411
:100F2B003400F58322D3FFED9FEE6480F8EC6480F0
:100F3B009822745B2512F582E43400F58322E004D9
:100F4B00F0740D2512F582E43400F58322E5137558
:100F5B00F00290004F020987E4F0FFFEFDFCAB416D
:100F6B00AA40A93FA83EC3020913FEC3E5159FEE95
:100F7B006480F8E51464809822E5415545FFE5400F
:100F8B005544FEE53F5543FDE53E5542FC22742B8F
:100F9B002512F582E43400F58322E0FEA3E0FF7511
:100FAB00F002227E00900098E0FCA3E0FD120736D1
:100FBB008EE78FE622A4FFE0C39FE5F06480F87410
:100FCB008098227D0A120748AD037C00020736E0A9
:100FDB00FCA3E0C39F2290004EE0FB3395E0FAEBBD
:0D0FEB00AE022290004EE0FF3395E0FE22A2
:0C232800EF4E6007EF1F70F81E80F522DA
:0214F5008F1B4B
:1014F70012230E9000AAEFF0AF1B122287EFFB908A
:101507000099E025E0FF900098E033FE7C00120F81
:10151700CEE51B120EF6120FDAEC9E50099000AAC8
:10152700E06049148036AF1B122287EFFB900098CA
:10153700E0FEA3E0FF7C007D07120736120FCE7591
:10154700F002E51B120EF9E0FCA3E0D39FEC9E40EE
:101557001B9000AAE0FF647E6012EF04FF7443252E
:0C1567001BF582E43400F583EFF0D201A4
:011573002255
:101AAA00C20390009DE0120EEBE5E5F0A3E5E4F039
:101ABA0090009DE004F0E0C39546400BE4F09000EE
:101ACA004BE04480F08002D20390009DE0FF122296
:101ADA0087120FAE90009DE0FF12230EE5E25480BC
:101AEA004FF5E290009DE02413F582E43400F5837B
:0A1AFA00E04480F5E8300302D2EE6C
:011B040022BE
:10147500D2AFC201E490009DF090004BF0121D2602
:10148500E4FF121F43EF2401FDE433FC7E077FD008
:10149500120748900098EEF0A3EFF0E4FF122287C0
:1014A500120FAE7F02121F43EFC454F0FEC006E4D4
:1014B500FF121F43D0E02FF5E17F03121F43E5E242
:1014C50054804FF5E27F04121F43EF6008E5E254B4
:1014D500804480F5E27F01121F438FE3121C4943CC
:1014E500A910900013E04480F5E8121B050220F0D6
:03240900D2EE22EE
:1020A600E4FD90004BE0547FF0D2EE90004BE02030
:1020B600E7127FE87E0312232843CF100DEDC39469
:0420C6003240E8229A
:0120CA0022F3
:101B0500750C201220A6E4F50DE50DC39546501B76
:101B1500E50D120EEB120FA5E50D120EF9EEF0A371
:101B2500EFF0AF0D1214F5050D80DEAF0C150CEFBF
:101B350070D11221141223908F0C1220A6E4F50DFA
:101B4500E50DC395465009AF0D12117B050D80F0CB
:071B5500AF0C150CEF70E36B
:011B5C002266
:1020F000E4FFEFC39546501B75F002EF120EEEE0C1
:10210000FCA3E0FD75F002EF120EF9ECF0A3EDF088
:032110000F80DF5E
:0121130022A9
:1020CB00E490009EF0F511E511C39546500EAF114B
:1020DB0012117BAF11120100051180EBAF41AE4025
:0420EB00AD3FAC3E1B
:0120EF0022CE
:020100008F125C
:10010200E4F51A75F002EF120EF9120FA5E51212BC
:100112000EEE120FDAF514EC9EF513E47F01FEFDEC
:10012200FCA912A8011209378F458E448D438C42D7
:10013200AF12121FD78E188F19C3E5149519E5183F
:10014200120F1B40057515018003E4F515E51564D2
:1001520001600302028774252512120F0EE0C39478
:10016200FA500A74252512120F0EE004F0120F84C1
:10017200E4FBFAF9F8C3120913600302026A900061
:1001820000E0F5171223F7EF6028E4F515F516E500
:1001920016C39546500F120F0AE0C39401400205A0
:1001A20015051680EAE515C394034006740F25175A
:1001B200F51774252512120F0EE0C395175003028E
:1001C200026AE4F515122398EF7051F516E516C38D
:1001D2009546501AE51265166010122360120F0A36
:1001E200E0C39F40057515018004051680DF1223C8
:1001F200F7EF7052E515704EF516E516C3954650A9
:1002020045E51265166011122360742B2516120F34
:100212009DE0C39F4002802B051680DE1223F7EF7C
:100222007024F517F516E516C39546500F120F0AFE
:10023200E0C3940240020517051680EAE517C3944D
:10024200034003751501E515B40102D200E54145ED
:1002520045FFE5404544FEE53F4543FDE53E454259
:100262008F418E408D3FF53E120F24E4F0120F3D78
:10027200E4F0120EFFE4F0A3F0740D2512F582E40F
:10028200340002045DAF1212220A120F1640081245
:100292000F99E004F0800B90009EE004F0120F9999
:1002A200E4F0120FEEC3E49FFDE49EFCC3E5149D4F
:1002B200EC120F1B4066120F165061120F24E4124B
:1002C2000F4B120F6360030203CA120EFFE5138580
:1002D20014F01207D312233F120EFFE0FCA3E0C377
:1002E200120F334009120EF4E475F001802112233B
:1002F2003FC3E49FFFE49EFE120EFFE0FCA3E0C3B7
:10030200120F3340030203CA120EF474FFF5F01207
:1003120007D3120EFFE4F0A3F00203CA90004EE0EE
:10032200FFFD3395E0FCC3E49DFDE49CFCC3E514B2
:100332009DEC120F1B505A120F24120F49E4F012B7
:100342000F24E0FE75F00A84E5F07037EEC3946482
:10035200400E120F24E4F0D20190006104F08023D9
:10036200120EF4C083C082E0FCA3E0FDEFA2E7130B
:10037200FF3395E0FEC3ED9FFFEC9ED082D083F069
:10038200A3EFF0900097E06512703D74FFF0020356
:10039200CA120FEE120F16402F120F24120F6370A3
:1003A20027120F4C120F49E0B4201D120F4CE4F03B
:1003B20090004EE0A2E713A2E713FF3395E0FE128E
:1003C2000EF4EE8FF01207D3120F844D4E4F7003CE
:1003D200020469E519AE187802CEA2E713CE13D84B
:1003E200F8FFC3E5199FFFE5189EFEC3120F1750D1
:1003F2006F120F3DE004F01223A08F17E4F516E50B
:1004020016C39546500F120F0AE0C394014002052D
:1004120015051680EAE515C394034006900000E036
:10042200F517120F3DE0C39517407A120F3DE4F025
:10043200AF45AE44AD43AC42120906E5415FFFE56C
:10044200405EFEE53F5DFDE53E5C8F418E408D3FA7
:10045200F53E74252512F582E43400F583E4F0229A
:10046200120F3DE014F02274252512120F0E120F06
:10047200637005AF121214F5E546146512702690EA
:10048200009EE0C39546401DE4F516E516C3954669
:10049200500D120F0AE06003751501051680ECE598
:0504A200157002C2000C
:0104A7002232
:10211400E4FFEFC39546501875F002EF120EEEE09F
:10212400FCA3E0FDEF120F5AECF0A3EDF00F80E2F8
:012134002288
:02117B008F13D0
:10117D00EF120EDB120FDAF515EC9EF514AF13120C
:10118D001FD7AD07AC06D3E5159DEC120F7B500BA9
:10119D00C3E49DFFE49C120F75500B120EE9E0FEA7
:1011AD00A3E0FF021223ECA2E713FEED13FFD3120F
:1011BD000F77500BC3E49FFFE49E120F755027125B
:1011CD000F58E0FCA3E0FDECC313FEED13FFC3EDE0
:1011DD009FFDEC9EFC120EE9E0C313FEA3E0132D60
:1011ED00FFEC3EFE8030120F58E0FCA3E0FDAE0494
:1011FD007803CEC313CE13D8F9FFC3ED9FFDEC9E3C
:10120D00FC120EE9E0FEA3E07803CEC313CE13D893
:10121D00F92DFFEC3EFE120F58EEF0A3EFF0E513A3
:08122D00120EDBEEF0A3EFF05E
:011235002296
:03240C00A2012208
:03240F00D20122D5
:101C4900E4FFEFC39546502B74252F120F0EE4F0D5
:101C5900743D2F120F28E4F0745B2F120F41E4F04A
:101C6900EF120F01E4F0A3F0742B2F120F9DE4F093
:101C79000F80CFE4F541F540F53FF53E90009774AC
:0B1C8900FFF0E490009AF0A3F0C2010D
:011C9400222D
:020DBC008F1195
:100DBE0090009CE0C394034035E4F0900061E07035
:100DCE0022F512E512C39546501975F002E512127E
:100DDE000F5D120FA5E512120EF9EEF0A3EFF0055E
:100DEE001280E0121C49C201E4900061F0229000D2
:100DFE0096E004F0E0B51108122114E4900097F08B
:100E0E00900096E0D395115003020EDAE4F512E548
:100E1E0012C39546507A75F002E512120F5D120F4D
:100E2E00A5E512120EEE120FDAFFEC9EAD07FC9046
:100E3E000061E07029120FE17802C333CE33CED8B1
:100E4E00F9120F304040E49BFFE49AFEEF7802C3A4
:100E5E0033CE33CED8F9C3120F31502A8032120F4F
:100E6E00E17803C333CE33CED8F9120F304017E4F6
:100E7E009BFFE49AFEEF7803C333CE33CED8F9FF4F
:100E8E00C3120F32400AAF1212117B0512020E1D51
:100E9E00E512B54606900097E004F0E51175F008EE
:100EAE00900096120FC04024E4F0C20090009CE027
:100EBE0004F0E51175F004900097120FC0400DE498
:0C0ECE0090009CF01220F0121C49C201A0
:010EDA0022F5
:04214C0041006600E8
:10225F0043D9187F0F7E00121F75900091120956F7
:05226F00000000002248
:09238700900064E0FEA3E0FF22D7
:100FF800E4F50BF50AF509F508FBEB25E02469F59E
:1010080082E43400F583E0FEA3E0FFE4FCFDE50B99
:101018002FF50BE50A3EF50AED3509F509EC35081B
:10102800F5080BBB14D4E4FAF9F8AF0BAE0AAD0916
:10103800AC0812087490009112094AE47F507EC3EC
:10104800FDFC900091E0F8A3E0F9A3E0FAA3E0FB2F
:101058001207E9E4FB7A10F9F81208748F0F8E0E64
:101068008D0D8C0CE47F7C7E15FDFCAB0FAA0EA9C0
:101078000DA80CD3120913401AE50F947CF50FE55F
:101088000E9415F50EE50D9400F50DE50C9400F59C
:101098000C8009E4F50FF50EF50DF50CE47B38FA34
:1010A800F9F8AF0FAE0EAD0DAC0C120874900062DB
:0510B800EEF0A3EFF0D3
:0110BD002210
:100C9C00900095E06401703DF0AFAFEF75F010A4DB
:100CAC00FFE5AEC4540F7C002FFFEC35F0FE900036
:100CBC0066E025E02469F582E43400F583EEF0A3C8
:100CCC00EFF0900066E004F0D394144008120FF893
:100CDC00E4900066F0900067E475F0011207D3FE13
:100CEC00D3E5F094C8EE94005003020DBBE49000E1
:100CFC0067F0A3F0900063E02414FF900062E034EE
:100D0C0000FED3900065E09F900064E09E401912B5
:100D1C001BFC7C007D0A12079DC3900065E09DF0D2
:100D2C00900064E09CF0800D900062E0FFA3E0A3D3
:100D3C00CFF0A3EFF0C3900065E094E7900064E07F
:100D4C00940340077403F0A374E7F0900064E07020
:100D5C0002A3E07017121BFC7C007D0512079DEDB1
:100D6C002401FEE43C900064F0A3CEF0900064E01B
:100D7C00FEA3E0FFD39464EE94005004756001224E
:100D8C00D3EF9464EE9400400DD3EF94C8EE94002E
:100D9C00500475600422D3EF94C8EE9400400DD338
:100DAC00EF942CEE940150047560022275600322BE
:03241200AF602296
:101F7500EF4480F5ADC3EF9408EE9400500F740163
:101F8500A807088002C333D8FCF5AB8011EF24F80D
:101F9500FF7401A807088002C333D8FCF5AC75A807
:021FA5004022D8
:0423EB0043AD40229C
:030033000221D9CE
:1021D900C0E0C083C08253ADDF53ADBF900095749A
:0921E90001F0D082D083D0E03275
:0A23740043D920122418E4F55A2280
:10191E00E55A24FE603014605A24027059E55C4585
:10192E005B7003122415E55CB45808E55BB4020342
:10193E00122418055CE55C7002055BC394B0E55B90
:10194E00940440358027E55C455B7003122415E551
:10195E005CB40808E55BB40703122418055CE55C6B
:10196E007002055BC39460E55B9409400CE4F55B83
:0A197E00F55C220224151224182241
:03241500D2DD22F3
:03241800C2DD2200
:10229900055AE55AD394034003E4F55AE4F55BF58E
:0222A9005C22B5
:03241B008F5A22B3
:03241E00AF5A2290
:0423EF00E4F55D2292
:101A4C00E55D24FE601D14602D14603D2403704D73
:101A5C00055FE55F7002055EC39410E55E940E4071
:101A6C003C8037055FE55F7002055EC39420E55E40
:101A7C00941C40298024055FE55F7002055EC394C9
:101A8C0040E55E943840168011055FE55F700205F5
:0E1A9C005EC39480E55E9470400312216D22BB
:1022AB00055DE55DD394044003E4F55DE4F55EF56F
:0222BB005F22A0
:0423F300E4F55D228E
:03242100AF5D228A
:1022E000539A7F439A08C283439B807F140223E161
:1022BD009000A9E0D394004006D283E014F022C22E
:0222CD0083226A
:0623E1009000A9EFF022BC
:10125000021EA4E493A3F8E493A34003F68001F2F2
:1012600008DFF48029E493A3F85407240CC8C3339F
:10127000C4540F4420C8834004F456800146F6DF6E
:10128000E4800B0102040810204080902135E47EA8
:10129000019360BCA3FF543F30E509541FFEE49363
:1012A000A360010ECF54C025E060A840B8E493A32A
:1012B000FAE493A3F8E493A3C8C582C8CAC583CA55
:1012C000F0A3C8C582C8CAC583CADFE9DEE780BE0D
:01215000008E
:10073600EF8DF0A4A8F0CF8CF0A428CE8DF0A42ED7
:02074600FE2291
:10074800BC000BBE0029EF8DF084FFADF022E4CC95
:10075800F875F008EF2FFFEE33FEEC33FCEE9DEC5E
:10076800984005FCEE9DFE0FD5F0E9E4CEFD22EDA4
:10077800F8F5F0EE8420D21CFEADF075F008EF2FEE
:10078800FFED33FD4007985006D5F0F222C398FDDF
:050798000FD5F0EA227C
:10079D00C2D5EC30E709B2D5E4C39DFDE49CFCEE77
:1007AD0030E715B2D5E4C39FFFE49EFE120748C3A0
:1007BD00E49DFDE49CFC800312074830D507C3E49B
:0607CD009FFFE49EFE22E6
:1007D300C5F0F8A3E028F0C5F0F8E58215827002B1
:0607E3001583E038F0224E
:1007E900E88FF0A4CC8BF0A42CFCE98EF0A42CFCAF
:1007F9008AF0EDA42CFCEA8EF0A4CDA8F08BF0A42D
:100809002DCC3825F0FDE98FF0A42CCD35F0FCEB8B
:100819008EF0A4FEA9F0EB8FF0A4CFC5F02ECD3950
:0F082900FEE43CFCEAA42DCE35F0FDE43CFC22BD
:1008380075F008758200EF2FFFEE33FECD33CDCC77
:1008480033CCC58233C5829BED9AEC99E5829840FA
:100858000CF582EE9BFEED9AFDEC99FC0FD5F0D6D7
:10086800E4CEFBE4CDFAE4CCF9A88222B800C1B901
:100878000059BA002DEC8BF084CFCECDFCE5F0CB3F
:10088800F97818EF2FFFEE33FEED33FDEC33FCEB78
:1008980033FB10D703994004EB99FB0FD8E5E4F933
:1008A800FA227818EF2FFFEE33FEED33FDEC33FC20
:1008B800C933C910D7059BE99A4007EC9BFCE99A14
:1008C800F90FD8E0E4C9FAE4CCFB2275F010EF2F59
:1008D800FFEE33FEED33FDCC33CCC833C810D70759
:1008E8009BEC9AE899400AED9BFDEC9AFCE899F894
:0E08F8000FD5F0DAE4CDFBE4CCFAE4C8F92227
:0D090600CFF4CFCEF4CECDF4CDCCF4CC2286
:10091300EB9FF5F0EA9E42F0E99D42F0E89C45F03A
:0109230022B1
:10092400E8600FECC313FCED13FDEE13FEEF13FFB1
:03093400D8F122D5
:10093700E8600FEFC333FFEE33FEED33FDEC33FC1E
:03094700D8F122C2
:0C094A00ECF0A3EDF0A3EEF0A3EFF02220
:10095600A8828583F0D083D08212096D12096D12A8
:10096600096D12096DE473E493A3C583C5F0C583CD
:10097600C8C582C8F0A3C583C5F0C583C8C582C8EB
:01098600224E
:0C098700A42582F582E5F03583F583227B
:101BFC00AC56AD57AE58AF597810EC4D4E4F7004F3
:101C0C007CA57DA5C3EC13FCED13FDEE13FEEF13C9
:101C1C00FF5010EC64CCFCED644CFDEE644EFEEF1A
:101C2C0064CEFFD8DF8C568D578E588F59EE547F6B
:0D1C3C00FE228E568F5774A5F558F55922DB
:00000001FF
