:03000000021236B3
:1012360078FFE4F6D8FD9000007F807E01E4F0A3FD
:0A124600DFFCDEFA75817A02128BDC
:101B020000000001000A0005000A0BB800C80064CA
:101B120000020000000000040000FFFFFFFFFFFFC3
:101B22000014013A04080F05004F013A04080E059B
:101B32000043013A04080D050046013A04080F0566
:101B420000B6013A04080E0500B3013A04080D0577
:021B520000662B
:041D9B0041006100A2
:0B233B00901B0CE493FE740193FF2242
:0B234600901B10E493FE740193FF2233
:0823C900901B0A740193FF222E
:03242C007F01220B
:101F9600AD07ED75F008A4242AF582E4341BF58319
:101FA600E493FEED75F008A4242BF582E4341BF5CA
:0C1FB60083E4937C002400FFEC3EFE223C
:10229600EF75F008A42427F582E4341BF583E49354
:0222A600FF2215
:0823D100901B04740193FF222C
:0D22FD0074432FF582E43400F583E0FF22E6
:0823D900900000E0C313FF2295
:0A237D00900000E075F00384FF22D9
:1021ED00121F96EF7803C333CE33CED8F9FF7C00A0
:0521FD007D0A120748F5
:0122020022B9
:101BED00E4FBFAF50FF50EF50DF50C750FE0750E1E
:101BFD0031F50DF50CAF0FAE0EAD0DAC0C7801122D
:101C0D0009248F0F8E0E8D0D8C0C30D71374132A63
:101C1D00F582E43400F583EBF00AEAC39406500430
:061C2D000BBB1FD18A6011
:011C3300228E
:101EA200EF14601214601414601814601A24047081
:101EB2001E901B248008901B258003901B26E49310
:101EC200FF22E4FF0222FD901B16740193FF227F82
:021ED2000022EC
:101C3400901B08740193900000F0901B2274019390
:101C440090004EF0121BEDE4FFEFC395605020EFBF
:101C540075F008A42428F582E4341BF583E493FE8C
:101C640074432FF582E43400F583EEF00F80DAE458
:061C740090004CF0A3F00B
:011C7A002247
:100B7600E4F508F50CF50BF50AF509F510F50FF592
:100B86000EF50D12244A5003020C8812208B8F0C8E
:100B96008E0B8D0A8C09E4FBEBC395605047AF0CB6
:100BA600AE0BAD0AAC0978011209248F0C8E0B8DA1
:100BB6000A8C0930D72CE47F01FEFDFC74132BF55B
:100BC60082E43400F583E0F9F8120937E5104FF5B1
:100BD60010E50F4EF50FE50E4DF50EE50D4CF50D36
:100BE60005080B80B3E508C394024015D200E5085A
:100BF6009403400512244D80081223D1EF6002C2EF
:100C06000020002CE4FFFEFDFCAB10AA0FA90EA8E5
:100C16000DC3120913601090004DE004F0700690A9
:100C2600004CE004F08020E490004CF0A3F0801724
:100C360090004AE004F07006900049E004F0E4F504
:100C460010F50FF50EF50D12233BD390004DE09FE6
:100C560090004CE09E400A12244DE490004CF0A314
:100C6600F0D390004AE0942C900049E09401401D96
:100C760012244D9000617401F0E4900049F0A3F055
:100C8600800B901B12E4740193FF120DBCAF10AEE3
:050C96000FAD0EAC0DD6
:010C9B002236
:03005B00021CB8CC
:101CB800C0E0C0F0C083C082C0D075D000C000C0F2
:101CC80001C002C003C004C005C006C007121A4FF5
:101CD800D007D006D005D004D003D002D001D00060
:0B1CE800D0D0D082D083D0F0D0E0320A
:041D9F00021C000022
:012462002257
:101F37008D10C2AF75F4028510F5E4F5F38FF275D5
:101F4700F1F075F60A00000000000000000000F53F
:101F5700F4D2AF1221D5EFB510037F01227F002203
:1021D500C2AF75F402E51D2FF582E4351CF583E4E5
:0721E50093FFE4F5F4D2AF13
:0121EC0022D0
:03242F00AF632276
:1020D400E4F562539AFB439B0443C114C2C2C2C4D5
:1020E40075D3E875D4B39007447480F0A37414F0E6
:0120F40022C9
:10213400D2C49000A1E4F0A304F0900744E04480EA
:0C214400F0A3E0F0E490009FF0A3F02274
:0D230A000562E562D394034003E4F562220E
:03243200AF622274
:1013EF0012242FEF6401704190009FE0547FFEA301
:1013FF00E0FFA3E0FCA3E0FD6F7002EC6E6066D32C
:10140F00ED9FEC9E40109000A0E004F0701690004D
:10141F009FE004F0800E9000A0E024FFF090009F6A
:10142F00E034FFF090009F801BD39000A2E0940067
:10143F009000A1E09400401BA3E024FFF09000A1D6
:10144F00E034FFF0E04480FFA3E0900744CFF0A327
:10145F00EFF022E49000A1F0A3F0900744E0547F56
:06146F00F0C2C2C2C4225B
:1021A300AF8CEFFEAD8A7C00E42DF565EC3EF56463
:0921B300E4F58CF58A756801223F
:1012D000E5687003021367E4F568856466856567F1
:1012E000E56214602F1460311460332403703212ED
:1012F0002450EF24FE600F14600E14600D14600F74
:101300002404701D800E801180141217CB801212DD
:101310001840800D12166C80081216E18003121717
:1013200056E561D3941540117561149000A2E00454
:10133000F070069000A1E004F0E561C39413501131
:101340007561149000A2E024FFF09000A1E034FF4A
:10135000F0D39000A2E094209000A1E09403400715
:081360007403F0A37420F022D5
:10166C00C3E565945FE5649400502CC3E565943242
:10167C00E5649400500F9000A2E02414F09000A1B7
:10168C00E03400F022C3E5659446E5649400500410
:10169C00740A8035056122D3E56594FAE5649400FB
:1016AC00400F9000A2E024ECF09000A1E034FFF099
:1016BC0022D3E5659466E56494004015D3E5659402
:1016CC0082E5649400400774F62561F5612215618A
:0516DC002275611422DB
:1016E100C3E565942AE5649401502CC3E56594FA39
:1016F100E5649400500F9000A2E02414F09000A142
:10170100E03400F022C3E565940EE56494015004D1
:10171100740A8035056122D3E565945EE564940120
:10172100400F9000A2E024ECF09000A1E034FFF023
:1017310022D3E565942EE56494014015D3E56594C3
:101741004AE5649401400774F62561F5612215614B
:05175100227561142265
:10175600C3E5659406E5649402502CC3E56594D60A
:10176600E5649401500F9000A2E02414F09000A1CB
:10177600E03400F022C3E56594EAE5649401500480
:10178600740A8035056122D3E565943AE5649402CE
:10179600400F9000A2E024ECF09000A1E034FFF0AE
:1017A60022D3E565940AE56494024015D3E5659471
:1017B60026E5649402400774F62561F561221561F9
:0517C6002275611422F0
:1017CB00C3E56594A8E5649400502CC3E565947853
:1017DB00E5649400500F9000A2E02414F09000A157
:1017EB00E03400F022C3E565948CE564940050046A
:1017FB00740A8035056122D3E56594DCE5649400B9
:10180B00400F9000A2E024ECF09000A1E034FFF038
:10181B0022D3E56594ACE56494004015D3E565945B
:10182B00C8E5649400400774F62561F561221561E3
:05183B0022756114227A
:10184000C3E565948EE5649401502CC3E565945E10
:10185000E5649401500F9000A2E02414F09000A1E0
:10186000E03400F022C3E5659472E564940150040D
:10187000740A8035056122D3E56594C2E56494015C
:10188000400F9000A2E024ECF09000A1E034FFF0C3
:1018900022D3E5659492E56494014015D3E56594FF
:1018A000AEE5649401400774F62561F56122156187
:0518B000227561142205
:10222F00756301122463122435122134C2DB122389
:05223F0051E4F56222EC
:10215000E4F563122438E4FF122459122428121FD4
:0C21600006D2DB12235112136802235C2C
:102041001210BE8F6E8E6D8D6C8C6B7F007EBA7D93
:10205100DB7C00AB6EAA6DA96CA86BC3120913409F
:0520610003756F012270
:1019900012242FEF605AE56FB4010C056AE56AC3A3
:1019A00094034003E4F56A0569E569C3940A403B82
:1019B000E4F569FF7EBA7DDBFCAB6EAA6DA96CA86D
:1019C0006B120913400CE56F7003121368756F01F9
:1019D0008019AF6EAE6DAD6CAC6BEF2401F56EE4AB
:1019E0003EF56DE43DF56CE43CF56BAF6F1223A55D
:0119F00022D4
:10136800AF6EAE6DAD6CAC6B8F0F8E0E8D0D8C0CA1
:1013780075CF10E50FFFE4AD077F0F121F37AF0FD2
:10138800AE0EAD0DAC0C78081209248F0F8E0E8DA1
:101398000D8C0C75CF10E50FFFE4AD077F0E121F03
:1013A80037AF0FAE0EAD0DAC0C78081209248F0FB5
:1013B8008E0E8D0D8C0C75CF10E50FFFE4AD077FF9
:1013C8000D121F37AF0FAE0EAD0DAC0C7808120919
:1013D800248F0F8E0E8D0D8C0C75CF10E50FFFE44A
:0713E800AD077F0C021F3767
:1010BE00E4F50FF50EF50DF50C75CF107F0C122122
:1010CE00D5E48F0FF50EF50DF50CAE0EAD0DAC0C87
:1010DE0078081209378F0F8E0E8D0D8C0C75CF1070
:1010EE007F0D1221D5E4FCFDFEE50F2FF50FEE3539
:1010FE000EF50EED350DF50DEC350CF50CAF0FAE06
:10110E000EAD0DFC78081209378F0F8E0E8D0D8CDB
:10111E000C75CF107F0E1221D5E4FCFDFEE50F2FCE
:10112E00F50FEE350EF50EED350DF50DEC350CF526
:10113E000CAF0FAE0EAD0DFC78081209378F0F8E67
:10114E000E8D0D8C0C75CF107F0F1221D5E4FCFD8A
:10115E00FEE50F2FF50FEE350EF50EED350DF50DF7
:0C116E00EC350CF50CAF0FAE0EAD0DFC17
:01117A002252
:101E070075CF10E4FD7F0C121F3775CF10E4FD7FEF
:101E17000D121F3775CF10E4FD7F0E121F3775CFD8
:101E270010E4FD7F0F121F37E4F56EF56DF56CF5C5
:041E37006BF56F22B6
:0624080043C1200224384C
:03243500C2C522FB
:03243800D2C522E8
:061DA300043D00000000F9
:101E3B0090004BE0FF30E72B547FF0120B768F4076
:101E4B008E3F8D3E8C3DE54054E0FFE53F5431FE27
:101E5B00E4FDFCFBFAF9F8C31209136003122351DA
:041E6B0012244722D4
:06240E005341BF022351FF
:0B2351009000A51209560000000022B9
:100993007F207EBF7D027C009000A5E0F8A3E0F9F4
:1009A300A3E0FAA3E0FBC3120913400543414080CF
:1009B3001F9000A5E0FCA3E0FDA3E0FEA3E024015B
:1009C300FFE43EFEE43DFDE43CFC9000A512094A31
:1009D300E54054E0FFE53F5431FEE4FDFCFB7A01C2
:1009E300F9F8C31209137021E54120E61C20E03910
:1009F3000549E54970020548C39488E548941340C6
:100A0300284341011223F18020D3E5499432E5487C
:100A13009400400DE5499488E5489413500312224D
:100A2300445341FEE4F548F54912242FEF700302C5
:100A33000B75E54054E0FFE53F5431FEE4FDFC7BDC
:100A430080FAF9F8C31209137021E54120E61C204E
:100A5300E2210543E54370020542C39432E5429423
:100A63000040104341041223E980085341FBE4F59D
:100A730042F543E54054E0FFE53F5431FEE4FDFC1D
:100A8300FB7A10F9F8C31209137021E54120E61C23
:100A930020E421053CE53C7002053BC39432E53B71
:100AA3009400401043411012240180085341EFE4A5
:100AB300F53BF53CE54054E0FFE53F5431FEE4FDF2
:100AC300FCFB7A20F9F8C31209137021E54120E6F3
:100AD3001C20E121054BE54B7002054AC39432E526
:100AE3004A940040104341021223E180085341FD20
:100AF300E4F54AF54BE54054E0FFE53F5431FEE4AD
:100B0300FDFC7B40FAF9F8C3120913701EE541207E
:100B1300E3210547E54770020546C39488E54694FB
:100B230013401043410812243B80085341F7E4F576
:100B330046F547E54054E0FFE53F5431FEE4FDFC54
:100B43007B20FAF9F8C3120913701FE54120E61A56
:100B530020E51F0545E54570020544C39432E5448D
:100B63009400400E4341200223675341DFE4F544E0
:030B7300F5452223
:07240100B2C57F0A02241A94
:0B235C005341BF1223517F0A02241AD4
:0B2367001222BA7F0A12241A0215F19C
:0823E1001222A87F0A02241A4F
:03243B0002235C1D
:0A238700AF41EFC413135401FF220D
:0823E90012230A7F0A02241AE4
:0823F100121E077F0A02241AE4
:102244007F0A12241A12242FBF01061221500213EE
:052254006812222F2298
:101DA9001823707F7F7F7F7F737BB0F979EDB0FF58
:0A1DB900FFFFFFFFFFFFFFFFFFFF2A
:1021160043D90743A17FD2A6D2A5C2A443B1F843AF
:0E212600C1C3439A624391C01222EE021F060B
:10216C0012242FEF60151223AE122019121DD1125A
:0C217C002317122391121FEE121D642283
:0923A500BF0103C2DA22D2DA22E0
:101F0600D2A5D2A4D2A6D281D2D9D2D8D286D2850F
:101F1600D2C0D2DAD296D297D2A0D2A1D2A2D2A3DE
:101F2600D2B6D2C6D2C7D2B5D2B4D2C1D2B7D2B344
:011F36002288
:101F6700C2A5C2A4C2A6C281C2D9C2D8C286C2C0F3
:101F7700C2DAC296C297C2A0C2A1C2A2C2A3C2B607
:0F1F8700C2C6C2C7C2B5C2B4C2C1C2B7C2B322BA
:012463002256
:092391001223C08E088F09C281DD
:01239A002220
:101D640012245FEF24FE600E146011146017240324
:101D7400701CC2D9801AD2D9C2D88016D2D9D2D86E
:101D8400C286D28522D2D9D2D8D286C28522D2D9CD
:071D9400D2D8D286D28522CD
:1020190012245CEF24FE600B14600F24027012C2BC
:10202900A18010D2A1C2A2D2A322D2A1D2A2C2A3BC
:0820390022D2A1D2A2D2A322FF
:101FEE00122450EF24FE60111460121460042403B6
:101FFE008012C2A5C2A4D2A622C2A58002D2A5D2A8
:0B200E00A4C2A622C2A5D2A4D2A62222
:0C231700122387EF7003D2C122C2C12242
:0923AE0020C503C29622D296223A
:101DD100122432EF14600E14601114601724037082
:101DE1001CC2B5801AD2B5C2B68016D2B5D2B6C25F
:101DF100C6D2C722D2B5D2B6D2C6C2C722D2B5D2B6
:061E0100B6D2C6D2C722D2
:1004A800EFB40A0040030207359004B8F82828730F
:1004B8000204D60205070205450205860205BA02AE
:1004C800060302064702068A0206C70206F29007DA
:1004D8000FE0FF7401A805088002C333D8FCFEF4BE
:1004E8005F90070FF0A3E04EF0A3E0FF7401A805AA
:1004F800088002C333D8FCFE4F9007110206E4902F
:10050800070FE0FF7401A805088002C333D8FCFE7A
:10051800F4FC5F90070FF0A3E05CF0A3E05CF0A3AD
:10052800E05CF0A3E04EF0A3E0FF7401A8050880AA
:1005380002C333D8FCFE4F9007140205F890070F4A
:10054800E0FF7401A805088002C333D8FCFE4F9071
:10055800070FF0A3E0FFEEF4FEEF5EF0A3E0FF74F8
:1005680001A805088002C333D8FCFC4F900711F09E
:10057800A3E04CF0A3E05EF0A3E04C020641900734
:100588000FE0FF7401A805088002C333D8FCFE4FB2
:1005980090070FF0A3E0FFEEF4FEEF5EF0A3E05E3D
:1005A800F0A3E0FF7401A805088002C333D8FC0259
:1005B800072390070FE0FF7401A805088002C333E2
:1005C800D8FCFE4F90070FF0A3E04EF0A3E0FFEE3B
:1005D800F4FEEF5EF0A3E05EF0A3E0FF7401A8056F
:1005E800088002C333D8FCFE4F900713F0A3E04EF7
:1005F800F0A3E0FFEEF4FEEF5EF02290070FE0FFBD
:100608007401A805088002C333D8FCFE4F90070F79
:10061800F0A3E04EF0A3E0FFEEF4FEEF5EF0A3E0FF
:10062800FF7401A805088002C333D8FCFC4F90076B
:1006380012F0A3E04CF0A3E05EF0A3E04CF02290AF
:10064800070FE0FF7401A805088002C333D8FCFE39
:100658004F90070FF0A3E04EF0A3E04EF0A3E04E5A
:10066800F0A3E04EF0A3E0FFEEF4FEEF5EF0A3E0AF
:10067800FF7401A805088002C333D8FC4F90071502
:10068800F02290070FE0FF7401A805088002C33329
:10069800D8FCFEF4FC5F90070FF0A3E05CF0A3E049
:1006A8005CF0A3E05CF0A3E04EF0A3E0FF7401A8C7
:1006B80005088002C333D8FCFE4F90071480699068
:1006C800070FE0FF7401A805088002C333D8FCFEB9
:1006D8004F90070FF0A3E04EF0A3E04EF0A3E04EDA
:1006E800F0A3E04EF0A3E04E803E90070FE0FF74C9
:1006F80001A805088002C333D8FCFE4F90070FF00D
:10070800A3E04EF0A3E0FFEEF4FEEF5EF0A3E0FFFF
:100718007401A805088002C333D8FCFE4F90071265
:0E072800F0A3E04EF0A3E04EF0A3E04EF0226E
:0F22EE00439A0143A1801223FE1224410215F1ED
:0B237200EF700453A17F2243A18022E2
:1015F100E4FFFE75CF100FBF00010EBE27F5BF102F
:10160100F21222037F48121D2C121E6F7F05121D3C
:101611002C121E6F122219E4FEFF75CF100FBF00AE
:10162100010EEF643C4E70F2122203750C68AF0C90
:10163100121D2C121E6F7F0F121D2C121E6F1222F3
:1016410019E4FEFF75CF100FBF00010EEF643C4E91
:1016510070F2122203750C6AAF0C121D2C121E6F50
:0B1661007FAA121D2C121E6F0222191E
:0B232300E4FEEEC39F5004000E80F7A4
:01232E00228C
:101E6F007F05122323D280122323C280E4FF122383
:101E7F007230A713050DE50DC394F040F4E4F50D92
:101E8F00B2C57F011223727F01122372C2807F05B8
:031E9F00022323F8
:101D2C008F0E1223F9E4F50DE50E5480D394004088
:101D3C000A1224417F051223238003122444122407
:101D4C003E1223F9E50E25E0F50E050DE50DC394C5
:081D5C000840D57F0502232396
:1022030012244112243E7F05122323122444122355
:06221300F97F0502232300
:1022190012244412243E7F0512232312244112233F
:06222900F97F05022323EA
:03243E00D2802227
:0523F9007F0512232303
:0323FE00C2802278
:03244100D2A722FD
:03244400C2A7220A
:051DC300014F00C10208
:101FC200438E02438910758BC0758DF9C28ED2ABD8
:101FD200438E04E4F5C9F5C875CBFA75CA32C2CA94
:0C1FE200D2ADD2CA438905C2A9D28C221C
:0923B700758B80758DEED28E222B
:03000B0002246468
:012464003245
:03002B0002157447
:10157400C0E0C0F0C083C082C0D075D000C000C03D
:1015840001C002C003C004C005C006C007C2CFE545
:1015940055B40404D2DC800FE555C394644008C2FA
:1015A400DC7555001223B705550550E550C3940A60
:1015B4004006754E017550000554E55470020553FC
:1015C400C39410E5539427400975530075540012D1
:1015D40021A3D007D006D005D004D003D002D00177
:0D15E400D000D0D0D082D083D0F0D0E03243
:1018B50075CF1043913143B10312211612226ED216
:1018C500AF121FC21220D412240812239B121475C2
:1018D50012240E1224621220411224241222DE1236
:1018E5001F67E4F50BF50AF509F5087F807E387D5D
:1018F500017C00AB0BAA0AA909A808C31209135059
:101905001A75CF10E50B2401F50BE4350AF50AE449
:101915003509F509E43508F50880D01215F10221DD
:011925005071
:102283001209930557E557C3940A4006E4F55775B9
:03229300560122CF
:10218800121E3B054DE54DC3940A4006E4F54D7516
:0B2198004C01120C9C1213EF0222CC31
:102259000552E552C3940A4006E4F552755101123C
:05226900199002216C38
:062414001219260219F165
:101CF3001218B575CF10E54EB40106E4F54E122265
:101D030083E556B40106E4F556122188E54CB40187
:101D130006E4F54C122259E551B40106E4F55112DB
:091D230024141212D0B28080CA0F
:03001B00021C7B49
:101C7B00C0E0C0F0C083C082C0D075D000C000C02F
:101C8B0001C002C003C004C005C006C007C28E124B
:101C9B002420D007D006D005D004D003D002D00129
:0D1CAB00D000D0D0D082D083D0F0D0E03275
:041DC80041009C003A
:100EDB0075F00290004F120987E0FEA3E0FFE513C7
:100EEB0075F002900019020987E51275F002900067
:100EFB0001020987E51275F002900031020987742F
:100F0B00252516F582E43400F58322D3E5149FEEF4
:100F1B006480F8E51364809822743D2512F582E411
:100F2B003400F58322D3FFED9FEE6480F8EC6480F0
:100F3B009822745B2512F582E43400F58322E004D9
:100F4B00F0740D2512F582E43400F58322E5137558
:100F5B00F00290004F020987E4F0FFFEFDFCAB5B53
:100F6B00AA5AA959A858C3020913FEC3E5159FEE47
:100F7B006480F8E51464809822E55B555FFFE55AC1
:100F8B00555EFEE559555DFDE558555CFC22742B0D
:100F9B002512F582E43400F58322E0FEA3E0FF7511
:100FAB00F002227E00900098E0FCA3E0FD120736D1
:100FBB008EE78FE622A4FFE0C39FE5F06480F87410
:100FCB008098227D0A120748AD037C00020736E0A9
:100FDB00FCA3E0C39F2290004EE0FB3395E0FAEBBD
:0D0FEB00AE022290004EE0FF3395E0FE22A2
:0C232F00EF4E6007EF1F70F81E80F522D3
:0214F5008F1B4B
:1014F7001222FD9000AAEFF0AF1B122296EFFB908D
:101507000099E025E0FF900098E033FE7C00120F81
:10151700CEE51B120EF6120FDAEC9E50099000AAC8
:10152700E06049148036AF1B122296EFFB900098BB
:10153700E0FEA3E0FF7C007D07120736120FCE7591
:10154700F002E51B120EF9E0FCA3E0D39FEC9E40EE
:101557001B9000AAE0FF647E6012EF04FF7443252E
:0C1567001BF582E43400F583EFF0D201A4
:011573002255
:101A4F00C20390009DE0120EEBE5E5F0A3E5E4F094
:101A5F0090009DE004F0E0C39560400BE4F090002F
:101A6F004BE04480F08002D20390009DE0FF1222F1
:101A7F0096120FAE90009DE0FF1222FDE5E254801A
:101A8F004FF5E290009DE02413F582E43400F583D6
:0A1A9F00E04480F5E8300302D2EEC7
:011AA900221A
:10147500D2AFC201E490009DF090004BF0121C34F5
:10148500E4FF121EA2EF2401FDE433FC7E077FD0AA
:10149500120748900098EEF0A3EFF0E4FF122296B1
:1014A500120FAE7F02121EA2EFC454F0FEC006E476
:1014B500FF121EA2D0E02FF5E17F03121EA2E5E286
:1014C50054804FF5E27F04121EA2EF6008E5E25456
:1014D500804480F5E27F01121EA28FE3121BA14317
:1014E500A910900013E04480F5E8121AAA0220B072
:03244700D2EE22B0
:10206600E4FD90004BE0547FF0D2EE90004BE02070
:10207600E7127FE87E0312232F43CF100DEDC394A2
:042086003240E822DA
:01208A002233
:101AAA00750C20122066E4F50DE50DC39560501BF8
:101ABA00E50D120EEB120FA5E50D120EF9EEF0A3CD
:101ACA00EFF0AF0D1214F5050D80DEAF0C150CEF1B
:101ADA0070D11220F51223C98F0C122066E4F50D7D
:101AEA00E50DC395605009AF0D12117B050D80F00D
:071AFA00AF0C150CEF70E3C7
:011B010022C1
:1020B000E4FFEFC39560501B75F002EF120EEEE0E7
:1020C000FCA3E0FD75F002EF120EF9ECF0A3EDF0C9
:0320D0000F80DF9F
:0120D30022EA
:10208B00E490009EF0F511E511C39560500EAF1171
:10209B0012117BAF11120100051180EBAF5BAE5A31
:0420AB00AD59AC5827
:0120AF00220E
:020100008F125C
:10010200E4F51A75F002EF120EF9120FA5E51212BC
:100112000EEE120FDAF514EC9EF513E47F01FEFDEC
:10012200FCA912A8011209378F5F8E5E8D5D8C5C6F
:10013200AF12121F968E188F19C3E5149519E51880
:10014200120F1B40057515018003E4F515E51564D2
:1001520001600302028774252512120F0EE0C39478
:10016200FA500A74252512120F0EE004F0120F84C1
:10017200E4FBFAF9F8C3120913600302026A900061
:1001820000E0F51712242CEF6028E4F515F516E5CA
:1001920016C39560500F120F0AE0C3940140020586
:1001A20015051680EAE515C394034006740F25175A
:1001B200F51774252512120F0EE0C395175003028E
:1001C200026AE4F5151223D1EF7051F516E516C354
:1001D2009560501AE5126516601012237D120F0AFF
:1001E200E0C39F40057515018004051680DF1224C7
:1001F2002CEF7052E515704EF516E516C39560505A
:1002020045E5126516601112237D742B2516120F17
:100212009DE0C39F4002802B051680DE12242CEF46
:100222007024F517F516E516C39560500F120F0AE4
:10023200E0C3940240020517051680EAE517C3944D
:10024200034003751501E515B40102D200E55B45D3
:100252005FFFE55A455EFEE559455DFDE558455CA3
:100262008F5B8E5A8D59F558120F24E4F0120F3D10
:10027200E4F0120EFFE4F0A3F0740D2512F582E40F
:10028200340002045DAF121221ED120F1640081263
:100292000F99E004F0800B90009EE004F0120F9999
:1002A200E4F0120FEEC3E49FFDE49EFCC3E5149D4F
:1002B200EC120F1B4066120F165061120F24E4124B
:1002C2000F4B120F6360030203CA120EFFE5138580
:1002D20014F01207D3122346120EFFE0FCA3E0C370
:1002E200120F334009120EF4E475F001802112233B
:1002F20046C3E49FFFE49EFE120EFFE0FCA3E0C3B0
:10030200120F3340030203CA120EF474FFF5F01207
:1003120007D3120EFFE4F0A3F00203CA90004EE0EE
:10032200FFFD3395E0FCC3E49DFDE49CFCC3E514B2
:100332009DEC120F1B505A120F24120F49E4F012B7
:100342000F24E0FE75F00A84E5F07037EEC3946482
:10035200400E120F24E4F0D20190006104F08023D9
:10036200120EF4C083C082E0FCA3E0FDEFA2E7130B
:10037200FF3395E0FEC3ED9FFFEC9ED082D083F069
:10038200A3EFF0900097E06512703D74FFF0020356
:10039200CA120FEE120F16402F120F24120F6370A3
:1003A20027120F4C120F49E0B4201D120F4CE4F03B
:1003B20090004EE0A2E713A2E713FF3395E0FE128E
:1003C2000EF4EE8FF01207D3120F844D4E4F7003CE
:1003D200020469E519AE187802CEA2E713CE13D84B
:1003E200F8FFC3E5199FFFE5189EFEC3120F1750D1
:1003F2006F120F3DE004F01223D98F17E4F516E5D2
:1004020016C39560500F120F0AE0C3940140020513
:1004120015051680EAE515C394034006900000E036
:10042200F517120F3DE0C39517407A120F3DE4F025
:10043200AF5FAE5EAD5DAC5C120906E55B5FFFE5EA
:100442005A5EFEE5595DFDE5585C8F5B8E5A8D590B
:10045200F55874252512F582E43400F583E4F02280
:10046200120F3DE014F02274252512120F0E120F06
:10047200637005AF121214F5E560146512702690D0
:10048200009EE0C39560401DE4F516E516C3956035
:10049200500D120F0AE06003751501051680ECE598
:0504A200157002C2000C
:0104A7002232
:1020F500E4FFEFC39560501875F002EF120EEEE0A5
:10210500FCA3E0FDEF120F5AECF0A3EDF00F80E217
:0121150022A7
:02117B008F13D0
:10117D00EF120EDB120FDAF515EC9EF514AF13120C
:10118D001F96AD07AC06D3E5159DEC120F7B500BEA
:10119D00C3E49DFFE49C120F75500B120EE9E0FEA7
:1011AD00A3E0FF021223ECA2E713FEED13FFD3120F
:1011BD000F77500BC3E49FFFE49E120F755027125B
:1011CD000F58E0FCA3E0FDECC313FEED13FFC3EDE0
:1011DD009FFDEC9EFC120EE9E0C313FEA3E0132D60
:1011ED00FFEC3EFE8030120F58E0FCA3E0FDAE0494
:1011FD007803CEC313CE13D8F9FFC3ED9FFDEC9E3C
:10120D00FC120EE9E0FEA3E07803CEC313CE13D893
:10121D00F92DFFEC3EFE120F58EEF0A3EFF0E513A3
:08122D00120EDBEEF0A3EFF05E
:011235002296
:03244A00A20122CA
:03244D00D2012297
:101BA100E4FFEFC39560502B74252F120F0EE4F064
:101BB100743D2F120F28E4F0745B2F120F41E4F0F3
:101BC100EF120F01E4F0A3F0742B2F120F9DE4F03C
:101BD1000F80CFE4F55BF55AF559F55890009774ED
:0B1BE100FFF0E490009AF0A3F0C201B6
:011BEC0022D6
:020DBC008F1195
:100DBE0090009CE0C394034035E4F0900061E07035
:100DCE0022F512E512C39560501975F002E5121264
:100DDE000F5D120FA5E512120EF9EEF0A3EFF0055E
:100DEE001280E0121BA1C201E4900061F02290007B
:100DFE0096E004F0E0B511081220F5E4900097F0AB
:100E0E00900096E0D395115003020EDAE4F512E548
:100E1E0012C39560507A75F002E512120F5D120F33
:100E2E00A5E512120EEE120FDAFFEC9EAD07FC9046
:100E3E000061E07029120FE17802C333CE33CED8B1
:100E4E00F9120F304040E49BFFE49AFEEF7802C3A4
:100E5E0033CE33CED8F9C3120F31502A8032120F4F
:100E6E00E17803C333CE33CED8F9120F304017E4F6
:100E7E009BFFE49AFEEF7803C333CE33CED8F9FF4F
:100E8E00C3120F32400AAF1212117B0512020E1D51
:100E9E00E512B56006900097E004F0E51175F008D4
:100EAE00900096120FC04024E4F0C20090009CE027
:100EBE0004F0E51175F004900097120FC0400DE498
:0C0ECE0090009CF01220B0121BA1C20189
:010EDA0022F5
:041DCC00410066006C
:10226E0043D9187F0F7E00121ED49000911209568A
:05227E00000000002239
:0923C000900064E0FEA3E0FF229E
:100FF800E4F50BF50AF509F508FBEB25E02469F59E
:1010080082E43400F583E0FEA3E0FFE4FCFDE50B99
:101018002FF50BE50A3EF50AED3509F509EC35081B
:10102800F5080BBB14D4E4FAF9F8AF0BAE0AAD0916
:10103800AC0812087490009112094AE47F507EC3EC
:10104800FDFC900091E0F8A3E0F9A3E0FAA3E0FB2F
:101058001207E9E4FB7A10F9F81208748F0F8E0E64
:101068008D0D8C0CE47F7C7E15FDFCAB0FAA0EA9C0
:101078000DA80CD3120913401AE50F947CF50FE55F
:101088000E9415F50EE50D9400F50DE50C9400F59C
:101098000C8009E4F50FF50EF50DF50CE47B38FA34
:1010A800F9F8AF0FAE0EAD0DAC0C120874900062DB
:0510B800EEF0A3EFF0D3
:0110BD002210
:100C9C00900095E06401703DF0AFAFEF75F010A4DB
:100CAC00FFE5AEC4540F7C002FFFEC35F0FE900036
:100CBC0066E025E02469F582E43400F583EEF0A3C8
:100CCC00EFF0900066E004F0D394144008120FF893
:100CDC00E4900066F0900067E475F0011207D3FE13
:100CEC00D3E5F094C8EE94005003020DBBE49000E1
:100CFC0067F0A3F0900063E02414FF900062E034EE
:100D0C0000FED3900065E09F900064E09E401912B5
:100D1C001B547C007D0A12079DC3900065E09DF07A
:100D2C00900064E09CF0800D900062E0FFA3E0A3D3
:100D3C00CFF0A3EFF0C3900065E094E7900064E07F
:100D4C00940340077403F0A374E7F0900064E07020
:100D5C0002A3E07017121B547C007D0512079DED59
:100D6C002401FEE43C900064F0A3CEF0900064E01B
:100D7C00FEA3E0FFD39464EE94005004757A012234
:100D8C00D3EF9464EE9400400DD3EF94C8EE94002E
:100D9C005004757A0422D3EF94C8EE9400400DD31E
:100DAC00EF942CEE94015004757A0222757A03228A
:03245000AF7A223E
:101ED400EF4480F5ADC3EF9408EE9400500F740105
:101EE400A807088002C333D8FCF5AB8011EF24F8AF
:101EF400FF7401A807088002C333D8FCF5AC75A8A9
:021F0400402279
:0424200043AD402266
:030033000221BCEB
:1021BC00C0E0C083C08253ADDF53ADBF90009574B7
:0921CC0001F0D082D083D0E03292
:0A239B0043D920122456E4F5742201
:10192600E57424FE603014605A24027059E5764549
:10193600757003122453E576B45808E575B40203AE
:101946001224560576E57670020575C394B0E575E2
:10195600940440358027E57645757003122453E5D7
:1019660076B40808E575B407031224560576E576BD
:1019760070020575C39460E5759409400CE4F5752D
:0A198600F5762202245312245622A3
:03245300D2DD22B5
:03245600C2DD22C2
:1022A8000574E574D394034003E4F574E4F575F517
:0222B80076228C
:032459008F74225B
:03245C00AF742238
:04242400E4F5772242
:1019F100E57724FE601D14602D14603D2403704DB5
:101A01000579E57970020578C39410E578940E4064
:101A11003C80370579E57970020578C39420E57833
:101A2100941C402980240579E57970020578C394D6
:101A310040E5789438401680110579E57970020502
:0E1A410078C39480E5789470400312215022FF
:1022BA000577E577D394044003E4F577E4F578F5F8
:0222CA00792277
:04242800E4F577223E
:03245F00AF772232
:1022DE00539A7F439A08C283439B807F1402241A29
:1022CC009000A9E0D394004006D283E014F022C21F
:0222DC0083225B
:06241A009000A9EFF02282
:10125000021CF3E493A3F8E493A34003F68001F2A5
:1012600008DFF48029E493A3F85407240CC8C3339F
:10127000C4540F4420C8834004F456800146F6DF6E
:10128000E4800B0102040810204080901D9BE47E46
:10129000019360BCA3FF543F30E509541FFEE49363
:1012A000A360010ECF54C025E060A840B8E493A32A
:1012B000FAE493A3F8E493A3C8C582C8CAC583CA55
:1012C000F0A3C8C582C8CAC583CADFE9DEE780BE0D
:011DD0000012
:10073600EF8DF0A4A8F0CF8CF0A428CE8DF0A42ED7
:02074600FE2291
:10074800BC000BBE0029EF8DF084FFADF022E4CC95
:10075800F875F008EF2FFFEE33FEEC33FCEE9DEC5E
:10076800984005FCEE9DFE0FD5F0E9E4CEFD22EDA4
:10077800F8F5F0EE8420D21CFEADF075F008EF2FEE
:10078800FFED33FD4007985006D5F0F222C398FDDF
:050798000FD5F0EA227C
:10079D00C2D5EC30E709B2D5E4C39DFDE49CFCEE77
:1007AD0030E715B2D5E4C39FFFE49EFE120748C3A0
:1007BD00E49DFDE49CFC800312074830D507C3E49B
:0607CD009FFFE49EFE22E6
:1007D300C5F0F8A3E028F0C5F0F8E58215827002B1
:0607E3001583E038F0224E
:1007E900E88FF0A4CC8BF0A42CFCE98EF0A42CFCAF
:1007F9008AF0EDA42CFCEA8EF0A4CDA8F08BF0A42D
:100809002DCC3825F0FDE98FF0A42CCD35F0FCEB8B
:100819008EF0A4FEA9F0EB8FF0A4CFC5F02ECD3950
:0F082900FEE43CFCEAA42DCE35F0FDE43CFC22BD
:1008380075F008758200EF2FFFEE33FECD33CDCC77
:1008480033CCC58233C5829BED9AEC99E5829840FA
:100858000CF582EE9BFEED9AFDEC99FC0FD5F0D6D7
:10086800E4CEFBE4CDFAE4CCF9A88222B800C1B901
:100878000059BA002DEC8BF084CFCECDFCE5F0CB3F
:10088800F97818EF2FFFEE33FEED33FDEC33FCEB78
:1008980033FB10D703994004EB99FB0FD8E5E4F933
:1008A800FA227818EF2FFFEE33FEED33FDEC33FC20
:1008B800C933C910D7059BE99A4007EC9BFCE99A14
:1008C800F90FD8E0E4C9FAE4CCFB2275F010EF2F59
:1008D800FFEE33FEED33FDCC33CCC833C810D70759
:1008E8009BEC9AE899400AED9BFDEC9AFCE899F894
:0E08F8000FD5F0DAE4CDFBE4CCFAE4C8F92227
:0D090600CFF4CFCEF4CECDF4CDCCF4CC2286
:10091300EB9FF5F0EA9E42F0E99D42F0E89C45F03A
:0109230022B1
:10092400E8600FECC313FCED13FDEE13FEEF13FFB1
:03093400D8F122D5
:10093700E8600FEFC333FFEE33FEED33FDEC33FC1E
:03094700D8F122C2
:0C094A00ECF0A3EDF0A3EEF0A3EFF02220
:10095600A8828583F0D083D08212096D12096D12A8
:10096600096D12096DE473E493A3C583C5F0C583CD
:10097600C8C582C8F0A3C583C5F0C583C8C582C8EB
:01098600224E
:0C098700A42582F582E5F03583F583227B
:101B5400AC70AD71AE72AF737810EC4D4E4F700433
:101B64007CA57DA5C3EC13FCED13FDEE13FEEF1372
:101B7400FF5010EC64CCFCED644CFDEE644EFEEFC3
:101B840064CEFFD8DF8C708D718E728F73EE547FAC
:0D1B9400FE228E708F7174A5F572F573221C
:00000001FF
