:03000000020BEE02
:100BEE0078FFE4F6D8FD9000007F807E01E4F0A34C
:0A0BFE00DFFCDEFA75814C020C43A7
:100F20000000000100000005000A0BB800C80064C2
:100F300000020000000000040000FFFFFFFFFFFFB1
:100F40000014013A04082A0507CF013A04082705CE
:100F500007CF013A0408270507CF013A04082705FF
:100F600007CF013A0408270507CE013A04082805EF
:020F700007CFA9
:0413780041006100CF
:0B154D00900F2AE493FE740193FF222C
:0B155800900F2EE493FE740193FF221D
:08157800900F28740193FF227B
:0315A9007F01229D
:10124C00AD07ED75F008A42448F582E4340FF5835E
:10125C00E493FEED75F008A42449F582E4340FF50F
:0C126C0083E4937C002400FFEC3EFE2293
:1014A500EF75F008A42445F582E4340FF583E49341
:0214B500FF2214
:08158000900F22740193FF2279
:0D15270074432FF582E43400F583E0FF22C9
:08158800900000E0C313FF22F4
:0A156E00900000E075F00384FF22F6
:10142F0012124CEF7803C333CE33CED8F9FF7C00C2
:05143F007D0A12090FF7
:011444002285
:10100800E4FBFAF50BF50AF509F508750BE0750A26
:1010180031F509F508AF0BAE0AAD09AC0878011235
:1010280009988F0B8E0A8D098C0830D71374132AF0
:10103800F582E43400F583EBF00AEAC39406500421
:061048000BBB1FD18A332F
:01104E00227F
:1011BA00EF14601214601414601814601A24047076
:1011CA001E900F428008900F438003900F44E493CF
:1011DA00FF22E4FF021527900F34740193FF227F48
:0211EA000022E1
:10104F00900F26740193900000F0900F407401935D
:10105F0090004EF0121008E4FFEFC395335020EFCD
:10106F0075F008A42446F582E4340FF583E493FE6B
:10107F0074432FF582E43400F583EEF00F80DAE449
:06108F0090004CF0A3F0FC
:011095002238
:1004A800E4F508F50CF50BF50AF509F510F50FF567
:1004B8000EF50D1215CA50030205BA1212EB8F0C75
:1004C8008E0B8D0A8C09E4FBEBC395335047AF0CB8
:1004D800AE0BAD0AAC0978011209988F0C8E0B8D02
:1004E8000A8C0930D72CE47F01FEFDFC74132BF530
:1004F80082E43400F583E0F9F81209ABE5104FF512
:1005080010E50F4EF50FE50E4DF50EE50D4CF50D0A
:1005180005080B80B3E508C394024015D200E5082E
:10052800940340051215CD8008121580EF6002C2B1
:100538000020002CE4FFFEFDFCAB10AA0FA90EA8BA
:100548000DC3120987601090004DE004F07006900A
:10055800004CE004F08020E490004CF0A3F08017F9
:1005680090004AE004F07006900049E004F0E4F5D9
:1005780010F50FF50EF50D12154DD390004DE09FB7
:1005880090004CE09E400A1215CDE490004CF0A378
:10059800F0D390004AE0942C900049E09401401D6B
:1005A8001215CD9000617401F0E4900049F0A3F0B9
:1005B800800B900F30E4740193FF1205CEAF10AE9C
:0505C8000FAD0EAC0DAB
:0105CD00220B
:03005B000210DCB4
:1010DC00C0E0C0F0C083C082C0D075D000C000C0DA
:1010EC0001C002C003C004C005C006C007120E6DCB
:1010FC00D007D006D005D004D003D002D001D00048
:0B110C00D0D0D082D083D0F0D0E032F1
:04137C00021C00004F
:0115D00022F8
:1011EC008D0CC2AF75F402850CF5E4F5F38FF27536
:1011FC00F1F075F60A00000000000000000000F598
:10120C00F4D2AF1213E8EFB50C037F01227F00225A
:1013E800C2AF75F402E51D2FF582E4351CF583E4E0
:0713F80093FFE4F5F4D2AF0E
:0113FF0022CB
:05159C00A202920422EE
:0315AC00A2042274
:1014DB0030A008D20212159C021445C20212159CB0
:0114EB0022DE
:0315AF00AF4C221C
:10133400539BFEC280439A0153D11E43D16043D2D2
:101344000175D33B53A2FDC2A143A1021215A1759D
:031354004B012228
:0415A10043D280228F
:0615900053D27FC280224D
:1013B4008F4BE54B14600B14600C2402700B75D535
:0A13C400122275D51E2275D53822BD
:0315B200AF4B221A
:10145900754C01D2A11215A17F011213B412147F88
:031469000215B5B4
:10144500E4F54CFF1215BEC295C2A11215901214F7
:041455006C0215B858
:1012A1001209CA8F398E388D378C367FC07E657DA5
:1012B100527C00AB39AA38A937A836C31209874036
:0512C10003753A012253
:100E0E001215AFEF6058E53AB4010F0535E535C35D
:100E1E0094034006E4F5351214180534E534C394F2
:100E2E000A403BE4F5347FC07E657D52FCAB39AAA7
:100E3E0038A937A836120987400BE53A7003120C11
:100E4E0088753A0122AF39AE38AD37AC36EF240192
:0E0E5E00F539E43EF538E43DF537E43CF53671
:010E6C002263
:100C8800AF39AE38AD37AC368F0B8E0A8D098C086C
:100C980075CF10E50BFFE4AD077F0F1211ECAF0B1A
:100CA800AE0AAD09AC0878081209988F0B8E0A8D28
:100CB800098C0875CF10E50BFFE4AD077F0E121104
:100CC800ECAF0BAE0AAD09AC0878081209988F0B87
:100CD8008E0A8D098C0875CF10E50BFFE4AD077FF0
:100CE8000D1211ECAF0BAE0AAD09AC087808120969
:100CF800988F0B8E0A8D098C0875CF10E50BFFE4D1
:070D0800AD077F0C0211ECA6
:1009CA00E4F54AF549F548F54775CF107F0C12133F
:1009DA00E8E48F4AF549F548F547AE49AD48AC47D2
:1009EA0078081209AB8F4A8E498D488C4775CF100B
:1009FA007F0D1213E8E4FCFDFEE54A2FF54AEE35B9
:100A0A0049F549ED3548F548EC3547F547AF4AAE63
:100A1A0049AD48FC78081209AB8F4A8E498D488C3B
:100A2A004775CF107F0E1213E8E4FCFDFEE54A2F4E
:100A3A00F54AEE3549F549ED3548F548EC3547F5BF
:100A4A0047AF4AAE49AD48FC78081209AB8F4A8EC7
:100A5A00498D488C4775CF107F0F1213E8E4FCFDCF
:100A6A00FEE54A2FF54AEE3549F549ED3548F54890
:0C0A7A00EC3547F547AF4AAE49AD48FCEB
:010A8600224D
:1011500075CF10E4FD7F0C1211EC75CF10E4FD7F0C
:101160000D1211EC75CF10E4FD7F0E1211EC75CF4E
:1011700010E4FD7F0F1211ECE4F539F538F537F581
:0611800036F53A0215A548
:0B156300539BFDC281439A020215B8A1
:0315B500D28122BE
:0315B800C28122CB
:0613800004210000000042
:1013CE0090004BE0FF30E711547FF01204A88F24F9
:0A13DE008E238D228C211215C722E8
:10080A00E52454E0FFE5235431FEE4FDFCFB7A01C4
:10081A00F9F8C31209877018E52520E019052AE5B9
:10082A002AC3943240104325011214ECB2D980062F
:10083A005325FEE4F52AE4FFE523540FFEE4FDFC0C
:10084A00FB7A01F9F8C31209877016E52520E31728
:10085A000528E528C39432400E43250812159680D0
:10086A00065325F7E4F5281215AFEF70030208FCCA
:10087A00E4FFE523540FFEE4FDFCFB7A04F9F8C318
:10088A00120987701EE52520E1390527E527700240
:10089A000526C39488E52694134028432502121599
:1008AA00BB8020D3E5279432E5269400400DE52746
:1008BA009488E526941350031214B75325FDE4F5E2
:1008CA0026F527E4FFE523540FFEE4FDFCFB7A023C
:1008DA00F9F8C31209877014E52520E2150529E500
:1008EA0029C39432400C4325040213965325FBE492
:0308FA00F52922BB
:06159600121534021519C4
:1014B7001215B2BF02047F0180027F021213B40229
:0214C700121CF5
:0315BB00021150CA
:10139600B2D81215B2EF600DE4FF1213B4E4FF12D7
:0E13A60015BE0214927F011213B412121C2203
:1014EC001215AFBF0106121445020C8812145922B2
:1011860043921E5390E15391E143911E5392DF53D4
:1011960090DF439120439B30438030539A9F439A7C
:1011A6006043803043901E43D90753D8F8D2D8C243
:0411B600D9D2DA228E
:100B42000543E54370020542E54630E6735346BF6E
:100B5200D284D2851215AC5033C3E54394FAE542F0
:100B62009400401FE4F542F543AF46EFC41313135C
:100B72005401F45401C43333335480FFE546547FA7
:100B82004FF546E5467F0320E70E8007E5467F03E3
:100B920020E0051214FC800312150BE5467F0420A9
:100BA200E1051214FC800312150BAF46EF13131369
:100BB200541F139292EF1313543F139291C2842243
:100BC200434640D284D285E5467F0420E5051214CF
:100BD200FC800312150BE5467F0320E4051214FC8A
:0B0BE200800312150BD292D291C28545
:010BED0022E5
:0F14FC007401A807088002C333D8FCF452902271
:0E150B007401A807088002C333D8FC42902266
:10141800AF46EF13135401F4540125E025E0FFE52E
:071428004654FB4FF546227C
:0415A5004346042293
:10121C001215B2EF14601414601C240270214346A2
:10122C00024346085346EF434620224346015346A9
:0F123C00FD43460880065346FD5346F7434610D0
:01124B002280
:0315BE008F452234
:0D1534000545E545D394034003E4F5452249
:0315C100AF452211
:101117000544E544C394084003E4F544E54524FE4B
:10112700601414601E2402701DE544C3940150032B
:10113700D29522C29522E544C394045003D2952246
:08114700C29522D29522C29547
:01114F00227D
:10146C004346025346FE4346044346084346104354
:03147C00462022E5
:10147F005346FD4346014346044346084346104343
:03148F00462022D2
:101492004346024346014346044346085346EF434C
:0314A200462022BF
:0E1519001215C1EF7004434620225346DF2214
:0B138600013E00C105013F00013C00DA
:10140000538EFE5389F0858989758CE0758A18C2E0
:081410008DC28CD2A9D28C22FE
:03000B000210964A
:10109600C0E0C0F0C083C082C0D075D000C000C020
:1010A60001C002C003C004C005C006C007758CE0BD
:1010B600758A18D205120B42121117D007D006D026
:1010C60005D004D003D002D001D000D0D0D082D039
:0610D60083D0F0D0E032EF
:1012780075CF10759AFF759B407591FF75921F7514
:10128800A1FE75A2F17580FF7590FF75A0FF121180
:0912980086D2AF121400021445C5
:1014C9000541E541C3940A4006E4F541754001022E
:0214D9000E0EF5
:0315C400B2DA2276
:100FBE00121278120D0F75CF10300523C205053EA3
:100FCE00053DE53DC394644006E4F53D753B01E502
:100FDE003ED3940A4006E4F53E1213CE12080A12CE
:100FEE0014DBE53BB40106E4F53B1214C9E540B44D
:0A0FFE0001C4E4F5401215C480BCE4
:0413910041006800AF
:1006ED0075F00290004F1209BEE0FEA3E0FFE51386
:1006FD0075F0029000190209BEE51275F002900026
:10070D00010209BEE51275F0029000310209BE74B6
:10071D00252516F582E43400F58322D3E5149FEEEA
:10072D006480F8E51364809822743D2512F582E407
:10073D003400F58322D3FFED9FEE6480F8EC6480E6
:10074D009822745B2512F582E43400F58322E004CF
:10075D00F0740D2512F582E43400F58322E513754E
:10076D00F00290004F0209BEE4F0FFFEFDFCAB2E3F
:10077D00AA2DA92CA82BC3020987FEC3E5159FEE50
:10078D006480F8E51464809822E52E5532FFE52D3E
:10079D005531FEE52C5530FDE52B552FFC22742BE4
:1007AD002512F582E43400F58322E0FEA3E0FF7507
:1007BD00F002227E00900064E0FCA3E0FD1208FD33
:1007CD008EE78FE622A4FFE0C39FE5F06480F87406
:1007DD008098227D0A12090FAD037C000208FDE00E
:1007ED00FCA3E0C39F2290004EE0FB3395E0FAEBB3
:0D07FD00AE022290004EE0FF3395E0FE2298
:0C154100EF4E6007EF1F70F81E80F522CF
:020D8F008F1BB8
:100D910012152790006BEFF0AF1B1214A5EFFB901B
:100DA1000065E025E0FF900064E033FE7C0012075F
:100DB100E0E51B1207081207ECEC9E500990006B4E
:100DC100E06049148036AF1B1214A5EFFB9000645C
:100DD100E0FEA3E0FF7C007D071208FD1207E0752D
:100DE100F002E51B12070BE0FCA3E0D39FEC9E4051
:100DF1001B90006BE0FF647E6012EF04FF744325DB
:0C0E01001BF582E43400F583EFF0D20111
:010E0D0022C2
:100E6D00C203900069E01206FDE5E5F0A3E5E4F0AC
:100E7D00900069E004F0E0C39533400BE4F090007E
:100E8D004BE04480F08002D203900069E0FF121421
:100E9D00A51207C0900069E0FF121527E5E2548006
:100EAD004FF5E2900069E02413F582E43400F583F8
:0A0EBD00E04480F5E8300302D2EEB5
:010EC7002208
:100D0F00D2AFC201E4900069F090004BF012104F87
:100D1F00E4FF1211BAEF2401FDE433FC7E077FD00C
:100D2F0012090F900064EEF0A3EFF0E4FF1214A588
:100D3F001207C07F021211BAEFC454F0FEC006E4CE
:100D4F00FF1211BAD0E02FF5E17F031211BAE5E2DD
:100D5F0054804FF5E27F041211BAEF6008E5E254B8
:100D6F00804480F5E27F011211BA8FE3120F7243B4
:100D7F00A910900013E04480F5E8120EC80213107A
:0315C700D2EE223F
:1012C600E4FD90004BE0547FF0D2EE90004BE0201E
:1012D600E7127FE87E0312154143CF100DEDC3944C
:0412E6003240E82288
:0112EA0022E1
:100EC8007508201212C6E4F509E509C39533501BCD
:100ED800E5091206FD1207B7E50912070BEEF0A3A4
:100EE800EFF0AF09120D8F050980DEAF081508EF86
:100EF80070D11213571215788F081212C6E4F5092B
:100F0800E509C395335009AF09120A87050980F02E
:070F1800AF081508EF70E3BC
:010F1F0022AF
:10131000E4FFEFC39533501B75F002EF120700E0B6
:10132000FCA3E0FD75F002EF12070BECF0A3EDF06B
:031330000F80DF4C
:011333002297
:1012EB00E490006AF0F511E511C39533500EAF1180
:1012FB00120A87AF11120100051180EBAF2EAE2D34
:04130B00AD2CAC2B2E
:01130F0022BB
:020100008F125C
:10010200E4F51A75F002EF12070B1207B7E51212A7
:1001120007001207ECF514EC9EF513E47F01FEFDD7
:10012200FCA912A8011209AB8F328E318D308C2FAF
:10013200AF1212124C8E188F19C3E5149519E518D7
:1001420012072D40057515018003E4F515E51564C8
:1001520001600302028774252512120720E0C3946E
:10016200FA500A74252512120720E004F0120796AD
:10017200E4FBFAF9F8C3120987600302026A9000ED
:1001820000E0F5171215A9EF6028E4F515F516E55C
:1001920016C39533500F12071CE0C39401400205A9
:1001A20015051680EAE515C394034006740F25175A
:1001B200F51774252512120720E0C3951750030284
:1001C200026AE4F515121580EF7051F516E516C3B3
:1001D2009533501AE5126516601012156E12071C3F
:1001E200E0C39F40057515018004051680DF1215D6
:1001F200A9EF7052E515704EF516E516C39533500A
:1002020045E5126516601112156E742B251612073C
:10021200AFE0C39F4002802B051680DE1215A9EFC6
:100222007024F517F516E516C39533500F12071C07
:10023200E0C3940240020517051680EAE517C3944D
:10024200034003751501E515B40102D200E52E4500
:1002520032FFE52D4531FEE52C4530FDE52B452FDE
:100262008F2E8E2D8D2CF52B120736E4F012074FB0
:10027200E4F0120711E4F0A3F0740D2512F582E404
:10028200340002045DAF1212142F12072840081224
:1002920007ABE004F0800B90006AE004F01207ABB9
:1002A200E4F0120800C3E49FFDE49EFCC3E5149D44
:1002B200EC12072D40661207285061120736E4122D
:1002C200075D12077560030203CA120711E5138561
:1002D20014F0120964121558120711E0FCA3E0C3CE
:1002E2001207454009120706E475F0018021121534
:1002F20058C3E49FFFE49EFE120711E0FCA3E0C393
:1003020012074540030203CA12070674FFF5F012F2
:100312000964120711E4F0A3F00203CA90004EE050
:10032200FFFD3395E0FCC3E49DFDE49CFCC3E514B2
:100332009DEC12072D505A12073612075BE4F01299
:100342000736E0FE75F00A84E5F07037EEC3946478
:10035200400E120736E4F0D20190006104F08023CF
:10036200120706C083C082E0FCA3E0FDEFA2E71300
:10037200FF3395E0FEC3ED9FFFEC9ED082D083F069
:10038200A3EFF0900063E06512703D74FFF002038A
:10039200CA120800120728402F120736120775707A
:1003A2002712075E12075BE0B4201D12075EE4F01D
:1003B20090004EE0A2E713A2E713FF3395E0FE128E
:1003C2000706EE8FF01209641207964D4E4F700326
:1003D200020469E519AE187802CEA2E713CE13D84B
:1003E200F8FFC3E5199FFFE5189EFEC312072950C7
:1003F2006F12074FE004F01215888F17E4F516E527
:1004020016C39533500F12071CE0C3940140020536
:1004120015051680EAE515C394034006900000E036
:10042200F51712074FE0C39517407A12074FE4F011
:10043200AF32AE31AD30AC2F12097AE52E5FFFE557
:100442002D5EFEE52C5DFDE52B5C8F2E8E2D8D2C19
:10045200F52B74252512F582E43400F583E4F022AD
:1004620012074FE014F022742525121207201207FA
:10047200757005AF12120D8FE53314651270269058
:10048200006AE0C39533401DE4F516E516C39533C3
:10049200500D12071CE06003751501051680ECE58E
:0504A200157002C2000C
:0104A7002232
:10135700E4FFEFC39533501875F002EF120700E072
:10136700FCA3E0FDEF12076CECF0A3EDF00F80E2B9
:011377002253
:020A87008F13CB
:100A8900EF1206ED1207ECF515EC9EF514AF1312F3
:100A9900124CAD07AC06D3E5159DEC12078D500B32
:100AA900C3E49DFFE49C120787500B1206FBE0FE8E
:100AB900A3E0FF020B2FECA2E713FEED13FFD31205
:100AC9000789500BC3E49FFFE49E12078750271242
:100AD900076AE0FCA3E0FDECC313FEED13FFC3EDD1
:100AE9009FFDEC9EFC1206FBE0C313FEA3E0132D51
:100AF900FFEC3EFE803012076AE0FCA3E0FDAE0485
:100B09007803CEC313CE13D8F9FFC3ED9FFDEC9E36
:100B1900FC1206FBE0FEA3E07803CEC313CE13D884
:100B2900F92DFFEC3EFE12076AEEF0A3EFF0E51394
:080B39001206EDEEF0A3EFF04F
:010B41002291
:0315CA00A2012259
:0315CD00D2012226
:100F7200E4FFEFC39533502B74252F120720E4F0C2
:100F8200743D2F12073AE4F0745B2F120753E4F01A
:100F9200EF120713E4F0A3F0742B2F1207AFE4F063
:100FA2000F80CFE4F52EF52DF52CF52B9000637410
:0B0FB200FFF0E4900066F0A3F0C20125
:010FBD002211
:0205CE008F118B
:1005D000900068E0C394034035E4F0900061E0705F
:1005E00022F512E512C39533501975F002E5121287
:1005F000076F1207B7E51212070BEEF0A3EFF00535
:100600001280E0120F72C201E4900061F0229000AB
:1006100062E004F0E0B51108121357E4900063F0B3
:10062000900062E0D3951150030206ECE4F512E568
:1006300012C39533507A75F002E51212076F120754
:10064000B7E5121207001207ECFFEC9EAD07FC9015
:100650000061E070291207F37802C333CE33CED89D
:10066000F91207424040E49BFFE49AFEEF7802C390
:1006700033CE33CED8F9C3120743502A8032120743
:10068000F37803C333CE33CED8F91207424017E4D0
:100690009BFFE49AFEEF7803C333CE33CED8F9FF45
:1006A000C3120744400AAF12120A87051202062F2E
:1006B000E512B53306900063E004F0E51175F0082B
:1006C0009000621207D24024E4F0C200900068E07B
:1006D00004F0E51175F0049000631207D2400DE4B8
:0C06E000900068F0121310120F72C2019B
:0106EC0022EB
:100C0800020FBEE493A3F8E493A34003F68001F235
:100C180008DFF48029E493A3F85407240CC8C333ED
:100C2800C4540F4420C8834004F456800146F6DFBC
:100C3800E4800B0102040810204080901378E47EC1
:100C4800019360BCA3FF543F30E509541FFEE493B1
:100C5800A360010ECF54C025E060A840B8E493A378
:100C6800FAE493A3F8E493A3C8C582C8CAC583CAA3
:100C7800F0A3C8C582C8CAC583CADFE9DEE780BE5B
:011395000057
:1008FD00EF8DF0A4A8F0CF8CF0A428CE8DF0A42E0F
:02090D00FE22C8
:10090F00BC000BBE0029EF8DF084FFADF022E4CCCC
:10091F00F875F008EF2FFFEE33FEEC33FCEE9DEC95
:10092F00984005FCEE9DFE0FD5F0E9E4CEFD22EDDB
:10093F00F8F5F0EE8420D21CFEADF075F008EF2F25
:10094F00FFED33FD4007985006D5F0F222C398FD16
:05095F000FD5F0EA22B3
:10096400C5F0F8A3E028F0C5F0F8E582158270021E
:060974001583E038F022BB
:0D097A00CFF4CFCEF4CECDF4CDCCF4CC2212
:10098700EB9FF5F0EA9E42F0E99D42F0E89C45F0C6
:01099700223D
:10099800E8600FECC313FCED13FDEE13FEEF13FF3D
:0309A800D8F12261
:1009AB00E8600FEFC333FFEE33FEED33FDEC33FCAA
:0309BB00D8F1224E
:0C09BE00A42582F582E5F03583F5832244
:00000001FF
