:0300000002140ADD
:10140A0078FFE4F6D8FD9000007F807E01E4F0A327
:0A141A00DFFCDEFA75816002145F4A
:1019E20000000001000A0005000A0BB800C80064EC
:1019F20000020000000000040000FFFFFFFFFFFFE5
:101A02000014011B0408190501BB01440408260443
:101A12000152013F040827050197013304082705F5
:101A2200017501420408270501E501440408270560
:021A320000ECC6
:041FC2004100610079
:0B21A1009019ECE493FE740193FF2200
:0B21AC009019F0E493FE740193FF22F1
:0821E7009019EA740193FF2234
:032264007F0122D5
:101E4E00AD07ED75F008A4240AF582E4341AF58383
:101E5E00E493FEED75F008A4240BF582E4341AF534
:0C1E6E0083E4937C002400FFEC3EFE2285
:1020E300EF75F008A42407F582E4341AF583E4932A
:0220F300FF22CA
:0821EF009019E4740193FF2232
:0D217B0074432FF582E43400F583E0FF2269
:0821F700900000E0C313FF2279
:0A21B700900000E075F00384FF22A1
:10207B00121E4EEF7803C333CE33CED8F9FF7C005C
:05208B007D0A12074868
:01209000222D
:101B6400E4FBFAF50BF50AF509F508750BE0750ABF
:101B740031F509F508AF0BAE0AAD09AC08780112CE
:101B8400093A8F0B8E0A8D098C0830D71374132AE7
:101B9400F582E43400F583EBF00AEAC394065004BA
:061BA4000BBB1FD18A46B5
:011BAA002218
:101D8800EF14601214601414601814601A2404709C
:101D98001E901A048008901A058003901A06E4938E
:101DA800FF22E4FF02217B9019F6740193FF227F42
:021DB800002207
:101BAB009019E8740193900000F0901A027401935D
:101BBB0090004EF0121B64E4FFEFC395465020EFEC
:101BCB0075F008A42408F582E4341AF583E493FE37
:101BDB0074432FF582E43400F583EEF00F80DAE4E2
:061BEB0090004CF0A3F095
:011BF10022D1
:100D6F00E4F508F50CF50BF50AF509F510F50FF597
:100D7F000EF50D1222765003020E81121F178F0CE3
:100D8F008E0B8D0A8C09E4FBEBC395465047AF0CD5
:100D9F00AE0BAD0AAC09780112093A8F0C8E0B8D90
:100DAF000A8C0930D72CE47F01FEFDFC74132BF560
:100DBF0082E43400F583E0F9F812094DE5104FF5A0
:100DCF0010E50F4EF50FE50E4DF50EE50D4CF50D3B
:100DDF0005080B80B3E508C394024015D200E5085F
:100DEF009403400512227980081221EFEF6002C2AE
:100DFF000020002CE4FFFEFDFCAB10AA0FA90EA8EB
:100E0F000DC3120929601090004DE004F070069098
:100E1F00004CE004F08020E490004CF0A3F0801729
:100E2F0090004AE004F07006900049E004F0E4F509
:100E3F0010F50FF50EF50D1221A1D390004DE09F87
:100E4F0090004CE09E400A122279E490004CF0A3EF
:100E5F00F0D390004AE0942C900049E09401401D9B
:100E6F001222799000617401F0E4900049F0A3F030
:100E7F00800B9019F2E4740193FF120E95AF10AE30
:050E8F000FAD0EAC0DDB
:010E9400223B
:03005B00021CAED6
:101CAE00C0E0C0F0C083C082C0D075D000C000C0FC
:101CBE0001C002C003C004C005C006C00712192F20
:101CCE00D007D006D005D004D003D002D001D0006A
:0B1CDE00D0D0D082D083D0F0D0E03214
:041FC600021C0000F9
:01228E00222D
:101E1E008D0CC2AF75F402850CF5E4F5F38FF275F7
:101E2E00F1F075F60A00000000000000000000F559
:101E3E00F4D2AF122063EFB50C037F01227F002294
:10206300C2AF75F402E51D2FF582E4351CF583E458
:0720730093FFE4F5F4D2AF86
:01207A002243
:03226700AF49225A
:101EA600E4F548539AFB439B045391BF4392404346
:101EB600C114C2C2C2C475D3C775D4B090074474E6
:071EC60080F0A37414F02268
:101FA500D2C49000A0E4F0A37419F0900744E04473
:0D1FB50080F0A3E0F0E490009EF0A3F02285
:0D2188000548E548D394034003E4F54822E0
:03226A00AF482258
:10152B00122267EF6401704190009EE0547FFEA38E
:10153B00E0FFA3E0FCA3E0FD6F7002EC6E6066D3EE
:10154B00ED9FEC9E401090009FE004F07016900011
:10155B009EE004F0800E90009FE024FFF090009E30
:10156B00E034FFF090009E801BD39000A1E094002C
:10157B009000A0E09400401BA3E024FFF09000A09B
:10158B00E034FFF0E04480FFA3E0900744CFF0A3EA
:10159B00EFF022E49000A0F0A3F0900744E0547F1A
:0615AB00F0C2C2C2C4221E
:10203100AF8CEFFEAD8A7C00E42DF54BEC3EF54A0A
:09204100E4F58CF58A754E0122CC
:1009A900E54E7003020BA1E4F54E854A4C854B4D8B
:1009B900E548147003020AA3147003020ADF1470D5
:1009C90003020B1924036003020B5C12227CEF243F
:1009D900FE6049147003020A6424026003020B5C7E
:1009E900C3E54B943AE54A94005013C3E54B941E72
:1009F900E54A94005003020B2F0547020B5CD3E52F
:100A09004B943EE54A9400404FD3E54B945AE54A4E
:100A190094004003020B4D1547020B5CC3E54B9450
:100A290076E54A94005013C3E54B945AE54A94007D
:100A39005003020B2F0547020B5CD3E54B947AE573
:100A49004A94004013D3E54B9496E54A9400400339
:100A5900020B4D1547020B5C020B59C3E54B94AED3
:100A6900E54A94005013C3E54B9492E54A9400502B
:100A790003020B2F0547020B5CD3E54B94B2E54A01
:100A890094004013D3E54B94CEE54A940040030209
:100A99000B4D1547020B5C020B59C3E54B943AE524
:100AA9004A94005012C3E54B941EE54A9400500243
:100AB90080740547020B5CD3E54B943EE54A9400EC
:100AC9004012D3E54B945AE54A94004002807515CB
:100AD90047020B5C807AC3E54B9476E54A94005053
:100AE90011C3E54B945AE54A9400500280380547F2
:100AF9008061D3E54B947AE54A94004011D3E54BE4
:100B09009496E54A94004002803A15478045804012
:100B1900C3E54B94AEE54A94005013C3E54B949258
:100B2900E54A94005004740A801C05478025D3E5E2
:100B39004B94B2E54A94004017D3E54B94CEE54A6D
:100B49009400400874F62547F54780071547800348
:100B5900754714E547D3941540117547149000A1C2
:100B6900E004F070069000A0E004F0E547C3941398
:100B790050117547149000A1E024FFF09000A0E007
:100B890034FFF0D39000A1E094A09000A0E094007D
:090B99004006E4F0A374A0F02270
:10212B0075490112225412226D121FA5C2DB022126
:01213B00FFA4
:101FDE00E4F549122270E4FF122285122260121BD0
:0C1FEE00F2D2DB1221FF1214A4022242E6
:101ECD001212928F548E538D528C517F007EBA7D9B
:101EDD00DB7C00AB54AA53A952A851C31209294067
:051EED00037555012200
:10187000122267EF605AE555B4010C0550E550C3DC
:1018800094034003E4F550054FE54FC3940A403BF1
:10189000E4F54FFF7EBA7DDBFCAB54AA53A952A8F6
:1018A00051120929400CE55570031214A475550115
:1018B0008019AF54AE53AD52AC51EF2401F554E44E
:1018C0003EF553E43DF552E43CF551AF5512215D30
:0118D00022F5
:1014A400AF54AE53AD52AC518F0B8E0A8D098C08DC
:1014B40075CF10E50BFFE4AD077F0F121E1EAF0BB7
:1014C400AE0AAD09AC08780812093A8F0B8E0A8D62
:1014D400098C0875CF10E50BFFE4AD077F0E121ED3
:1014E4001EAF0BAE0AAD09AC08780812093A8F0B8F
:1014F4008E0A8D098C0875CF10E50BFFE4AD077FCC
:101504000D121E1EAF0BAE0AAD09AC087808120905
:101514003A8F0B8E0A8D098C0875CF10E50BFFE40A
:07152400AD077F0C021E1E43
:10129200E4F50BF50AF509F50875CF107F0C12205D
:1012A20063E48F0BF50AF509F508AE0AAD09AC083F
:1012B200780812094D8F0B8E0A8D098C0875CF1094
:1012C2007F0D122063E4FCFDFEE50B2FF50BEE35DE
:1012D2000AF50AED3509F509EC3508F508AF0BAE4C
:1012E2000AAD09FC780812094D8F0B8E0A8D098C04
:1012F2000875CF107F0E122063E4FCFDFEE50B2F74
:10130200F50BEE350AF50AED3509F509EC3508F568
:1013120008AF0BAE0AAD09FC780812094D8F0B8E8F
:101322000A8D098C0875CF107F0F122063E4FCFD33
:10133200FEE50B2FF50BEE350AF50AED3509F50939
:0C134200EC3508F508AF0BAE0AAD09FC55
:01134E00227C
:101D200075CF10E4FD7F0C121E1E75CF10E4FD7FF1
:101D30000D121E1E75CF10E4FD7F0E121E1E75CFF4
:101D400010E4FD7F0F121E1EE4F554F553F552F515
:041D500051F55522D2
:0622360043C120022270EA
:03226D00D2C522B5
:03227000C2C522C2
:061FCA00042300000000EA
:101D540090004BE0FF30E72B547FF0120D6F8F267D
:101D64008E258D248C23E52654E0FFE5255431FE91
:101D7400E4FDFCFBFAF9F8C312092960031221FF00
:041D84001222732292
:06223C005327BF0221FF41
:0821FF00E49000A4F0A3F0221B
:100BA2009000A4E0FEA3E0FFE4FCFD7B607AEAF99A
:100BB200F8D31209135005432740800E9000A5E098
:100BC20004F070069000A4E004F0E52654E0FFE58E
:100BD200255431FEE4FDFCFB7A01F9F8C312092920
:100BE2007021E52720E61C20E021052FE52F700269
:100BF200052EC3940AE52E940040104327011220CB
:100C02009180085327FEE4F52EF52F122267EF702C
:100C120003020D6EE52654E0FFE5255431FEE4FDA6
:100C2200FC7B80FAF9F8C31209297021E52720E636
:100C32001C20E2390529E52970020528C39488E5BC
:100C420028941340284327041222278020D3E52921
:100C52009405E5289400400DE5299488E52894132D
:100C6200500312221F5327FBE4F528F529E52654E9
:100C7200E0FFE5255431FEE4FDFCFB7A10F9F8C3F0
:100C82001209297021E52720E61C20E4210522E52E
:100C92002270020521C3940AE521940040104327E3
:100CA2001012222F80085327EFE4F521F522E526C2
:100CB20054E0FFE5255431FEE4FDFCFB7A20F9F80F
:100CC200C31209297021E52720E61C20E121053104
:100CD200E53170020530C3940AE5309400401043B8
:100CE200270212220F80085327FDE4F530F531E583
:100CF2002654E0FFE5255431FEE4FDFC7B40FAF981
:100D0200F8C3120929701EE52720E321052DE52DE0
:100D12007002052CC394F4E52C940140104327087B
:100D220012221780085327F7E4F52CF52DE52654F7
:100D3200E0FFE5255431FEE4FDFC7B20FAF9F8C31F
:100D4200120929701FE52720E61A20E51F052BE569
:100D52002B7002052AC3940AE52A9400400E432709
:0D0D6200200222075327DFE4F52AF52B229B
:07222F00B2C57F0A02224E36
:062242005327BF0221FF3B
:082207001221077F0A02224E9A
:08220F001220F57F0A02224EA5
:082217001222427F0A02224E4E
:0A21C100AF27EFC4131354031322D9
:08221F001221887F0A02224E01
:08222700121D207F0A02224E65
:102091007F0A12224E122267BF0106121FDE0214AE
:0520A100A412212B2216
:101C320043D90753D8F8D2DAD2D9C2D84393EF4363
:101C4200948075A3FF439C0343B3F8E4F58F900798
:101C520010E04408F0A3E04408F0A3E04408F0A335
:0F1C6200E04408F0A3E04408F0A3E04408F022B7
:101FFA00122267EF601512216C121A3412180D1290
:0C200A00213C121B1A121F3C12172D2241
:0F215D00900715E0BF01044410F02254EFF02268
:101BF200D2D9D2D8D2DA90070BE054F7F0A3E0544E
:101C0200E7F0A3E054E7F0A3E054E7F0A3E05407C1
:101C1200F0A3E0540FF0A3E0540FF0A3E0540FF050
:101C2200A3E0540FF0A3E0540FF0A3E0540FF0220E
:04225400439380220E
:101B1A001221DE8E088F097C007D641207487D073A
:101B2A001204A8AE08AF097C007D641207487E0043
:101B3A007F0ACFCDCFCECCCE1207487D061204A89D
:101B4A00AE08AF097C007D0A120748AF057D051271
:091B5A0004A890070CE04410F00F
:011B6300225F
:10172D0012228BEF24FE602114603014603F2403DD
:10173D00704D90070CE054F7F0A3E054F7F0A3E0E0
:10174D0054F7F0A3E04408F02290070CE054F7F0B2
:10175D00A3E054F7F0A3E04408803490070CE05464
:10176D00F7F0A3E04408F0A3E054F7802290070CB3
:10177D00E04408F0A3E054F7F0A3E054F780109094
:10178D00070CE054F7F0A3E054F7F0A3E054F7F0A2
:06179D00A3E054F7F02266
:101A3400122288EF24FE60191460232402702C9073
:101A4400070DE054EFF0A3E054EFF0A3E04410F0EE
:101A54002290070DE054EFF0A3E0441080189007A3
:101A64000DE04410F0A3E054EF800B90070DE05418
:0D1A7400EFF0A3E054EFF0A3E054EFF022F8
:101F3C0012227CEF24FE600714600B2402800ED268
:101F4C00D9C2D8D2DA22D2D9D2D8C2DA22C2D9D2C4
:041F5C00D8D2DA22DB
:10213C001221C190070BE0400454F7F0224408F040
:01214C002270
:0F216C00900710E030C5044410F02254EFF02229
:10180D0012226AEF14600A146019146028240380F0
:10181D003B900711E054EFF0A3E054EFF0A3E04448
:10182D00108022900711E054EFF0A3E04410F0A3D4
:10183D00E054EF8010900711E04410F0A3E054EF56
:10184D00F0A3E054EFF0A3E054EFF022900711E085
:10185D0054EFF0A3E054EFF0A3E054EFF0A3E04415
:03186D0010F02256
:1004A800EFB40A0040030207359004B8F82828730F
:1004B8000204D60205070205450205860205BA02AE
:1004C800060302064702068A0206C70206F29007DA
:1004D8000FE0FF7401A805088002C333D8FCFEF4BE
:1004E8005F90070FF0A3E04EF0A3E0FF7401A805AA
:1004F800088002C333D8FCFE4F9007110206E4902F
:10050800070FE0FF7401A805088002C333D8FCFE7A
:10051800F4FC5F90070FF0A3E05CF0A3E05CF0A3AD
:10052800E05CF0A3E04EF0A3E0FF7401A8050880AA
:1005380002C333D8FCFE4F9007140205F890070F4A
:10054800E0FF7401A805088002C333D8FCFE4F9071
:10055800070FF0A3E0FFEEF4FEEF5EF0A3E0FF74F8
:1005680001A805088002C333D8FCFC4F900711F09E
:10057800A3E04CF0A3E05EF0A3E04C020641900734
:100588000FE0FF7401A805088002C333D8FCFE4FB2
:1005980090070FF0A3E0FFEEF4FEEF5EF0A3E05E3D
:1005A800F0A3E0FF7401A805088002C333D8FC0259
:1005B800072390070FE0FF7401A805088002C333E2
:1005C800D8FCFE4F90070FF0A3E04EF0A3E0FFEE3B
:1005D800F4FEEF5EF0A3E05EF0A3E0FF7401A8056F
:1005E800088002C333D8FCFE4F900713F0A3E04EF7
:1005F800F0A3E0FFEEF4FEEF5EF02290070FE0FFBD
:100608007401A805088002C333D8FCFE4F90070F79
:10061800F0A3E04EF0A3E0FFEEF4FEEF5EF0A3E0FF
:10062800FF7401A805088002C333D8FCFC4F90076B
:1006380012F0A3E04CF0A3E05EF0A3E04CF02290AF
:10064800070FE0FF7401A805088002C333D8FCFE39
:100658004F90070FF0A3E04EF0A3E04EF0A3E04E5A
:10066800F0A3E04EF0A3E0FFEEF4FEEF5EF0A3E0AF
:10067800FF7401A805088002C333D8FC4F90071502
:10068800F02290070FE0FF7401A805088002C33329
:10069800D8FCFEF4FC5F90070FF0A3E05CF0A3E049
:1006A8005CF0A3E05CF0A3E04EF0A3E0FF7401A8C7
:1006B80005088002C333D8FCFE4F90071480699068
:1006C800070FE0FF7401A805088002C333D8FCFEB9
:1006D8004F90070FF0A3E04EF0A3E04EF0A3E04EDA
:1006E800F0A3E04EF0A3E04E803E90070FE0FF74C9
:1006F80001A805088002C333D8FCFE4F90070FF00D
:10070800A3E04EF0A3E0FFEEF4FEEF5EF0A3E0FFFF
:100718007401A805088002C333D8FCFE4F90071265
:0E072800F0A3E04EF0A3E04EF0A3E04EF0226E
:051FD000013500C10213
:101E7A00438E02438910758BC0758DF9C28ED2AB21
:101E8A00438E04E4F5C9F5C875CBFA75CA32C2CADD
:0C1E9A00D2ADD2CA438905C2A9D28C2265
:0921D500758B80758DEED28E220F
:03000B0002228F3F
:01228F00321C
:03002B000216B00A
:1016B000C0E0C0F0C083C082C0D075D000C000C000
:1016C00001C002C003C004C005C006C007C2CFE508
:1016D0003BB40404D2DC800FE53BC394644008C2F1
:1016E000DC753B001221D5053B0536E536C3940A6F
:1016F0004006753401753600053AE53A7002053941
:10170000C39410E53994274009753900753A0012E1
:101710002031D007D006D005D004D003D002D001AC
:0D172000D000D0D0D082D083D0F0D0E03205
:101DBA0075CF1043913143B103121C321220BBD2AA
:101DCA00AF121E7A121EA61222361221CB1215B19A
:101DDA0012223C12228E121ECD12225C12214D02B8
:021DEA00212BAB
:1020D000120BA2053DE53DC3940A4006E4F53D75AB
:0320E0003C01229E
:10201600121D540533E533C3940A4006E4F53375BF
:0B20260032011210D112152B022119FB
:1020A6000538E538C3940A4006E4F5387537011259
:0520B6001870021FFA82
:062248001217A30218D1D9
:101CE900121DBA75CF10E534B40106E4F53412209B
:101CF900D0E53CB40106E4F53C122016E532B40106
:101D090006E4F5321220A6E537B40106E4F53712E8
:071D190022481209A980CC49
:03001B00021C7153
:101C7100C0E0C0F0C083C082C0D075D000C000C039
:101C810001C002C003C004C005C006C007C28E1255
:101C91002258D007D006D005D004D003D002D001FD
:0D1CA100D000D0D0D082D083D0F0D0E0327F
:041FD50041009B002C
:100FB40075F00290004F12099DE0FEA3E0FFE513D7
:100FC40075F00290001902099DE51275F002900077
:100FD4000102099DE51275F00290003102099D7429
:100FE400252516F582E43400F58322D3E5149FEE1B
:100FF4006480F8E51364809822743D2512F582E438
:101004003400F58322D3FFED9FEE6480F8EC648016
:101014009822745B2512F582E43400F58322E004FF
:10102400F0740D2512F582E43400F58322E513757E
:10103400F00290004F02099DE4F0FFFEFDFCAB417D
:10104400AA40A93FA83EC3020929FEC3E5159FEEA5
:101054006480F8E51464809822E5415545FFE54035
:101064005544FEE53F5543FDE53E5542FC22742BB5
:101074002512F582E43400F58322E0FEA3E0FF7537
:10108400F002227E00900097E0FCA3E0FD120736F8
:101094008EE78FE622A4FFE0C39FE5F06480F87436
:1010A4008098227D0A120748AD037C00020736E0CF
:1010B400FCA3E0C39F2290004EE0FB3395E0FAEBE3
:0D10C400AE022290004EE0FF3395E0FE22C8
:0C219500EF4E6007EF1F70F81E80F5226F
:021631008F1B0D
:1016330012217B9000A7EFF0AF1B1220E3EFFB908A
:101643000098E025E0FF900097E033FE7C00121045
:10165300A7E51B120FCF1210B3EC9E50099000A701
:10166300E06049148036AF1B1220E3EFFB90009734
:10167300E0FEA3E0FF7C007D071207361210A7757A
:10168300F002E51B120FD2E0FCA3E0D39FEC9E40D7
:101693001B9000A7E0FF647E6012EF04FF744325F4
:0C16A3001BF582E43400F583EFF0D20167
:0116AF002218
:10192F00C20390009CE0120FC4E5E5F0A3E5E4F0DC
:10193F0090009CE004F0E0C39546400BE4F090006B
:10194F004BE04480F08002D20390009CE0FF122015
:10195F00E312108790009CE0FF12217BE5E2548098
:10196F004FF5E290009CE02413F582E43400F583F8
:0A197F00E04480F5E8300302D2EEE8
:01198900223B
:1015B100D2AFC201E490009CF090004BF0121BAB43
:1015C100E4FF121D88EF2401FDE433FC7E077FD088
:1015D100120748900097EEF0A3EFF0E4FF1220E32A
:1015E1001210877F02121D88EFC454F0FEC006E47A
:1015F100FF121D88D0E02FF5E17F03121D88E5E27F
:1016010054804FF5E27F04121D88EF6008E5E25433
:10161100804480F5E27F01121D888FE3121ACE43C8
:10162100A910900013E04480F5E812198A021F60A6
:03227300D2EE2286
:101EF200E4FD90004BE0547FF0D2EE90004BE020E6
:101F0200E7127FE87E0312219543CF100DEDC394B3
:041F12003240E8224F
:011F160022A8
:10198A00750820121EF2E4F509E509C39546501BB5
:10199A00E509120FC412107EE509120FD2EEF0A368
:1019AA00EFF0AF09121631050980DEAF081508EF0E
:1019BA0070D1121F841221E78F08121EF2E4F50972
:1019CA00E509C395465009AF0912134F050980F07E
:0719DA00AF081508EF70E3F0
:0119E10022E3
:101F6000E4FFEFC39546501B75F002EF120FC7E078
:101F7000FCA3E0FD75F002EF120FD2ECF0A3EDF040
:031F80000F80DFF0
:011F8300223B
:101F1700E490009DF0F511E511C39546500EAF1101
:101F270012134FAF11120100051180EBAF41AE4004
:041F3700AD3FAC3ED0
:011F3B002283
:020100008F125C
:10010200E4F51A75F002EF120FD212107EE5121208
:100112000FC71210B3F514EC9EF513E47F01FEFD38
:10012200FCA912A80112094D8F458E448D438C42C1
:10013200AF12121E4E8E188F19C3E5149519E518C9
:10014200120FF440057515018003E4F515E51564F9
:1001520001600302028774252512120FE7E0C3949F
:10016200FA500A74252512120FE7E004F012105D0E
:10017200E4FBFAF9F8C3120929600302026A90004B
:1001820000E0F517122264EF6028E4F515F516E594
:1001920016C39546500F120FE3E0C39401400205C7
:1001A20015051680EAE515C394034006740F25175A
:1001B200F51774252512120FE7E0C39517500302B5
:1001C200026AE4F5151221EFEF7051F516E516C338
:1001D2009546501AE512651660101221B7120FE308
:1001E200E0C39F40057515018004051680DF1222C9
:1001F20064EF7052E515704EF516E516C39546503C
:1002020045E512651660111221B7742B25161210DE
:1002120076E0C39F4002802B051680DE122264EF37
:100222007024F517F516E516C39546500F120FE325
:10023200E0C3940240020517051680EAE517C3944D
:10024200034003751501E515B40102D200E54145ED
:1002520045FFE5404544FEE53F4543FDE53E454259
:100262008F418E408D3FF53E120FFDE4F0121016C5
:10027200E4F0120FD8E4F0A3F0740D2512F582E435
:10028200340002045DAF1212207B120FEF400812FD
:100292001072E004F0800B90009DE004F0121072E6
:1002A200E4F01210C7C3E49FFDE49EFCC3E5149D75
:1002B200EC120FF44066120FEF5061120FFDE412C0
:1002C200102412103C60030203CA120FD8E51385F2
:1002D20014F01207D31221AC120FD8E0FCA3E0C332
:1002E20012100C4009120FCDE475F0018021122189
:1002F200ACC3E49FFFE49EFE120FD8E0FCA3E0C370
:1003020012100C40030203CA120FCD74FFF5F01253
:1003120007D3120FD8E4F0A3F00203CA90004EE014
:10032200FFFD3395E0FCC3E49DFDE49CFCC3E514B2
:100332009DEC120FF4505A120FFD121022E4F0122B
:100342000FFDE0FE75F00A84E5F07037EEC39464A9
:10035200400E120FFDE4F0D20190006104F0802300
:10036200120FCDC083C082E0FCA3E0FDEFA2E71331
:10037200FF3395E0FEC3ED9FFFEC9ED082D083F069
:10038200A3EFF0900096E06512703D74FFF0020357
:10039200CA1210C7120FEF402F120FFD12103C703D
:1003A20027121025121022E0B4201D121025E4F0AD
:1003B20090004EE0A2E713A2E713FF3395E0FE128E
:1003C2000FCDEE8FF01207D312105D4D4E4F70031A
:1003D200020469E519AE187802CEA2E713CE13D84B
:1003E200F8FFC3E5199FFFE5189EFEC3120FF050F8
:1003F2006F121016E004F01221F78F17E4F516E5DC
:1004020016C39546500F120FE3E0C3940140020554
:1004120015051680EAE515C394034006900000E036
:10042200F517121016E0C39517407A121016E4F071
:10043200AF45AE44AD43AC42120906E5415FFFE56C
:10044200405EFEE53F5DFDE53E5C8F418E408D3FA7
:10045200F53E74252512F582E43400F583E4F0229A
:10046200121016E014F02274252512120FE7121052
:100472003C7005AF12121631E546146512702690D3
:10048200009DE0C39546401DE4F516E516C395466A
:10049200500D120FE3E06003751501051680ECE5BF
:0504A200157002C2000C
:0104A7002232
:101F8400E4FFEFC39546501875F002EF120FC7E057
:101F9400FCA3E0FDEF121033ECF0A3EDF00F80E2B0
:011FA400221A
:02134F008F13FA
:10135100EF120FB41210B3F515EC9EF514AF131282
:101361001E4EAD07AC06D3E5159DEC121054500B83
:10137100C3E49DFFE49C12104E500B120FC2E0FE1D
:10138100A3E0FF0213F7ECA2E713FEED13FFD31264
:101391001050500BC3E49FFFE49E12104E502712D1
:1013A1001031E0FCA3E0FDECC313FEED13FFC3ED30
:1013B1009FFDEC9EFC120FC2E0C313FEA3E0132DB0
:1013C100FFEC3EFE8030121031E0FCA3E0FDAE04E4
:1013D1007803CEC313CE13D8F9FFC3ED9FFDEC9E66
:1013E100FC120FC2E0FEA3E07803CEC313CE13D8E4
:1013F100F92DFFEC3EFE121031EEF0A3EFF0E513F4
:08140100120FB4EEF0A3EFF0AE
:0114090022C0
:03227600A20122A0
:03227900D201226D
:101ACE00E4FFEFC39546502B74252F120FE7E4F079
:101ADE00743D2F121001E4F0745B2F12101AE4F013
:101AEE00EF120FDAE4F0A3F0742B2F121076E4F05D
:101AFE000F80CFE4F541F540F53FF53E900096742A
:0B1B0E00FFF0E4900099F0A3F0C2018A
:011B190022A9
:020E95008F11BB
:100E970090009BE0C394034035E4F0900061E0705C
:100EA70022F512E512C39546501975F002E51212A4
:100EB700103612107EE512120FD2EEF0A3EFF005F6
:100EC7001280E0121ACEC201E4900061F022900075
:100ED70095E004F0E0B51108121F84E4900096F045
:100EE700900095E0D395115003020FB3E4F512E596
:100EF70012C39546507A75F002E512121036121099
:100F07007EE512120FC71210B3FFEC9EAD07FC90DF
:100F17000061E070291210BA7802C333CE33CED8FD
:100F2700F91210094040E49BFFE49AFEEF7802C3F0
:100F370033CE33CED8F9C312100A502A803212109A
:100F4700BA7803C333CE33CED8F91210094017E469
:100F57009BFFE49AFEEF7803C333CE33CED8F9FF75
:100F6700C312100B400AAF1212134F0512020EF6EE
:100F7700E512B54606900096E004F0E51175F00815
:100F87009000951210994024E4F0C20090009BE075
:100F970004F0E51175F004900096121099400DE4E5
:0C0FA70090009BF0121F60121ACEC201D5
:010FB300221B
:041FD900410066005D
:1020BB0043D9187F0F7E00121DEC90009012096C13
:0520CB000000000022EE
:0921DE00900064E0FEA3E0FF2282
:1011CC00E4F50BF50AF509F508FBEB25E02468F5C9
:1011DC0082E43400F583E0FEA3E0FFE4FCFDE50BC4
:1011EC002FF50BE50A3EF50AED3509F509EC350846
:1011FC00F5080BBB14D4E4FAF9F8AF0BAE0AAD0941
:10120C00AC08120874900090120960E47F507EC301
:10121C00FDFC900090E0F8A3E0F9A3E0FAA3E0FB5A
:10122C001207E9E4FB7A10F9F81208748F0F8E0E8E
:10123C008D0D8C0CE47F7C7E15FDFCAB0FAA0EA9EA
:10124C000DA80CD3120929401AE50F947CF50FE573
:10125C000E9415F50EE50D9400F50DE50C9400F5C6
:10126C000C8009E4F50FF50EF50DF50CE47B38FA5E
:10127C00F9F8AF0FAE0EAD0DAC0C12087490006205
:05128C00EEF0A3EFF0FD
:01129100223A
:1010D100900094E06401703DF0AFAFEF75F010A4A3
:1010E100FFE5AEC4540F7C002FFFEC35F0FE9000FD
:1010F10066E025E02468F582E43400F583EEF0A390
:10110100EFF0900066E004F0D3941440081211CC83
:10111100E4900066F0900067E004F0D394965003E9
:101121000211CBE4F0900063E02414FF900062E030
:101131003400FED3900065E09F900064E09E40196A
:10114100121A817C007D1412079DC3900065E09DF9
:10115100F0900064E09CF0800D900062E0FFA3E05D
:10116100A3CFF0A3EFF0C3900065E094E790006493
:10117100E0940340077403F0A374E7F0900064E087
:101181007002A3E07017121A817C007D0512079D81
:10119100ED2401FEE43C900064F0A3CEF0900064E5
:1011A100E0FEA3E0FFD39446EE9400500475600185
:1011B10022D3EF9446EE9400400DD3EF9496EE9433
:0B11C1000050047560022275600322DC
:03227C00AF60222E
:101DEC00EF4480F5ADC3EF9408EE9400500F7401EE
:101DFC00A807088002C333D8FCF5AB8011EF24F898
:101E0C00FF7401A807088002C333D8FCF5AC75A891
:021E1C00402262
:0422580043AD402230
:0300330002204A5E
:10204A00C0E0C083C08253ADDF53ADBF900094742B
:09205A0001F0D082D083D0E03205
:0A21CB0043D920122282E4F55A22C3
:1017A300E55A24FE603014605A24027059E55C4502
:1017B3005B700312227FE55CB45808E55BB4020357
:1017C300122282055CE55C7002055BC394B0E55BA5
:1017D300940440358027E55C455B700312227FE566
:1017E3005CB40808E55BB40703122282055CE55C80
:1017F3007002055BC39460E55B9409400CE4F55B00
:0A180300F55C2202227F12228222ED
:03227F00D2DD228B
:03228200C2DD2298
:1020F500055AE55AD394034003E4F55AE4F55BF534
:022105005C225A
:032285008F5A224B
:03228800AF5A2228
:04225C00E4F55D2226
:1018D100E55D24FE601D14602D14603D2403704DF0
:1018E100055FE55F7002055EC39410E55E940E40EE
:1018F1003C8037055FE55F7002055EC39420E55EBD
:10190100941C40298024055FE55F7002055EC39445
:1019110040E55E943840168011055FE55F70020571
:0E1921005EC39480E55E94704003121FDE22C8
:10210700055DE55DD394044003E4F55DE4F55EF514
:022117005F2245
:04226000E4F55D2222
:03228B00AF5D2222
:10214D00539A7F439A08C283439B807F1402224E89
:102119009000A6E0D394004006D283E014F022C2D6
:0221290083220F
:06224E009000A6EFF02253
:10142400021CE9E493A3F8E493A34003F68001F2D9
:1014340008DFF48029E493A3F85407240CC8C333C9
:10144400C4540F4420C8834004F456800146F6DF98
:10145400E4800B0102040810204080901FC2E47E47
:10146400019360BCA3FF543F30E509541FFEE4938D
:10147400A360010ECF54C025E060A840B8E493A354
:10148400FAE493A3F8E493A3C8C582C8CAC583CA7F
:10149400F0A3C8C582C8CAC583CADFE9DEE780BE37
:011FDD000003
:10073600EF8DF0A4A8F0CF8CF0A428CE8DF0A42ED7
:02074600FE2291
:10074800BC000BBE0029EF8DF084FFADF022E4CC95
:10075800F875F008EF2FFFEE33FEEC33FCEE9DEC5E
:10076800984005FCEE9DFE0FD5F0E9E4CEFD22EDA4
:10077800F8F5F0EE8420D21CFEADF075F008EF2FEE
:10078800FFED33FD4007985006D5F0F222C398FDDF
:050798000FD5F0EA227C
:10079D00C2D5EC30E709B2D5E4C39DFDE49CFCEE77
:1007AD0030E715B2D5E4C39FFFE49EFE120748C3A0
:1007BD00E49DFDE49CFC800312074830D507C3E49B
:0607CD009FFFE49EFE22E6
:1007D300C5F0F8A3E028F0C5F0F8E58215827002B1
:0607E3001583E038F0224E
:1007E900E88FF0A4CC8BF0A42CFCE98EF0A42CFCAF
:1007F9008AF0EDA42CFCEA8EF0A4CDA8F08BF0A42D
:100809002DCC3825F0FDE98FF0A42CCD35F0FCEB8B
:100819008EF0A4FEA9F0EB8FF0A4CFC5F02ECD3950
:0F082900FEE43CFCEAA42DCE35F0FDE43CFC22BD
:1008380075F008758200EF2FFFEE33FECD33CDCC77
:1008480033CCC58233C5829BED9AEC99E5829840FA
:100858000CF582EE9BFEED9AFDEC99FC0FD5F0D6D7
:10086800E4CEFBE4CDFAE4CCF9A88222B800C1B901
:100878000059BA002DEC8BF084CFCECDFCE5F0CB3F
:10088800F97818EF2FFFEE33FEED33FDEC33FCEB78
:1008980033FB10D703994004EB99FB0FD8E5E4F933
:1008A800FA227818EF2FFFEE33FEED33FDEC33FC20
:1008B800C933C910D7059BE99A4007EC9BFCE99A14
:1008C800F90FD8E0E4C9FAE4CCFB2275F010EF2F59
:1008D800FFEE33FEED33FDCC33CCC833C810D70759
:1008E8009BEC9AE899400AED9BFDEC9AFCE899F894
:0E08F8000FD5F0DAE4CDFBE4CCFAE4C8F92227
:0D090600CFF4CFCEF4CECDF4CDCCF4CC2286
:10091300EB9FF5F0EA9E42F0E99D42F0EC6480C85B
:0609230064809845F022FB
:10092900EB9FF5F0EA9E42F0E99D42F0E89C45F024
:01093900229B
:10093A00E8600FECC313FCED13FDEE13FEEF13FF9B
:03094A00D8F122BF
:10094D00E8600FEFC333FFEE33FEED33FDEC33FC08
:03095D00D8F122AC
:0C096000ECF0A3EDF0A3EEF0A3EFF0220A
:10096C00A8828583F0D083D0821209831209831266
:10097C000983120983E473E493A3C583C5F0C5838B
:10098C00C8C582C8F0A3C583C5F0C583C8C582C8D5
:01099C002238
:0C099D00A42582F582E5F03583F5832265
:101A8100AC56AD57AE58AF597810EC4D4E4F70046F
:101A91007CA57DA5C3EC13FCED13FDEE13FEEF1346
:101AA100FF5010EC64CCFCED644CFDEE644EFEEF97
:101AB10064CEFFD8DF8C568D578E588F59EE547FE8
:0D1AC100FE228E568F5774A5F558F5592258
:00000001FF
