:03000000020FA844
:100FA80078FFE4F6D8FD9000007F807E01E4F0A38E
:0A0FB800DFFCDEFA758165020FFD13
:10189F0000000001000A0005000A0BB800C8006430
:1018AF0000020000000000040000FFFFFFFFFFFF29
:1018BF000014013A04080F05004F013A04080E0501
:1018CF000043013A04080D050046013A04080F05CC
:1018DF0000B6013A04080E0500B3013A04080D05DD
:0218EF00006691
:041F4C0041006100EF
:0B216E009018A9E493FE740193FF2277
:0B2179009018ADE493FE740193FF2268
:0821E7009018A7740193FF2278
:032252007F0122E7
:101D2700AD07ED75F008A424C7F582E43418F583F0
:101D3700E493FEED75F008A424C8F582E43418F5A1
:0C1D470083E4937C002400FFEC3EFE22AD
:1020CB00EF75F008A424C4F582E43418F583E49387
:0220DB00FF22E2
:0821EF009018A1740193FF2276
:0D21230074432FF582E43400F583E0FF22C1
:0821F700900000E0C313FF2279
:0A21A500900000E075F00384FF22B3
:10203700121D27EF7803C333CE33CED8F9FF7C00C8
:052047007D0A1204BA3D
:01204C002271
:10198A00E4FBFAF50FF50EF50DF50C750FE0750E83
:10199A0031F50DF50CAF0FAE0EAD0DAC0C78011292
:1019AA0006968F0F8E0E8D0D8C0C30D71374132A5A
:1019BA00F582E43400F583EBF00AEAC39406500496
:0619CA000BBB1FD18A4691
:0119D00022F4
:101C9300EF14601214601414601814601A24047092
:101CA3001E9018C180089018C280039018C3E49353
:101CB300FF22E4FF0221239018B3740193FF227FD4
:021CC3000022FD
:1019D1009018A5740193900000F09018BF740193C2
:1019E10090004EF012198AE4FFEFC395465020EFA4
:1019F10075F008A424C5F582E43418F583E493FE58
:101A010074432FF582E43400F583EEF00F80DAE4BD
:061A110090004CF0A3F070
:011A170022AC
:1008E800E4F508F50CF50BF50AF509F510F50FF523
:1008F8000EF50D12227050030209FA121E428F0CD7
:100908008E0B8D0A8C09E4FBEBC395465047AF0C60
:10091800AE0BAD0AAC0978011206968F0C8E0B8DC2
:100928000A8C0930D72CE47F01FEFDFC74132BF5EB
:1009380082E43400F583E0F9F81206A9E5104FF5D2
:1009480010E50F4EF50FE50E4DF50EE50D4CF50DC6
:1009580005080B80B3E508C394024015D200E508EA
:100968009403400512227380081221EFEF6002C23F
:100978000020002CE4FFFEFDFCAB10AA0FA90EA876
:100988000DC3120685601090004DE004F0700690CB
:10099800004CE004F08020E490004CF0A3F08017B5
:1009A80090004AE004F07006900049E004F0E4F595
:1009B80010F50FF50EF50D12216ED390004DE09F46
:1009C80090004CE09E400A122273E490004CF0A381
:1009D800F0D390004AE0942C900049E09401401D27
:1009E8001222739000617401F0E4900049F0A3F0C2
:1009F800800B9018AFE4740193FF120B2EAF10AE6A
:050A08000FAD0EAC0D66
:010A0D0022C6
:03005B00021ADFA7
:101ADF00C0E0C0F0C083C082C0D075D000C000C0CD
:101AEF0001C002C003C004C005C006C007121740E2
:101AFF00D007D006D005D004D003D002D001D0003B
:0B1B0F00D0D0D082D083D0F0D0E032E4
:041F5000021C00006F
:012288002233
:101CF7008D10C2AF75F4028510F5E4F5F38FF27518
:101D0700F1F075F60A00000000000000000000F581
:101D1700F4D2AF122008EFB510037F01227F002213
:10200800C2AF75F402E51D2FF582E4351CF583E4B3
:0720180093FFE4F5F4D2AFE1
:01201F00229E
:03225500AF49226C
:101EAF00E4F548539AFB439B0443C114C2C2C2C416
:101EBF0075D3E875D4B39007447480F0A37414F00D
:011ECF0022F0
:101F6800D2C49000A1E4F0A304F0900744E04480B8
:0C1F7800F0A3E0F0E490009FF0A3F02242
:0D2130000548E548D394034003E4F5482238
:03225800AF48226A
:10115B00122255EF6401704190009FE0547FFEA373
:10116B00E0FFA3E0FCA3E0FD6F7002EC6E6066D3C2
:10117B00ED9FEC9E40109000A0E004F070169000E4
:10118B009FE004F0800E9000A0E024FFF090009F01
:10119B00E034FFF090009F801BD39000A2E09400FE
:1011AB009000A1E09400401BA3E024FFF09000A16D
:1011BB00E034FFF0E04480FFA3E0900744CFF0A3BE
:1011CB00EFF022E49000A1F0A3F0900744E0547FED
:0611DB00F0C2C2C2C422F2
:101FD600AF8CEFFEAD8A7C00E42DF54BEC3EF54A66
:091FE600E4F58CF58A754E012228
:10104200E54E70030210D3E4F54E854A4C854B4DB4
:10105200E54814602914602B14602D2403702C12AF
:101062002276EF24FE600F14600E14600D14600CE3
:10107200240470178008800B800E800780051213ED
:101082006080081213D5800312144AE547D39419DD
:1010920040117547149000A2E004F070069000A180
:1010A200E004F0E547C3940F50117547149000A275
:1010B200E024FFF09000A1E034FFF0D39000A2E022
:1010C20094209000A1E0940340077403F0A37420DD
:0210D200F0220A
:10136000C3E54B945FE54A9400502CC3E54B94329F
:10137000E54A9400500F9000A2E02414F09000A1E0
:10138000E03400F022C3E54B9446E54A9400500453
:10139000740A8035054722D3E54B94FAE54A940058
:1013A000400F9000A2E024ECF09000A1E034FFF0A8
:1013B00022D3E54B9466E54A94004015D3E54B945F
:1013C00082E54A9400400774F62547F54722154701
:0513D000227547142204
:1013D500C3E54B942AE54A9401502CC3E54B94FA96
:1013E500E54A9400500F9000A2E02414F09000A16B
:1013F500E03400F022C3E54B940EE54A9401500415
:10140500740A8035054722D3E54B945EE54A94017D
:10141500400F9000A2E024ECF09000A1E034FFF032
:1014250022D3E54B942EE54A94014015D3E54B9420
:101435004AE54A9401400774F62547F547221547C2
:0514450022754714228E
:10144A00C3E54B9406E54A9402502CC3E54B94D667
:10145A00E54A9401500F9000A2E02414F09000A1F4
:10146A00E03400F022C3E54B94EAE54A94015004C3
:10147A00740A8035054722D3E54B943AE54A94022B
:10148A00400F9000A2E024ECF09000A1E034FFF0BD
:10149A0022D3E54B940AE54A94024015D3E54B94CE
:1014AA0026E54A9402400774F62547F54722154770
:0514BA00227547142219
:1014BF00C3E54B94C6E54A9400502CC3E54B949674
:1014CF00E54A9400500F9000A2E02414F09000A180
:1014DF00E03400F022C3E54B94AAE54A940050048F
:1014EF00740A8035054722D3E54B94FAE54A9400F8
:1014FF00400F9000A2E024ECF09000A1E034FFF048
:10150F0022D3E54B94CAE54A94004015D3E54B949A
:10151F00E6E54A9400400774F62547F5472215473C
:05152F002275471422A3
:10153400C3E54B948EE54A9401502CC3E54B945E6D
:10154400E54A9401500F9000A2E02414F09000A109
:10155400E03400F022C3E54B9472E54A9401500450
:10156400740A8035054722D3E54B94C2E54A9401B9
:10157400400F9000A2E024ECF09000A1E034FFF0D2
:1015840022D3E54B9492E54A94014015D3E54B945C
:10159400AEE54A9401400774F62547F547221547FE
:0515A40022754714222E
:1020200075490112228912225B121F68C2DB12213C
:0720300084E4F54802213DA4
:101F8400E4F54912225EE4FF12227F12224E121A55
:0C1F940018D2DB1221841210D402218F1D
:101DF800120E308F548E538D528C517F007EBA7DD7
:101E0800DB7C00AB54AA53A952A851C312068540E3
:051E18000375550122D5
:10168100122255EF605AE555B4010C0550E550C3DF
:1016910094034003E4F550054FE54FC3940A403BE2
:1016A100E4F54FFF7EBA7DDBFCAB54AA53A952A8E7
:1016B10051120685400CE55570031210D475550181
:1016C1008019AF54AE53AD52AC51EF2401F554E43F
:1016D1003EF553E43DF552E43CF551AF551221C3BB
:0116E10022E6
:1010D400AF54AE53AD52AC518F0F8E0E8D0D8C0CA0
:1010E40075CF10E50FFFE4AD077F0F121CF7AF0FAC
:1010F400AE0EAD0DAC0C78081206968F0F8E0E8DC9
:101104000D8C0C75CF10E50FFFE4AD077F0E121C9C
:10111400F7AF0FAE0EAD0DAC0C78081206968F0F1C
:101124008E0E8D0D8C0C75CF10E50FFFE4AD077F8F
:101134000D121CF7AF0FAE0EAD0DAC0C78081206F5
:10114400968F0F8E0E8D0D8C0C75CF10E50FFFE46E
:07115400AD077F0C021CF740
:100E3000E4F50FF50EF50DF50C75CF107F0C1220B3
:100E400008E48F0FF50EF50DF50CAE0EAD0DAC0CE4
:100E500078081206A98F0F8E0E8D0D8C0C75CF1091
:100E60007F0D122008E4FCFDFEE50F2FF50FEE3597
:100E70000EF50EED350DF50DEC350CF50CAF0FAE96
:100E80000EAD0DFC78081206A98F0F8E0E8D0D8CFD
:100E90000C75CF107F0E122008E4FCFDFEE50F2F2D
:100EA000F50FEE350EF50EED350DF50DEC350CF5B7
:100EB0000CAF0FAE0EAD0DFC78081206A98F0F8E89
:100EC0000E8D0D8C0C75CF107F0F122008E4FCFDE9
:100ED000FEE50F2FF50FEE350EF50EED350DF50D88
:0C0EE000EC350CF50CAF0FAE0EAD0DFCA8
:010EEC0022E3
:101BF80075CF10E4FD7F0C121CF775CF10E4FD7F44
:101C08000D121CF775CF10E4FD7F0E121CF775CF6F
:101C180010E4FD7F0F121CF7E4F554F553F552F567
:041C280051F55522FB
:06222E0043C12002225E04
:03225B00C2C522D7
:03225E00D2C522C4
:061F540004230000000060
:101C2C0090004BE0FF30E72B547FF01208E88F2632
:101C3C008E258D248C23E52654E0FFE5255431FEBA
:101C4C00E4FDFCFBFAF9F8C312068560031221844B
:041C5C0012226D22C1
:062234005327BF022184C4
:0B2184009000A51206C8000000002219
:100705007F207EBF7D027C009000A5E0F8A3E0F984
:10071500A3E0FAA3E0FBC31206854005432740800A
:100725001F9000A5E0FCA3E0FDA3E0FEA3E02401EB
:10073500FFE43EFEE43DFDE43CFC9000A51206BC52
:10074500E52654E0FFE5255431FEE4FDFCFB7A0186
:10075500F9F8C31206857021E52720E61C20E0394B
:10076500052FE52F7002052EC39488E52E941340BE
:10077500284327011222178020D3E52F9432E52E36
:100785009400400DE52F9488E52E94135003122014
:10079500795327FEE4F52EF52F122255EF7003024B
:1007A50008E7E52654E0FFE5255431FEE4FDFC7B32
:1007B50080FAF9F8C31206857021E52720E61C208A
:1007C500E2210529E52970020528C39432E528941C
:1007D50000401043270412220F80085327FBE4F53D
:1007E50028F529E52654E0FFE5255431FEE4FDFC16
:1007F500FB7A10F9F8C31206857021E52720E61C5F
:1008050020E4210522E52270020521C39432E52169
:100815009400401043271012222780085327EFE445
:10082500F521F522E52654E0FFE5255431FEE4FDEA
:10083500FCFB7A20F9F8C31206857021E52720E62E
:100845001C20E1210531E53170020530C39432E504
:10085500309400401043270212220780085327FDD9
:10086500E4F530F531E52654E0FFE5255431FEE4A5
:10087500FDFC7B40FAF9F8C3120685701EE52720BA
:10088500E321052DE52D7002052CC39488E52C94F4
:1008950013401043270812226180085327F7E4F517
:1008A5002CF52DE52654E0FFE5255431FEE4FDFC4D
:1008B5007B20FAF9F8C3120685701FE52720E61A92
:1008C50020E51F052BE52B7002052AC39432E52A86
:1008D5009400400E4327200221FF5327DFE4F52A29
:0308E500F52B22CE
:07222700B2C57F0A0222404C
:0B218F005327BF1221847F0A02224068
:0821FF001220EF7F0A022240CA
:082207001220DD7F0A022240D3
:0322610002218FC8
:0A21AF00AF27EFC413135401FF2201
:08220F001221307F0A02224077
:08221700121BF87F0A022240AD
:102079007F0A122240122255BF0106121F84021044
:05208900D4122020220A
:101F100043D90743A17FD2A6D2A5C2A443B1F843B7
:0E1F2000C1C3439A624391C0121E67021A1891
:101FA000122255EF60151221CC121DAA121BC2126B
:0C1FB000214A12184B121D7F121B8B22BD
:101EF100122255EF70180558E558C394C84003E401
:0F1F0100F558E557C395584003C2B322D2B32217
:101DD200122255EF701FE556B40104055780021513
:101DE20057E557C394C84003E4F556E557D3941416
:061DF200500375560122AA
:0921C300BF0103C2DA22D2DA22C4
:101A1800D2A5D2A4D2A6D281D2D9D2D8D286D28502
:101A2800D2C0D2DAD296D297D2A0D2A1D2A2D2A3D1
:101A3800D2B6D2C6D2C7D2B5D2B4D2C1D2B7D2B337
:101A4800E4FD7F6E121FBCE4FD7F6C121FBCE4FD39
:051A58007F6A021FBCC3
:101A5D00C2A5C2A4C2A6C281C2D9C2D8C286C2853D
:101A6D00C2DAC296C2A1C2A2C2A3C2B6C2C6C2C7C0
:101A7D00C2B5C2C1C2C0C2B4C2B7C2B3C297C2A0BE
:101A8D007DFF7F6E121FBC7DFF7F6C121FBC7DFF23
:051A9D007F6A021FBC7E
:0D213D00C2C0C2B4C2B7C2B3C297C2A022D2
:012289002232
:10184B001221DE8E088F097C007D641204BA1217F8
:10185B009BAD077F6E121FBCAE08AF097C007D6489
:10186B001204BA7E007F0ACFCDCFCECCCE1204BAF3
:10187B0012179BAD077F6C121FBCAE08AF097C0023
:10188B007D0A1204BAAF0512179BAD077F6A121FB0
:03189B00BCC2814B
:01189E002227
:101B8B00122285EF24FE600E1460111460172403DB
:101B9B00701CC2D9801AD2D9C2D88016D2D9D2D849
:101BAB00C286D28522D2D9D2D8D286C28522D2D9A8
:071BBB00D2D8D286D28522A8
:101DAA00122282EF24FE600B14600F24027012C20A
:101DBA00A18010D2A1C2A2D2A322D2A1D2A2C2A32E
:081DCA0022D2A1D2A2D2A32271
:101D7F00122276EF24FE6011146012146004240303
:101D8F008012C2A5C2A4D2A622C2A58002D2A5D219
:0B1D9F00A4C2A622C2A5D2A4D2A62294
:0C214A001221AFEF7003D2C122C2C122EB
:0921CC0020C503C29622D296221E
:101BC200122258EF14600E1460111460172403706F
:101BD2001CC2B5801AD2B5C2B68016D2B5D2B6C270
:101BE200C6D2C722D2B5D2B6D2C6C2C722D2B5D2C7
:061BF200B6D2C6D2C722E4
:10179B00EFB40A00504D9017A8F82828730217C60B
:1017AB000217CA0217CE0217D20217D60217DA0295
:1017BB0017DE0217E20217E60217EA7ED780267EB3
:1017CB001480227ECD801E7E5D801A7E1E80167E4A
:1017DB005B80127EDB800E7E15800A7EDF80067EAC
:0717EB005F8002E4FEAF067F
:0117F20022D4
:101E6700439A0143A180E4FFFE75CF100FBF000125
:101E77000EBE1FF5BF40F21222241222677D057F96
:041E870048021FBC32
:101FBC008F0C8D0D12204DAF0C121B53121C60AFE9
:0A1FCC000D121B53121C600220636B
:0B219A00EF700453A17F2243A18022BC
:0B215600E4FEEEC39F5004000E80F773
:01216100225B
:101C60007F05122156D280122156C280E4FF122134
:101C70009A30A713050EE50EC394F040F4E4F50E78
:101C8000B2C57F0112219A7F0112219AC2807F057D
:031C9000022156D8
:101B53008F0F12221FE4F50EE50F5480D39400403B
:101B63000A1222677F05122156800312226A12226B
:101B73006412221FE50F25E0F50F050EE50EC39451
:081B83000840D57F0502215640
:10204D001222671222647F0512215612226A122271
:06205D001F7F0502215661
:1020630012226A1222647F0512215612226712225B
:062073001F7F050221564B
:03226400D2802203
:05221F007F05122156AD
:03222400C2802253
:03226700D2A722D9
:03226A00C2A722E6
:051F5A00013500C10289
:101D5300438E02438910758BC0758DF9C28ED2AB49
:101D6300438E04E4F5C9F5C875CBFA75CA32C2CA05
:0C1D7300D2ADD2CA438905C2A9D28C228D
:0921D500758B80758DEED28E220F
:03000B0002228A44
:01228A003221
:03002B000211E1DE
:1011E100C0E0C0F0C083C082C0D075D000C000C0D4
:1011F10001C002C003C004C005C006C007C2CFE5DC
:101201003BB40404D2DC800FE53BC394644008C2C4
:10121100DC753B001221D5053B0536E536C3940A42
:101221004006753401753600053AE53A7002053914
:10123100C39410E53994274009753900753A0012B5
:101241001FD6121EF1D007D006D005D004D003D08E
:1012510002D001D000D0D0D082D083D0F0D0E03203
:1015A90075CF1043913143B103121F101220A3D2FA
:1015B900AF121D53121EAF12222E1221B91212613F
:1015C900122234122288121DF812224A12211312F1
:1015D9001A5DE4F50BF50AF509F5087F807E387D7B
:1015E900017C00AB0BAA0AA909A808C312068550F9
:1015F9001A75CF10E50B2401F50BE4350AF50AE459
:0E1609003509F509E43508F50880D0021F8484
:1020B800120705053DE53DC3940A4006E4F53D7564
:0320C8003C0122B6
:101F2E00121C2C0533E533C3940A4006E4F53375D1
:0E1F3E003201120A0E12115B122101021DD295
:10208E000538E538C3940A4006E4F5387537011271
:05209E001681021FA0E5
:06223A001216170216E265
:101B1A001215A975CF10E534B40106E4F534122084
:101B2A00B8E53CB40106E4F53C121F2EE532B401D7
:101B3A0006E4F53212208EE537B40106E4F53712D1
:091B4A00223A121042B28080CA56
:03001B00021AA224
:101AA200C0E0C0F0C083C082C0D075D000C000C00A
:101AB20001C002C003C004C005C006C007C28E1226
:101AC2002246D007D006D005D004D003D002D001E0
:0D1AD200D000D0D0D082D083D0F0D0E03250
:041F5F0041009C00A1
:100C4D0075F00290004F1206F9E0FEA3E0FFE513E8
:100C5D0075F0029000190206F9E51275F002900088
:100C6D00010206F9E51275F0029000310206F974E1
:100C7D00252516F582E43400F58322D3E5149FEE85
:100C8D006480F8E51364809822743D2512F582E4A2
:100C9D003400F58322D3FFED9FEE6480F8EC648081
:100CAD009822745B2512F582E43400F58322E0046A
:100CBD00F0740D2512F582E43400F58322E51375E9
:100CCD00F00290004F0206F9E4F0FFFEFDFCAB418F
:100CDD00AA40A93FA83EC3020685FEC3E5159FEEB7
:100CED006480F8E51464809822E5415545FFE540A0
:100CFD005544FEE53F5543FDE53E5542FC22742B20
:100D0D002512F582E43400F58322E0FEA3E0FF75A1
:100D1D00F002227E00900098E0FCA3E0FD1204A8F2
:100D2D008EE78FE622A4FFE0C39FE5F06480F874A0
:100D3D008098227D0A1204BAAD037C000204A8E05B
:100D4D00FCA3E0C39F2290004EE0FB3395E0FAEB4D
:0D0D5D00AE022290004EE0FF3395E0FE2232
:0C216200EF4E6007EF1F70F81E80F522A2
:0212E1008F1B61
:1012E3001221239000AAEFF0AF1B1220CBEFFB904B
:1012F3000099E025E0FF900098E033FE7C00120D9A
:1013030040E51B120C68120D4CEC9E50099000AA8C
:10131300E06049148036AF1B1220CBEFFB9000989E
:10132300E0FEA3E0FF7C007D071204A8120D4075C8
:10133300F002E51B120C6BE0FCA3E0D39FEC9E4094
:101343001B9000AAE0FF647E6012EF04FF74432544
:0C1353001BF582E43400F583EFF0D201BA
:01135F00226B
:10174000C20390009DE0120C5DE5E5F0A3E5E4F036
:1017500090009DE004F0E0C39546400BE4F090005B
:101760004BE04480F08002D20390009DE0FF122005
:10177000CB120D2090009DE0FF122123E5E2548062
:101780004FF5E290009DE02413F582E43400F583E8
:0A179000E04480F5E8300302D2EED9
:01179A00222C
:10126100D2AFC201E490009DF090004BF01219D171
:10127100E4FF121C93EF2401FDE433FC7E077FD0D1
:101281001204BA900098EEF0A3EFF0E4FF1220CB25
:10129100120D207F02121C93EFC454F0FEC006E42D
:1012A100FF121C93D0E02FF5E17F03121C93E5E2BE
:1012B10054804FF5E27F04121C93EF6008E5E2547D
:1012C100804480F5E27F01121C938FE312193E43A3
:1012D100A910900013E04480F5E81217F3021E8B69
:03226D00D2EE228C
:101E1D00E4FD90004BE0547FF0D2EE90004BE020BB
:101E2D00E7127FE87E0312216243CF100DEDC394BC
:041E3D003240E82225
:011E4100227E
:1017F300750C20121E1DE4F50DE50DC39546501B17
:10180300E50D120C5D120D17E50D120C6BEEF0A336
:10181300EFF0AF0D1212E1050D80DEAF0C150CEFEA
:1018230070D1121ED01221E78F0C121E1DE4F50D8C
:10183300E50DC395465009AF0D120EED050D80F071
:07184300AF0C150CEF70E380
:01184A00227B
:101E8B00E4FFEFC39546501B75F002EF120C60E0B8
:101E9B00FCA3E0FD75F002EF120C6BECF0A3EDF080
:031EAB000F80DFC6
:011EAE002211
:101E4200E490009EF0F511E511C39546500EAF11D6
:101E5200120EEDAF11120100051180EBAF41AE4041
:041E6200AD3FAC3EA6
:011E66002259
:020100008F125C
:10010200E4F51A75F002EF120C6B120D17E51212DC
:100112000C60120D4CF514EC9EF513E47F01FEFD0C
:10012200FCA912A8011206A98F458E448D438C4268
:10013200AF12121D278E188F19C3E5149519E518F1
:10014200120C8D40057515018003E4F515E5156463
:1001520001600302028774252512120C80E0C39409
:10016200FA500A74252512120C80E004F0120CF6E3
:10017200E4FBFAF9F8C3120685600302026A9000F2
:1001820000E0F517122252EF6028E4F515F516E5A6
:1001920016C39546500F120C7CE0C3940140020531
:1001A20015051680EAE515C394034006740F25175A
:1001B200F51774252512120C80E0C395175003021F
:1001C200026AE4F5151221EFEF7051F516E516C338
:1001D2009546501AE512651660101221A5120C7C84
:1001E200E0C39F40057515018004051680DF1222C9
:1001F20052EF7052E515704EF516E516C39546504E
:1002020045E512651660111221A5742B2516120DF3
:100212000FE0C39F4002802B051680DE122252EFB0
:100222007024F517F516E516C39546500F120C7C8F
:10023200E0C3940240020517051680EAE517C3944D
:10024200034003751501E515B40102D200E54145ED
:1002520045FFE5404544FEE53F4543FDE53E454259
:100262008F418E408D3FF53E120C96E4F0120CAF9A
:10027200E4F0120C71E4F0A3F0740D2512F582E49F
:10028200340002045DAF12122037120C88400812AB
:100292000D0BE004F0800B90009EE004F0120D0BB9
:1002A200E4F0120D60C3E49FFDE49EFCC3E5149DDF
:1002B200EC120C8D4066120C885061120C96E412FE
:1002C2000CBD120CD560030203CA120C71E5138532
:1002D20014F0120545122179120C71E0FCA3E0C35F
:1002E200120CA54009120C66E475F001802112215E
:1002F20079C3E49FFFE49EFE120C71E0FCA3E0C30D
:10030200120CA540030203CA120C6674FFF5F01228
:100312000545120C71E4F0A3F00203CA90004EE00E
:10032200FFFD3395E0FCC3E49DFDE49CFCC3E514B2
:100332009DEC120C8D505A120C96120CBBE4F0126A
:100342000C96E0FE75F00A84E5F07037EEC3946413
:10035200400E120C96E4F0D20190006104F080236A
:10036200120C66C083C082E0FCA3E0FDEFA2E7139B
:10037200FF3395E0FEC3ED9FFFEC9ED082D083F069
:10038200A3EFF0900097E06512703D74FFF0020356
:10039200CA120D60120C88402F120C96120CD570E6
:1003A20027120CBE120CBBE0B4201D120CBEE4F0EE
:1003B20090004EE0A2E713A2E713FF3395E0FE128E
:1003C2000C66EE8FF0120545120CF64D4E4F70037F
:1003D200020469E519AE187802CEA2E713CE13D84B
:1003E200F8FFC3E5199FFFE5189EFEC3120C895062
:1003F2006F120CAFE004F01221F78F17E4F516E547
:1004020016C39546500F120C7CE0C39401400205BE
:1004120015051680EAE515C394034006900000E036
:10042200F517120CAFE0C39517407A120CAFE4F047
:10043200AF45AE44AD43AC42120678E5415FFFE5FD
:10044200405EFEE53F5DFDE53E5C8F418E408D3FA7
:10045200F53E74252512F582E43400F583E4F0229A
:10046200120CAFE014F02274252512120C80120C2B
:10047200D57005AF121212E1E5461465127026908E
:10048200009EE0C39546401DE4F516E516C3954669
:10049200500D120C7CE06003751501051680ECE529
:0504A200157002C2000C
:0104A7002232
:101ED000E4FFEFC39546501875F002EF120C60E076
:101EE000FCA3E0FDEF120CCCECF0A3EDF00F80E2D0
:011EF00022CF
:020EED008F1361
:100EEF00EF120C4D120D4CF515EC9EF514AF1312BD
:100EFF001D27AD07AC06D3E5159DEC120CED500B7D
:100F0F00C3E49DFFE49C120CE7500B120C5BE0FE58
:100F1F00A3E0FF020F95ECA2E713FEED13FFD31230
:100F2F000CE9500BC3E49FFFE49E120CE75027120D
:100F3F000CCAE0FCA3E0FDECC313FEED13FFC3ED01
:100F4F009FFDEC9EFC120C5BE0C313FEA3E0132D80
:100F5F00FFEC3EFE8030120CCAE0FCA3E0FDAE04B5
:100F6F007803CEC313CE13D8F9FFC3ED9FFDEC9ECC
:100F7F00FC120C5BE0FEA3E07803CEC313CE13D8B4
:100F8F00F92DFFEC3EFE120CCAEEF0A3EFF0E513C5
:080F9F00120C4DEEF0A3EFF07F
:010FA7002227
:03227000A20122A6
:03227300D2012273
:10193E00E4FFEFC39546502B74252F120C80E4F074
:10194E00743D2F120C9AE4F0745B2F120CB3E4F07A
:10195E00EF120C73E4F0A3F0742B2F120D0FE4F0C2
:10196E000F80CFE4F541F540F53FF53E90009774BA
:0B197E00FFF0E490009AF0A3F0C2011B
:01198900223B
:020B2E008F1125
:100B300090009CE0C394034035E4F0900061E070C5
:100B400022F512E512C39546501975F002E512120E
:100B50000CCF120D17E512120C6BEEF0A3EFF0059F
:100B60001280E012193EC201E4900061F022900070
:100B700096E004F0E0B51108121ED0E4900097F062
:100B8000900096E0D395115003020C4CE4F512E569
:100B900012C39546507A75F002E512120CCF120D71
:100BA00017E512120C60120D4CFFEC9EAD07FC9085
:100BB0000061E07029120D537802C333CE33CED8D2
:100BC000F9120CA24040E49BFFE49AFEEF7802C3C6
:100BD00033CE33CED8F9C3120CA3502A8032120D73
:100BE000537803C333CE33CED8F9120CA24017E4A6
:100BF0009BFFE49AFEEF7803C333CE33CED8F9FFE0
:100C0000C3120CA4400AAF12120EED0512020B8F94
:100C1000E512B54606900097E004F0E51175F0087E
:100C2000900096120D324024E4F0C20090009CE047
:100C300004F0E51175F004900097120D32400DE4B8
:0C0C400090009CF0121E8B12193EC201A5
:010C4C002285
:041F630041006600D3
:1020A30043D9187F0F7E00121CC59000911206C8F9
:0520B300000000002206
:0921DE00900064E0FEA3E0FF2282
:100D6A00E4F50BF50AF509F508FBEB25E02469F52E
:100D7A0082E43400F583E0FEA3E0FFE4FCFDE50B2A
:100D8A002FF50BE50A3EF50AED3509F509EC3508AC
:100D9A00F5080BBB14D4E4FAF9F8AF0BAE0AAD09A7
:100DAA00AC081205E69000911206BCE47F507EC39F
:100DBA00FDFC900091E0F8A3E0F9A3E0FAA3E0FBC0
:100DCA0012055BE4FB7A10F9F81205E68F0F8E0E16
:100DDA008D0D8C0CE47FD87E0EFDFCAB0FAA0EA9FC
:100DEA000DA80CD3120685401AE50F94D8F50FE525
:100DFA000E940EF50EE50D9400F50DE50C9400F534
:100E0A000C8009E4F50FF50EF50DF50CE47B38FAC4
:100E1A00F9F8AF0FAE0EAD0DAC0C1205E6900062FC
:050E2A00EEF0A3EFF063
:010E2F0022A0
:100A0E00900095E06401703DF0AFAFEF75F010A46B
:100A1E00FFE5AEC4540F7C002FFFEC35F0FE9000C6
:100A2E0066E025E02469F582E43400F583EEF0A358
:100A3E00EFF0900066E004F0D394144008120D6AB3
:100A4E00E4900066F0900067E475F001120545FE33
:100A5E00D3E5F094C8EE94005003020B2DE4900001
:100A6E0067F0A3F0900063E02414FF900062E0347E
:100A7E0000FED3900065E09F900064E09E40191246
:100A8E0018F17C007D0A12050FC3900065E09DF001
:100A9E00900064E09CF0800D900062E0FFA3E0A364
:100AAE00CFF0A3EFF0C3900065E094E7900064E010
:100ABE00940340077403F0A374E7F0900064E070B1
:100ACE0002A3E070171218F17C007D0512050FEDE0
:100ADE002401FEE43C900064F0A3CEF0900064E0AC
:100AEE00FEA3E0FFD39464EE9400500475650122DA
:100AFE00D3EF9464EE9400400DD3EF94C8EE9400BF
:100B0E00500475650422D3EF94C8EE9400400DD3C3
:100B1E00EF942CEE94015004756502227565032244
:03227600AF65222F
:101CC500EF4480F5ADC3EF9408EE9400500F740116
:101CD500A807088002C333D8FCF5AB8011EF24F8C0
:101CE500FF7401A807088002C333D8FCF5AC75A8BA
:021CF50040228B
:0422460043AD402242
:03003300021FEFBA
:101FEF00C0E0C083C08253ADDF53ADBF9000957486
:091FFF0001F0D082D083D0E03261
:0A21B90043D92012227CE4F55F22D6
:10161700E55F24FE603014605A24027059E5614585
:10162700607003122279E561B45808E560B40203DB
:1016370012227C0561E56170020560C394B0E56024
:10164700940440358027E56145607003122279E5EF
:1016570061B40808E560B4070312227C0561E561FF
:1016670070020560C39460E5609409400CE4F5607E
:0A167700F5612202227912227C2282
:03227900D2DD2291
:03227C00C2DD229E
:1020DD00055FE55FD394034003E4F55FE4F560F538
:0220ED0061226E
:03227F008F5F224C
:03228200AF5F2229
:04224A00E4F5622233
:1016E200E56224FE601D14602D14603D2403704DDC
:1016F2000564E56470020563C39410E563940E40CB
:101702003C80370564E56470020563C39420E56399
:10171200941C402980240564E56470020563C39427
:1017220040E5639438401680110564E56470020553
:0E17320063C39480E56394704003121F842209
:1020EF000562E562D394044003E4F562E4F563F519
:0220FF00642259
:04224E00E4F562222F
:03228500AF622223
:10211300539A7F439A08C283439B807F14022240D1
:102101009000A9E0D394004006D283E014F022C2EB
:02211100832227
:062240009000A9EFF0225E
:100FC200021B1AE493A3F8E493A34003F68001F210
:100FD20008DFF48029E493A3F85407240CC8C33330
:100FE200C4540F4420C8834004F456800146F6DFFF
:100FF200E4800B0102040810204080901F4CE47E24
:10100200019360BCA3FF543F30E509541FFEE493F3
:10101200A360010ECF54C025E060A840B8E493A3BA
:10102200FAE493A3F8E493A3C8C582C8CAC583CAE5
:10103200F0A3C8C582C8CAC583CADFE9DEE780BE9D
:011F67000079
:1004A800EF8DF0A4A8F0CF8CF0A428CE8DF0A42E68
:0204B800FE2222
:1004BA00BC000BBE0029EF8DF084FFADF022E4CC26
:1004CA00F875F008EF2FFFEE33FEEC33FCEE9DECEF
:1004DA00984005FCEE9DFE0FD5F0E9E4CEFD22ED35
:1004EA00F8F5F0EE8420D21CFEADF075F008EF2F7F
:1004FA00FFED33FD4007985006D5F0F222C398FD70
:05050A000FD5F0EA220C
:10050F00C2D5EC30E709B2D5E4C39DFDE49CFCEE07
:10051F0030E715B2D5E4C39FFFE49EFE1204BAC3C1
:10052F00E49DFDE49CFC80031204BA30D507C3E4BC
:06053F009FFFE49EFE2276
:10054500C5F0F8A3E028F0C5F0F8E5821582700241
:060555001583E038F022DE
:10055B00E88FF0A4CC8BF0A42CFCE98EF0A42CFC3F
:10056B008AF0EDA42CFCEA8EF0A4CDA8F08BF0A4BD
:10057B002DCC3825F0FDE98FF0A42CCD35F0FCEB1C
:10058B008EF0A4FEA9F0EB8FF0A4CFC5F02ECD39E1
:0F059B00FEE43CFCEAA42DCE35F0FDE43CFC224E
:1005AA0075F008758200EF2FFFEE33FECD33CDCC08
:1005BA0033CCC58233C5829BED9AEC99E58298408B
:1005CA000CF582EE9BFEED9AFDEC99FC0FD5F0D668
:1005DA00E4CEFBE4CDFAE4CCF9A88222B800C1B992
:1005EA000059BA002DEC8BF084CFCECDFCE5F0CBD0
:1005FA00F97818EF2FFFEE33FEED33FDEC33FCEB09
:10060A0033FB10D703994004EB99FB0FD8E5E4F9C3
:10061A00FA227818EF2FFFEE33FEED33FDEC33FCB0
:10062A00C933C910D7059BE99A4007EC9BFCE99AA4
:10063A00F90FD8E0E4C9FAE4CCFB2275F010EF2FE9
:10064A00FFEE33FEED33FDCC33CCC833C810D707E9
:10065A009BEC9AE899400AED9BFDEC9AFCE899F824
:0E066A000FD5F0DAE4CDFBE4CCFAE4C8F922B7
:0D067800CFF4CFCEF4CECDF4CDCCF4CC2217
:10068500EB9FF5F0EA9E42F0E99D42F0E89C45F0CB
:010695002242
:10069600E8600FECC313FCED13FDEE13FEEF13FF42
:0306A600D8F12266
:1006A900E8600FEFC333FFEE33FEED33FDEC33FCAF
:0306B900D8F12253
:0C06BC00ECF0A3EDF0A3EEF0A3EFF022B1
:1006C800A8828583F0D083D0821206DF1206DF125B
:1006D80006DF1206DFE473E493A3C583C5F0C58380
:1006E800C8C582C8F0A3C583C5F0C583C8C582C87C
:0106F80022DF
:0C06F900A42582F582E5F03583F583220C
:1018F100AC5BAD5CAE5DAF5E7810EC4D4E4F7004ED
:101901007CA57DA5C3EC13FCED13FDEE13FEEF13D7
:10191100FF5010EC64CCFCED644CFDEE644EFEEF28
:1019210064CEFFD8DF8C5B8D5C8E5D8F5EEE547F65
:0D193100FE228E5B8F5C74A5F55DF55E22D5
:00000001FF
