:03000000021043A8
:1010430078FFE4F6D8FD9000007F807E01E4F0A3F2
:0A105300DFFCDEFA758165021098DB
:1018CE0000000001000A0005000A0BB800C8006401
:1018DE0000020000000000040000FFFFFFFFFFFFFA
:1018EE000014013A04080F05004F013A04080E05D2
:1018FE000043013A04080D050046013A04080F059D
:10190E0000B6013A04080E0500B3013A04080D05AD
:02191E00006661
:041F7B0041006100C0
:0B21BB009018D8E493FE740193FF22FB
:0B21C6009018DCE493FE740193FF22EC
:082249009018D6740193FF22E6
:0322A5007F012294
:101D5600AD07ED75F008A424F6F582E43418F58392
:101D6600E493FEED75F008A424F7F582E43418F543
:0C1D760083E4937C002400FFEC3EFE227E
:1020FA00EF75F008A424F3F582E43418F583E49329
:02210A00FF22B2
:082251009018D0740193FF22E4
:0D21700074432FF582E43400F583E0FF2274
:08225900900000E0C313FF2216
:0A21FD00900000E075F00384FF225B
:10206600121D56EF7803C333CE33CED8F9FF7C006A
:052076007D0A1204BA0E
:01207B002242
:1019B900E4FBFAF50FF50EF50DF50C750FE0750E54
:1019C90031F50DF50CAF0FAE0EAD0DAC0C78011263
:1019D90006968F0F8E0E8D0D8C0C30D71374132A2B
:1019E900F582E43400F583EBF00AEAC39406500467
:0619F9000BBB1FD18A4662
:0119FF0022C5
:101CC200EF14601214601414601814601A24047063
:101CD2001E9018F080089018F180039018F2E49397
:101CE200FF22E4FF0221709018E2740193FF227F29
:021CF2000022CE
:101A00009018D4740193900000F09018EE74019334
:101A100090004EF01219B9E4FFEFC395465020EF45
:101A200075F008A424F4F582E43418F583E493FEF9
:101A300074432FF582E43400F583EEF00F80DAE48E
:061A400090004CF0A3F041
:011A4600227D
:1008E800E4F508F50CF50BF50AF509F510F50FF523
:1008F8000EF50D1222C350030209FA121E718F0C55
:100908008E0B8D0A8C09E4FBEBC395465047AF0C60
:10091800AE0BAD0AAC0978011206968F0C8E0B8DC2
:100928000A8C0930D72CE47F01FEFDFC74132BF5EB
:1009380082E43400F583E0F9F81206A9E5104FF5D2
:1009480010E50F4EF50FE50E4DF50EE50D4CF50DC6
:1009580005080B80B3E508C394024015D200E508EA
:10096800940340051222C68008122251EF6002C289
:100978000020002CE4FFFEFDFCAB10AA0FA90EA876
:100988000DC3120685601090004DE004F0700690CB
:10099800004CE004F08020E490004CF0A3F08017B5
:1009A80090004AE004F07006900049E004F0E4F595
:1009B80010F50FF50EF50D1221BBD390004DE09FF9
:1009C80090004CE09E400A1222C6E490004CF0A32E
:1009D800F0D390004AE0942C900049E09401401D27
:1009E8001222C69000617401F0E4900049F0A3F06F
:1009F800800B9018DEE4740193FF120B2EAF10AE3B
:050A08000FAD0EAC0D66
:010A0D0022C6
:03005B00021B0E77
:101B0E00C0E0C0F0C083C082C0D075D000C000C09D
:101B1E0001C002C003C004C005C006C00712176F83
:101B2E00D007D006D005D004D003D002D001D0000B
:0B1B3E00D0D0D082D083D0F0D0E032B5
:041F7F00021C000040
:0122DB0022E0
:101D26008D10C2AF75F4028510F5E4F5F38FF275E8
:101D3600F1F075F60A00000000000000000000F552
:101D4600F4D2AF122037EFB510037F01227F0022B5
:10203700C2AF75F402E51D2FF582E4351CF583E484
:0720470093FFE4F5F4D2AFB2
:01204E00226F
:0322A800AF492219
:101EDE00E4F548539AFB439B0443C114C2C2C2C4E7
:101EEE0075D3E875D4B39007447480F0A37414F0DE
:011EFE0022C1
:101F9700D2C49000A1E4F0A304F0900744E0448089
:0C1FA700F0A3E0F0E490009FF0A3F02213
:0D217D000548E548D394034003E4F54822EB
:0322AB00AF482217
:101164001222A8EF6401704190009FE0547FFEA317
:10117400E0FFA3E0FCA3E0FD6F7002EC6E6066D3B9
:10118400ED9FEC9E40109000A0E004F070169000DB
:101194009FE004F0800E9000A0E024FFF090009FF8
:1011A400E034FFF090009F801BD39000A2E09400F5
:1011B4009000A1E09400401BA3E024FFF09000A164
:1011C400E034FFF0E04480FFA3E0900744CFF0A3B5
:1011D400EFF022E49000A1F0A3F0900744E0547FE4
:0611E400F0C2C2C2C422E9
:10200500AF8CEFFEAD8A7C00E42DF54BEC3EF54A36
:09201500E4F58CF58A754E0122F8
:100FA8001222A8EF7003021042E54E7003021042AD
:100FB800E4F54E854A4C854B4DE54814602914608C
:100FC8002B14602D2403702C1222C9EF24FE600F0D
:100FD80014600E14600D14600C24047017800880CF
:100FE8000B800E800780051212EE80081211EA802D
:100FF8000312126CE547D3941640117547149000FC
:10100800A2E004F070069000A1E004F0E547C39464
:101018001250117547149000A2E024FFF09000A12F
:10102800E034FFF0D39000A2E094209000A1E09477
:0B1038000340077403F0A37420F022B3
:1012EE00C3E54B945FE54A9400502EC3E54B943210
:1012FE00E54A94005002802CC3E54B9446E54A948F
:10130E00005004740A803FC39000A2E094669000DF
:10131E00A1E09400504A054722D3E54B94FAE54AE2
:10132E009400400A9000A1E4F0A3745CF022D3E58F
:10133E004B9466E54A94004024D3E54B9482E54AEB
:10134E009400400774F62547F54722D39000A2E09B
:10135E0094529000A1E09400400615472275471460
:01136E00225C
:1011EA00C3E54B942AE54A9401502EC3E54B94FA81
:1011FA00E54A94005002802CC3E54B940EE54A94CC
:10120A00015004740A8040C39000A2E094C5900083
:10121A00A1E09401504B054722D3E54B94C2E54A1D
:10122A009401400B9000A17401F0A374BBF022D387
:10123A00E54B942EE54A94014024D3E54B944AE5C4
:10124A004A9401400774F62547F54722D39000A235
:10125A00E094B19000A1E094014006154722754739
:02126A0014224C
:10126C00C3E54B9406E54A9402502EC3E54B94D645
:10127C00E54A94015002802CC3E54B94EAE54A946C
:10128C00015004740A8040C39000A2E094B5900011
:10129C00A1E09402504B054722D3E54B949EE54ABE
:1012AC009402400B9000A17402F0A374ABF022D313
:1012BC00E54B940AE54A94024024D3E54B9426E589
:1012CC004A9402400774F62547F54722D39000A2B2
:1012DC00E094A19000A1E0940240061547227547C6
:0212EC001422CA
:0F2152009000A2E004F070069000A1E004F022DB
:0F2161009000A2E024FFF09000A1E034FFF022F4
:1014EE00C3E54B94C6E54A9400502CC3E54B949645
:1014FE00E54A9400500F9000A2E02414F09000A151
:10150E00E03400F022C3E54B94AAE54A940050045F
:10151E00740A8035054722D3E54B94FAE54A9400C8
:10152E00400F9000A2E024ECF09000A1E034FFF018
:10153E0022D3E54B94CAE54A94004015D3E54B946B
:10154E00E6E54A9400400774F62547F5472215470D
:05155E00227547142274
:10156300C3E54B948EE54A9401502CC3E54B945E3E
:10157300E54A9401500F9000A2E02414F09000A1DA
:10158300E03400F022C3E54B9472E54A9401500421
:10159300740A8035054722D3E54B94C2E54A94018A
:1015A300400F9000A2E024ECF09000A1E034FFF0A3
:1015B30022D3E54B9492E54A94014015D3E54B942D
:1015C300AEE54A9401400774F62547F547221547CF
:0515D3002275471422FF
:10204F007549011222DC1222AE121F97C2DB122138
:07205F00D1E4F54802218ADB
:101FB300E4F5491222B1E4FF1222D21222A1121A2D
:0C1FC30047D2DB1221D11210DD0221DC1C
:101E2700120E308F548E538D528C517F007EBA7DA7
:101E3700DB7C00AB54AA53A952A851C312068540B4
:051E47000375550122A6
:1016B0001222A8EF605AE555B4010C0550E550C35D
:1016C00094034003E4F550054FE54FC3940A403BB3
:1016D000E4F54FFF7EBA7DDBFCAB54AA53A952A8B8
:1016E00051120685400CE55570031210DD75550149
:1016F0008019AF54AE53AD52AC51EF2401F554E410
:101700003EF553E43DF552E43CF551AF5512222528
:0117100022B6
:1010DD00AF54AE53AD52AC518F0F8E0E8D0D8C0C97
:1010ED0075CF10E50FFFE4AD077F0F121D26AF0F73
:1010FD00AE0EAD0DAC0C78081206968F0F8E0E8DC0
:10110D000D8C0C75CF10E50FFFE4AD077F0E121D92
:10111D0026AF0FAE0EAD0DAC0C78081206968F0FE4
:10112D008E0E8D0D8C0C75CF10E50FFFE4AD077F86
:10113D000D121D26AF0FAE0EAD0DAC0C78081206BC
:10114D00968F0F8E0E8D0D8C0C75CF10E50FFFE465
:07115D00AD077F0C021D2607
:100E3000E4F50FF50EF50DF50C75CF107F0C1220B3
:100E400037E48F0FF50EF50DF50CAE0EAD0DAC0CB5
:100E500078081206A98F0F8E0E8D0D8C0C75CF1091
:100E60007F0D122037E4FCFDFEE50F2FF50FEE3568
:100E70000EF50EED350DF50DEC350CF50CAF0FAE96
:100E80000EAD0DFC78081206A98F0F8E0E8D0D8CFD
:100E90000C75CF107F0E122037E4FCFDFEE50F2FFE
:100EA000F50FEE350EF50EED350DF50DEC350CF5B7
:100EB0000CAF0FAE0EAD0DFC78081206A98F0F8E89
:100EC0000E8D0D8C0C75CF107F0F122037E4FCFDBA
:100ED000FEE50F2FF50FEE350EF50EED350DF50D88
:0C0EE000EC350CF50CAF0FAE0EAD0DFCA8
:010EEC0022E3
:101C270075CF10E4FD7F0C121D2675CF10E4FD7FE4
:101C37000D121D2675CF10E4FD7F0E121D2675CFE0
:101C470010E4FD7F0F121D26E4F554F553F552F508
:041C570051F55522CC
:0622810043C1200222B15E
:0322AE00C2C52284
:0322B100D2C52271
:061F830004230000000031
:101C5B0090004BE0FF30E72B547FF01208E88F2603
:101C6B008E258D248C23E52654E0FFE5255431FE8B
:101C7B00E4FDFCFBFAF9F8C312068560031221D1CF
:041C8B001222C0223F
:062287005327BF0221D124
:0B21D1009000A51206C80000000022CC
:100705007F207EBF7D027C009000A5E0F8A3E0F984
:10071500A3E0FAA3E0FBC31206854005432740800A
:100725001F9000A5E0FCA3E0FDA3E0FEA3E02401EB
:10073500FFE43EFEE43DFDE43CFC9000A51206BC52
:10074500E52654E0FFE5255431FEE4FDFCFB7A0186
:10075500F9F8C31206857021E52720E61C20E0394B
:10076500052FE52F7002052EC39488E52E941340BE
:10077500284327011222718020D3E52F9432E52EDC
:100785009400400DE52F9488E52E94135003122014
:10079500A85327FEE4F52EF52F1222A8EF700302C9
:1007A50008E7E52654E0FFE5255431FEE4FDFC7B32
:1007B50080FAF9F8C31206857021E52720E61C208A
:1007C500E2210529E52970020528C39432E528941C
:1007D50000401043270412226980085327FBE4F5E3
:1007E50028F529E52654E0FFE5255431FEE4FDFC16
:1007F500FB7A10F9F8C31206857021E52720E61C5F
:1008050020E4210522E52270020521C39432E52169
:100815009400401043271012220780085327EFE465
:10082500F521F522E52654E0FFE5255431FEE4FDEA
:10083500FCFB7A20F9F8C31206857021E52720E62E
:100845001C20E1210531E53170020530C39432E504
:1008550030940040104327021221E780085327FDFA
:10086500E4F530F531E52654E0FFE5255431FEE4A5
:10087500FDFC7B40FAF9F8C3120685701EE52720BA
:10088500E321052DE52D7002052CC39488E52C94F4
:100895001340104327081222B480085327F7E4F5C4
:1008A5002CF52DE52654E0FFE5255431FEE4FDFC4D
:1008B5007B20FAF9F8C3120685701FE52720E61A92
:1008C50020E51F052BE52B7002052AC39432E52A86
:1008D5009400400E4327200222615327DFE4F52AC6
:0308E500F52B22CE
:0A220700B2C57F0A12229302215291
:0B21DC005327BF1221D17F0A0222937B
:0822610012211E7F0A022293E4
:0B21E70012210C7F0A122293022161DA
:0322B4000221DC28
:0A221100AF27EFC413135401FF229E
:0822690012217D7F0A0222937D
:08227100121C277F0A022293D0
:1020A8007F0A1222931222A8BF0106121FB3021040
:0520B800DD12204F22A3
:101F3F0043D90743A17FD2A6D2A5C2A443B1F84388
:0E1F4F00C1C3439A624391C0121E96021A4704
:101FCF001222A8EF601512222E121DD9121BF11228
:0C1FDF00219712187A121DAE121BBA22B4
:101F20001222A8EF70180558E558C394C84003E47E
:0F1F3000F558E557C395584003C2B322D2B322E8
:101E01001222A8EF701FE556B40104055780021590
:101E110057E557C394C84003E4F556E557D39414E6
:061E21005003755601227A
:09222500BF0103C2DA22D2DA2261
:101A4700D2A5D2A4D2A6D281D2D9D2D8D286D285D3
:101A5700D2C0D2DAD296D297D2A0D2A1D2A2D2A3A2
:101A6700D2B6D2C6D2C7D2B5D2B4D2C1D2B7D2B308
:101A7700E4FD7F6E121FEBE4FD7F6C121FEBE4FDAC
:051A87007F6A021FEB65
:101A8C00C2A5C2A4C2A6C281C2D9C2D8C286C2850E
:101A9C00C2DAC296C2A1C2A2C2A3C2B6C2C6C2C791
:101AAC00C2B5C2C1C2C0C2B4C2B7C2B3C297C2A08F
:101ABC007DFF7F6E121FEB7DFF7F6C121FEB7DFF96
:051ACC007F6A021FEB20
:0D218A00C2C0C2B4C2B7C2B3C297C2A02285
:0122DC0022DF
:10187A001222408E088F097C007D641204BA121766
:10188A00CAAD077F6E121FEBAE08AF097C007D64FC
:10189A001204BA7E007F0ACFCDCFCECCCE1204BAC4
:1018AA001217CAAD077F6C121FEBAE08AF097C0096
:1018BA007D0A1204BAAF051217CAAD077F6A121F52
:0318CA00EBC281ED
:0118CD0022F8
:101BBA001222D8EF24FE600E146011146017240359
:101BCA00701CC2D9801AD2D9C2D88016D2D9D2D81A
:101BDA00C286D28522D2D9D2D8D286C28522D2D979
:071BEA00D2D8D286D2852279
:101DD9001222D5EF24FE600B14600F24027012C288
:101DE900A18010D2A1C2A2D2A322D2A1D2A2C2A3FF
:081DF90022D2A1D2A2D2A32242
:101DAE001222C9EF24FE6011146012146004240381
:101DBE008012C2A5C2A4D2A622C2A58002D2A5D2EA
:0B1DCE00A4C2A622C2A5D2A4D2A62265
:0C219700122211EF7003D2C122C2C1223B
:09222E0020C503C29622D29622BB
:101BF1001222ABEF14600E146011146017240370ED
:101C01001CC2B5801AD2B5C2B68016D2B5D2B6C240
:101C1100C6D2C722D2B5D2B6D2C6C2C722D2B5D297
:061C2100B6D2C6D2C722B4
:1017CA00EFB40A00504D9017D7F82828730217F57E
:1017DA000217F90217FD0218010218050218090278
:1017EA00180D0218110218150218197ED780267EC4
:1017FA001480227ECD801E7E5D801A7E1E80167E1B
:10180A005B80127EDB800E7E15800A7EDF80067E7C
:07181A005F8002E4FEAF064F
:0118210022A4
:101E9600439A0143A180E4FFFE75CF100FBF0001F6
:101EA6000EBE1FF5BF40F212227E1222BA7D057FBA
:041EB60048021FEBD4
:101FEB008F0C8D0D12207CAF0C121B82121C8FAF2D
:0A1FFB000D121B82121C8F022092AF
:0B21F200EF700453A17F2243A1802264
:0B21A300E4FEEEC39F5004000E80F726
:0121AE00220E
:101C8F007F051221A3D2801221A3C280E4FF12216B
:101C9F00F230A713050EE50EC394F040F4E4F50EF1
:101CAF00B2C57F011221F27F011221F2C2807F059E
:031CBF000221A35C
:101B82008F0F122279E4F50EE50F5480D3940040B2
:101B92000A1222BA7F051221A380031222BD122249
:101BA200B7122279E50F25E0F50F050EE50EC39475
:081BB2000840D57F050221A3C4
:10207C001222BA1222B77F051221A31222BD1222FC
:06208C00797F050221A38B
:102092001222BD1222B77F051221A31222BA1222E6
:0620A200797F050221A375
:0322B700D28022B0
:052279007F051221A306
:03227E00C28022F9
:0322BA00D2A72286
:0322BD00C2A72293
:051F8900013500C1025A
:101D8200438E02438910758BC0758DF9C28ED2AB1A
:101D9200438E04E4F5C9F5C875CBFA75CA32C2CAD6
:0C1DA200D2ADD2CA438905C2A9D28C225E
:09223700758B80758DEED28E22AC
:03000B000222DDF1
:0122DD0032CE
:03002B0002136F4E
:10136F00C0E0C0F0C083C082C0D075D000C000C044
:10137F0001C002C003C004C005C006C007C2CFE54C
:10138F003BB40404D2DC800FE53BC394644008C235
:10139F00DC753B00122237053B0536E536C3940A50
:1013AF004006753401753600053AE53A7002053985
:1013BF00C39410E53994274009753900753A001226
:1013CF002005121F20D007D006D005D004D003D09F
:1013DF0002D001D000D0D0D082D083D0F0D0E03274
:1015D80075CF1043913143B103121F3F1220D2D26D
:1015E800AF121D82121EDE12228112221B1213EF6D
:1015F8001222871222DB121E2712229D122142126A
:101608001A8CE4F50BF50AF509F5087F807E387D1C
:10161800017C00AB0BAA0AA909A808C312068550C9
:101628001A75CF10E50B2401F50BE4350AF50AE429
:0E1638003509F509E43508F50880D0021FB326
:1020E700120705053DE53DC3940A4006E4F53D7535
:0320F7003C012287
:101F5D00121C5B0533E533C3940A4006E4F5337573
:0E1F6D003201120A0E121164122130021E01FE
:1020BD000538E538C3940A4006E4F5387537011242
:0520CD0016B0021FCF58
:06228D00121646021711B3
:101B49001215D875CF10E534B40106E4F534122026
:101B5900E7E53CB40106E4F53C121F5DE532B4014A
:101B690006E4F5321220BDE537B40106E4F5371273
:091B7900228D120FA8B28080CA6F
:03001B00021AD1F5
:101AD100C0E0C0F0C083C082C0D075D000C000C0DB
:101AE10001C002C003C004C005C006C007C28E12F7
:101AF1002299D007D006D005D004D003D002D0015E
:0D1B0100D000D0D0D082D083D0F0D0E03220
:041F8E0041009C0072
:100C4D0075F00290004F1206F9E0FEA3E0FFE513E8
:100C5D0075F0029000190206F9E51275F002900088
:100C6D00010206F9E51275F0029000310206F974E1
:100C7D00252516F582E43400F58322D3E5149FEE85
:100C8D006480F8E51364809822743D2512F582E4A2
:100C9D003400F58322D3FFED9FEE6480F8EC648081
:100CAD009822745B2512F582E43400F58322E0046A
:100CBD00F0740D2512F582E43400F58322E51375E9
:100CCD00F00290004F0206F9E4F0FFFEFDFCAB418F
:100CDD00AA40A93FA83EC3020685FEC3E5159FEEB7
:100CED006480F8E51464809822E5415545FFE540A0
:100CFD005544FEE53F5543FDE53E5542FC22742B20
:100D0D002512F582E43400F58322E0FEA3E0FF75A1
:100D1D00F002227E00900098E0FCA3E0FD1204A8F2
:100D2D008EE78FE622A4FFE0C39FE5F06480F874A0
:100D3D008098227D0A1204BAAD037C000204A8E05B
:100D4D00FCA3E0C39F2290004EE0FB3395E0FAEB4D
:0D0D5D00AE022290004EE0FF3395E0FE2232
:0C21AF00EF4E6007EF1F70F81E80F52255
:02146F008F1BD1
:101471001221709000AAEFF0AF1B1220FAEFFB903F
:101481000099E025E0FF900098E033FE7C00120D0A
:1014910040E51B120C68120D4CEC9E50099000AAFD
:1014A100E06049148036AF1B1220FAEFFB900098E0
:1014B100E0FEA3E0FF7C007D071204A8120D407539
:1014C100F002E51B120C6BE0FCA3E0D39FEC9E4005
:1014D1001B9000AAE0FF647E6012EF04FF744325B5
:0C14E1001BF582E43400F583EFF0D2012B
:0114ED0022DC
:10176F00C20390009DE0120C5DE5E5F0A3E5E4F007
:10177F0090009DE004F0E0C39546400BE4F090002C
:10178F004BE04480F08002D20390009DE0FF1220D6
:10179F00FA120D2090009DE0FF122170E5E25480B7
:1017AF004FF5E290009DE02413F582E43400F583B9
:0A17BF00E04480F5E8300302D2EEAA
:0117C90022FD
:1013EF00D2AFC201E490009DF090004BF0121A00B2
:1013FF00E4FF121CC2EF2401FDE433FC7E077FD013
:10140F001204BA900098EEF0A3EFF0E4FF1220FA66
:10141F00120D207F02121CC2EFC454F0FEC006E46E
:10142F00FF121CC2D0E02FF5E17F03121CC2E5E2D0
:10143F0054804FF5E27F04121CC2EF6008E5E254BE
:10144F00804480F5E27F01121CC28FE312196D43B5
:10145F00A910900013E04480F5E8121822021EBA7A
:0322C000D2EE2239
:101E4C00E4FD90004BE0547FF0D2EE90004BE0208C
:101E5C00E7127FE87E031221AF43CF100DEDC39440
:041E6C003240E822F6
:011E7000224F
:10182200750C20121E4CE4F50DE50DC39546501BB8
:10183200E50D120C5D120D17E50D120C6BEEF0A307
:10184200EFF0AF0D12146F050D80DEAF0C150CEF2B
:1018520070D1121EFF1222498F0C121E4CE4F50D9C
:10186200E50DC395465009AF0D120EED050D80F042
:07187200AF0C150CEF70E351
:01187900224C
:101EBA00E4FFEFC39546501B75F002EF120C60E089
:101ECA00FCA3E0FD75F002EF120C6BECF0A3EDF051
:031EDA000F80DF97
:011EDD0022E2
:101E7100E490009EF0F511E511C39546500EAF11A7
:101E8100120EEDAF11120100051180EBAF41AE4012
:041E9100AD3FAC3E77
:011E9500222A
:020100008F125C
:10010200E4F51A75F002EF120C6B120D17E51212DC
:100112000C60120D4CF514EC9EF513E47F01FEFD0C
:10012200FCA912A8011206A98F458E448D438C4268
:10013200AF12121D568E188F19C3E5149519E518C2
:10014200120C8D40057515018003E4F515E5156463
:1001520001600302028774252512120C80E0C39409
:10016200FA500A74252512120C80E004F0120CF6E3
:10017200E4FBFAF9F8C3120685600302026A9000F2
:1001820000E0F5171222A5EF6028E4F515F516E553
:1001920016C39546500F120C7CE0C3940140020531
:1001A20015051680EAE515C394034006740F25175A
:1001B200F51774252512120C80E0C395175003021F
:1001C200026AE4F515122251EF7051F516E516C3D5
:1001D2009546501AE512651660101221FD120C7C2C
:1001E200E0C39F40057515018004051680DF1222C9
:1001F200A5EF7052E515704EF516E516C3954650FB
:1002020045E512651660111221FD742B2516120D9B
:100212000FE0C39F4002802B051680DE1222A5EF5D
:100222007024F517F516E516C39546500F120C7C8F
:10023200E0C3940240020517051680EAE517C3944D
:10024200034003751501E515B40102D200E54145ED
:1002520045FFE5404544FEE53F4543FDE53E454259
:100262008F418E408D3FF53E120C96E4F0120CAF9A
:10027200E4F0120C71E4F0A3F0740D2512F582E49F
:10028200340002045DAF12122066120C884008127C
:100292000D0BE004F0800B90009EE004F0120D0BB9
:1002A200E4F0120D60C3E49FFDE49EFCC3E5149DDF
:1002B200EC120C8D4066120C885061120C96E412FE
:1002C2000CBD120CD560030203CA120C71E5138532
:1002D20014F01205451221C6120C71E0FCA3E0C312
:1002E200120CA54009120C66E475F001802112215E
:1002F200C6C3E49FFFE49EFE120C71E0FCA3E0C3C0
:10030200120CA540030203CA120C6674FFF5F01228
:100312000545120C71E4F0A3F00203CA90004EE00E
:10032200FFFD3395E0FCC3E49DFDE49CFCC3E514B2
:100332009DEC120C8D505A120C96120CBBE4F0126A
:100342000C96E0FE75F00A84E5F07037EEC3946413
:10035200400E120C96E4F0D20190006104F080236A
:10036200120C66C083C082E0FCA3E0FDEFA2E7139B
:10037200FF3395E0FEC3ED9FFFEC9ED082D083F069
:10038200A3EFF0900097E06512703D74FFF0020356
:10039200CA120D60120C88402F120C96120CD570E6
:1003A20027120CBE120CBBE0B4201D120CBEE4F0EE
:1003B20090004EE0A2E713A2E713FF3395E0FE128E
:1003C2000C66EE8FF0120545120CF64D4E4F70037F
:1003D200020469E519AE187802CEA2E713CE13D84B
:1003E200F8FFC3E5199FFFE5189EFEC3120C895062
:1003F2006F120CAFE004F01222598F17E4F516E5E4
:1004020016C39546500F120C7CE0C39401400205BE
:1004120015051680EAE515C394034006900000E036
:10042200F517120CAFE0C39517407A120CAFE4F047
:10043200AF45AE44AD43AC42120678E5415FFFE5FD
:10044200405EFEE53F5DFDE53E5C8F418E408D3FA7
:10045200F53E74252512F582E43400F583E4F0229A
:10046200120CAFE014F02274252512120C80120C2B
:10047200D57005AF1212146FE546146512702690FE
:10048200009EE0C39546401DE4F516E516C3954669
:10049200500D120C7CE06003751501051680ECE529
:0504A200157002C2000C
:0104A7002232
:101EFF00E4FFEFC39546501875F002EF120C60E047
:101F0F00FCA3E0FDEF120CCCECF0A3EDF00F80E2A0
:011F1F00229F
:020EED008F1361
:100EEF00EF120C4D120D4CF515EC9EF514AF1312BD
:100EFF001D56AD07AC06D3E5159DEC120CED500B4E
:100F0F00C3E49DFFE49C120CE7500B120C5BE0FE58
:100F1F00A3E0FF020F95ECA2E713FEED13FFD31230
:100F2F000CE9500BC3E49FFFE49E120CE75027120D
:100F3F000CCAE0FCA3E0FDECC313FEED13FFC3ED01
:100F4F009FFDEC9EFC120C5BE0C313FEA3E0132D80
:100F5F00FFEC3EFE8030120CCAE0FCA3E0FDAE04B5
:100F6F007803CEC313CE13D8F9FFC3ED9FFDEC9ECC
:100F7F00FC120C5BE0FEA3E07803CEC313CE13D8B4
:100F8F00F92DFFEC3EFE120CCAEEF0A3EFF0E513C5
:080F9F00120C4DEEF0A3EFF07F
:010FA7002227
:0322C300A2012253
:0322C600D2012220
:10196D00E4FFEFC39546502B74252F120C80E4F045
:10197D00743D2F120C9AE4F0745B2F120CB3E4F04B
:10198D00EF120C73E4F0A3F0742B2F120D0FE4F093
:10199D000F80CFE4F541F540F53FF53E900097748B
:0B19AD00FFF0E490009AF0A3F0C201EC
:0119B800220C
:020B2E008F1125
:100B300090009CE0C394034035E4F0900061E070C5
:100B400022F512E512C39546501975F002E512120E
:100B50000CCF120D17E512120C6BEEF0A3EFF0059F
:100B60001280E012196DC201E4900061F022900041
:100B700096E004F0E0B51108121EFFE4900097F033
:100B8000900096E0D395115003020C4CE4F512E569
:100B900012C39546507A75F002E512120CCF120D71
:100BA00017E512120C60120D4CFFEC9EAD07FC9085
:100BB0000061E07029120D537802C333CE33CED8D2
:100BC000F9120CA24040E49BFFE49AFEEF7802C3C6
:100BD00033CE33CED8F9C3120CA3502A8032120D73
:100BE000537803C333CE33CED8F9120CA24017E4A6
:100BF0009BFFE49AFEEF7803C333CE33CED8F9FFE0
:100C0000C3120CA4400AAF12120EED0512020B8F94
:100C1000E512B54606900097E004F0E51175F0087E
:100C2000900096120D324024E4F0C20090009CE047
:100C300004F0E51175F004900097120D32400DE4B8
:0C0C400090009CF0121EBA12196DC20147
:010C4C002285
:041F920041006600A4
:1020D20043D9187F0F7E00121CF49000911206C89B
:0520E2000000000022D7
:09224000900064E0FEA3E0FF221F
:100D6A00E4F50BF50AF509F508FBEB25E02469F52E
:100D7A0082E43400F583E0FEA3E0FFE4FCFDE50B2A
:100D8A002FF50BE50A3EF50AED3509F509EC3508AC
:100D9A00F5080BBB14D4E4FAF9F8AF0BAE0AAD09A7
:100DAA00AC081205E69000911206BCE47F507EC39F
:100DBA00FDFC900091E0F8A3E0F9A3E0FAA3E0FBC0
:100DCA0012055BE4FB7A10F9F81205E68F0F8E0E16
:100DDA008D0D8C0CE47FD87E0EFDFCAB0FAA0EA9FC
:100DEA000DA80CD3120685401AE50F94D8F50FE525
:100DFA000E940EF50EE50D9400F50DE50C9400F534
:100E0A000C8009E4F50FF50EF50DF50CE47B38FAC4
:100E1A00F9F8AF0FAE0EAD0DAC0C1205E6900062FC
:050E2A00EEF0A3EFF063
:010E2F0022A0
:100A0E00900095E06401703DF0AFAFEF75F010A46B
:100A1E00FFE5AEC4540F7C002FFFEC35F0FE9000C6
:100A2E0066E025E02469F582E43400F583EEF0A358
:100A3E00EFF0900066E004F0D394144008120D6AB3
:100A4E00E4900066F0900067E475F001120545FE33
:100A5E00D3E5F094C8EE94005003020B2DE4900001
:100A6E0067F0A3F0900063E02414FF900062E0347E
:100A7E0000FED3900065E09F900064E09E40191246
:100A8E0019207C007D0A12050FC3900065E09DF0D1
:100A9E00900064E09CF0800D900062E0FFA3E0A364
:100AAE00CFF0A3EFF0C3900065E094E7900064E010
:100ABE00940340077403F0A374E7F0900064E070B1
:100ACE0002A3E070171219207C007D0512050FEDB0
:100ADE002401FEE43C900064F0A3CEF0900064E0AC
:100AEE00FEA3E0FFD39464EE9400500475650122DA
:100AFE00D3EF9464EE9400400DD3EF94C8EE9400BF
:100B0E00500475650422D3EF94C8EE9400400DD3C3
:100B1E00EF942CEE94015004756502227565032244
:0322C900AF6522DC
:101CF400EF4480F5ADC3EF9408EE9400500F7401E7
:101D0400A807088002C333D8FCF5AB8011EF24F890
:101D1400FF7401A807088002C333D8FCF5AC75A88A
:021D240040225B
:0422990043AD4022EF
:0300330002201E8A
:10201E00C0E0C083C08253ADDF53ADBF9000957456
:09202E0001F0D082D083D0E03231
:0A221B0043D9201222CFE4F55F2220
:10164600E55F24FE603014605A24027059E5614556
:101656006070031222CCE561B45808E560B4020359
:101666001222CF0561E56170020560C394B0E560A2
:10167600940440358027E561456070031222CCE56D
:1016860061B40808E560B407031222CF0561E5617D
:1016960070020560C39460E5609409400CE4F5604F
:0A16A600F561220222CC1222CF22AD
:0322CC00D2DD223E
:0322CF00C2DD224B
:10210C00055FE55FD394034003E4F55FE4F560F508
:02211C0061223E
:0322D2008F5F22F9
:0322D500AF5F22D6
:04229D00E4F56222E0
:10171100E56224FE601D14602D14603D2403704DAC
:101721000564E56470020563C39410E563940E409B
:101731003C80370564E56470020563C39420E5636A
:10174100941C402980240564E56470020563C394F8
:1017510040E5639438401680110564E56470020524
:0E17610063C39480E56394704003121FB322AB
:10211E000562E562D394044003E4F562E4F563F5E9
:02212E00642229
:0422A100E4F56222DC
:0322D800AF6222D0
:10214200539A7F439A08C283439B807F140222934F
:102130009000A9E0D394004006D283E014F022C2BC
:022140008322F8
:062293009000A9EFF0220B
:10105D00021B49E493A3F8E493A34003F68001F245
:10106D0008DFF48029E493A3F85407240CC8C33394
:10107D00C4540F4420C8834004F456800146F6DF63
:10108D00E4800B0102040810204080901F7BE47E59
:10109D00019360BCA3FF543F30E509541FFEE49358
:1010AD00A360010ECF54C025E060A840B8E493A31F
:1010BD00FAE493A3F8E493A3C8C582C8CAC583CA4A
:1010CD00F0A3C8C582C8CAC583CADFE9DEE780BE02
:011F9600004A
:1004A800EF8DF0A4A8F0CF8CF0A428CE8DF0A42E68
:0204B800FE2222
:1004BA00BC000BBE0029EF8DF084FFADF022E4CC26
:1004CA00F875F008EF2FFFEE33FEEC33FCEE9DECEF
:1004DA00984005FCEE9DFE0FD5F0E9E4CEFD22ED35
:1004EA00F8F5F0EE8420D21CFEADF075F008EF2F7F
:1004FA00FFED33FD4007985006D5F0F222C398FD70
:05050A000FD5F0EA220C
:10050F00C2D5EC30E709B2D5E4C39DFDE49CFCEE07
:10051F0030E715B2D5E4C39FFFE49EFE1204BAC3C1
:10052F00E49DFDE49CFC80031204BA30D507C3E4BC
:06053F009FFFE49EFE2276
:10054500C5F0F8A3E028F0C5F0F8E5821582700241
:060555001583E038F022DE
:10055B00E88FF0A4CC8BF0A42CFCE98EF0A42CFC3F
:10056B008AF0EDA42CFCEA8EF0A4CDA8F08BF0A4BD
:10057B002DCC3825F0FDE98FF0A42CCD35F0FCEB1C
:10058B008EF0A4FEA9F0EB8FF0A4CFC5F02ECD39E1
:0F059B00FEE43CFCEAA42DCE35F0FDE43CFC224E
:1005AA0075F008758200EF2FFFEE33FECD33CDCC08
:1005BA0033CCC58233C5829BED9AEC99E58298408B
:1005CA000CF582EE9BFEED9AFDEC99FC0FD5F0D668
:1005DA00E4CEFBE4CDFAE4CCF9A88222B800C1B992
:1005EA000059BA002DEC8BF084CFCECDFCE5F0CBD0
:1005FA00F97818EF2FFFEE33FEED33FDEC33FCEB09
:10060A0033FB10D703994004EB99FB0FD8E5E4F9C3
:10061A00FA227818EF2FFFEE33FEED33FDEC33FCB0
:10062A00C933C910D7059BE99A4007EC9BFCE99AA4
:10063A00F90FD8E0E4C9FAE4CCFB2275F010EF2FE9
:10064A00FFEE33FEED33FDCC33CCC833C810D707E9
:10065A009BEC9AE899400AED9BFDEC9AFCE899F824
:0E066A000FD5F0DAE4CDFBE4CCFAE4C8F922B7
:0D067800CFF4CFCEF4CECDF4CDCCF4CC2217
:10068500EB9FF5F0EA9E42F0E99D42F0E89C45F0CB
:010695002242
:10069600E8600FECC313FCED13FDEE13FEEF13FF42
:0306A600D8F12266
:1006A900E8600FEFC333FFEE33FEED33FDEC33FCAF
:0306B900D8F12253
:0C06BC00ECF0A3EDF0A3EEF0A3EFF022B1
:1006C800A8828583F0D083D0821206DF1206DF125B
:1006D80006DF1206DFE473E493A3C583C5F0C58380
:1006E800C8C582C8F0A3C583C5F0C583C8C582C87C
:0106F80022DF
:0C06F900A42582F582E5F03583F583220C
:10192000AC5BAD5CAE5DAF5E7810EC4D4E4F7004BD
:101930007CA57DA5C3EC13FCED13FDEE13FEEF13A8
:10194000FF5010EC64CCFCED644CFDEE644EFEEFF9
:1019500064CEFFD8DF8C5B8D5C8E5D8F5EEE547F36
:0D196000FE228E5B8F5C74A5F55DF55E22A6
:00000001FF
