:030000000211B931
:1011B90078FFE4F6D8FD9000007F807E01E4F0A37B
:0A11C900DFFCDEFA75815402120EFD
:1015D3000000000100000005000A0BB800C8006409
:1015E30000020000000000040000FFFFFFFFFFFFF8
:1015F3000014013A04082A0507CF013A0408270515
:1016030007CF013A0408270507CF013A0408270545
:1016130007CF013A0408270507CE013A0408280535
:0216230007CFEF
:041B09004100610036
:0B1CDF009015DDE493FE740193FF22DA
:0B1CEA009015E1E493FE740193FF22CB
:081D2F009015DB740193FF2203
:031D53007F0122EB
:1019DC00AD07ED75F008A424FBF582E43415F5830E
:1019EC00E493FEED75F008A424FCF582E43415F5BF
:0C19FC0083E4937C002400FFEC3EFE22FC
:101C6B00EF75F008A424F8F582E43415F583E493BA
:021C7B00FF2246
:081D37009015D5740193FF2201
:0D1CAD0074432FF582E43400F583E0FF223C
:081D3F00900000E0C313FF2235
:0A1D0000900000E075F00384FF225C
:101C02001219DCEF7803C333CE33CED8F9FF7C0050
:051C12007D0A120748E5
:011C170022AA
:10170F00E4FBFAF50BF50AF509F508750BE0750A18
:10171F0031F509F508AF0BAE0AAD09AC0878011227
:10172F0009248F0B8E0A8D098C0830D71374132A56
:10173F00F582E43400F583EBF00AEAC39406500413
:06174F000BBB1FD18A460E
:011755002271
:10194800EF14601214601414601814601A240470E0
:101958001E9015F580089015F680039015F7E4930E
:10196800FF22E4FF021CAD9015E7740193FF227F6C
:0219780000224B
:101756009015D9740193900000F09015F3740193DD
:1017660090004EF012170FE4FFEFC395465020EF9E
:1017760075F008A424F9F582E43415F583E493FEA4
:1017860074432FF582E43400F583EEF00F80DAE43B
:0617960090004CF0A3F0EE
:01179C00222A
:100B1E00E4F508F50CF50BF50AF509F510F50FF5EA
:100B2E000EF50D121D6E5003020C30121A798F0C39
:100B3E008E0B8D0A8C09E4FBEBC395465047AF0C28
:100B4E00AE0BAD0AAC0978011209248F0C8E0B8DF9
:100B5E000A8C0930D72CE47F01FEFDFC74132BF5B3
:100B6E0082E43400F583E0F9F8120937E5104FF509
:100B7E0010E50F4EF50FE50E4DF50EE50D4CF50D8E
:100B8E0005080B80B3E508C394024015D200E508B2
:100B9E0094034005121D718008121D37EF6002C2CA
:100BAE000020002CE4FFFEFDFCAB10AA0FA90EA83E
:100BBE000DC3120913601090004DE004F070069002
:100BCE00004CE004F08020E490004CF0A3F080177D
:100BDE0090004AE004F07006900049E004F0E4F55D
:100BEE0010F50FF50EF50D121CDFD390004DE09FA2
:100BFE0090004CE09E400A121D71E490004CF0A350
:100C0E00F0D390004AE0942C900049E09401401DEE
:100C1E00121D719000617401F0E4900049F0A3F090
:100C2E00800B9015E3E4740193FF120C44AF10AEE9
:050C3E000FAD0EAC0D2E
:010C4300228E
:03005B000218A1E7
:1018A100C0E0C0F0C083C082C0D075D000C000C00D
:1018B10001C002C003C004C005C006C00712152044
:1018C100D007D006D005D004D003D002D001D0007B
:0B18D100D0D0D082D083D0F0D0E03225
:041B0D00021C0000B6
:011D77002249
:1019AC008D0CC2AF75F402850CF5E4F5F38FF2756E
:1019BC00F1F075F60A00000000000000000000F5D0
:1019CC00F4D2AF121BD2EFB50C037F01227F0022A1
:101BD200C2AF75F402E51D2FF582E4351CF583E4EE
:071BE20093FFE4F5F4D2AF1C
:011BE90022D9
:031D5600AF532266
:101A0800E4F552539AFB439B045391BF43924043DE
:101A1800C114C2C2C2C475D36375D4B090074474EC
:071A280080F0A37414F0220A
:101B4C00D2C49000A2E4F0A37428F0900744E044BF
:0D1B5C0080F0A3E0F0E490009EF0A3F022E2
:0D1CBA000552E552D394034003E4F5522295
:031D5900AF522264
:10125300121D56EF6401704390009EE0547FFEA37D
:10126300E0FF9000A2E0FCA3E0FD6F7002EC6E6073
:1012730066D3ED9FEC9E401090009FE004F0701643
:1012830090009EE004F0800E90009FE024FFF09019
:10129300009EE034FFF090009E801BD39000A3E0FB
:1012A30094009000A2E09400401BA3E024FFF09080
:1012B30000A2E034FFF0E04480FFA3E0900744CFB6
:1012C300F0A3EFF022E49000A2F0A3F0900744E033
:0812D300547FF0C2C2C2C42224
:0C1CC700755301121D4B121D5C021B4CDA
:091D1400E4F553121D5F02179D56
:101A2F001210418F4C8E4B8D4A8C497FC07E657D45
:101A3F00527C00AB4CAA4BA94AA849C312091340C8
:051A4F0003754D0122AA
:1014C400121D56EF6055E54DB4010C0548E548C3BF
:1014D40094034003E4F5480547E547C3940A403BB9
:1014E400E4F5477FC07E657D52FCAB4CAA4BA94A0C
:1014F400A849120913400BE54D70031212DB754D18
:101504000122AF4CAE4BAD4AAC49EF2401F54CE49B
:0B1514003EF54BE43DF54AE43CF54990
:01151F0022A9
:1012DB00AF4CAE4BAD4AAC498F0B8E0A8D098C08C7
:1012EB0075CF10E50BFFE4AD077F0F1219ACAF0BF9
:1012FB00AE0AAD09AC0878081209248F0B8E0A8D43
:10130B00098C0875CF10E50BFFE4AD077F0E1219A2
:10131B00ACAF0BAE0AAD09AC0878081209248F0BE1
:10132B008E0A8D098C0875CF10E50BFFE4AD077F96
:10133B000D1219ACAF0BAE0AAD09AC087808120947
:10134B00248F0B8E0A8D098C0875CF10E50BFFE4EB
:07135B00AD077F0C0219AC85
:10104100E4F50BF50AF509F50875CF107F0C121BB5
:10105100D2E48F0BF50AF509F508AE0AAD09AC0823
:1010610078081209378F0B8E0A8D098C0875CF10FD
:101071007F0D121BD2E4FCFDFEE50B2FF50BEE35C7
:101081000AF50AED3509F509EC3508F508AF0BAE9F
:101091000AAD09FC78081209378F0B8E0A8D098C6D
:1010A1000875CF107F0E121BD2E4FCFDFEE50B2F5D
:1010B100F50BEE350AF50AED3509F509EC3508F5BC
:1010C10008AF0BAE0AAD09FC78081209378F0B8EF9
:1010D1000A8D098C0875CF107F0F121BD2E4FCFD1D
:1010E100FEE50B2FF50BEE350AF50AED3509F5098D
:0C10F100EC3508F508AF0BAE0AAD09FCA9
:0110FD0022D0
:1019140075CF10E4FD7F0C1219AC75CF10E4FD7F78
:101924000D1219AC75CF10E4FD7F0E1219AC75CFF2
:1019340010E4FD7F0F1219ACE4F54CF54BF54AF5B4
:0419440049F54D22F2
:0B1CF50053927FC297439180021D5F55
:031D5C00D29722F9
:031D5F00C2972206
:061B1100042300000000A7
:101B860090004BE0FF30E711547FF0120B1E8F26BA
:0A1B96008E258D248C23121D6B2276
:041D470043274022CC
:10099300E52654E0FFE5255431FEE4FDFCFB7A0136
:1009A300F9F8C3120913701EE52720E021052FE58E
:1009B3002F7002052EC39432E52E94004010432776
:1009C30001121C8E80085327FEE4F52EF52FE52631
:1009D30054E0FFE5255431FEE4FDFC7B80FAF9F891
:1009E300C3120913701EE52720E2390529E5297092
:1009F300020528C39488E52894134028432704124A
:100A03001D688020D3E5299405E5289400400DE571
:100A1300299488E52894135003121D655327FBE49A
:100A2300F528F529E52654E0FFE5255431FEE4FDDC
:100A3300FCFB7A10F9F8C3120913701EE52720E4B2
:100A4300210522E52270020521C3940AE5219400C1
:100A53004010432710121D6280085327EFE4F5214D
:100A6300F522E52654E0FFE5255431FEE4FDFCFBC9
:100A73007A20F9F8C3120913701EE52720E1210536
:100A830031E53170020530C3940AE530940040101B
:100A9300432702121D7980085327FDE4F530F53111
:100AA300E52654E0FFE5255431FEE4FDFC7B40FAE6
:100AB300F9F8C3120913701EE52720E321052DE57C
:100AC3002D7002052CC39488E52C94134010432702
:100AD30008121BA080085327F7E4F52CF52DE52613
:100AE30054E0FFE5255431FEE4FDFC7B20FAF9F8E0
:100AF300C3120913701CE52720E51F052BE52B7096
:100B030002052AC3940AE52A9400400E43272002D3
:0B0B13001D785327DFE4F52AF52B22A4
:031D6200B2972213
:011D78002248
:011D79002247
:101BA000AF27EFC413135401F45401C4333354C0AA
:091BB000FFE52754BF4FF5272281
:0A1D0A00AF27EFC413135403132294
:031D6500021CBAA3
:031D680002191449
:101C8E00121D56BF0106121D140212DB121CC722B2
:1016250043D90753D8F8D2DAD2D9C2D84393EF4376
:10163500948075A3FF439C0343B3F8E4F58F9007AB
:101645000B7408F0A37418F0A3F0A3F0A374F8F0DA
:10165500A3F0A3F0A3F0A3F0A3F0A3F07D077F0808
:101665001204A87D067F091204A87D057F070204E0
:01167500A8CC
:101C1800121D56EF600F121C9E121461121C7D12C9
:061C280017E0121A9E22D3
:10179D0053937FD2D9D2D8D2DA90070BE054F7F019
:1017AD00A3E054E7F0A3E054E7F0A3E054E7F0A37F
:1017BD00E05407F0A3E05407F0A3E05407F0A3E0D2
:1017CD005407F0A3E05407F0A3E05407F0A3E0544E
:0317DD0007F022F0
:041D4B00439380221C
:1017E000121D268E088F097C007D641207487D0734
:1017F0001204A8AE08AF097C007D641207487E0081
:101800007F0ACFCDCFCECCCE1207487D061204A8DA
:10181000AE08AF097C007D0A120748AF057D0502BE
:0218200004A81A
:101A9E00121D74EF24FE600714600B2402800ED218
:101AAE00D9C2D8D2DA22D2D9D2D8C2DA22C2D9D267
:041ABE00D8D2DA227E
:101C7D00121D0A90070BE0500454F7F0224408F0AF
:011C8D002234
:0F1C9E00900710E03097044410F02254EFF0222A
:10146100121D59EF14600A146019146028240380B6
:101471003B900711E054EFF0A3E054EFF0A3E044F8
:10148100108022900711E054EFF0A3E04410F0A384
:10149100E054EF8010900711E04410F0A3E054EF06
:1014A100F0A3E054EFF0A3E054EFF022900711E035
:1014B10054EFF0A3E054EFF0A3E054EFF0A3E044C5
:0314C10010F02206
:1004A800EFB40A0040030207359004B8F82828730F
:1004B8000204D60205070205450205860205BA02AE
:1004C800060302064702068A0206C70206F29007DA
:1004D8000FE0FF7401A805088002C333D8FCFEF4BE
:1004E8005F90070FF0A3E04EF0A3E0FF7401A805AA
:1004F800088002C333D8FCFE4F9007110206E4902F
:10050800070FE0FF7401A805088002C333D8FCFE7A
:10051800F4FC5F90070FF0A3E05CF0A3E05CF0A3AD
:10052800E05CF0A3E04EF0A3E0FF7401A8050880AA
:1005380002C333D8FCFE4F9007140205F890070F4A
:10054800E0FF7401A805088002C333D8FCFE4F9071
:10055800070FF0A3E0FFEEF4FEEF5EF0A3E0FF74F8
:1005680001A805088002C333D8FCFC4F900711F09E
:10057800A3E04CF0A3E05EF0A3E04C020641900734
:100588000FE0FF7401A805088002C333D8FCFE4FB2
:1005980090070FF0A3E0FFEEF4FEEF5EF0A3E05E3D
:1005A800F0A3E0FF7401A805088002C333D8FC0259
:1005B800072390070FE0FF7401A805088002C333E2
:1005C800D8FCFE4F90070FF0A3E04EF0A3E0FFEE3B
:1005D800F4FEEF5EF0A3E05EF0A3E0FF7401A8056F
:1005E800088002C333D8FCFE4F900713F0A3E04EF7
:1005F800F0A3E0FFEEF4FEEF5EF02290070FE0FFBD
:100608007401A805088002C333D8FCFE4F90070F79
:10061800F0A3E04EF0A3E0FFEEF4FEEF5EF0A3E0FF
:10062800FF7401A805088002C333D8FCFC4F90076B
:1006380012F0A3E04CF0A3E05EF0A3E04CF02290AF
:10064800070FE0FF7401A805088002C333D8FCFE39
:100658004F90070FF0A3E04EF0A3E04EF0A3E04E5A
:10066800F0A3E04EF0A3E0FFEEF4FEEF5EF0A3E0AF
:10067800FF7401A805088002C333D8FC4F90071502
:10068800F02290070FE0FF7401A805088002C33329
:10069800D8FCFEF4FC5F90070FF0A3E05CF0A3E049
:1006A8005CF0A3E05CF0A3E04EF0A3E0FF7401A8C7
:1006B80005088002C333D8FCFE4F90071480699068
:1006C800070FE0FF7401A805088002C333D8FCFEB9
:1006D8004F90070FF0A3E04EF0A3E04EF0A3E04EDA
:1006E800F0A3E04EF0A3E04E803E90070FE0FF74C9
:1006F80001A805088002C333D8FCFE4F90070FF00D
:10070800A3E04EF0A3E0FFEEF4FEEF5EF0A3E0FFFF
:100718007401A805088002C333D8FCFE4F90071265
:0E072800F0A3E04EF0A3E04EF0A3E04EF0226E
:0B1B1700013600C1020137000133005D
:101AE600438E02438910758BC0758DF9C28ED2ABB9
:101AF600438E01438901758AC0758CF9C28CD2A9BF
:031B0600D28C225C
:091D1D00758B80758DEED28E22CB
:03000B000218DCFC
:1018DC00C0E0C0D0758A32758CFAE53BB40404D2F2
:1018EC00DC800FE53BC394644008C2DC753B0012FE
:1018FC001D1D053B0538E538C3940A4006753501B6
:08190C00753800D0D0D0E032A4
:101B690075CF1043913143B103121625121C43D28C
:0D1B7900AF121AE6121A08121CF5021D1414
:101C5800120993053DE53DC3940A4006E4F53D7538
:031C68003C01221A
:101BEA00121B86121C180534E534C3940A4006E415
:081BFA00F534753201020E8082
:101C2E00053AE53AC3940A4006E4F53A75390112CD
:051C3E0014C402125362
:011D7A002246
:10182200121B69121362121D47121D77121A2FC260
:10183200DB75CF10E535B40106E4F535121C58E529
:101842003CB40106E4F53C121BEAE532B40106E4BD
:10185200F532121C2EE539B401D7E4F539121D7A9E
:0218620080CF35
:03001B0002186464
:10186400C0E0C0F0C083C082C0D075D000C000C04A
:1018740001C002C003C004C005C006C007C28E1266
:101884001D4FD007D006D005D004D003D002D0011C
:0D189400D000D0D0D082D083D0F0D0E03290
:041B220041009B00E3
:100D630075F00290004F120987E0FEA3E0FFE51340
:100D730075F002900019020987E51275F0029000E0
:100D830001020987E51275F00290003102098774A8
:100D9300252516F582E43400F58322D3E5149FEE6E
:100DA3006480F8E51364809822743D2512F582E48B
:100DB3003400F58322D3FFED9FEE6480F8EC64806A
:100DC3009822745B2512F582E43400F58322E00453
:100DD300F0740D2512F582E43400F58322E51375D2
:100DE300F00290004F020987E4F0FFFEFDFCAB41E7
:100DF300AA40A93FA83EC3020913FEC3E5159FEE0F
:100E03006480F8E51464809822E5415545FFE54088
:100E13005544FEE53F5543FDE53E5542FC22742B08
:100E23002512F582E43400F58322E0FEA3E0FF758A
:100E3300F002227E00900097E0FCA3E0FD1207364B
:100E43008EE78FE622A4FFE0C39FE5F06480F87489
:100E53008098227D0A120748AD037C00020736E022
:100E6300FCA3E0C39F2290004EE0FB3395E0FAEB36
:0D0E7300AE022290004EE0FF3395E0FE221B
:0C1CD300EF4E6007EF1F70F81E80F52236
:0213E2008F1B5F
:1013E400121CAD9000A4EFF0AF1B121C6BEFFB902E
:1013F4000098E025E0FF900097E033FE7C00120E99
:1014040056E51B120D7E120E62EC9E50099000A44C
:10141400E06049148036AF1B121C6BEFFB90009701
:10142400E0FEA3E0FF7C007D07120736120E56751E
:10143400F002E51B120D81E0FCA3E0D39FEC9E407B
:101444001B9000A4E0FF647E6012EF04FF74432548
:0C1454001BF582E43400F583EFF0D201B8
:011460002269
:10152000C20390009CE0120D73E5E5F0A3E5E4F042
:1015300090009CE004F0E0C39546400BE4F090007E
:101540004BE04480F08002D20390009CE0FF121C2C
:101550006B120E3690009CE0FF121CADE5E2548049
:101560004FF5E290009CE02413F582E43400F5830B
:0A157000E04480F5E8300302D2EEFB
:01157A00224E
:10136200D2AFC201E490009CF090004BF0121756ED
:10137200E4FF121948EF2401FDE433FC7E077FD01D
:10138200120748900097EEF0A3EFF0E4FF121C6BF7
:10139200120E367F02121948EFC454F0FEC006E462
:1013A200FF121948D0E02FF5E17F03121948E5E258
:1013B20054804FF5E27F04121948EF6008E5E254C9
:1013C200804480F5E27F011219488FE31216C3436D
:1013D200A910900013E04480F5E812157B021AC2AE
:031D6B00D2EE2293
:101A5400E4FD90004BE0547FF0D2EE90004BE02088
:101A6400E7127FE87E03121CD343CF100DEDC3941D
:041A74003240E822F2
:011A7800224B
:10157B00750820121A54E4F509E509C39546501B6A
:10158B00E509120D73120E2DE509120D81EEF0A374
:10159B00EFF0AF091213E2050980DEAF081508EF73
:1015AB0070D1121B2B121D2F8F08121A54E4F50940
:1015BB00E509C395465009AF091210FE050980F0E5
:0715CB00AF081508EF70E303
:0115D20022F6
:101AC200E4FFEFC39546501B75F002EF120D76E06E
:101AD200FCA3E0FD75F002EF120D81ECF0A3EDF036
:031AE2000F80DF93
:011AE50022DE
:101A7900E490009DF0F511E511C39546500EAF11A4
:101A89001210FEAF11120100051180EBAF41AE40FB
:041A9900AD3FAC3E73
:011A9D002226
:020100008F125C
:10010200E4F51A75F002EF120D81120E2DE51212AE
:100112000D76120E62F514EC9EF513E47F01FEFDDE
:10012200FCA912A8011209378F458E448D438C42D7
:10013200AF121219DC8E188F19C3E5149519E51840
:10014200120DA340057515018003E4F515E515644C
:1001520001600302028774252512120D96E0C394F2
:10016200FA500A74252512120D96E004F0120E0CB4
:10017200E4FBFAF9F8C3120913600302026A900061
:1001820000E0F517121D53EF6028E4F515F516E5AA
:1001920016C39546500F120D92E0C394014002051A
:1001A20015051680EAE515C394034006740F25175A
:1001B200F51774252512120D96E0C3951750030208
:1001C200026AE4F515121D37EF7051F516E516C3F4
:1001D2009546501AE51265166010121D00120D9216
:1001E200E0C39F40057515018004051680DF121DCE
:1001F20053EF7052E515704EF516E516C39546504D
:1002020045E51265166011121D00742B2516120E9B
:1002120025E0C39F4002802B051680DE121D53EF9E
:100222007024F517F516E516C39546500F120D9278
:10023200E0C3940240020517051680EAE517C3944D
:10024200034003751501E515B40102D200E54145ED
:1002520045FFE5404544FEE53F4543FDE53E454259
:100262008F418E408D3FF53E120DACE4F0120DC56C
:10027200E4F0120D87E4F0A3F0740D2512F582E488
:10028200340002045DAF12121C02120D9E400812CD
:100292000E21E004F0800B90009DE004F0120E218C
:1002A200E4F0120E76C3E49FFDE49EFCC3E5149DC8
:1002B200EC120DA34066120D9E5061120DACE412B9
:1002C2000DD3120DEB60030203CA120D87E51385ED
:1002D20014F01207D3121CEA120D87E0FCA3E0C34C
:1002E200120DBB4009120D7CE475F0018021121C35
:1002F200EAC3E49FFFE49EFE120D87E0FCA3E0C385
:10030200120DBB40030203CA120D7C74FFF5F012FA
:1003120007D3120D87E4F0A3F00203CA90004EE067
:10032200FFFD3395E0FCC3E49DFDE49CFCC3E514B2
:100332009DEC120DA3505A120DAC120DD1E4F01225
:100342000DACE0FE75F00A84E5F07037EEC39464FC
:10035200400E120DACE4F0D20190006104F0802353
:10036200120D7CC083C082E0FCA3E0FDEFA2E71384
:10037200FF3395E0FEC3ED9FFFEC9ED082D083F069
:10038200A3EFF0900096E06512703D74FFF0020357
:10039200CA120E76120D9E402F120DAC120DEB708A
:1003A20027120DD4120DD1E0B4201D120DD4E4F0A9
:1003B20090004EE0A2E713A2E713FF3395E0FE128E
:1003C2000D7CEE8FF01207D3120E0C4D4E4F7003C0
:1003D200020469E519AE187802CEA2E713CE13D84B
:1003E200F8FFC3E5199FFFE5189EFEC3120D9F504B
:1003F2006F120DC5E004F0121D3F8F17E4F516E5EC
:1004020016C39546500F120D92E0C39401400205A7
:1004120015051680EAE515C394034006900000E036
:10042200F517120DC5E0C39517407A120DC5E4F019
:10043200AF45AE44AD43AC42120906E5415FFFE56C
:10044200405EFEE53F5DFDE53E5C8F418E408D3FA7
:10045200F53E74252512F582E43400F583E4F0229A
:10046200120DC5E014F02274252512120D96120DFC
:10047200EB7005AF121213E2E54614651270269076
:10048200009DE0C39546401DE4F516E516C395466A
:10049200500D120D92E06003751501051680ECE512
:0504A200157002C2000C
:0104A7002232
:101B2B00E4FFEFC39546501875F002EF120D76E007
:101B3B00FCA3E0FDEF120DE2ECF0A3EDF00F80E261
:011B4B002277
:0210FE008F134E
:10110000EF120D63120E62F515EC9EF514AF13127B
:1011100019DCAD07AC06D3E5159DEC120E03500BA0
:10112000C3E49DFFE49C120DFD500B120D71E0FE17
:10113000A3E0FF0211A6ECA2E713FEED13FFD3120A
:101140000DFF500BC3E49FFFE49E120DFD502712CC
:101150000DE0E0FCA3E0FDECC313FEED13FFC3EDD7
:101160009FFDEC9EFC120D71E0C313FEA3E0132D56
:10117000FFEC3EFE8030120DE0E0FCA3E0FDAE048B
:101180007803CEC313CE13D8F9FFC3ED9FFDEC9EB9
:10119000FC120D71E0FEA3E07803CEC313CE13D88A
:1011A000F92DFFEC3EFE120DE0EEF0A3EFF0E5139B
:0811B000120D63EEF0A3EFF055
:0111B8002214
:031D6E00A20122AD
:031D7100D201227A
:1016C300E4FFEFC39546502B74252F120D96E4F0DB
:1016D300743D2F120DB0E4F0745B2F120DC9E4F0CA
:1016E300EF120D89E4F0A3F0742B2F120E25E4F012
:1016F3000F80CFE4F541F540F53FF53E9000967439
:0B170300FFF0E4900099F0A3F0C20199
:01170E0022B8
:020C44008F110E
:100C460090009BE0C394034035E4F0900061E070AF
:100C560022F512E512C39546501975F002E51212F7
:100C66000DE5120E2DE512120D81EEF0A3EFF00543
:100C76001280E01216C3C201E4900061F0229000D7
:100C860095E004F0E0B51108121B2BE4900096F0F5
:100C9600900095E0D395115003020D62E4F512E53C
:100CA60012C39546507A75F002E512120DE5120E42
:100CB6002DE512120D76120E62FFEC9EAD07FC902A
:100CC6000061E07029120E697802C333CE33CED8A4
:100CD600F9120DB84040E49BFFE49AFEEF7802C398
:100CE60033CE33CED8F9C3120DB9502A8032120E44
:100CF600697803C333CE33CED8F9120DB84017E462
:100D06009BFFE49AFEEF7803C333CE33CED8F9FFC8
:100D1600C3120DBA400AAF121210FE0512020CA53C
:100D2600E512B54606900096E004F0E51175F00868
:100D3600900095120E484024E4F0C20090009BE01B
:100D460004F0E51175F004900096120E48400DE48B
:0C0D560090009BF0121AC21216C3C201DA
:010D6200226E
:041B26004100660014
:101C430043D9187F0F7E0012197A9000901209561B
:051C530000000000226A
:091D2600900064E0FEA3E0FF223E
:100F7B00E4F50BF50AF509F508FBEB25E02468F51C
:100F8B0082E43400F583E0FEA3E0FFE4FCFDE50B17
:100F9B002FF50BE50A3EF50AED3509F509EC350899
:100FAB00F5080BBB14D4E4FAF9F8AF0BAE0AAD0994
:100FBB00AC0812087490009012094AE47F507EC36B
:100FCB00FDFC900090E0F8A3E0F9A3E0FAA3E0FBAE
:100FDB001207E9E4FB7A10F9F81208748F0F8E0EE2
:100FEB008D0D8C0CE47F707E17FDFCAB0FAA0EA948
:100FFB000DA80CD3120913401AE50F9470F50FE5E9
:10100B000E9417F50EE50D9400F50DE50C9400F517
:10101B000C8009E4F50FF50EF50DF50CE47B38FAB1
:10102B00F9F8AF0FAE0EAD0DAC0C12087490006258
:05103B00EEF0A3EFF050
:01104000228D
:100E8000900094E06401703DF0AFAFEF75F010A4F6
:100E9000FFE5AEC4540F7C002FFFEC35F0FE900050
:100EA00066E025E02468F582E43400F583EEF0A3E3
:100EB000EFF0900066E004F0D394144008120F7B2A
:100EC000E4900066F0900067E004F0D3949650033D
:100ED000020F7AE4F0900063E02414FF900062E0D7
:100EE0003400FED3900065E09F900064E09E4019BE
:100EF0001216767C007D1412079DC3900065E09D5C
:100F0000F0900064E09CF0800D900062E0FFA3E0B0
:100F1000A3CFF0A3EFF0C3900065E094E7900064E6
:100F2000E0940340077403F0A374E7F0900064E0DA
:100F30007002A3E070171216767C007D0512079DE3
:100F4000ED2401FEE43C900064F0A3CEF090006438
:100F5000E0FEA3E0FFD39446EE94005004755401E4
:100F600022D3EF9446EE9400400DD3EF9496EE9486
:0B0F7000005004755402227554032247
:031D7400AF542247
:10197A00EF4480F5ADC3EF9408EE9400500F740164
:10198A00A807088002C333D8FCF5AB8011EF24F80E
:10199A00FF7401A807088002C333D8FCF5AC75A808
:0219AA004022D9
:041D4F0043AD40223E
:03003300021BB9F4
:101BB900C0E0C083C08253ADDF53ADBF90009474C1
:091BC90001F0D082D083D0E0329B
:1011D300021822E493A3F8E493A34003F68001F2F8
:1011E30008DFF48029E493A3F85407240CC8C3331D
:1011F300C4540F4420C8834004F456800146F6DFEC
:10120300E4800B0102040810204080901B09E47E57
:10121300019360BCA3FF543F30E509541FFEE493E0
:10122300A360010ECF54C025E060A840B8E493A3A7
:10123300FAE493A3F8E493A3C8C582C8CAC583CAD2
:10124300F0A3C8C582C8CAC583CADFE9DEE780BE8A
:011B2A0000BA
:10073600EF8DF0A4A8F0CF8CF0A428CE8DF0A42ED7
:02074600FE2291
:10074800BC000BBE0029EF8DF084FFADF022E4CC95
:10075800F875F008EF2FFFEE33FEEC33FCEE9DEC5E
:10076800984005FCEE9DFE0FD5F0E9E4CEFD22EDA4
:10077800F8F5F0EE8420D21CFEADF075F008EF2FEE
:10078800FFED33FD4007985006D5F0F222C398FDDF
:050798000FD5F0EA227C
:10079D00C2D5EC30E709B2D5E4C39DFDE49CFCEE77
:1007AD0030E715B2D5E4C39FFFE49EFE120748C3A0
:1007BD00E49DFDE49CFC800312074830D507C3E49B
:0607CD009FFFE49EFE22E6
:1007D300C5F0F8A3E028F0C5F0F8E58215827002B1
:0607E3001583E038F0224E
:1007E900E88FF0A4CC8BF0A42CFCE98EF0A42CFCAF
:1007F9008AF0EDA42CFCEA8EF0A4CDA8F08BF0A42D
:100809002DCC3825F0FDE98FF0A42CCD35F0FCEB8B
:100819008EF0A4FEA9F0EB8FF0A4CFC5F02ECD3950
:0F082900FEE43CFCEAA42DCE35F0FDE43CFC22BD
:1008380075F008758200EF2FFFEE33FECD33CDCC77
:1008480033CCC58233C5829BED9AEC99E5829840FA
:100858000CF582EE9BFEED9AFDEC99FC0FD5F0D6D7
:10086800E4CEFBE4CDFAE4CCF9A88222B800C1B901
:100878000059BA002DEC8BF084CFCECDFCE5F0CB3F
:10088800F97818EF2FFFEE33FEED33FDEC33FCEB78
:1008980033FB10D703994004EB99FB0FD8E5E4F933
:1008A800FA227818EF2FFFEE33FEED33FDEC33FC20
:1008B800C933C910D7059BE99A4007EC9BFCE99A14
:1008C800F90FD8E0E4C9FAE4CCFB2275F010EF2F59
:1008D800FFEE33FEED33FDCC33CCC833C810D70759
:1008E8009BEC9AE899400AED9BFDEC9AFCE899F894
:0E08F8000FD5F0DAE4CDFBE4CCFAE4C8F92227
:0D090600CFF4CFCEF4CECDF4CDCCF4CC2286
:10091300EB9FF5F0EA9E42F0E99D42F0E89C45F03A
:0109230022B1
:10092400E8600FECC313FCED13FDEE13FEEF13FFB1
:03093400D8F122D5
:10093700E8600FEFC333FFEE33FEED33FDEC33FC1E
:03094700D8F122C2
:0C094A00ECF0A3EDF0A3EEF0A3EFF02220
:10095600A8828583F0D083D08212096D12096D12A8
:10096600096D12096DE473E493A3C583C5F0C583CD
:10097600C8C582C8F0A3C583C5F0C583C8C582C8EB
:01098600224E
:0C098700A42582F582E5F03583F583227B
:10167600AC4EAD4FAE50AF517810EC4D4E4F70049E
:101686007CA57DA5C3EC13FCED13FDEE13FEEF1355
:10169600FF5010EC64CCFCED644CFDEE644EFEEFA6
:1016A60064CEFFD8DF8C4E8D4F8E508F51EE547F17
:0D16B600FE228E4E8F4F74A5F550F5512287
:00000001FF
