:030000000211B931
:1011B90078FFE4F6D8FD9000007F807E01E4F0A37B
:0A11C900DFFCDEFA75815402120EFD
:10154B000000000100000005000A0BB800C8006491
:10155B0000020000000000040000FFFFFFFFFFFF80
:10156B000014013A04082A0507CF013A040827059D
:10157B0007CF013A0408270507CF013A04082705CE
:10158B0007CF013A0408270507CE013A04082805BE
:02159B0007CF78
:041A810041006100BF
:0B1C2B00901555E493FE740193FF2216
:0B1C3600901559E493FE740193FF2207
:081C8400901553740193FF2237
:031CB0007F01228F
:10195400AD07ED75F008A42473F582E43415F5831E
:10196400E493FEED75F008A42474F582E43415F5CF
:0C19740083E4937C002400FFEC3EFE2284
:101BB100EF75F008A42470F582E43415F583E493FD
:021BC100FF2201
:081C8C0090154D740193FF2235
:0D1C050074432FF582E43400F583E0FF22E4
:081C9400900000E0C313FF22E1
:0A1C4C00900000E075F00384FF2211
:101B5D00121954EF7803C333CE33CED8F9FF7C007E
:051B6D007D0A1207488B
:011B72002250
:10168700E4FBFAF50BF50AF509F508750BE0750AA1
:1016970031F509F508AF0BAE0AAD09AC08780112B0
:1016A70009248F0B8E0A8D098C0830D71374132ADF
:1016B700F582E43400F583EBF00AEAC3940650049C
:0616C7000BBB1FD18A4697
:0116CD0022FA
:1018C000EF14601214601414601814601A24047069
:1018D0001E90156D800890156E800390156FE4932F
:1018E000FF22E4FF021C0590155F740193FF227F25
:0218F0000022D4
:1016CE00901551740193900000F090156B74019376
:1016DE0090004EF0121687E4FFEFC395465020EFB0
:1016EE0075F008A42471F582E43415F583E493FEB5
:1016FE0074432FF582E43400F583EEF00F80DAE4C4
:06170E0090004CF0A3F076
:0117140022B2
:100B1E00E4F508F50CF50BF50AF509F510F50FF5EA
:100B2E000EF50D121CCB5003020C301219F18F0C66
:100B3E008E0B8D0A8C09E4FBEBC395465047AF0C28
:100B4E00AE0BAD0AAC0978011209248F0C8E0B8DF9
:100B5E000A8C0930D72CE47F01FEFDFC74132BF5B3
:100B6E0082E43400F583E0F9F8120937E5104FF509
:100B7E0010E50F4EF50FE50E4DF50EE50D4CF50D8E
:100B8E0005080B80B3E508C394024015D200E508B2
:100B9E0094034005121CCE8008121C8CEF6002C21A
:100BAE000020002CE4FFFEFDFCAB10AA0FA90EA83E
:100BBE000DC3120913601090004DE004F070069002
:100BCE00004CE004F08020E490004CF0A3F080177D
:100BDE0090004AE004F07006900049E004F0E4F55D
:100BEE0010F50FF50EF50D121C2BD390004DE09F56
:100BFE0090004CE09E400A121CCEE490004CF0A3F4
:100C0E00F0D390004AE0942C900049E09401401DEE
:100C1E00121CCE9000617401F0E4900049F0A3F034
:100C2E00800B90155BE4740193FF120C44AF10AE71
:050C3E000FAD0EAC0D2E
:010C4300228E
:03005B000218196F
:10181900C0E0C0F0C083C082C0D075D000C000C095
:1018290001C002C003C004C005C006C00712149855
:10183900D007D006D005D004D003D002D001D00003
:0B184900D0D0D082D083D0F0D0E032AD
:041A8500021C00003F
:011CD40022ED
:101924008D0CC2AF75F402850CF5E4F5F38FF275F6
:10193400F1F075F60A00000000000000000000F558
:10194400F4D2AF121B2DEFB50C037F01227F0022CE
:101B2D00C2AF75F402E51D2FF582E4351CF583E493
:071B3D0093FFE4F5F4D2AFC1
:011B4400227E
:031CB300AF53220A
:10198000E4F552539AFB439B045391BF4392404367
:10199000C114C2C2C2C475D36375D4B09007447475
:0719A00080F0A37414F02293
:041C9C0043D380228C
:041CA00053D37F2279
:0D1C12000552E552D394034003E4F552223D
:031CB600AF522208
:091C6000755301121CA8021CB905
:091C6900E4F553121CBC0217152E
:1019A7001210418F4C8E4B8D4A8C497FC07E657DCE
:1019B700527C00AB4CAA4BA94AA849C31209134051
:0519C70003754D012233
:10143C00121CB3EF6055E54DB4010C0548E548C3EB
:10144C0094034003E4F5480547E547C3940A403B41
:10145C00E4F5477FC07E657D52FCAB4CAA4BA94A94
:10146C00A849120913400BE54D7003121253754D28
:10147C000122AF4CAE4BAD4AAC49EF2401F54CE424
:0B148C003EF54BE43DF54AE43CF54919
:011497002232
:10125300AF4CAE4BAD4AAC498F0B8E0A8D098C084F
:1012630075CF10E50BFFE4AD077F0F121924AF0B09
:10127300AE0AAD09AC0878081209248F0B8E0A8DCB
:10128300098C0875CF10E50BFFE4AD077F0E12192B
:1012930024AF0BAE0AAD09AC0878081209248F0BF2
:1012A3008E0A8D098C0875CF10E50BFFE4AD077F1F
:1012B3000D121924AF0BAE0AAD09AC087808120958
:1012C300248F0B8E0A8D098C0875CF10E50BFFE474
:0712D300AD077F0C02192496
:10104100E4F50BF50AF509F50875CF107F0C121BB5
:101051002DE48F0BF50AF509F508AE0AAD09AC08C8
:1010610078081209378F0B8E0A8D098C0875CF10FD
:101071007F0D121B2DE4FCFDFEE50B2FF50BEE356C
:101081000AF50AED3509F509EC3508F508AF0BAE9F
:101091000AAD09FC78081209378F0B8E0A8D098C6D
:1010A1000875CF107F0E121B2DE4FCFDFEE50B2F02
:1010B100F50BEE350AF50AED3509F509EC3508F5BC
:1010C10008AF0BAE0AAD09FC78081209378F0B8EF9
:1010D1000A8D098C0875CF107F0F121B2DE4FCFDC2
:1010E100FEE50B2FF50BEE350AF50AED3509F5098D
:0C10F100EC3508F508AF0BAE0AAD09FCA9
:0110FD0022D0
:10188C0075CF10E4FD7F0C12192475CF10E4FD7F89
:10189C000D12192475CF10E4FD7F0E12192475CF8B
:1018AC0010E4FD7F0F121924E4F54CF54BF54AF5C5
:0418BC0049F54D227B
:0B1C410053927FC297439180021CBCAD
:031CB900D297229D
:031CBC00C29722AA
:061A890004230000000030
:101AE10090004BE0FF30E711547FF0120B1E8F2660
:0A1AF1008E258D248C23121CC822C0
:041CA4004327402270
:10099300E52654E0FFE5255431FEE4FDFCFB7A0136
:1009A300F9F8C3120913701EE52720E021052FE58E
:1009B3002F7002052EC39432E52E94004010432776
:1009C30001121BE680085327FEE4F52EF52FE526DA
:1009D30054E0FFE5255431FEE4FDFC7B80FAF9F891
:1009E300C3120913701EE52720E2390529E5297092
:1009F300020528C39488E52894134028432704124A
:100A03001CC58020D3E5299405E5289400400DE515
:100A1300299488E52894135003121CC25327FBE43E
:100A2300F528F529E52654E0FFE5255431FEE4FDDC
:100A3300FCFB7A10F9F8C3120913701EE52720E4B2
:100A4300210522E52270020521C3940AE5219400C1
:100A53004010432710121CBF80085327EFE4F521F1
:100A6300F522E52654E0FFE5255431FEE4FDFCFBC9
:100A73007A20F9F8C3120913701EE52720E1210536
:100A830031E53170020530C3940AE530940040101B
:100A9300432702121CD680085327FDE4F530F531B5
:100AA300E52654E0FFE5255431FEE4FDFC7B40FAE6
:100AB300F9F8C3120913701EE52720E321052DE57C
:100AC3002D7002052CC39488E52C94134010432702
:100AD30008121AFB80085327F7E4F52CF52DE526B9
:100AE30054E0FFE5255431FEE4FDFC7B20FAF9F8E0
:100AF300C3120913701CE52720E51F052BE52B7096
:100B030002052AC3940AE52A9400400E43272002D3
:0B0B13001CD55327DFE4F52AF52B2248
:031CBF00B29722B7
:011CD50022EC
:011CD60022EB
:101AFB00AF27EFC413135401F45401C4333354C050
:091B0B00FFE52754BF4FF5272226
:0A1C5600AF27EFC413135403132249
:031CC200021C12EF
:031CC50002188C76
:101BE600121CB3BF0106121C69021253121C60229A
:10159D0043D90753D8F8D2DAD2D9C2D84393EF43FF
:1015AD00948075A3FF439C0343B3F8E4F58F900734
:1015BD000B7408F0A37418F0A3F0A3F0A374F8F063
:1015CD00A3F0A3F0A3F0A3F0A3F0A3F07D077F0891
:1015DD001204A87D067F091204A87D057F07020469
:0115ED00A855
:101B7300121CB3EF600F121BF61213D9121BD512EE
:061B83001758121A162289
:1017150053937FD2D9D2D8D2DA90070BE054F7F0A1
:10172500A3E054E7F0A3E054E7F0A3E054E7F0A307
:10173500E05407F0A3E05407F0A3E05407F0A3E05A
:101745005407F0A3E05407F0A3E05407F0A3E054D6
:0317550007F02278
:041CA80043938022C0
:10175800121C7B8E088F097C007D641207487D0768
:101768001204A8AE08AF097C007D641207487E0009
:101778007F0ACFCDCFCECCCE1207487D061204A863
:10178800AE08AF097C007D0A120748AF057D050247
:0217980004A8A3
:101A1600121CD1EF24FE600714600B2402800ED244
:101A2600D9C2D8D2DA22D2D9D2D8C2DA22C2D9D2EF
:041A3600D8D2DA2206
:101BD500121C5690070BE0500454F7F0224408F00D
:011BE50022DD
:0F1BF600900710E03097044410F02254EFF022D3
:1013D900121CB6EF14600A146019146028240380E3
:1013E9003B900711E054EFF0A3E054EFF0A3E04481
:1013F900108022900711E054EFF0A3E04410F0A30D
:10140900E054EF8010900711E04410F0A3E054EF8E
:10141900F0A3E054EFF0A3E054EFF022900711E0BD
:1014290054EFF0A3E054EFF0A3E054EFF0A3E0444D
:0314390010F0228E
:1004A800EFB40A0040030207359004B8F82828730F
:1004B8000204D60205070205450205860205BA02AE
:1004C800060302064702068A0206C70206F29007DA
:1004D8000FE0FF7401A805088002C333D8FCFEF4BE
:1004E8005F90070FF0A3E04EF0A3E0FF7401A805AA
:1004F800088002C333D8FCFE4F9007110206E4902F
:10050800070FE0FF7401A805088002C333D8FCFE7A
:10051800F4FC5F90070FF0A3E05CF0A3E05CF0A3AD
:10052800E05CF0A3E04EF0A3E0FF7401A8050880AA
:1005380002C333D8FCFE4F9007140205F890070F4A
:10054800E0FF7401A805088002C333D8FCFE4F9071
:10055800070FF0A3E0FFEEF4FEEF5EF0A3E0FF74F8
:1005680001A805088002C333D8FCFC4F900711F09E
:10057800A3E04CF0A3E05EF0A3E04C020641900734
:100588000FE0FF7401A805088002C333D8FCFE4FB2
:1005980090070FF0A3E0FFEEF4FEEF5EF0A3E05E3D
:1005A800F0A3E0FF7401A805088002C333D8FC0259
:1005B800072390070FE0FF7401A805088002C333E2
:1005C800D8FCFE4F90070FF0A3E04EF0A3E0FFEE3B
:1005D800F4FEEF5EF0A3E05EF0A3E0FF7401A8056F
:1005E800088002C333D8FCFE4F900713F0A3E04EF7
:1005F800F0A3E0FFEEF4FEEF5EF02290070FE0FFBD
:100608007401A805088002C333D8FCFE4F90070F79
:10061800F0A3E04EF0A3E0FFEEF4FEEF5EF0A3E0FF
:10062800FF7401A805088002C333D8FCFC4F90076B
:1006380012F0A3E04CF0A3E05EF0A3E04CF02290AF
:10064800070FE0FF7401A805088002C333D8FCFE39
:100658004F90070FF0A3E04EF0A3E04EF0A3E04E5A
:10066800F0A3E04EF0A3E0FFEEF4FEEF5EF0A3E0AF
:10067800FF7401A805088002C333D8FC4F90071502
:10068800F02290070FE0FF7401A805088002C33329
:10069800D8FCFEF4FC5F90070FF0A3E05CF0A3E049
:1006A8005CF0A3E05CF0A3E04EF0A3E0FF7401A8C7
:1006B80005088002C333D8FCFE4F90071480699068
:1006C800070FE0FF7401A805088002C333D8FCFEB9
:1006D8004F90070FF0A3E04EF0A3E04EF0A3E04EDA
:1006E800F0A3E04EF0A3E04E803E90070FE0FF74C9
:1006F80001A805088002C333D8FCFE4F90070FF00D
:10070800A3E04EF0A3E0FFEEF4FEEF5EF0A3E0FFFF
:100718007401A805088002C333D8FCFE4F90071265
:0E072800F0A3E04EF0A3E04EF0A3E04EF0226E
:0B1A8F00013600C102013700013300E6
:101A5E00438E02438910758BC0758DF9C28ED2AB41
:101A6E00438E01438901758AC0758CF9C28CD2A947
:031A7E00D28C22E5
:091C7200758B80758DEED28E2277
:03000B0002185484
:10185400C0E0C0D0758A32758CFAE53BB40404D27A
:10186400DC800FE53BC394644008C2DC753B001286
:101874001C72053B0538E538C3940A4006753501EA
:08188400753800D0D0D0E0322D
:101AC40075CF1043913143B10312159D121B89D276
:0D1AD400AF121A5E121980121C41021C692B
:101B9E00120993053DE53DC3940A4006E4F53D75F3
:031BAE003C0122D5
:101B4500121AE1121B730534E534C3940A4006E406
:081B5500F534753201020E8027
:101BC300053AE53AC3940A4006E4F53A7539010249
:021BD300143CC0
:011CD70022EA
:10179A00121AC41212DA121CA4121CD41219A7C2E9
:1017AA00DB75CF10E535B40106E4F535121B9EE56D
:1017BA003CB40106E4F53C121B45E532B40106E4EB
:1017CA00F532121BC3E539B401D7E4F539121CD737
:0217DA0080CFBE
:03001B000217DCED
:1017DC00C0E0C0F0C083C082C0D075D000C000C0D3
:1017EC0001C002C003C004C005C006C007C28E12EF
:1017FC001CACD007D006D005D004D003D002D00149
:0D180C00D000D0D0D082D083D0F0D0E03218
:041A9A0041009B006C
:100D630075F00290004F120987E0FEA3E0FFE51340
:100D730075F002900019020987E51275F0029000E0
:100D830001020987E51275F00290003102098774A8
:100D9300252516F582E43400F58322D3E5149FEE6E
:100DA3006480F8E51364809822743D2512F582E48B
:100DB3003400F58322D3FFED9FEE6480F8EC64806A
:100DC3009822745B2512F582E43400F58322E00453
:100DD300F0740D2512F582E43400F58322E51375D2
:100DE300F00290004F020987E4F0FFFEFDFCAB41E7
:100DF300AA40A93FA83EC3020913FEC3E5159FEE0F
:100E03006480F8E51464809822E5415545FFE54088
:100E13005544FEE53F5543FDE53E5542FC22742B08
:100E23002512F582E43400F58322E0FEA3E0FF758A
:100E3300F002227E00900097E0FCA3E0FD1207364B
:100E43008EE78FE622A4FFE0C39FE5F06480F87489
:100E53008098227D0A120748AD037C00020736E022
:100E6300FCA3E0C39F2290004EE0FB3395E0FAEB36
:0D0E7300AE022290004EE0FF3395E0FE221B
:0C1C1F00EF4E6007EF1F70F81E80F522EA
:02135A008F1BE7
:10135C00121C0590009EEFF0AF1B121BB1EFFB901F
:10136C000098E025E0FF900097E033FE7C00120E21
:10137C0056E51B120D7E120E62EC9E500990009EDB
:10138C00E06049148036AF1B121BB1EFFB90009745
:10139C00E0FEA3E0FF7C007D07120736120E5675A7
:1013AC00F002E51B120D81E0FCA3E0D39FEC9E4004
:1013BC001B90009EE0FF647E6012EF04FF744325D7
:0C13CC001BF582E43400F583EFF0D20141
:0113D80022F2
:10149800C20390009CE0120D73E5E5F0A3E5E4F0CB
:1014A80090009CE004F0E0C39546400BE4F0900007
:1014B8004BE04480F08002D20390009CE0FF121BB6
:1014C800B1120E3690009CE0FF121C05E5E2548034
:1014D8004FF5E290009CE02413F582E43400F58394
:0A14E800E04480F5E8300302D2EE84
:0114F20022D7
:1012DA00D2AFC201E490009CF090004BF01216CEFF
:1012EA00E4FF1218C0EF2401FDE433FC7E077FD02F
:1012FA00120748900097EEF0A3EFF0E4FF121BB13B
:10130A00120E367F021218C0EFC454F0FEC006E473
:10131A00FF1218C0D0E02FF5E17F031218C0E5E2F2
:10132A0054804FF5E27F041218C0EF6008E5E254DA
:10133A00804480F5E27F011218C08FE312163B4306
:10134A00A910900013E04480F5E81214F3021A3A47
:031CC800D2EE2237
:1019CC00E4FD90004BE0547FF0D2EE90004BE02011
:1019DC00E7127FE87E03121C1F43CF100DEDC3945A
:0419EC003240E8227B
:0119F00022D4
:1014F3007508201219CCE4F509E509C39546501B7C
:10150300E509120D73120E2DE509120D81EEF0A3FC
:10151300EFF0AF0912135A050980DEAF081508EF83
:1015230070D1121AA3121C848F081219CCE4F50986
:10153300E509C395465009AF091210FE050980F06D
:07154300AF081508EF70E38B
:01154A00227E
:101A3A00E4FFEFC39546501B75F002EF120D76E0F6
:101A4A00FCA3E0FD75F002EF120D81ECF0A3EDF0BE
:031A5A000F80DF1B
:011A5D002266
:1019F100E490009DF0F511E511C39546500EAF112D
:101A01001210FEAF11120100051180EBAF41AE4083
:041A1100AD3FAC3EFB
:011A150022AE
:020100008F125C
:10010200E4F51A75F002EF120D81120E2DE51212AE
:100112000D76120E62F514EC9EF513E47F01FEFDDE
:10012200FCA912A8011209378F458E448D438C42D7
:10013200AF121219548E188F19C3E5149519E518C8
:10014200120DA340057515018003E4F515E515644C
:1001520001600302028774252512120D96E0C394F2
:10016200FA500A74252512120D96E004F0120E0CB4
:10017200E4FBFAF9F8C3120913600302026A900061
:1001820000E0F517121CB0EF6028E4F515F516E54E
:1001920016C39546500F120D92E0C394014002051A
:1001A20015051680EAE515C394034006740F25175A
:1001B200F51774252512120D96E0C3951750030208
:1001C200026AE4F515121C8CEF7051F516E516C3A0
:1001D2009546501AE51265166010121C4C120D92CB
:1001E200E0C39F40057515018004051680DF121CCF
:1001F200B0EF7052E515704EF516E516C3954650F0
:1002020045E51265166011121C4C742B2516120E50
:1002120025E0C39F4002802B051680DE121CB0EF42
:100222007024F517F516E516C39546500F120D9278
:10023200E0C3940240020517051680EAE517C3944D
:10024200034003751501E515B40102D200E54145ED
:1002520045FFE5404544FEE53F4543FDE53E454259
:100262008F418E408D3FF53E120DACE4F0120DC56C
:10027200E4F0120D87E4F0A3F0740D2512F582E488
:10028200340002045DAF12121B5D120D9E40081273
:100292000E21E004F0800B90009DE004F0120E218C
:1002A200E4F0120E76C3E49FFDE49EFCC3E5149DC8
:1002B200EC120DA34066120D9E5061120DACE412B9
:1002C2000DD3120DEB60030203CA120D87E51385ED
:1002D20014F01207D3121C36120D87E0FCA3E0C300
:1002E200120DBB4009120D7CE475F0018021121C35
:1002F20036C3E49FFFE49EFE120D87E0FCA3E0C339
:10030200120DBB40030203CA120D7C74FFF5F012FA
:1003120007D3120D87E4F0A3F00203CA90004EE067
:10032200FFFD3395E0FCC3E49DFDE49CFCC3E514B2
:100332009DEC120DA3505A120DAC120DD1E4F01225
:100342000DACE0FE75F00A84E5F07037EEC39464FC
:10035200400E120DACE4F0D20190006104F0802353
:10036200120D7CC083C082E0FCA3E0FDEFA2E71384
:10037200FF3395E0FEC3ED9FFFEC9ED082D083F069
:10038200A3EFF0900096E06512703D74FFF0020357
:10039200CA120E76120D9E402F120DAC120DEB708A
:1003A20027120DD4120DD1E0B4201D120DD4E4F0A9
:1003B20090004EE0A2E713A2E713FF3395E0FE128E
:1003C2000D7CEE8FF01207D3120E0C4D4E4F7003C0
:1003D200020469E519AE187802CEA2E713CE13D84B
:1003E200F8FFC3E5199FFFE5189EFEC3120D9F504B
:1003F2006F120DC5E004F0121C948F17E4F516E598
:1004020016C39546500F120D92E0C39401400205A7
:1004120015051680EAE515C394034006900000E036
:10042200F517120DC5E0C39517407A120DC5E4F019
:10043200AF45AE44AD43AC42120906E5415FFFE56C
:10044200405EFEE53F5DFDE53E5C8F418E408D3FA7
:10045200F53E74252512F582E43400F583E4F0229A
:10046200120DC5E014F02274252512120D96120DFC
:10047200EB7005AF1212135AE546146512702690FE
:10048200009DE0C39546401DE4F516E516C395466A
:10049200500D120D92E06003751501051680ECE512
:0504A200157002C2000C
:0104A7002232
:101AA300E4FFEFC39546501875F002EF120D76E090
:101AB300FCA3E0FDEF120DE2ECF0A3EDF00F80E2EA
:011AC3002200
:0210FE008F134E
:10110000EF120D63120E62F515EC9EF514AF13127B
:101110001954AD07AC06D3E5159DEC120E03500B28
:10112000C3E49DFFE49C120DFD500B120D71E0FE17
:10113000A3E0FF0211A6ECA2E713FEED13FFD3120A
:101140000DFF500BC3E49FFFE49E120DFD502712CC
:101150000DE0E0FCA3E0FDECC313FEED13FFC3EDD7
:101160009FFDEC9EFC120D71E0C313FEA3E0132D56
:10117000FFEC3EFE8030120DE0E0FCA3E0FDAE048B
:101180007803CEC313CE13D8F9FFC3ED9FFDEC9EB9
:10119000FC120D71E0FEA3E07803CEC313CE13D88A
:1011A000F92DFFEC3EFE120DE0EEF0A3EFF0E5139B
:0811B000120D63EEF0A3EFF055
:0111B8002214
:031CCB00A2012251
:031CCE00D201221E
:10163B00E4FFEFC39546502B74252F120D96E4F063
:10164B00743D2F120DB0E4F0745B2F120DC9E4F052
:10165B00EF120D89E4F0A3F0742B2F120E25E4F09A
:10166B000F80CFE4F541F540F53FF53E90009674C1
:0B167B00FFF0E4900099F0A3F0C20122
:011686002241
:020C44008F110E
:100C460090009BE0C394034035E4F0900061E070AF
:100C560022F512E512C39546501975F002E51212F7
:100C66000DE5120E2DE512120D81EEF0A3EFF00543
:100C76001280E012163BC201E4900061F02290005F
:100C860095E004F0E0B51108121AA3E4900096F07E
:100C9600900095E0D395115003020D62E4F512E53C
:100CA60012C39546507A75F002E512120DE5120E42
:100CB6002DE512120D76120E62FFEC9EAD07FC902A
:100CC6000061E07029120E697802C333CE33CED8A4
:100CD600F9120DB84040E49BFFE49AFEEF7802C398
:100CE60033CE33CED8F9C3120DB9502A8032120E44
:100CF600697803C333CE33CED8F9120DB84017E462
:100D06009BFFE49AFEEF7803C333CE33CED8F9FFC8
:100D1600C3120DBA400AAF121210FE0512020CA53C
:100D2600E512B54606900096E004F0E51175F00868
:100D3600900095120E484024E4F0C20090009BE01B
:100D460004F0E51175F004900096120E48400DE48B
:0C0D560090009BF0121A3A12163BC201EA
:010D6200226E
:041A9E00410066009D
:101B890043D9187F0F7E001218F29000901209565F
:051B9900000000002225
:091C7B00900064E0FEA3E0FF22EA
:100F7B00E4F50BF50AF509F508FBEB25E02468F51C
:100F8B0082E43400F583E0FEA3E0FFE4FCFDE50B17
:100F9B002FF50BE50A3EF50AED3509F509EC350899
:100FAB00F5080BBB14D4E4FAF9F8AF0BAE0AAD0994
:100FBB00AC0812087490009012094AE47F507EC36B
:100FCB00FDFC900090E0F8A3E0F9A3E0FAA3E0FBAE
:100FDB001207E9E4FB7A10F9F81208748F0F8E0EE2
:100FEB008D0D8C0CE47F707E17FDFCAB0FAA0EA948
:100FFB000DA80CD3120913401AE50F9470F50FE5E9
:10100B000E9417F50EE50D9400F50DE50C9400F517
:10101B000C8009E4F50FF50EF50DF50CE47B38FAB1
:10102B00F9F8AF0FAE0EAD0DAC0C12087490006258
:05103B00EEF0A3EFF050
:01104000228D
:100E8000900094E06401703DF0AFAFEF75F010A4F6
:100E9000FFE5AEC4540F7C002FFFEC35F0FE900050
:100EA00066E025E02468F582E43400F583EEF0A3E3
:100EB000EFF0900066E004F0D394144008120F7B2A
:100EC000E4900066F0900067E004F0D3949650033D
:100ED000020F7AE4F0900063E02414FF900062E0D7
:100EE0003400FED3900065E09F900064E09E4019BE
:100EF0001215EE7C007D1412079DC3900065E09DE5
:100F0000F0900064E09CF0800D900062E0FFA3E0B0
:100F1000A3CFF0A3EFF0C3900065E094E7900064E6
:100F2000E0940340077403F0A374E7F0900064E0DA
:100F30007002A3E070171215EE7C007D0512079D6C
:100F4000ED2401FEE43C900064F0A3CEF090006438
:100F5000E0FEA3E0FFD39446EE94005004755401E4
:100F600022D3EF9446EE9400400DD3EF9496EE9486
:0B0F7000005004755402227554032247
:031CD100AF5422EB
:1018F200EF4480F5ADC3EF9408EE9400500F7401ED
:10190200A807088002C333D8FCF5AB8011EF24F896
:10191200FF7401A807088002C333D8FCF5AC75A890
:02192200402261
:041CAC0043AD4022E2
:03003300021B1499
:101B1400C0E0C083C08253ADDF53ADBF9000947466
:091B240001F0D082D083D0E03240
:1011D30002179AE493A3F8E493A34003F68001F281
:1011E30008DFF48029E493A3F85407240CC8C3331D
:1011F300C4540F4420C8834004F456800146F6DFEC
:10120300E4800B0102040810204080901A81E47EE0
:10121300019360BCA3FF543F30E509541FFEE493E0
:10122300A360010ECF54C025E060A840B8E493A3A7
:10123300FAE493A3F8E493A3C8C582C8CAC583CAD2
:10124300F0A3C8C582C8CAC583CADFE9DEE780BE8A
:011AA2000043
:10073600EF8DF0A4A8F0CF8CF0A428CE8DF0A42ED7
:02074600FE2291
:10074800BC000BBE0029EF8DF084FFADF022E4CC95
:10075800F875F008EF2FFFEE33FEEC33FCEE9DEC5E
:10076800984005FCEE9DFE0FD5F0E9E4CEFD22EDA4
:10077800F8F5F0EE8420D21CFEADF075F008EF2FEE
:10078800FFED33FD4007985006D5F0F222C398FDDF
:050798000FD5F0EA227C
:10079D00C2D5EC30E709B2D5E4C39DFDE49CFCEE77
:1007AD0030E715B2D5E4C39FFFE49EFE120748C3A0
:1007BD00E49DFDE49CFC800312074830D507C3E49B
:0607CD009FFFE49EFE22E6
:1007D300C5F0F8A3E028F0C5F0F8E58215827002B1
:0607E3001583E038F0224E
:1007E900E88FF0A4CC8BF0A42CFCE98EF0A42CFCAF
:1007F9008AF0EDA42CFCEA8EF0A4CDA8F08BF0A42D
:100809002DCC3825F0FDE98FF0A42CCD35F0FCEB8B
:100819008EF0A4FEA9F0EB8FF0A4CFC5F02ECD3950
:0F082900FEE43CFCEAA42DCE35F0FDE43CFC22BD
:1008380075F008758200EF2FFFEE33FECD33CDCC77
:1008480033CCC58233C5829BED9AEC99E5829840FA
:100858000CF582EE9BFEED9AFDEC99FC0FD5F0D6D7
:10086800E4CEFBE4CDFAE4CCF9A88222B800C1B901
:100878000059BA002DEC8BF084CFCECDFCE5F0CB3F
:10088800F97818EF2FFFEE33FEED33FDEC33FCEB78
:1008980033FB10D703994004EB99FB0FD8E5E4F933
:1008A800FA227818EF2FFFEE33FEED33FDEC33FC20
:1008B800C933C910D7059BE99A4007EC9BFCE99A14
:1008C800F90FD8E0E4C9FAE4CCFB2275F010EF2F59
:1008D800FFEE33FEED33FDCC33CCC833C810D70759
:1008E8009BEC9AE899400AED9BFDEC9AFCE899F894
:0E08F8000FD5F0DAE4CDFBE4CCFAE4C8F92227
:0D090600CFF4CFCEF4CECDF4CDCCF4CC2286
:10091300EB9FF5F0EA9E42F0E99D42F0E89C45F03A
:0109230022B1
:10092400E8600FECC313FCED13FDEE13FEEF13FFB1
:03093400D8F122D5
:10093700E8600FEFC333FFEE33FEED33FDEC33FC1E
:03094700D8F122C2
:0C094A00ECF0A3EDF0A3EEF0A3EFF02220
:10095600A8828583F0D083D08212096D12096D12A8
:10096600096D12096DE473E493A3C583C5F0C583CD
:10097600C8C582C8F0A3C583C5F0C583C8C582C8EB
:01098600224E
:0C098700A42582F582E5F03583F583227B
:1015EE00AC4EAD4FAE50AF517810EC4D4E4F700427
:1015FE007CA57DA5C3EC13FCED13FDEE13FEEF13DE
:10160E00FF5010EC64CCFCED644CFDEE644EFEEF2E
:10161E0064CEFFD8DF8C4E8D4F8E508F51EE547F9F
:0D162E00FE228E4E8F4F74A5F550F551220F
:00000001FF
