:0300000002115F8B
:10115F0078FFE4F6D8FD9000007F807E01E4F0A3D5
:0A116F00DFFCDEFA7581690211B49D
:101A0A0000000001000A0005000A0BB800C80064C3
:101A1A0000020000000000040000FFFFFFFFFFFFBC
:101A2A000014013A04080F05004F013A04080E0594
:101A3A000043013A04080D050046013A04080F055F
:101A4A0000B6013A04080E0500B3013A04080D0570
:021A5A00006624
:0420DA004100610060
:0B232C00901A14E493FE740193FF224A
:0B233700901A18E493FE740193FF223B
:0823B000901A12740193FF2240
:03241B007F01221C
:101E9200AD07ED75F008A42432F582E4341AF58317
:101EA200E493FEED75F008A42433F582E4341AF5C8
:0C1EB20083E4937C002400FFEC3EFE2241
:10225D00EF75F008A4242FF582E4341AF583E49386
:02226D00FF224E
:0823B800901A0C740193FF223E
:0D22E10074432FF582E43400F583E0FF2202
:0823C000900000E0C313FF22AE
:0A236E00900000E075F00384FF22E8
:1021DE00121E92EF7803C333CE33CED8F9FF7C00B4
:0521EE007D0A12078BC1
:0121F30022C9
:101AF500E4FBFAF528F527F526F5257528E0752781
:101B050031F526F525AF28AE27AD26AC257801128F
:101B150009678F288E278D268C2530D71374132AB5
:101B2500F582E43400F583EBF00AEAC39406500429
:061B35000BBB1FD18A5218
:011B3B002287
:101DFE00EF14601214601414601814601A24047026
:101E0E001E901A2C8008901A2D8003901A2EE4939F
:101E1E00FF22E4FF0222E1901A1E740193FF227F3B
:021E2E00002290
:101B3C00901A10740193900000F0901A2A7401937B
:101B4C0090004EF0121AF5E4FFEFC395525020EFBF
:101B5C0075F008A42430F582E4341AF583E493FE7E
:101B6C0074432FF582E43400F583EEF00F80DAE451
:061B7C0090004CF0A3F004
:011B82002240
:100B2400E4F521F525F524F523F522F529F528F535
:100B340027F5261224395003020C36121FD38F25B1
:100B44008E248D238C22E4FBEBC395525047AF25B2
:100B5400AE24AD23AC2278011209678F258E248D33
:100B6400238C2230D72CE47F01FEFDFC74132BF57B
:100B740082E43400F583E0F9F812097AE5294FF5A7
:100B840029E5284EF528E5274DF527E5264CF526D9
:100B940005210B80B3E521C394024015D200E52161
:100BA4009403400512243C80081223B8EF6002C26B
:100BB4000020002CE4FFFEFDFCAB29AA28A927A8ED
:100BC40026C3120956601090004DE004F0700690A0
:100BD400004CE004F08020E490004CF0A3F0801777
:100BE40090004AE004F07006900049E004F0E4F557
:100BF40029F528F527F52612232CD390004DE09FE4
:100C040090004CE09E400A12243CE490004CF0A377
:100C1400F0D390004AE0942C900049E09401401DE8
:100C240012243C9000617401F0E4900049F0A3F0B8
:100C3400800B901A1AE4740193FF120C4AAF29AE88
:050C440028AD27AC26DD
:010C49002288
:03005B00021C4A3A
:101C4A00C0E0C0F0C083C082C0D075D000C000C060
:101C5A0001C002C003C004C005C006C0071218AB09
:101C6A00D007D006D005D004D003D002D001D000CE
:0B1C7A00D0D0D082D083D0F0D0E03278
:0420DE00021C0000E0
:012451002268
:101E62008D29C2AF75F4028529F5E4F5F38FF27579
:101E7200F1F075F60A00000000000000000000F515
:101E8200F4D2AF1221AFEFB529037F01227F0022E6
:1021AF00C2AF75F402E51D2FF582E4351CF583E40B
:0721BF0093FFE4F5F4D2AF39
:0121C60022F6
:03241E00AF4322A7
:101F3D00E4F542539AFB439B0443C114C2C2C2C48D
:101F4D0075D3E875D4B39007447480F0A37414F07E
:061F5D001221648F4422F2
:0E22D30075CF10AD427F14121E628542442268
:1021640075CF107F141221AFEF6401600BEF64028E
:082174006006BF0301227F0099
:01217C002240
:1020F600D2C49000A2E4F0A304F0900744E0448028
:0C210600F0A3E0F0E49000A0F0A3F022B1
:0D22EE000542E542D394034003E4F542228B
:03242100AF4222A5
:10130A0012241EEF640170419000A0E0547FFEA3F6
:10131A00E0FFA3E0FCA3E0FD6F7002EC6E6066D311
:10132A00ED9FEC9E40109000A1E004F07016900032
:10133A00A0E004F0800E9000A1E024FFF09000A04D
:10134A00E034FFF09000A0801BD39000A3E094004B
:10135A009000A2E09400401BA3E024FFF09000A2BA
:10136A00E034FFF0E04480FFA3E0900744CFF0A30D
:10137A00EFF022E49000A2F0A3F0900744E0547F3B
:06138A00F0C2C2C2C42241
:10217D00AF8CEFFEAD8A7C00E42DF546EC3EF545C7
:09218D00E4F58CF58A7549012284
:1010C40012241EEF700302115EE549700302115EE3
:1010D400E4F549854547854648E54214602914608E
:1010E4002B14602D2403702C12243FEF24FE600F78
:1010F40014600E14600D14600C24047017800880B2
:101104000B800E80078005121494800812139080BF
:1011140003121412E541D394164011754114900042
:10112400A3E004F070069000A2E004F0E541C3944B
:101134001250117541149000A3E024FFF09000A216
:10114400E034FFF0D39000A3E094209000A2E09458
:0B1154000340077403F0A37420F02296
:10149400C3E546945FE5459400502EC3E546943277
:1014A400E54594005002802CC3E5469446E54594F6
:1014B400005004740A803FC39000A3E09466900037
:1014C400A2E09400504A054122D3E54694FAE5454A
:1014D4009400400A9000A2E4F0A3745CF022D3E5E7
:1014E400469466E54594004024D3E5469482E54558
:1014F4009400400774F62541F54122D39000A3E0FF
:1015040094529000A2E094004006154122754114C3
:0115140022B4
:10139000C3E546942AE5459401502EC3E54694FAE8
:1013A000E54594005002802CC3E546940EE5459433
:1013B000015004740A8040C39000A3E094C59000DB
:1013C000A2E09401504B054122D3E54694C2E54585
:1013D0009401400B9000A27401F0A374BBF022D3DF
:1013E000E546942EE54594014024D3E546944AE52C
:1013F000459401400774F62541F54122D39000A39E
:10140000E094B19000A2E09401400615412275419C
:021410001422A4
:10141200C3E5469406E5459402502EC3E54694D6AC
:10142200E54594015002802CC3E54694EAE54594D3
:10143200015004740A8040C39000A3E094B5900068
:10144200A2E09402504B054122D3E546949EE54525
:101452009402400B9000A27402F0A374ABF022D36A
:10146200E546940AE54594024024D3E5469426E5F0
:10147200459402400774F62541F54122D39000A31A
:10148200E094A19000A2E094024006154122754129
:02149200142222
:0F22B5009000A3E004F070069000A2E004F02275
:0F22C4009000A3E024FFF09000A2E034FFF0228E
:10169400C3E54694C6E5459400502CC3E5469496AC
:1016A400E5459400500F9000A3E02414F09000A2AC
:1016B400E03400F022C3E54694AAE54594005004C2
:1016C400740A8035054122D3E54694FAE545940031
:1016D400400F9000A3E024ECF09000A2E034FFF06F
:1016E40022D3E54694CAE54594004015D3E54694D3
:1016F400E6E5459400400774F62541F5412215417D
:051704002275411422D2
:10170900C3E546948EE5459401502CC3E546945EA5
:10171900E5459401500F9000A3E02414F09000A235
:10172900E03400F022C3E5469472E5459401500483
:10173900740A8035054122D3E54694C2E5459401F2
:10174900400F9000A3E024ECF09000A2E034FFF0F9
:1017590022D3E5469492E54594014015D3E5469494
:10176900AEE5459401400774F62541F5412215413E
:0517790022754114225D
:1021C7007543011224521224241220F6C2DB122373
:0721D700428544420222FB95
:10211200E4F543122427E4FF122448122417121B69
:0C21220083D2DB12234212128302234DF1
:101F8900120F4C8F588E578D568C557F007EBA7D17
:101F9900DB7C00AB58AA57A956A855C3120956406D
:051FA90003755901223F
:1017EC0012241EEF605AE559B4010C0554E554C39C
:1017FC0094034003E4F5540553E553C3940A403B6A
:10180C00E4F553FF7EBA7DDBFCAB58AA57A956A86A
:10181C0055120956400CE559700312128375590183
:10182C008019AF58AE57AD56AC55EF2401F558E4BE
:10183C003EF557E43DF556E43CF555AF5912238C73
:01184C002279
:10128300AF58AE57AD56AC558F288E278D268C257B
:1012930075CF10E528FFE4AD077F0F121E62AF285C
:1012A300AE27AD26AC2578081209678F288E278DC7
:1012B300268C2575CF10E528FFE4AD077F0E121E9F
:1012C30062AF28AE27AD26AC2578081209678F28B0
:1012D3008E278D268C2575CF10E528FFE4AD077F7B
:1012E3000D121E62AF28AE27AD26AC257808120971
:1012F300678F288E278D268C2575CF10E528FFE470
:07130300AD077F0C021E6222
:100F4C00E4F528F527F526F52575CF107F0C122131
:100F5C00AFE48F28F527F526F525AE27AD26AC2571
:100F6C00780812097A8F288E278D268C2575CF103C
:100F7C007F0D1221AFE4FCFDFEE5282FF528EE35A0
:100F8C0027F527ED3526F526EC3525F525AF28AECA
:100F9C0027AD26FC780812097A8F288E278D268C8F
:100FAC002575CF107F0E1221AFE4FCFDFEE5282F36
:100FBC00F528EE3527F527ED3526F526EC3525F504
:100FCC0025AF28AE27AD26FC780812097A8F288E1B
:100FDC00278D268C2575CF107F0F1221AFE4FCFDD9
:100FEC00FEE5282FF528EE3527F527ED3526F526D5
:0C0FFC00EC3525F525AF28AE27AD26FC0E
:0110080022C5
:101D630075CF10E4FD7F0C121E6275CF10E4FD7F6A
:101D73000D121E6275CF10E4FD7F0E121E6275CF29
:101D830010E4FD7F0F121E62E4F558F557F556F582
:041D930055F5592287
:0623F70043C1200224276F
:03242400C2C5220C
:03242700D2C522F9
:0620E200040A00000000EA
:101D970090004BE0FF30E72B547FF0120B248F0DA0
:101DA7008E0C8D0B8C0AE50D54E0FFE50C5431FECB
:101DB700E4FDFCFBFAF9F8C312095660031223424B
:041DC700122436228A
:0623FD00530EBF02234253
:0B2342009000A6120999000000002284
:1004A8007F207EBF7D027C009000A6E0F8A3E0F9E3
:1004B800A3E0FAA3E0FBC31209564005430E4080AF
:1004C8002512241EBF011F9000A6E0FCA3E0FDA397
:1004D800E0FEA3E02401FFE43EFEE43DFDE43CFC35
:1004E8009000A612098DE50D54E0FFE50C5431FE8D
:1004F800E4FDFCFB7A01F9F8C31209567026E51BE6
:1005080020E021E50E20E61C20E0500518E51870D3
:10051800020517C39488E5179413403F430E011250
:1005280023E08037E50D54E0FFE50C5431FEE4FD8F
:10053800FCFBFAF9F8C31209567018D3E51894327F
:10054800E5179400400DE5189488E51794135003B7
:10055800122220530EFEE4F517F51812241EEF7030
:1005680003020778E50D54E0FFE50C5431FEE4FD85
:10057800FC7B807A01F9F8C31209567030E50E2029
:10058800E62B20E12820E42520E52220E31F20E7B0
:100598003E0514E51470020513C39432E513940064
:1005A800402D430E80431B011223588022E50D5431
:1005B80080FFE50C5401FEE4FDFCFBFAF9F8C312D8
:1005C80009567003531BFE530E7FE4F513F514E52B
:1005D8000D54E0FFE50C5431FEE4FDFC7B80FAF994
:1005E800F8C31209567026E51B20E021E50E20E627
:1005F8001C20E2330510E5107002050FC39432E5A4
:100608000F94004022430E041223D8801AE50D549B
:1006180080FFE4FEFDFCFBFAF9F8C31209567007E7
:10062800530EFBF50FF510E50D54E0FFE50C5431C2
:10063800FEE4FDFCFB7A10F9F8C31209567021E5B7
:100648000E20E61C20E4340509E50970020508C3FC
:100658009432E50894004023430E101223F0801BC7
:10066800E4FFE50C5410FEE4FDFCFBFAF9F8C312B4
:1006780009567007530EEFF508F509E50D54E0FF2C
:10068800E50C5431FEE4FDFCFB7A20F9F8C31209AD
:10069800567021E50E20E61C20E134051AE51A7093
:1006A800020519C39432E51994004023430E02123F
:1006B80023D0801BE4FFE50C5420FEE4FDFCFBFA8C
:1006C800F9F8C31209567007530EFDF519F51AE526
:1006D8000D54E0FFE50C5431FEE4FDFC7B40FAF9D3
:1006E800F8C3120956701EE50E20E3330516E51609
:1006F80070020515C39488E51594134022430E082B
:1007080012242A801AE50D5440FFE4FEFDFCFBFA92
:10071800F9F8C31209567007530EF7F515F516E5E3
:100728000D54E0FFE50C5431FEE4FDFC7B20FAF9A2
:10073800F8C3120956701FE50E20E61A20E53105A8
:1007480012E51270020511C39432E511940040209D
:10075800430E200223C8E50D5420FFE4FEFDFCFBF8
:10076800FAF9F8C31209567007530EDFF511F5129E
:01077800225E
:0723F000B2C57F0A022409B7
:0B234D00530EBF1223427F0A02240936
:0823C8001222817F0A022409A0
:0823D00012226F7F0A022409AA
:0B2358001222EE1222D37F0A02240999
:03242A0002234D3D
:0A237800AF0EEFC413135401FF224F
:0823D8001222EE7F0A02240923
:0823E000121D637F0A022409AB
:102220007F0A12240912241EBF0106122112021273
:05223000831221C7220A
:1020800043D90743A17FD2A6D2A5D2A443B1F84336
:0E209000C1C3439A624391C0121B83021FF822
:10212E0012241EEF6015122395121F15121D2D126B
:0C213E0023081219B6121EEA121CF62229
:1020610012241EEF7018055CE55CC394C84003E4BC
:0F207100F55CE55BC3955C4003C2B322D2B3229A
:101F630012241EEF701FE55AB40104055B800215AD
:101F73005BE55BC394C84003E4F55AE55BD3941473
:061F83005003755A012213
:09238C00BF0103C2DA22D2DA22F9
:101B8300D2A5D2A4D2A6D281D2D9D2D8D286D28596
:101B9300D2C0D2DAD296D297D2A0D2A1D2A2D2A365
:101BA300D2B6D2C6D2C7D2B5D2B4D2C1D2B7D2B3CB
:101BB300E4FD7F6E12214AE4FD7F6C12214AE4FDAD
:051BC3007F6A02214AC7
:101BC800C2A5C2A4C2A6C281C2D9C2D8C286C285D1
:101BD800C2DAC296C2A1C2A2C2A3C2B6C2C6C2C754
:101BE800C2B5C2C1C2C0C2B4C2B7C2B3C297C2A052
:101BF8007DFF7F6E12214A7DFF7F6C12214A7DFF97
:051C08007F6A02214A81
:0D22FB00C2C0C2B4C2B7C2B3C297C2A02213
:012452002267
:1019B6001223A78E218F227C007D6412078B1219B9
:1019C60006AD077F6E12214AAE21AF227C007D64F0
:1019D60012078B7E007F0ACFCDCFCECCCE12078BDF
:1019E600121906AD077F6C12214AAE21AF227C0088
:1019F6007D0A12078BAF05121906AD077F6A122101
:031A06004AC28150
:011A090022BA
:101CF60012244EEF24FE600E1460111460172403A4
:101D0600701CC2D9801AD2D9C2D88016D2D9D2D8DC
:101D1600C286D28522D2D9D2D8D286C28522D2D93B
:071D2600D2D8D286D285223B
:101F150012244BEF24FE600B14600F24027012C2D2
:101F2500A18010D2A1C2A2D2A322D2A1D2A2C2A3C1
:081F350022D2A1D2A2D2A32204
:101EEA0012243FEF24FE60111460121460042403CC
:101EFA008012C2A5C2A4D2A622C2A58002D2A5D2AD
:0B1F0A00A4C2A622C2A5D2A4D2A62227
:0C230800122378EF7003D2C122C2C12260
:0923950020C503C29622D2962253
:101D2D00122421EF14600E14601114601724037037
:101D3D001CC2B5801AD2B5C2B68016D2B5D2B6C203
:101D4D00C6D2C722D2B5D2B6D2C6C2C722D2B5D25A
:061D5D00B6D2C6D2C72277
:10190600EFB40A00504D901913F8282873021931C4
:1019160002193502193902193D0219410219450207
:10192600194902194D0219510219557ED780267E92
:101936001480227ECD801E7E5D801A7E1E80167EDD
:101946005B80127EDB800E7E15800A7EDF80067E3F
:071956005F8002E4FEAF0612
:01195D002267
:101FF800439A0143A180E4FFFE75CF100FBF000193
:102008000EBE1FF5BF40F21223ED1224307D057F6E
:042018004802214A0F
:10214A008F258D261221F4AF25121CBE121DCBAF8E
:0A215A0026121CBE121DCB02220A41
:0B236300EF700453A17F2243A18022F1
:0B231400E4FEEEC39F5004000E80F7B3
:01231F00229B
:101DCB007F05122314D280122314C280E4FF122346
:101DDB006330A7130527E527C394F040F4E4F527F8
:101DEB00B2C57F011223637F01122363C2807F057B
:031DFB00022314AC
:101CBE008F281223E8E4F527E5285480D3940040BA
:101CCE000A1224307F0512231480031224331224A7
:101CDE002D1223E8E52825E0F5280527E527C394EE
:081CEE000840D57F0502231414
:1021F40012243012242D7F051223141224331223A7
:06220400E87F050223142F
:10220A0012243312242D7F05122314122430122390
:06221A00E87F0502231419
:03242D00D2802238
:0523E8007F0512231423
:0323ED00C2802289
:03243000D2A7220E
:03243300C2A7221B
:0520E800013800C102F7
:101EBE00438E02438910758BC0758DF9C28ED2ABDD
:101ECE00438E04E4F5C9F5C875CBFA75CA32C2CA99
:0C1EDE00D2ADD2CA438905C2A9D28C2221
:09239E00758B80758DEED28E2244
:03000B0002245379
:012453003256
:03002B00021515A6
:10151500C0E0C0F0C083C082C0D075D000C000C09C
:1015250001C002C003C004C005C006C007C2CFE5A4
:101535003EB40404D2DC800FE53EC394644008C287
:10154500DC753E0012239E053E0539E539C3940A34
:101555004006753701753900053DE53D7002053CCE
:10156500C39410E53C94274009753C00753D001275
:10157500217D122061D007D006D005D004D003D03C
:1015850002D001D000D0D0D082D083D0F0D0E032CC
:10177E0075CF1043913143B1031220801220BCD299
:10178E00AF121EBE121F3D1223F7122382121595A1
:10179E001223FD122451121F891224131222A51294
:1017AE001BC8E4F524F523F522F5217F807E387DD4
:1017BE00017C00AB24AA23A922A821C312095650EA
:1017CE001A75CF10E5242401F524E43523F523E41E
:0E17DE003522F522E43521F52180D0022112BA
:10224A001204A80540E540C3940A4006E4F5407527
:03225A003F01221F
:10209E00121D970536E536C3940A4006E4F53675EB
:0E20AE0035011209D612130A122293021F6383
:10223500053BE53BC3940A4006E4F53B753A0112BC
:0522450017EC02212E40
:062403001211F902184D50
:101C850012177E75CF10E537B40106E4F537122239
:101C95004AE53FB40106E4F53F12209EE535B4015F
:101CA50006E4F535122235E53AB40106E4F53A12B3
:091CB50024031210C4B28080CA9D
:03001B00021C0DB7
:101C0D00C0E0C0F0C083C082C0D075D000C000C09D
:101C1D0001C002C003C004C005C006C007C28E12B9
:101C2D00240FD007D006D005D004D003D002D001A8
:0D1C3D00D000D0D0D082D083D0F0D0E032E3
:0420ED0041009D0011
:100D690075F00290004F1209CAE0FEA3E0FFE52CDE
:100D790075F0029000190209CAE52B75F00290007E
:100D8900010209CAE52B75F0029000310209CA7403
:100D990025252FF582E43400F58322D3E52D9FEE36
:100DA9006480F8E52C64809822743D252BF582E453
:100DB9003400F58322D3FFED9FEE6480F8EC648064
:100DC9009822745B252BF582E43400F58322E00434
:100DD900F0740D252BF582E43400F58322E52C759A
:100DE900F00290004F0209CAE4F0FFFEFDFCAB4D92
:100DF900AA4CA94BA84AC3020956FEC3E52E9FEE89
:100E09006480F8E52D64809822E54D5551FFE54C45
:100E19005550FEE54B554FFDE54A554EFC22742BC6
:100E2900252BF582E43400F58322E0FEA3E0FF756B
:100E3900F002227E00900099E0FCA3E0FD12077900
:100E49008EE78FE622A4FFE0C39FE5F06480F87483
:100E59008098227D0A12078BAD037C00020779E096
:100E6900FCA3E0C39F2290004EE0FB3395E0FAEB30
:0D0E7900AE022290004EE0FF3395E0FE2215
:0C232000EF4E6007EF1F70F81E80F522E2
:021615008F3410
:101617001222E19000ABEFF0AF3412225DEFFB90A6
:10162700009AE025E0FF900099E033FE7C00120E5F
:101637005CE534120D84120E68EC9E50099000ABE5
:10164700E06049148036AF3412225DEFFB900099B9
:10165700E0FEA3E0FF7C007D07120779120E5C75A0
:10166700F002E534120D87E0FCA3E0D39FEC9E4027
:101677001B9000ABE0FF647E6012EF04FF7443250C
:0C16870034F582E43400F583EFF0D2016A
:011693002234
:1018AB00C20390009EE0120D79E5E5F0A3E5E4F0AC
:1018BB0090009EE004F0E0C39552400BE4F09000E2
:1018CB004BE04480F08002D20390009EE0FF122296
:1018DB005D120E3C90009EE0FF1222E1E5E2548087
:1018EB004FF5E290009EE02413F582E43400F5837B
:0A18FB00E04480F5E8300302D2EE6D
:0119050022BF
:10159500D2AFC201E490009EF090004BF0121B3CCC
:1015A500E4FF121DFEEF2401FDE433FC7E077FD02E
:1015B50012078B900099EEF0A3EFF0E4FF12225D85
:1015C500120E3C7F02121DFEEFC454F0FEC006E46D
:1015D500FF121DFED0E02FF5E17F03121DFEE5E2AF
:1015E50054804FF5E27F04121DFEEF6008E5E254DA
:1015F500804480F5E27F01121DFE8FE3121AA94394
:10160500A910900013E04480F5E812195E02201C31
:03243600D2EE22C1
:101FAE00E4FD90004BE0547FF0D2EE90004BE02029
:101FBE00E7127FE87E0312232043CF100DEDC3946A
:041FCE003240E82293
:011FD20022EC
:10195E00752520121FAEE4F526E526C39552501BC1
:10196E00E526120D79120E33E526120D87EEF0A341
:10197E00EFF0AF26121615052680DEAF251525EFE2
:10198E0070D11220401223B08F25121FAEE4F5261F
:10199E00E526C395525009AF26121009052680F090
:0719AE00AF251525EF70E3E2
:0119B500220F
:10201C00E4FFEFC39552501B75F002EF120D7CE0FC
:10202C00FCA3E0FD75F002EF120D87ECF0A3EDF0D0
:03203C000F80DF33
:01203F00227E
:101FD300E490009FF0F52AE52AC39552500EAF2AEC
:101FE300121009AF2A120100052A80EBAF4DAE4C47
:041FF300AD4BAC4AFC
:011FF70022C7
:020100008F2B43
:10010200E4F53375F002EF120D87120E33E52B1270
:100112000D7C120E68F52DEC9EF52CE47F01FEFDA0
:10012200FCA92BA80112097A8F518E508D4F8C4E4B
:10013200AF2B121E928E318F32C3E52D9532E531EF
:10014200120DA94005752E018003E4F52EE52E64FB
:100152000160030202877425252B120D9CE0C394D3
:10016200FA500A7425252B120D9CE004F0120E128F
:10017200E4FBFAF9F8C3120956600302026A90001E
:1001820000E0F53012241BEF6028E4F52EF52FE590
:100192002FC39552500F120D98E0C39401400205EF
:1001A2002E052F80EAE52EC394034006740F2530F6
:1001B200F5307425252B120D9CE0C39530500302B7
:1001C200026AE4F52E1223B8EF7051F52FE52FC322
:1001D2009552501AE52B652F601012236E120D985E
:1001E200E0C39F4005752E018004052F80DF122495
:1001F2001BEF7052E52E704EF52FE52FC39552502E
:1002020045E52B652F601112236E742B252F120EDC
:100212002BE0C39F4002802B052F80DE12241BEFB0
:100222007024F530F52FE52FC39552500F120D981B
:10023200E0C3940240020530052F80EAE530C39402
:10024200034003752E01E52EB40102D200E54D45AF
:1002520051FFE54C4550FEE54B454FFDE54A454E05
:100262008F4D8E4C8D4BF54A120DB2E4F0120DCB30
:10027200E4F0120D8DE4F0A3F0740D252BF582E469
:10028200340002045DAF2B1221DE120DA4400812CD
:100292000E27E004F0800B90009FE004F0120E277E
:1002A200E4F0120E7CC3E49FFDE49EFCC3E52D9DA9
:1002B200EC120DA94066120DA45061120DB2E412A7
:1002C2000DD9120DF160030203CA120D8DE52C85C2
:1002D2002DF0120816122337120D8DE0FCA3E0C395
:1002E200120DC14009120D82E475F0018021122322
:1002F20037C3E49FFFE49EFE120D8DE0FCA3E0C332
:10030200120DC140030203CA120D8274FFF5F012EE
:100312000816120D8DE4F0A3F00203CA90004EE01D
:10032200FFFD3395E0FCC3E49DFDE49CFCC3E52D99
:100332009DEC120DA9505A120DB2120DD7E4F01213
:100342000DB2E0FE75F00A84E5F07037EEC39464F6
:10035200400E120DB2E4F0D20190006104F080234D
:10036200120D82C083C082E0FCA3E0FDEFA2E7137E
:10037200FF3395E0FEC3ED9FFFEC9ED082D083F069
:10038200A3EFF0900098E0652B703D74FFF002033C
:10039200CA120E7C120DA4402F120DB2120DF17072
:1003A20027120DDA120DD7E0B4201D120DDAE4F097
:1003B20090004EE0A2E713A2E713FF3395E0FE128E
:1003C2000D82EE8FF0120816120E124D4E4F700370
:1003D200020469E532AE317802CEA2E713CE13D819
:1003E200F8FFC3E5329FFFE5319EFEC3120DA55013
:1003F2006F120DCBE004F01223C08F30E4F52FE52D
:100402002FC39552500F120D98E0C394014002057C
:100412002E052F80EAE52EC394034006900000E0EB
:10042200F530120DCBE0C39530407A120DCBE4F0DB
:10043200AF51AE50AD4FAC4E120949E54D5FFFE5ED
:100442004C5EFEE54B5DFDE54A5C8F4D8E4C8D4B5F
:10045200F54A7425252BF582E43400F583E4F02275
:10046200120DCBE014F0227425252B120D9C120DD7
:10047200F17005AF2B121615E55214652B702690FC
:10048200009FE0C39552401DE4F52FE52FC395521E
:10049200500D120D98E06003752E01052F80ECE5DA
:0504A2002E7002C200F3
:0104A7002232
:10204000E4FFEFC39552501875F002EF120D7CE0DB
:10205000FCA3E0FDEF120DE8ECF0A3EDF00F80E241
:01206000225D
:021009008F2C2A
:10100B00EF120D69120E68F52EEC9EF52DAF2C121A
:10101B001E92AD07AC06D3E52E9DEC120E09500BBC
:10102B00C3E49DFFE49C120E03500B120D77E0FE00
:10103B00A3E0FF0210B1ECA2E713FEED13FFD312F6
:10104B000E05500BC3E49FFFE49E120E03502712B4
:10105B000DE6E0FCA3E0FDECC313FEED13FFC3EDC7
:10106B009FFDEC9EFC120D77E0C313FEA3E0132D46
:10107B00FFEC3EFE8030120DE6E0FCA3E0FDAE047B
:10108B007803CEC313CE13D8F9FFC3ED9FFDEC9EAF
:10109B00FC120D77E0FEA3E07803CEC313CE13D87A
:1010AB00F92DFFEC3EFE120DE6EEF0A3EFF0E52C72
:0810BB00120D69EEF0A3EFF045
:0110C300220A
:03243900A20122DB
:03243C00D20122A8
:101AA900E4FFEFC39552502B74252F120D9CE4F0DF
:101AB900743D2F120DB6E4F0745B2F120DCFE4F0D4
:101AC900EF120D8FE4F0A3F0742B2F120E2BE4F01C
:101AD9000F80CFE4F54DF54CF54BF54A900098741D
:0B1AE900FFF0E490009BF0A3F0C201AE
:011AF40022CF
:020C4A008F2AEF
:100C4C0090009DE0C394034035E4F0900061E070A7
:100C5C0022F52BE52BC39552501975F002E52B129A
:100C6C000DEB120E33E52B120D87EEF0A3EFF00512
:100C7C002B80E0121AA9C201E4900061F0229000CE
:100C8C0097E004F0E0B52A08122040E4900098F0B8
:100C9C00900097E0D3952A5003020D68E4F52BE5FC
:100CAC002BC39552507A75F002E52B120DEB120EF8
:100CBC0033E52B120D7C120E68FFEC9EAD07FC90F9
:100CCC000061E07029120E6F7802C333CE33CED898
:100CDC00F9120DBE4040E49BFFE49AFEEF7802C38C
:100CEC0033CE33CED8F9C3120DBF502A8032120E38
:100CFC006F7803C333CE33CED8F9120DBE4017E450
:100D0C009BFFE49AFEEF7803C333CE33CED8F9FFC2
:100D1C00C3120DC0400AAF2B121009052B020CABED
:100D2C00E52BB55206900098E004F0E52A75F00822
:100D3C00900097120E4E4024E4F0C20090009DE00B
:100D4C0004F0E52A75F004900098120E4E400DE464
:0C0D5C0090009DF012201C121AA9C20188
:010D68002268
:0420F1004100670043
:1020BC0043D9187F0F7E00121E309000921209999E
:0E20CC0000000000900065E4F0A37402F02212
:0923A700900065E0FEA3E0FF22B6
:100E8600E4F524F523F522F521FBEB25E0246AF5AC
:100E960082E43400F583E0FEA3E0FFE4FCFDE524F4
:100EA6002FF524E5233EF523ED3522F522EC3521F9
:100EB600F5210BBB14D4E4FAF9F8AF24AE23AD2226
:100EC600AC211208B790009212098DE47F507EC3C0
:100ED600FDFC900092E0F8A3E0F9A3E0FAA3E0FBA2
:100EE60012082CE4FB7A10F9F81208B78F288E271F
:100EF6008D268C25E47FD87E0EFDFCAB28AA27A97B
:100F060026A825D3120956401AE52894D8F528E5CF
:100F160027940EF527E5269400F526E5259400F599
:100F2600258009E4F528F527F526F525E47B38FA2A
:100F3600F9F8AF28AE27AD26AC251208B7900062A7
:050F4600EEF0A3EFF046
:010F4B002283
:1009D600900096E06401703DF0AFAFEF75F010A4A3
:1009E600FFE5AEC4540F7C002FFFEC35F0FE9000FF
:1009F60067E025E0246AF582E43400F583EEF0A38F
:100A0600EFF0900067E004F0D394144008120E86CD
:100A1600E4900067F0900068E475F001120816FE95
:100A2600D3E5F094C8EE94005003020B23E4900043
:100A360068F0A3F0900063E02414FF900062E034B5
:100A460000FED3900066E09F900065E09E4019127C
:100A56001A5C7C007D0A1207E0C3900066E09DF0F8
:100A6600900065E09CF0805C900065E0FEA3E0FFEE
:100A7600900062E0FCA3E0FDD39FEC9E4019ED9F41
:100A8600FFEC9EFED3EF9414EE9400403790006581
:100A9600ECF0A3EDF0802D900064E004F0C3940523
:100AA6004022E4F0A3ECF0A3EDF04C7017121A5CB0
:100AB6007C007D051207E0ED2401FEE43C90006514
:100AC600F0A3CEF0C3900066E094E7900065E09452
:100AD6000340077403F0A374E7F0900065E0FEA3FB
:100AE600E0FFD39464EE9400500475690122D3EFBD
:100AF6009464EE9400400DD3EF94C8EE9400500435
:100B060075690422D3EF94C8EE9400400DD3EF9498
:0E0B16002CEE940150047569022275690322C9
:03243F00AF692260
:101E3000EF4480F5ADC3EF9408EE9400500F7401A9
:101E4000A807088002C333D8FCF5AB8011EF24F853
:101E5000FF7401A807088002C333D8FCF5AC75A84D
:021E600040221E
:04240F0043AD402277
:0300330002219611
:10219600C0E0C083C08253ADDF53ADBF90009674DC
:0921A60001F0D082D083D0E032B8
:0A23820043D920122445E4F563223C
:1011F900E56324FE602E14605224027079E565458A
:10120900647003122442E565643C4564700312244A
:10121900450565E56570020564C3940CE5649403AE
:101229004057804CE56545647003122442E56564C6
:101239003C456470031224450565E5657002056443
:10124900C3941CE564940240308025E565456470CB
:1012590003122442E565643C456470031224450584
:1012690065E56570020564C3942CE5649401400941
:0A127900E4F564F565221224452215
:03244200D2DD22C6
:03244500C2DD22D3
:10226F000563E563D394034003E4F563E4F564F594
:02227F006522D6
:032448008F63227D
:03244B00AF63225A
:04241300E4F5662264
:10184D00E56624FE601D14602D14603D2403704D6B
:10185D000568E56870020567C39410E567940E404E
:10186D003C80370568E56870020567C39420E5671D
:10187D00941C402980240568E56870020567C394AF
:10188D0040E5679438401680110568E568700205DB
:0E189D0067C39480E567947040031221122205
:102281000566E566D394044003E4F566E4F567F575
:022291006822C1
:04241700E4F5662260
:03244E00AF662254
:1022A500539A7F439A08C283439B807F1402240973
:102293009000AAE0D394004006D283E014F022C257
:0222A300832294
:062409009000AAEFF02292
:10117900021C85E493A3F8E493A34003F68001F2EB
:1011890008DFF48029E493A3F85407240CC8C33377
:10119900C4540F4420C8834004F456800146F6DF46
:1011A900E4800B01020408102040809020DAE47EDC
:1011B900019360BCA3FF543F30E509541FFEE4933B
:1011C900A360010ECF54C025E060A840B8E493A302
:1011D900FAE493A3F8E493A3C8C582C8CAC583CA2D
:1011E900F0A3C8C582C8CAC583CADFE9DEE780BEE5
:0120F50000EA
:10077900EF8DF0A4A8F0CF8CF0A428CE8DF0A42E94
:02078900FE224E
:10078B00BC000BBE0029EF8DF084FFADF022E4CC52
:10079B00F875F008EF2FFFEE33FEEC33FCEE9DEC1B
:1007AB00984005FCEE9DFE0FD5F0E9E4CEFD22ED61
:1007BB00F8F5F0EE8420D21CFEADF075F008EF2FAB
:1007CB00FFED33FD4007985006D5F0F222C398FD9C
:0507DB000FD5F0EA2239
:1007E000C2D5EC30E709B2D5E4C39DFDE49CFCEE34
:1007F00030E715B2D5E4C39FFFE49EFE12078BC31A
:10080000E49DFDE49CFC800312078B30D507C3E414
:060810009FFFE49EFE22A2
:10081600C5F0F8A3E028F0C5F0F8E582158270026D
:060826001583E038F0220A
:10082C00E88FF0A4CC8BF0A42CFCE98EF0A42CFC6B
:10083C008AF0EDA42CFCEA8EF0A4CDA8F08BF0A4E9
:10084C002DCC3825F0FDE98FF0A42CCD35F0FCEB48
:10085C008EF0A4FEA9F0EB8FF0A4CFC5F02ECD390D
:0F086C00FEE43CFCEAA42DCE35F0FDE43CFC227A
:10087B0075F008758200EF2FFFEE33FECD33CDCC34
:10088B0033CCC58233C5829BED9AEC99E5829840B7
:10089B000CF582EE9BFEED9AFDEC99FC0FD5F0D694
:1008AB00E4CEFBE4CDFAE4CCF9A88222B800C1B9BE
:1008BB000059BA002DEC8BF084CFCECDFCE5F0CBFC
:1008CB00F97818EF2FFFEE33FEED33FDEC33FCEB35
:1008DB0033FB10D703994004EB99FB0FD8E5E4F9F0
:1008EB00FA227818EF2FFFEE33FEED33FDEC33FCDD
:1008FB00C933C910D7059BE99A4007EC9BFCE99AD1
:10090B00F90FD8E0E4C9FAE4CCFB2275F010EF2F15
:10091B00FFEE33FEED33FDCC33CCC833C810D70715
:10092B009BEC9AE899400AED9BFDEC9AFCE899F850
:0E093B000FD5F0DAE4CDFBE4CCFAE4C8F922E3
:0D094900CFF4CFCEF4CECDF4CDCCF4CC2243
:10095600EB9FF5F0EA9E42F0E99D42F0E89C45F0F7
:01096600226E
:10096700E8600FECC313FCED13FDEE13FEEF13FF6E
:03097700D8F12292
:10097A00E8600FEFC333FFEE33FEED33FDEC33FCDB
:03098A00D8F1227F
:0C098D00ECF0A3EDF0A3EEF0A3EFF022DD
:10099900A8828583F0D083D0821209B01209B012DF
:1009A90009B01209B0E473E493A3C583C5F0C58304
:1009B900C8C582C8F0A3C583C5F0C583C8C582C8A8
:0109C900220B
:0C09CA00A42582F582E5F03583F5832238
:101A5C00AC5FAD60AE61AF627810EC4D4E4F700470
:101A6C007CA57DA5C3EC13FCED13FDEE13FEEF136B
:101A7C00FF5010EC64CCFCED644CFDEE644EFEEFBC
:101A8C0064CEFFD8DF8C5F8D608E618F62EE547FE9
:0D1A9C00FE228E5F8F6074A5F561F5622259
:00000001FF
