:030000000212D910
:1012D90078FFE4F6D8FD9000007F807E01E4F0A35A
:0A12E900DFFCDEFA75815902132EB6
:1016F3000000000100000005000A0BB800C80064E8
:1017030000020000000000040000FFFFFFFFFFFFD6
:101713000014013A04082A0507CF013A04082705F3
:1017230007CF013A0408270507CF013A0408270524
:1017330007CF013A0408270507CE013A0408280514
:0217430007CFCE
:041C6D0041006100D1
:0B1DFA009016FDE493FE740193FF229D
:0B1E0500901701E493FE740193FF228C
:081E36009016FB740193FF22DA
:031E5F007F0122DE
:101AD700AD07ED75F008A4241BF582E43417F583F0
:101AE700E493FEED75F008A4241CF582E43417F5A1
:0C1AF70083E4937C002400FFEC3EFE2200
:101D6B00EF75F008A42418F582E43417F583E49397
:021D7B00FF2245
:081E3E009016F5740193FF22D8
:0D1DBC0074432FF582E43400F583E0FF222C
:081E4600900000E0C313FF222D
:0A1E1000900000E075F00384FF224B
:101D0500121AD7EF7803C333CE33CED8F9FF7C0050
:051D15007D0A120748E1
:011D1A0022A6
:1017DE00E4FBFAF50BF50AF509F508750BE0750A49
:1017EE0031F509F508AF0BAE0AAD09AC0878011258
:1017FE0009248F0B8E0A8D098C0830D71374132A87
:10180E00F582E43400F583EBF00AEAC39406500443
:06181E000BBB1FD18A463E
:0118240022A1
:101A4300EF14601214601414601814601A240470E4
:101A53001E90171580089017168003901717E493AC
:101A6300FF22E4FF021DBC901707740193FF227F3E
:021A730000224F
:101825009016F9740193900000F0901713740193CA
:1018350090004EF01217DEE4FFEFC395465020EFFF
:1018450075F008A42419F582E43417F583E493FEB2
:1018550074432FF582E43400F583EEF00F80DAE46B
:0618650090004CF0A3F01E
:01186B00225A
:100B2700E4F508F50CF50BF50AF509F510F50FF5E1
:100B37000EF50D121E7D5003020C39121BC28F0CCD
:100B47008E0B8D0A8C09E4FBEBC395465047AF0C1F
:100B5700AE0BAD0AAC0978011209248F0C8E0B8DF0
:100B67000A8C0930D72CE47F01FEFDFC74132BF5AA
:100B770082E43400F583E0F9F8120937E5104FF500
:100B870010E50F4EF50FE50E4DF50EE50D4CF50D85
:100B970005080B80B3E508C394024015D200E508A9
:100BA70094034005121E808008121E3EEF6002C2A9
:100BB7000020002CE4FFFEFDFCAB10AA0FA90EA835
:100BC7000DC3120913601090004DE004F0700690F9
:100BD700004CE004F08020E490004CF0A3F0801774
:100BE70090004AE004F07006900049E004F0E4F554
:100BF70010F50FF50EF50D121DFAD390004DE09F7D
:100C070090004CE09E400A121E80E490004CF0A336
:100C1700F0D390004AE0942C900049E09401401DE5
:100C2700121E809000617401F0E4900049F0A3F077
:100C3700800B901703E4740193FF120C4DAF10AEB5
:050C47000FAD0EAC0D25
:010C4C002285
:03005B0002196A1D
:10196A00C0E0C0F0C083C082C0D075D000C000C043
:10197A0001C002C003C004C005C006C00712164059
:10198A00D007D006D005D004D003D002D001D000B1
:0B199A00D0D0D082D083D0F0D0E0325B
:041C7100021C000051
:011E86002239
:101AA7008D0CC2AF75F402850CF5E4F5F38FF27572
:101AB700F1F075F60A00000000000000000000F5D4
:101AC700F4D2AF121CD5EFB50C037F01227F0022A1
:101CD500C2AF75F402E51D2FF582E4351CF583E4EA
:071CE50093FFE4F5F4D2AF18
:011CEC0022D5
:031E6200AF492263
:101B2C00E4F548539AFB439B045391BF43924043C3
:101B3C00C114C2C2C2C475D36375D4B090074474C7
:071B4C0080F0A37414F022E5
:101C5000D2C49000A2E4F0A3740BF0900744E044D7
:0D1C600080F0A3E0F0E490009EF0A3F022DD
:0D1DC9000548E548D394034003E4F54822A3
:031E6500AF482261
:10137300121E62EF6401704390009EE0547FFEA34F
:10138300E0FF9000A2E0FCA3E0FD6F7002EC6E6052
:1013930066D3ED9FEC9E401090009FE004F0701622
:1013A30090009EE004F0800E90009FE024FFF090F8
:1013B300009EE034FFF090009E801BD39000A3E0DA
:1013C30094009000A2E09400401BA3E024FFF0905F
:1013D30000A2E034FFF0E04480FFA3E0900744CF95
:1013E300F0A3EFF022E49000A2F0A3F0900744E012
:0813F300547FF0C2C2C2C42203
:051E4E00AE4CAF4D2277
:0C1DD600854A4C854B4DE4F54AF54B2244
:100E8900854A4C854B4DE54824FE604314607A241D
:100E9900026003020F55C3E54B943CE54A940050A8
:100EA90012C3E54B9420E54A94005002807105472E
:100EB900020F55D3E54B9440E54A94004049D3E5E8
:100EC9004B945CE54A9400400280721547807DC3CB
:100ED900E54B9450E54A94005011C3E54B9434E531
:100EE9004A94005002803805478061D3E54B9454F9
:100EF900E54A94004011D3E54B9470E54A940040CB
:100F090002803A154780458040C3E54B9466E54A1F
:100F190094005013C3E54B944AE54A940050047475
:100F29000A801C05478025D3E54B946AE54A94005D
:100F39004017D3E54B9486E54A9400400874F6259A
:100F490047F547800715478003754714E547D3944C
:100F59001540117547149000A1E004F07006900047
:100F6900A0E004F0E547C3941350117547149000AD
:100F7900A1E024FFF09000A0E034FFF0D39000A19D
:100F8900E0945A9000A0E094004006E4F0A3745A5B
:070F9900F0E4F54AF54B22DC
:0F1D9E00754901121E57121E6B121C50C2DB2218
:0C1DE200E4F549121E6E1218AED2DB228E
:101B53001211618F538E528D518C507FC07E657DE3
:101B6300527C00AB53AA52A951A850C31209134087
:051B730003755401227E
:1015E400121E62EF6055E554B4010C054FE54FC37C
:1015F40094034003E4F54F054EE54EC3940A403B83
:10160400E4F54E7FC07E657D52FCAB53AA52A951CE
:10161400A850120913400BE55470031213FB7554C0
:101624000122AF53AE52AD51AC50EF2401F553E457
:0B1634003EF552E43DF551E43CF5505A
:01163F002288
:1013FB00AF53AE52AD51AC508F0B8E0A8D098C088A
:10140B0075CF10E50BFFE4AD077F0F121AA7AF0BDB
:10141B00AE0AAD09AC0878081209248F0B8E0A8D21
:10142B00098C0875CF10E50BFFE4AD077F0E121A80
:10143B00A7AF0BAE0AAD09AC0878081209248F0BC5
:10144B008E0A8D098C0875CF10E50BFFE4AD077F75
:10145B000D121AA7AF0BAE0AAD09AC08780812092A
:10146B00248F0B8E0A8D098C0875CF10E50BFFE4CA
:07147B00AD077F0C021AA768
:10116100E4F50BF50AF509F50875CF107F0C121C93
:10117100D5E48F0BF50AF509F508AE0AAD09AC08FF
:1011810078081209378F0B8E0A8D098C0875CF10DC
:101191007F0D121CD5E4FCFDFEE50B2FF50BEE35A2
:1011A1000AF50AED3509F509EC3508F508AF0BAE7E
:1011B1000AAD09FC78081209378F0B8E0A8D098C4C
:1011C1000875CF107F0E121CD5E4FCFDFEE50B2F38
:1011D100F50BEE350AF50AED3509F509EC3508F59B
:1011E10008AF0BAE0AAD09FC78081209378F0B8ED8
:1011F1000A8D098C0875CF107F0F121CD5E4FCFDF8
:10120100FEE50B2FF50BEE350AF50AED3509F5096B
:0C121100EC3508F508AF0BAE0AAD09FC87
:01121D0022AE
:1019DB0075CF10E4FD7F0C121AA775CF10E4FD7FB5
:1019EB000D121AA775CF10E4FD7F0E121AA775CF33
:1019FB0010E4FD7F0F121AA7E4F553F552F551F5DC
:041A0B0050F554221C
:031E6800021E6EE9
:031E6B00D29722E9
:031E6E00C29722F6
:061C750004230000000042
:101C890090004BE0FF30E711547FF0120B278F26AD
:0A1C99008E258D248C23121E7A2262
:041E530043274022BF
:10099300E52654E0FFE5255431FEE4FDFCFB7A0136
:1009A300F9F8C3120913701EE52720E021052FE58E
:1009B3002F7002052EC39432E52E94004010432776
:1009C30001121D8E80085327FEE4F52EF52F121E0B
:1009D30062EF7003020B26E52654E0FFE525543150
:1009E300FEE4FDFC7B80FAF9F8C3120913701EE5DF
:1009F3002720E2390529E52970020528C39488E5F3
:100A03002894134028432704121E778020D3E52916
:100A13009405E5289400400DE5299488E52894136E
:100A23005003121E745327FBE4F528F529E52654D9
:100A3300E0FFE5255431FEE4FDFCFB7A10F9F8C331
:100A4300120913701EE52720E4210522E522700216
:100A53000521C3940AE52194004010432710121E78
:100A63007180085327EFE4F521F522E52654E0FFD2
:100A7300E5255431FEE4FDFCFB7A20F9F8C31209A5
:100A830013701EE52720E1210531E53170020530A1
:100A9300C3940AE53094004010432702121E888055
:100AA300085327FDE4F530F531E52654E0FFE5254D
:100AB3005431FEE4FDFC7B40FAF9F8C312091370CC
:100AC3001EE52720E321052DE52D7002052CC39497
:100AD30088E52C94134010432708121CA380085365
:100AE30027F7E4F52CF52DE52654E0FFE5255431F1
:100AF300FEE4FDFC7B20FAF9F8C3120913701CE530
:100B03002720E51F052BE52B7002052AC3940AE570
:100B13002A9400400E432720021E875327DFE4F563
:040B23002AF52B2262
:031E7100B2972203
:011E87002238
:011E88002237
:101CA300AF27EFC413135401F45401C4333354C0A6
:091CB300FFE52754BF4FF527227D
:0A1E1A00AF27EFC413135403132283
:031E7400021DC983
:031E77000219DB72
:101D8E00121E62BF0106121DE20213FB121D9E22DD
:1018EE0043D90753D8F8D2DAD2D9C2D84393EF43AB
:1018FE00948075A3FF439C0343B3F8E4F58F9007E0
:10190E0010E04408F0A3E04408F0A3E04408F0A37C
:0F191E00E04408F0A3E04408F0A3E04408F022FE
:101D4500121E62EF600C121DAD121581121D7D125F
:031D5500186C22E5
:1018AE00D2D9D2D8D2DA90070BE054F7F0A3E05495
:1018BE00E7F0A3E054E7F0A3E054E7F0A3E0540709
:1018CE00F0A3E0540FF0A3E0540FF0A3E0540FF098
:1018DE00A3E0540FF0A3E0540FF0A3E0540FF02256
:041E5700439380220F
:10186C00121E2D8E088F097C007D641207487D079F
:10187C001204A8AE08AF097C007D641207487E00F4
:10188C007F0ACFCDCFCECCCE1207487D061204A84E
:10189C00AE08AF097C007D0A120748AF057D050232
:0218AC0004A88E
:101BE700121E83EF24FE600714600B2402800ED2BE
:101BF700D9C2D8D2DA22D2D9D2D8C2DA22C2D9D21D
:041C0700D8D2DA2233
:101D7D00121E1A90070BE0500454F7F0224408F09D
:011D8D002233
:0F1DAD00900710E03097044410F02254EFF0221A
:10158100121E65EF14600A14601914602824038088
:101591003B900711E054EFF0A3E054EFF0A3E044D7
:1015A100108022900711E054EFF0A3E04410F0A363
:1015B100E054EF8010900711E04410F0A3E054EFE5
:1015C100F0A3E054EFF0A3E054EFF022900711E014
:1015D10054EFF0A3E054EFF0A3E054EFF0A3E044A4
:0315E10010F022E5
:1004A800EFB40A0040030207359004B8F82828730F
:1004B8000204D60205070205450205860205BA02AE
:1004C800060302064702068A0206C70206F29007DA
:1004D8000FE0FF7401A805088002C333D8FCFEF4BE
:1004E8005F90070FF0A3E04EF0A3E0FF7401A805AA
:1004F800088002C333D8FCFE4F9007110206E4902F
:10050800070FE0FF7401A805088002C333D8FCFE7A
:10051800F4FC5F90070FF0A3E05CF0A3E05CF0A3AD
:10052800E05CF0A3E04EF0A3E0FF7401A8050880AA
:1005380002C333D8FCFE4F9007140205F890070F4A
:10054800E0FF7401A805088002C333D8FCFE4F9071
:10055800070FF0A3E0FFEEF4FEEF5EF0A3E0FF74F8
:1005680001A805088002C333D8FCFC4F900711F09E
:10057800A3E04CF0A3E05EF0A3E04C020641900734
:100588000FE0FF7401A805088002C333D8FCFE4FB2
:1005980090070FF0A3E0FFEEF4FEEF5EF0A3E05E3D
:1005A800F0A3E0FF7401A805088002C333D8FC0259
:1005B800072390070FE0FF7401A805088002C333E2
:1005C800D8FCFE4F90070FF0A3E04EF0A3E0FFEE3B
:1005D800F4FEEF5EF0A3E05EF0A3E0FF7401A8056F
:1005E800088002C333D8FCFE4F900713F0A3E04EF7
:1005F800F0A3E0FFEEF4FEEF5EF02290070FE0FFBD
:100608007401A805088002C333D8FCFE4F90070F79
:10061800F0A3E04EF0A3E0FFEEF4FEEF5EF0A3E0FF
:10062800FF7401A805088002C333D8FCFC4F90076B
:1006380012F0A3E04CF0A3E05EF0A3E04CF02290AF
:10064800070FE0FF7401A805088002C333D8FCFE39
:100658004F90070FF0A3E04EF0A3E04EF0A3E04E5A
:10066800F0A3E04EF0A3E0FFEEF4FEEF5EF0A3E0AF
:10067800FF7401A805088002C333D8FC4F90071502
:10068800F02290070FE0FF7401A805088002C33329
:10069800D8FCFEF4FC5F90070FF0A3E05CF0A3E049
:1006A8005CF0A3E05CF0A3E04EF0A3E0FF7401A8C7
:1006B80005088002C333D8FCFE4F90071480699068
:1006C800070FE0FF7401A805088002C333D8FCFEB9
:1006D8004F90070FF0A3E04EF0A3E04EF0A3E04EDA
:1006E800F0A3E04EF0A3E04E803E90070FE0FF74C9
:1006F80001A805088002C333D8FCFE4F90070FF00D
:10070800A3E04EF0A3E0FFEEF4FEEF5EF0A3E0FFFF
:100718007401A805088002C333D8FCFE4F90071265
:0E072800F0A3E04EF0A3E04EF0A3E04EF0226E
:051C7B00013500C1026B
:101B7800438E02438910758BC0758DF9C28ED2AB26
:101B8800438E04E4F5C9F5C875CBFA75CA32C2CAE2
:051B9800D2ADD2CA220B
:091E2400758B80758DEED28E22C3
:03000B00021E8949
:011E89003226
:03002B000219A512
:1019A500C0E0C0D0C2CFB2DAE53BB40404D2DC80DB
:1019B5000FE53BC394644008C2DC753B00121E244E
:1019C500053B0536E536C3940A4006753401753680
:0619D50000D0D0D0E0328A
:101B030075CF1043913143B1031218EE121D30D239
:101B1300AF121B78121B2C121E68121482121E5352
:091B2300121E86121B53021D9EC6
:101D5800120993053DE53DC3940A4006E4F53D7537
:031D68003C012219
:101CED00121C89121D450533E533C3940A4006E4E1
:081CFD00F533753201020FA05E
:101D1B000538E538C3940A4006E4F53875370112E7
:051D2B0015E402137332
:011E8A002235
:101A0F00121B0375CF10E534B40106E4F534121D33
:101A1F0058E53CB40106E4F53C121CEDE532B40187
:101A2F0006E4F532121D1BE537B401D7E4F5371282
:041A3F001E8A80CFAC
:03001B0002192D9A
:10192D00C0E0C0F0C083C082C0D075D000C000C080
:10193D0001C002C003C004C005C006C007C28E129C
:10194D001E5BD007D006D005D004D003D002D00145
:0D195D00D000D0D0D082D083D0F0D0E032C6
:041C800041009B0084
:100D6C0075F00290004F120987E0FEA3E0FFE51337
:100D7C0075F002900019020987E51275F0029000D7
:100D8C0001020987E51275F002900031020987749F
:100D9C00252516F582E43400F58322D3E5149FEE65
:100DAC006480F8E51364809822743D2512F582E482
:100DBC003400F58322D3FFED9FEE6480F8EC648061
:100DCC009822745B2512F582E43400F58322E0044A
:100DDC00F0740D2512F582E43400F58322E51375C9
:100DEC00F00290004F020987E4F0FFFEFDFCAB41DE
:100DFC00AA40A93FA83EC3020913FEC3E5159FEE06
:100E0C006480F8E51464809822E5415545FFE5407F
:100E1C005544FEE53F5543FDE53E5542FC22742BFF
:100E2C002512F582E43400F58322E0FEA3E0FF7581
:100E3C00F002227E00900097E0FCA3E0FD12073642
:100E4C008EE78FE622A4FFE0C39FE5F06480F87480
:100E5C008098227D0A120748AD037C00020736E019
:100E6C00FCA3E0C39F2290004EE0FB3395E0FAEB2D
:0D0E7C00AE022290004EE0FF3395E0FE2212
:0C1DEE00EF4E6007EF1F70F81E80F5221A
:021502008F1B3D
:10150400121DBC9000A4EFF0AF1B121D6BEFFB90FB
:101514000098E025E0FF900097E033FE7C00120E77
:101524005FE51B120D87120E6BEC9E50099000A410
:10153400E06049148036AF1B121D6BEFFB900097DF
:10154400E0FEA3E0FF7C007D07120736120E5F75F4
:10155400F002E51B120D8AE0FCA3E0D39FEC9E4051
:101564001B9000A4E0FF647E6012EF04FF74432527
:0C1574001BF582E43400F583EFF0D20197
:011580002248
:10164000C20390009CE0120D7CE5E5F0A3E5E4F018
:1016500090009CE004F0E0C39546400BE4F090005D
:101660004BE04480F08002D20390009CE0FF121D0A
:101670006B120E3F90009CE0FF121DBCE5E254800F
:101680004FF5E290009CE02413F582E43400F583EA
:0A169000E04480F5E8300302D2EEDA
:01169A00222D
:10148200D2AFC201E490009CF090004BF0121825FC
:10149200E4FF121A43EF2401FDE433FC7E077FD000
:1014A200120748900097EEF0A3EFF0E4FF121D6BD5
:1014B200120E3F7F02121A43EFC454F0FEC006E43C
:1014C200FF121A43D0E02FF5E17F03121A43E5E23F
:1014D20054804FF5E27F04121A43EF6008E5E254AC
:1014E200804480F5E27F01121A438FE31217924380
:1014F200A910900013E04480F5E812169B021C0B21
:031E7A00D2EE2283
:101B9D00E4FD90004BE0547FF0D2EE90004BE0203E
:101BAD00E7127FE87E03121DEE43CF100DEDC394B7
:041BBD003240E822A8
:011BC1002201
:10169B00750820121B9DE4F509E509C39546501BFF
:1016AB00E509120D7C120E36E509120D8AEEF0A338
:1016BB00EFF0AF09121502050980DEAF081508EF30
:1016CB0070D1121C2F121E368F08121B9DE4F509C8
:1016DB00E509C395465009AF0912121E050980F0A2
:0716EB00AF081508EF70E3E2
:0116F20022D5
:101C0B00E4FFEFC39546501B75F002EF120D7FE01A
:101C1B00FCA3E0FD75F002EF120D8AECF0A3EDF0E2
:031C2B000F80DF48
:011C2E002293
:101BC200E490009DF0F511E511C39546500EAF115A
:101BD20012121EAF11120100051180EBAF41AE408F
:041BE200AD3FAC3E29
:011BE60022DC
:020100008F125C
:10010200E4F51A75F002EF120D8A120E36E512129C
:100112000D7F120E6BF514EC9EF513E47F01FEFDCC
:10012200FCA912A8011209378F458E448D438C42D7
:10013200AF12121AD78E188F19C3E5149519E51844
:10014200120DAC40057515018003E4F515E5156443
:1001520001600302028774252512120D9FE0C394E9
:10016200FA500A74252512120D9FE004F0120E15A2
:10017200E4FBFAF9F8C3120913600302026A900061
:1001820000E0F517121E5FEF6028E4F515F516E59D
:1001920016C39546500F120D9BE0C3940140020511
:1001A20015051680EAE515C394034006740F25175A
:1001B200F51774252512120D9FE0C39517500302FF
:1001C200026AE4F515121E3EEF7051F516E516C3EC
:1001D2009546501AE51265166010121E10120D9BFC
:1001E200E0C39F40057515018004051680DF121ECD
:1001F2005FEF7052E515704EF516E516C395465041
:1002020045E51265166011121E10742B2516120E8A
:100212002EE0C39F4002802B051680DE121E5FEF88
:100222007024F517F516E516C39546500F120D9B6F
:10023200E0C3940240020517051680EAE517C3944D
:10024200034003751501E515B40102D200E54145ED
:1002520045FFE5404544FEE53F4543FDE53E454259
:100262008F418E408D3FF53E120DB5E4F0120DCE5A
:10027200E4F0120D90E4F0A3F0740D2512F582E47F
:10028200340002045DAF12121D05120DA7400812C0
:100292000E2AE004F0800B90009DE004F0120E2A7A
:1002A200E4F0120E7FC3E49FFDE49EFCC3E5149DBF
:1002B200EC120DAC4066120DA75061120DB5E4129E
:1002C2000DDC120DF460030203CA120D90E51385D2
:1002D20014F01207D3121E05120D90E0FCA3E0C326
:1002E200120DC44009120D85E475F0018021121E21
:1002F20005C3E49FFFE49EFE120D90E0FCA3E0C361
:10030200120DC440030203CA120D8574FFF5F012E8
:1003120007D3120D90E4F0A3F00203CA90004EE05E
:10032200FFFD3395E0FCC3E49DFDE49CFCC3E514B2
:100332009DEC120DAC505A120DB5120DDAE4F0120A
:100342000DB5E0FE75F00A84E5F07037EEC39464F3
:10035200400E120DB5E4F0D20190006104F080234A
:10036200120D85C083C082E0FCA3E0FDEFA2E7137B
:10037200FF3395E0FEC3ED9FFFEC9ED082D083F069
:10038200A3EFF0900096E06512703D74FFF0020357
:10039200CA120E7F120DA7402F120DB5120DF47066
:1003A20027120DDD120DDAE0B4201D120DDDE4F08E
:1003B20090004EE0A2E713A2E713FF3395E0FE128E
:1003C2000D85EE8FF01207D3120E154D4E4F7003AE
:1003D200020469E519AE187802CEA2E713CE13D84B
:1003E200F8FFC3E5199FFFE5189EFEC3120DA85042
:1003F2006F120DCEE004F0121E468F17E4F516E5DB
:1004020016C39546500F120D9BE0C394014002059E
:1004120015051680EAE515C394034006900000E036
:10042200F517120DCEE0C39517407A120DCEE4F007
:10043200AF45AE44AD43AC42120906E5415FFFE56C
:10044200405EFEE53F5DFDE53E5C8F418E408D3FA7
:10045200F53E74252512F582E43400F583E4F0229A
:10046200120DCEE014F02274252512120D9F120DEA
:10047200F47005AF12121502E5461465127026904B
:10048200009DE0C39546401DE4F516E516C395466A
:10049200500D120D9BE06003751501051680ECE509
:0504A200157002C2000C
:0104A7002232
:101C2F00E4FFEFC39546501875F002EF120D7FE0F9
:101C3F00FCA3E0FDEF120DEBECF0A3EDF00F80E253
:011C4F002272
:02121E008F132C
:10122000EF120D6C120E6BF515EC9EF514AF131248
:101230001AD7AD07AC06D3E5159DEC120E0C500B7A
:10124000C3E49DFFE49C120E06500B120D7AE0FEE3
:10125000A3E0FF0212C6ECA2E713FEED13FFD312C8
:101260000E08500BC3E49FFFE49E120E0650271297
:101270000DE9E0FCA3E0FDECC313FEED13FFC3EDAD
:101280009FFDEC9EFC120D7AE0C313FEA3E0132D2C
:10129000FFEC3EFE8030120DE9E0FCA3E0FDAE0461
:1012A0007803CEC313CE13D8F9FFC3ED9FFDEC9E98
:1012B000FC120D7AE0FEA3E07803CEC313CE13D860
:1012C000F92DFFEC3EFE120DE9EEF0A3EFF0E51371
:0812D000120D6CEEF0A3EFF02B
:0112D80022F3
:031E7D00A201229D
:031E8000D201226A
:10179200E4FFEFC39546502B74252F120D9FE4F002
:1017A200743D2F120DB9E4F0745B2F120DD2E4F0E8
:1017B200EF120D92E4F0A3F0742B2F120E2EE4F030
:1017C2000F80CFE4F541F540F53FF53E9000967469
:0B17D200FFF0E4900099F0A3F0C201CA
:0117DD0022E9
:020C4D008F1105
:100C4F0090009BE0C394034035E4F0900061E070A6
:100C5F0022F512E512C39546501975F002E51212EE
:100C6F000DEE120E36E512120D8AEEF0A3EFF0051F
:100C7F001280E0121792C201E4900061F0229000FE
:100C8F0095E004F0E0B51108121C2FE4900096F0E7
:100C9F00900095E0D395115003020D6BE4F512E52A
:100CAF0012C39546507A75F002E512120DEE120E30
:100CBF0036E512120D7F120E6BFFEC9EAD07FC9006
:100CCF000061E07029120E727802C333CE33CED892
:100CDF00F9120DC14040E49BFFE49AFEEF7802C386
:100CEF0033CE33CED8F9C3120DC2502A8032120E32
:100CFF00727803C333CE33CED8F9120DC14017E447
:100D0F009BFFE49AFEEF7803C333CE33CED8F9FFBF
:100D1F00C3120DC3400AAF1212121E0512020CAEFF
:100D2F00E512B54606900096E004F0E51175F0085F
:100D3F00900095120E514024E4F0C20090009BE009
:100D4F0004F0E51175F004900096120E51400DE479
:0C0D5F0090009BF0121C0B121792C201B6
:010D6B002265
:041C840041006600B5
:101D300043D9187F0F7E00121A7590009012095631
:051D400000000000227C
:091E2D00900064E0FEA3E0FF2236
:10109B00E4F50BF50AF509F508FBEB25E02468F5FB
:1010AB0082E43400F583E0FEA3E0FFE4FCFDE50BF6
:1010BB002FF50BE50A3EF50AED3509F509EC350878
:1010CB00F5080BBB14D4E4FAF9F8AF0BAE0AAD0973
:1010DB00AC0812087490009012094AE47F507EC34A
:1010EB00FDFC900090E0F8A3E0F9A3E0FAA3E0FB8D
:1010FB001207E9E4FB7A10F9F81208748F0F8E0EC1
:10110B008D0D8C0CE47F707E17FDFCAB0FAA0EA926
:10111B000DA80CD3120913401AE50F9470F50FE5C7
:10112B000E9417F50EE50D9400F50DE50C9400F5F6
:10113B000C8009E4F50FF50EF50DF50CE47B38FA90
:10114B00F9F8AF0FAE0EAD0DAC0C12087490006237
:05115B00EEF0A3EFF02F
:01116000226C
:100FA000900094E06401703DF0AFAFEF75F010A4D5
:100FB000FFE5AEC4540F7C002FFFEC35F0FE90002F
:100FC00066E025E02468F582E43400F583EEF0A3C2
:100FD000EFF0900066E004F0D39414400812109BE8
:100FE000E4900066F0900067E004F0D3949650031C
:100FF00002109AE4F0900063E02414FF900062E095
:101000003400FED3900065E09F900064E09E40199C
:101010001217457C007D1412079DC3900065E09D6A
:10102000F0900064E09CF0800D900062E0FFA3E08F
:10103000A3CFF0A3EFF0C3900065E094E7900064C5
:10104000E0940340077403F0A374E7F0900064E0B9
:101050007002A3E070171217457C007D0512079DF2
:10106000ED2401FEE43C900064F0A3CEF090006417
:10107000E0FEA3E0FFD39446EE94005004755901BE
:1010800022D3EF9446EE9400400DD3EF9496EE9465
:0B10900000500475590222755903221C
:031E8300AF592232
:101A7500EF4480F5ADC3EF9408EE9400500F740168
:101A8500A807088002C333D8FCF5AB8011EF24F812
:101A9500FF7401A807088002C333D8FCF5AC75A80C
:021AA5004022DD
:041E5B0043AD402231
:03003300021CBCF0
:101CBC00C0E0C083C08253ADDF53ADBF90009474BD
:091CCC0001F0D082D083D0E03297
:1012F300021A0FE493A3F8E493A34003F68001F2E8
:1013030008DFF48029E493A3F85407240CC8C333FB
:10131300C4540F4420C8834004F456800146F6DFCA
:10132300E4800B0102040810204080901C6DE47ED1
:10133300019360BCA3FF543F30E509541FFEE493BF
:10134300A360010ECF54C025E060A840B8E493A386
:10135300FAE493A3F8E493A3C8C582C8CAC583CAB1
:10136300F0A3C8C582C8CAC583CADFE9DEE780BE69
:011C8800005B
:10073600EF8DF0A4A8F0CF8CF0A428CE8DF0A42ED7
:02074600FE2291
:10074800BC000BBE0029EF8DF084FFADF022E4CC95
:10075800F875F008EF2FFFEE33FEEC33FCEE9DEC5E
:10076800984005FCEE9DFE0FD5F0E9E4CEFD22EDA4
:10077800F8F5F0EE8420D21CFEADF075F008EF2FEE
:10078800FFED33FD4007985006D5F0F222C398FDDF
:050798000FD5F0EA227C
:10079D00C2D5EC30E709B2D5E4C39DFDE49CFCEE77
:1007AD0030E715B2D5E4C39FFFE49EFE120748C3A0
:1007BD00E49DFDE49CFC800312074830D507C3E49B
:0607CD009FFFE49EFE22E6
:1007D300C5F0F8A3E028F0C5F0F8E58215827002B1
:0607E3001583E038F0224E
:1007E900E88FF0A4CC8BF0A42CFCE98EF0A42CFCAF
:1007F9008AF0EDA42CFCEA8EF0A4CDA8F08BF0A42D
:100809002DCC3825F0FDE98FF0A42CCD35F0FCEB8B
:100819008EF0A4FEA9F0EB8FF0A4CFC5F02ECD3950
:0F082900FEE43CFCEAA42DCE35F0FDE43CFC22BD
:1008380075F008758200EF2FFFEE33FECD33CDCC77
:1008480033CCC58233C5829BED9AEC99E5829840FA
:100858000CF582EE9BFEED9AFDEC99FC0FD5F0D6D7
:10086800E4CEFBE4CDFAE4CCF9A88222B800C1B901
:100878000059BA002DEC8BF084CFCECDFCE5F0CB3F
:10088800F97818EF2FFFEE33FEED33FDEC33FCEB78
:1008980033FB10D703994004EB99FB0FD8E5E4F933
:1008A800FA227818EF2FFFEE33FEED33FDEC33FC20
:1008B800C933C910D7059BE99A4007EC9BFCE99A14
:1008C800F90FD8E0E4C9FAE4CCFB2275F010EF2F59
:1008D800FFEE33FEED33FDCC33CCC833C810D70759
:1008E8009BEC9AE899400AED9BFDEC9AFCE899F894
:0E08F8000FD5F0DAE4CDFBE4CCFAE4C8F92227
:0D090600CFF4CFCEF4CECDF4CDCCF4CC2286
:10091300EB9FF5F0EA9E42F0E99D42F0E89C45F03A
:0109230022B1
:10092400E8600FECC313FCED13FDEE13FEEF13FFB1
:03093400D8F122D5
:10093700E8600FEFC333FFEE33FEED33FDEC33FC1E
:03094700D8F122C2
:0C094A00ECF0A3EDF0A3EEF0A3EFF02220
:10095600A8828583F0D083D08212096D12096D12A8
:10096600096D12096DE473E493A3C583C5F0C583CD
:10097600C8C582C8F0A3C583C5F0C583C8C582C8EB
:01098600224E
:0C098700A42582F582E5F03583F583227B
:10174500AC55AD56AE57AF587810EC4D4E4F7004B2
:101755007CA57DA5C3EC13FCED13FDEE13FEEF1385
:10176500FF5010EC64CCFCED644CFDEE644EFEEFD6
:1017750064CEFFD8DF8C558D568E578F58EE547F2B
:0D178500FE228E558F5674A5F557F558229B
:00000001FF
