:030000000210F9F2
:1010F90078FFE4F6D8FD9000007F807E01E4F0A33C
:0A110900DFFCDEFA75816902114E69
:1019A40000000001000A0005000A0BB800C800642A
:1019B40000020000000000040000FFFFFFFFFFFF23
:1019C4000014013A04080F05004F013A04080E05FB
:1019D4000043013A04080D050046013A04080F05C6
:1019E40000B6013A04080E0500B3013A04080D05D7
:0219F40000668B
:0420740041006100C6
:0B22C6009019AEE493FE740193FF2218
:0B22D1009019B2E493FE740193FF2209
:08234A009019AC740193FF220D
:0323B5007F012283
:101E2C00AD07ED75F008A424CCF582E43419F583E4
:101E3C00E493FEED75F008A424CDF582E43419F595
:0C1E4C0083E4937C002400FFEC3EFE22A7
:1021F700EF75F008A424C9F582E43419F583E49354
:02220700FF22B4
:082352009019A6740193FF220B
:0D227B0074432FF582E43400F583E0FF2268
:08235A00900000E0C313FF2214
:0A230800900000E075F00384FF224E
:10217800121E2CEF7803C333CE33CED8F9FF7C0080
:052188007D0A1207258D
:01218D00222F
:101A8F00E4FBFAF528F527F526F5257528E07527E7
:101A9F0031F526F525AF28AE27AD26AC25780112F6
:101AAF0009018F288E278D268C2530D71374132A82
:101ABF00F582E43400F583EBF00AEAC39406500490
:061ACF000BBB1FD18A527F
:011AD50022EE
:101D9800EF14601214601414601814601A2404708C
:101DA8001E9019C680089019C780039019C8E4933B
:101DB800FF22E4FF02227B9019B8740193FF227F6F
:021DC8000022F7
:101AD6009019AA740193900000F09019C4740193B0
:101AE60090004EF0121A8FE4FFEFC395525020EF8C
:101AF60075F008A424CAF582E43419F583E493FE4C
:101B060074432FF582E43400F583EEF00F80DAE4B7
:061B160090004CF0A3F06A
:011B1C0022A6
:100ABE00E4F521F525F524F523F522F529F528F59C
:100ACE0027F5261223D35003020BD0121F6D8F254C
:100ADE008E248D238C22E4FBEBC395525047AF2519
:100AEE00AE24AD23AC2278011209018F258E248D00
:100AFE00238C2230D72CE47F01FEFDFC74132BF5E2
:100B0E0082E43400F583E0F9F8120914E5294FF573
:100B1E0029E5284EF528E5274DF527E5264CF5263F
:100B2E0005210B80B3E521C394024015D200E521C7
:100B3E00940340051223D68008122352EF6002C29E
:100B4E000020002CE4FFFEFDFCAB29AA28A927A853
:100B5E0026C31208F0601090004DE004F07006906D
:100B6E00004CE004F08020E490004CF0A3F08017DD
:100B7E0090004AE004F07006900049E004F0E4F5BD
:100B8E0029F528F527F5261222C6D390004DE09FB1
:100B9E0090004CE09E400A1223D6E490004CF0A345
:100BAE00F0D390004AE0942C900049E09401401D4F
:100BBE001223D69000617401F0E4900049F0A3F086
:100BCE00800B9019B4E4740193FF120BE4AF29AEBD
:050BDE0028AD27AC2644
:010BE30022EF
:03005B00021BE4A1
:101BE400C0E0C0F0C083C082C0D075D000C000C0C7
:101BF40001C002C003C004C005C006C007121845D6
:101C0400D007D006D005D004D003D002D001D00034
:0B1C1400D0D0D082D083D0F0D0E032DE
:04207800021C000046
:0123EB0022CF
:101DFC008D29C2AF75F4028529F5E4F5F38FF275E0
:101E0C00F1F075F60A00000000000000000000F57B
:101E1C00F4D2AF122149EFB529037F01227F0022B2
:10214900C2AF75F402E51D2FF582E4351CF583E471
:0721590093FFE4F5F4D2AF9F
:01216000225C
:0323B800AF43220E
:101ED700E4F542539AFB439B0443C114C2C2C2C4F4
:101EE70075D3E875D4B39007447480F0A37414F0E5
:061EF7001220FE8F4422C0
:0E226D0075CF10AD427F14121DFC8542442235
:1020FE0075CF107F14122149EF6401600BEF64025B
:08210E006006BF0301227F00FF
:0121160022A6
:10209000D2C49000A2E4F0A304F0900744E044808E
:0C20A000F0A3E0F0E49000A0F0A3F02218
:0D2288000542E542D394034003E4F54222F1
:0323BB00AF42220C
:1012A4001223B8EF640170419000A0E0547FFEA3C4
:1012B400E0FFA3E0FCA3E0FD6F7002EC6E6066D378
:1012C400ED9FEC9E40109000A1E004F07016900099
:1012D400A0E004F0800E9000A1E024FFF09000A0B4
:1012E400E034FFF09000A0801BD39000A3E09400B2
:1012F4009000A2E09400401BA3E024FFF09000A221
:10130400E034FFF0E04480FFA3E0900744CFF0A373
:10131400EFF022E49000A2F0A3F0900744E0547FA1
:06132400F0C2C2C2C422A7
:10211700AF8CEFFEAD8A7C00E42DF546EC3EF5452D
:09212700E4F58CF58A75490122EA
:10105E001223B8EF70030210F8E54970030210F87E
:10106E00E4F549854547854648E5421460291460F4
:10107E002B14602D2403702C1223D9EF24FE600F45
:10108E0014600E14600D14600C2404701780088018
:10109E000B800E8007800512142E800812132A80F2
:1010AE00031213ACE541D394164011754114900010
:1010BE00A3E004F070069000A2E004F0E541C394B2
:1010CE001250117541149000A3E024FFF09000A27D
:1010DE00E034FFF0D39000A3E094209000A2E094BF
:0B10EE000340077403F0A37420F022FD
:10142E00C3E546945FE5459400502EC3E5469432DD
:10143E00E54594005002802CC3E5469446E545945C
:10144E00005004740A803FC39000A3E0946690009D
:10145E00A2E09400504A054122D3E54694FAE545B0
:10146E009400400A9000A2E4F0A3745CF022D3E54D
:10147E00469466E54594004024D3E5469482E545BE
:10148E009400400774F62541F54122D39000A3E065
:10149E0094529000A2E0940040061541227541142A
:0114AE00221B
:10132A00C3E546942AE5459401502EC3E54694FA4E
:10133A00E54594005002802CC3E546940EE5459499
:10134A00015004740A8040C39000A3E094C5900041
:10135A00A2E09401504B054122D3E54694C2E545EB
:10136A009401400B9000A27401F0A374BBF022D345
:10137A00E546942EE54594014024D3E546944AE592
:10138A00459401400774F62541F54122D39000A304
:10139A00E094B19000A2E094014006154122754103
:0213AA0014220B
:1013AC00C3E5469406E5459402502EC3E54694D613
:1013BC00E54594015002802CC3E54694EAE545943A
:1013CC00015004740A8040C39000A3E094B59000CF
:1013DC00A2E09402504B054122D3E546949EE5458C
:1013EC009402400B9000A27402F0A374ABF022D3D1
:1013FC00E546940AE54594024024D3E5469426E557
:10140C00459402400774F62541F54122D39000A380
:10141C00E094A19000A2E09402400615412275418F
:02142C00142288
:0F224F009000A3E004F070069000A2E004F022DB
:0F225E009000A3E024FFF09000A2E034FFF022F4
:10162E00C3E54694C6E5459400502CC3E546949612
:10163E00E5459400500F9000A3E02414F09000A212
:10164E00E03400F022C3E54694AAE5459400500428
:10165E00740A8035054122D3E54694FAE545940097
:10166E00400F9000A3E024ECF09000A2E034FFF0D5
:10167E0022D3E54694CAE54594004015D3E5469439
:10168E00E6E5459400400774F62541F541221541E3
:05169E00227541142239
:1016A300C3E546948EE5459401502CC3E546945E0C
:1016B300E5459401500F9000A3E02414F09000A29C
:1016C300E03400F022C3E5469472E54594015004EA
:1016D300740A8035054122D3E54694C2E545940159
:1016E300400F9000A3E024ECF09000A2E034FFF060
:1016F30022D3E5469492E54594014015D3E54694FB
:10170300AEE5459401400774F62541F541221541A4
:051713002275411422C3
:102161007543011223EC1223BE122090C2DB12220E
:07217100DC854442022295C7
:1020AC00E4F5431223C1E4FF1223E21223B1121B05
:0C20BC001DD2DB1222DC12121D0222E7F2
:101F2300120EE68F588E578D568C557F007EBA7DE4
:101F3300DB7C00AB58AA57A956A855C31208F0403A
:051F43000375590122A5
:101786001223B8EF605AE559B4010C0554E554C369
:1017960094034003E4F5540553E553C3940A403BD0
:1017A600E4F553FF7EBA7DDBFCAB58AA57A956A8D1
:1017B600551208F0400CE559700312121D755901B7
:1017C6008019AF58AE57AD56AC55EF2401F558E425
:1017D6003EF557E43DF556E43CF555AF5912232640
:0117E60022E0
:10121D00AF58AE57AD56AC558F288E278D268C25E1
:10122D0075CF10E528FFE4AD077F0F121DFCAF2829
:10123D00AE27AD26AC2578081209018F288E278D93
:10124D00268C2575CF10E528FFE4AD077F0E121D06
:10125D00FCAF28AE27AD26AC2578081209018F28E2
:10126D008E278D268C2575CF10E528FFE4AD077FE1
:10127D000D121DFCAF28AE27AD26AC25780812093E
:10128D00018F288E278D268C2575CF10E528FFE43C
:07129D00AD077F0C021DFCF0
:100EE600E4F528F527F526F52575CF107F0C122198
:100EF60049E48F28F527F526F525AE27AD26AC253E
:100F060078081209148F288E278D268C2575CF1008
:100F16007F0D122149E4FCFDFEE5282FF528EE356C
:100F260027F527ED3526F526EC3525F525AF28AE30
:100F360027AD26FC78081209148F288E278D268C5B
:100F46002575CF107F0E122149E4FCFDFEE5282F02
:100F5600F528EE3527F527ED3526F526EC3525F56A
:100F660025AF28AE27AD26FC78081209148F288EE7
:100F7600278D268C2575CF107F0F122149E4FCFDA5
:100F8600FEE5282FF528EE3527F527ED3526F5263B
:0C0F9600EC3525F525AF28AE27AD26FC74
:010FA200222C
:101CFD0075CF10E4FD7F0C121DFC75CF10E4FD7F38
:101D0D000D121DFC75CF10E4FD7F0E121DFC75CF5D
:101D1D0010E4FD7F0F121DFCE4F558F557F556F54F
:041D2D0055F55922ED
:0623910043C1200223C13C
:0323BE00C2C52273
:0323C100D2C52260
:06207C00040A0000000050
:101D310090004BE0FF30E72B547FF0120ABE8F0D6D
:101D41008E0C8D0B8C0AE50D54E0FFE50C5431FE31
:101D5100E4FDFCFBFAF9F8C31208F060031222DC7F
:041D61001223D02257
:06239700530EBF0222DC20
:0B22DC009000A6120933000000002251
:1004A8007F207EBF7D027C009000A6E0F8A3E0F9E3
:1004B800A3E0FAA3E0FBC31208F04005430E408016
:1004C800251223B8BF011F9000A6E0FCA3E0FDA3FE
:1004D800E0FEA3E02401FFE43EFEE43DFDE43CFC35
:1004E8009000A6120927E50D54E0FFE50C5431FEF3
:1004F800E4FDFCFB7A01F9F8C31208F07026E51B4D
:1005080020E021E50E20E61C20E0520518E51870D1
:10051800020517C39488E51794134041430E01124E
:10052800237A8039E50D54E0FFE50C5431FEE4FDF3
:10053800FC7B807A01F9F8C31208F06018D3E5183B
:100548009432E5179400400DE5189488E517941344
:1005580050031221BA530EFEE4F517F5181223B80A
:10056800EF7003020712E50D54E0FFE50C5431FE6D
:10057800E4FDFC7B807A01F9F8C31208F07024E5E9
:100588000E20E61F20E73E0514E51470020513C38C
:100598009432E5139400402D430E80431B01122230
:1005A800F28022E50D5480FFE50C5401FEE4FDFCC9
:1005B800FBFAF9F8C31208F07003531BFE530E7FC1
:1005C800E4F513F514E50D54E0FFE50C5431FEE4B1
:1005D800FDFC7B80FAF9F8C31208F07026E51B20B1
:1005E800E021E50E20E61C20E2210510E51070024E
:1005F800050FC39432E50F94004010430E041223F4
:10060800728008530EFBE4F50FF510E50D54E0FF7A
:10061800E50C5431FEE4FDFCFB7A10F9F8C312082E
:10062800F07021E50E20E61C20E4210509E509709B
:10063800020508C39432E50894004010430E1012D6
:10064800238A8008530EEFE4F508F509E50D54E018
:10065800FFE50C5431FEE4FDFCFB7A20F9F8C312E7
:1006680008F07021E50E20E61C20E121051AE51AA4
:1006780070020519C39432E51994004010430E0224
:1006880012236A8008530EFDE4F519F51AE50D5496
:10069800E0FFE50C5431FEE4FDFC7B40FAF9F8C3B9
:1006A8001208F0701EE50E20E3210516E51670020B
:1006B8000515C39488E51594134010430E081223BA
:1006C800C48008530EF7E4F515F516E50D54E0FF60
:1006D800E50C5431FEE4FDFC7B20FAF9F8C312085E
:1006E800F0701FE50E20E61A20E51F0512E51270CE
:1006F800020511C39432E5119400400E430E200206
:0B0708002362530EDFE4F511F512220E
:07238A00B2C57F0A0223A384
:0B22E700530EBF1222DC7F0A0223A36B
:0823620012221B7F0A0223A3D3
:08236A001222097F0A0223A3DD
:0B22F20012228812226D7F0A0223A333
:0323C4000222E70B
:0A231200AF0EEFC413135401FF22B5
:082372001222887F0A0223A356
:08237A00121CFD7F0A0223A3DF
:1021BA007F0A1223A31223B8BF01061220AC02120F
:0521CA001D122161223D
:10201A0043D90743A17FD2A6D2A5C2A443B1F843AC
:0E202A00C1C3439A624391C0121F92021B1D54
:1020C8001223B8EF601512232F121EAF121CC7126D
:0C20D80022A2121950121E84121C902229
:101FFB001223B8EF7018055CE55CC394C84003E48A
:0F200B00F55CE55BC3955C4003C2B322D2B32200
:101EFD001223B8EF701FE55AB40104055B8002157B
:101F0D005BE55BC394C84003E4F55AE55BD39414D9
:061F1D005003755A012279
:09232600BF0103C2DA22D2DA225F
:101B1D00D2A5D2A4D2A6D281D2D9D2D8D286D285FC
:101B2D00D2C0D2DAD296D297D2A0D2A1D2A2D2A3CB
:101B3D00D2B6D2C6D2C7D2B5D2B4D2C1D2B7D2B331
:101B4D00E4FD7F6E1220E4E4FD7F6C1220E4E4FDE1
:051B5D007F6A0220E494
:101B6200C2A5C2A4C2A6C281C2D9C2D8C286C28537
:101B7200C2DAC296C2A1C2A2C2A3C2B6C2C6C2C7BA
:101B8200C2B5C2C1C2C0C2B4C2B7C2B3C297C2A0B8
:101B92007DFF7F6E1220E47DFF7F6C1220E47DFFCB
:051BA2007F6A0220E44F
:0D229500C2C0C2B4C2B7C2B3C297C2A02279
:0123EC0022CE
:101950001223418E218F227C007D641207251218EC
:10196000A0AD077F6E1220E4AE21AF227C007D6423
:101970001207257E007F0ACFCDCFCECCCE12072511
:101980001218A0AD077F6C1220E4AE21AF227C00BC
:101990007D0A120725AF051218A0AD077F6A122035
:0319A000E4C2811D
:0119A3002221
:101C90001223E8EF24FE600E146011146017240371
:101CA000701CC2D9801AD2D9C2D88016D2D9D2D843
:101CB000C286D28522D2D9D2D8D286C28522D2D9A2
:071CC000D2D8D286D28522A2
:101EAF001223E5EF24FE600B14600F24027012C2A0
:101EBF00A18010D2A1C2A2D2A322D2A1D2A2C2A328
:081ECF0022D2A1D2A2D2A3226B
:101E84001223D9EF24FE6011146012146004240399
:101E94008012C2A5C2A4D2A622C2A58002D2A5D213
:0B1EA400A4C2A622C2A5D2A4D2A6228E
:0C22A200122312EF7003D2C122C2C1222D
:09232F0020C503C29622D29622B9
:101CC7001223BBEF14600E14601114601724037005
:101CD7001CC2B5801AD2B5C2B68016D2B5D2B6C26A
:101CE700C6D2C722D2B5D2B6D2C6C2C722D2B5D2C1
:061CF700B6D2C6D2C722DE
:1018A000EFB40A00504D9018ADF82828730218CBF9
:1018B0000218CF0218D30218D70218DB0218DF0271
:1018C00018E30218E70218EB0218EF7ED780267E95
:1018D0001480227ECD801E7E5D801A7E1E80167E44
:1018E0005B80127EDB800E7E15800A7EDF80067EA6
:0718F0005F8002E4FEAF0679
:0118F70022CE
:101F9200439A0143A180E4FFFE75CF100FBF0001F9
:101FA2000EBE1FF5BF40F21223871223CA7D057FA2
:041FB200480220E4DD
:1020E4008F258D2612218EAF25121C58121D65AF27
:0A20F40026121C58121D650221A4DB
:0B22FD00EF700453A17F2243A1802258
:0B22AE00E4FEEEC39F5004000E80F71A
:0122B9002202
:101D65007F051222AED2801222AEC280E4FF12227B
:101D7500FD30A7130527E527C394F040F4E4F527C4
:101D8500B2C57F011222FD7F011222FDC2807F05AF
:031D95000222AE79
:101C58008F28122382E4F527E5285480D394004086
:101C68000A1223CA7F051222AE80031223CD122343
:101C7800C7122382E52825E0F5280527E527C39420
:081C88000840D57F050222AEE1
:10218E001223CA1223C77F051222AE1223CD1223A9
:06219E00827F050222AE63
:1021A4001223CD1223C77F051222AE1223CA122393
:0621B400827F050222AE4D
:0323C700D280229F
:052382007F051222AEF0
:03238700C28022EF
:0323CA00D2A72275
:0323CD00C2A72282
:05208200013800C1025D
:101E5800438E02438910758BC0758DF9C28ED2AB43
:101E6800438E04E4F5C9F5C875CBFA75CA32C2CAFF
:0C1E7800D2ADD2CA438905C2A9D28C2287
:09233800758B80758DEED28E22AA
:03000B000223EDE0
:0123ED0032BD
:03002B000214AF0D
:1014AF00C0E0C0F0C083C082C0D075D000C000C003
:1014BF0001C002C003C004C005C006C007C2CFE50B
:1014CF003EB40404D2DC800FE53EC394644008C2EE
:1014DF00DC753E00122338053E0539E539C3940A01
:1014EF004006753701753900053DE53D7002053C35
:1014FF00C39410E53C94274009753C00753D0012DC
:10150F002117121FFBD007D006D005D004D003D06F
:10151F0002D001D000D0D0D082D083D0F0D0E03232
:1017180075CF1043913143B10312201A122056D2CB
:10172800AF121E58121ED712239112231C12152F06
:101738001223971223EB121F231223AD12223F12FA
:101748001B62E4F524F523F522F5217F807E387DA0
:10175800017C00AB24AA23A922A821C31208F050B7
:101768001A75CF10E5242401F524E43523F523E484
:0E1778003522F522E43521F52180D00220AC87
:1021E4001204A80540E540C3940A4006E4F540758E
:0321F4003F012286
:10203800121D310536E536C3940A4006E4F53675B7
:0E20480035011209701212A412222D021EFD83
:1021CF00053BE53BC3940A4006E4F53B753A011223
:0521DF0017860220C874
:06239D001211930217E784
:101C1F0012171875CF10E537B40106E4F537122106
:101C2F00E4E53FB40106E4F53F122038E535B40191
:101C3F0006E4F5351221CFE53AB40106E4F53A1280
:091C4F00239D12105EB28080CAD0
:03001B00021BA71E
:101BA700C0E0C0F0C083C082C0D075D000C000C004
:101BB70001C002C003C004C005C006C007C28E1220
:101BC70023A9D007D006D005D004D003D002D00176
:0D1BD700D000D0D0D082D083D0F0D0E0324A
:0420870041009D0077
:100D030075F00290004F120964E0FEA3E0FFE52CAA
:100D130075F002900019020964E52B75F00290004A
:100D230001020964E52B75F0029000310209647435
:100D330025252FF582E43400F58322D3E52D9FEE9C
:100D43006480F8E52C64809822743D252BF582E4B9
:100D53003400F58322D3FFED9FEE6480F8EC6480CA
:100D63009822745B252BF582E43400F58322E0049A
:100D7300F0740D252BF582E43400F58322E52C7500
:100D8300F00290004F020964E4F0FFFEFDFCAB4D5E
:100D9300AA4CA94BA84AC30208F0FEC3E52E9FEE56
:100DA3006480F8E52D64809822E54D5551FFE54CAC
:100DB3005550FEE54B554FFDE54A554EFC22742B2D
:100DC300252BF582E43400F58322E0FEA3E0FF75D2
:100DD300F002227E00900099E0FCA3E0FD120713CD
:100DE3008EE78FE622A4FFE0C39FE5F06480F874EA
:100DF3008098227D0A120725AD037C00020713E0C9
:100E0300FCA3E0C39F2290004EE0FB3395E0FAEB96
:0D0E1300AE022290004EE0FF3395E0FE227B
:0C22BA00EF4E6007EF1F70F81E80F52249
:0215AF008F3477
:1015B10012227B9000ABEFF0AF341221F7EFFB90DA
:1015C100009AE025E0FF900099E033FE7C00120DC7
:1015D100F6E534120D1E120E02EC9E50099000AB7E
:1015E100E06049148036AF341221F7EFFB90009987
:1015F100E0FEA3E0FF7C007D07120713120DF675D4
:10160100F002E534120D21E0FCA3E0D39FEC9E40F3
:101611001B9000ABE0FF647E6012EF04FF74432572
:0C16210034F582E43400F583EFF0D201D0
:01162D00229A
:10184500C20390009EE0120D13E5E5F0A3E5E4F078
:1018550090009EE004F0E0C39552400BE4F0900048
:101865004BE04480F08002D20390009EE0FF1221FD
:10187500F7120DD690009EE0FF12227BE5E2548020
:101885004FF5E290009EE02413F582E43400F583E1
:0A189500E04480F5E8300302D2EED3
:01189F002226
:10152F00D2AFC201E490009EF090004BF0121AD699
:10153F00E4FF121D98EF2401FDE433FC7E077FD0FA
:10154F00120725900099EEF0A3EFF0E4FF1221F7B8
:10155F00120DD67F02121D98EFC454F0FEC006E4A0
:10156F00FF121D98D0E02FF5E17F03121D98E5E2E1
:10157F0054804FF5E27F04121D98EF6008E5E254A6
:10158F00804480F5E27F01121D988FE3121A4343C6
:10159F00A910900013E04480F5E81218F8021FB666
:0323D000D2EE2228
:101F4800E4FD90004BE0547FF0D2EE90004BE0208F
:101F5800E7127FE87E031222BA43CF100DEDC39437
:041F68003240E822F9
:011F6C002252
:1018F800752520121F48E4F526E526C39552501B8E
:10190800E526120D13120DCDE526120D21EEF0A3DA
:10191800EFF0AF261215AF052680DEAF251525EFAF
:1019280070D1121FDA12234A8F25121F48E4F526B8
:10193800E526C395525009AF26120FA3052680F05D
:07194800AF251525EF70E348
:01194F002275
:101FB600E4FFEFC39552501B75F002EF120D16E0C9
:101FC600FCA3E0FD75F002EF120D21ECF0A3EDF09D
:031FD6000F80DF9A
:011FD90022E5
:101F6D00E490009FF0F52AE52AC39552500EAF2A52
:101F7D00120FA3AF2A120100052A80EBAF4DAE4C14
:041F8D00AD4BAC4A62
:011F9100222D
:020100008F2B43
:10010200E4F53375F002EF120D21120DCDE52B123D
:100112000D16120E02F52DEC9EF52CE47F01FEFD6C
:10012200FCA92BA8011209148F518E508D4F8C4EB1
:10013200AF2B121E2C8E318F32C3E52D9532E53155
:10014200120D434005752E018003E4F52EE52E6461
:100152000160030202877425252B120D36E0C39439
:10016200FA500A7425252B120D36E004F0120DAC5C
:10017200E4FBFAF9F8C31208F0600302026A900085
:1001820000E0F5301223B5EF6028E4F52EF52FE5F7
:100192002FC39552500F120D32E0C3940140020555
:1001A2002E052F80EAE52EC394034006740F2530F6
:1001B200F5307425252B120D36E0C395305003021D
:1001C200026AE4F52E122352EF7051F52FE52FC388
:1001D2009552501AE52B652F6010122308120D322A
:1001E200E0C39F4005752E018004052F80DF122396
:1001F200B5EF7052E52E704EF52FE52FC395525094
:1002020045E52B652F6011122308742B252F120D43
:10021200C5E0C39F4002802B052F80DE1223B5EF7D
:100222007024F530F52FE52FC39552500F120D3281
:10023200E0C3940240020530052F80EAE530C39402
:10024200034003752E01E52EB40102D200E54D45AF
:1002520051FFE54C4550FEE54B454FFDE54A454E05
:100262008F4D8E4C8D4BF54A120D4CE4F0120D65FC
:10027200E4F0120D27E4F0A3F0740D252BF582E4CF
:10028200340002045DAF2B122178120D3E40081299
:100292000DC1E004F0800B90009FE004F0120DC14C
:1002A200E4F0120E16C3E49FFDE49EFCC3E52D9D0F
:1002B200EC120D434066120D3E5061120D4CE412D9
:1002C2000D73120D8B60030203CA120D27E52C85F4
:1002D2002DF01207B01222D1120D27E0FCA3E0C3C9
:1002E200120D5B4009120D1CE475F00180211222EF
:1002F200D1C3E49FFFE49EFE120D27E0FCA3E0C3FE
:10030200120D5B40030203CA120D1C74FFF5F012BA
:1003120007B0120D27E4F0A3F00203CA90004EE0EA
:10032200FFFD3395E0FCC3E49DFDE49CFCC3E52D99
:100332009DEC120D43505A120D4C120D71E4F01245
:100342000D4CE0FE75F00A84E5F07037EEC394645C
:10035200400E120D4CE4F0D20190006104F08023B3
:10036200120D1CC083C082E0FCA3E0FDEFA2E713E4
:10037200FF3395E0FEC3ED9FFFEC9ED082D083F069
:10038200A3EFF0900098E0652B703D74FFF002033C
:10039200CA120E16120D3E402F120D4C120D8B700A
:1003A20027120D74120D71E0B4201D120D74E4F0C9
:1003B20090004EE0A2E713A2E713FF3395E0FE128E
:1003C2000D1CEE8FF01207B0120DAC4D4E4F7003A4
:1003D200020469E532AE317802CEA2E713CE13D819
:1003E200F8FFC3E5329FFFE5319EFEC3120D3F5079
:1003F2006F120D65E004F012235A8F30E4F52FE5F9
:100402002FC39552500F120D32E0C39401400205E2
:100412002E052F80EAE52EC394034006900000E0EB
:10042200F530120D65E0C39530407A120D65E4F0A7
:10043200AF51AE50AD4FAC4E1208E3E54D5FFFE554
:100442004C5EFEE54B5DFDE54A5C8F4D8E4C8D4B5F
:10045200F54A7425252BF582E43400F583E4F02275
:10046200120D65E014F0227425252B120D36120DA3
:100472008B7005AF2B1215AFE55214652B702690C9
:10048200009FE0C39552401DE4F52FE52FC395521E
:10049200500D120D32E06003752E01052F80ECE540
:0504A2002E7002C200F3
:0104A7002232
:101FDA00E4FFEFC39552501875F002EF120D16E0A8
:101FEA00FCA3E0FDEF120D82ECF0A3EDF00F80E20E
:011FFA0022C4
:020FA3008F2C91
:100FA500EF120D03120E02F52EEC9EF52DAF2C124D
:100FB5001E2CAD07AC06D3E52E9DEC120DA3500BF0
:100FC500C3E49DFFE49C120D9D500B120D11E0FE34
:100FD500A3E0FF02104BECA2E713FEED13FFD312C3
:100FE5000D9F500BC3E49FFFE49E120D9D502712E9
:100FF5000D80E0FCA3E0FDECC313FEED13FFC3ED94
:101005009FFDEC9EFC120D11E0C313FEA3E0132D12
:10101500FFEC3EFE8030120D80E0FCA3E0FDAE0447
:101025007803CEC313CE13D8F9FFC3ED9FFDEC9E15
:10103500FC120D11E0FEA3E07803CEC313CE13D846
:10104500F92DFFEC3EFE120D80EEF0A3EFF0E52C3E
:08105500120D03EEF0A3EFF011
:01105D002270
:0323D300A2012242
:0323D600D201220F
:101A4300E4FFEFC39552502B74252F120D36E4F0AB
:101A5300743D2F120D50E4F0745B2F120D69E4F006
:101A6300EF120D29E4F0A3F0742B2F120DC5E4F04F
:101A73000F80CFE4F54DF54CF54BF54A9000987483
:0B1A8300FFF0E490009BF0A3F0C20114
:011A8E002235
:020BE4008F2A56
:100BE60090009DE0C394034035E4F0900061E0700E
:100BF60022F52BE52BC39552501975F002E52B1201
:100C06000D85120DCDE52B120D21EEF0A3EFF005AB
:100C16002B80E0121A43C201E4900061F02290009A
:100C260097E004F0E0B52A08121FDAE4900098F085
:100C3600900097E0D3952A5003020D02E4F52BE5C8
:100C46002BC39552507A75F002E52B120D85120DC5
:100C5600CDE52B120D16120E02FFEC9EAD07FC9091
:100C66000061E07029120E097802C333CE33CED864
:100C7600F9120D584040E49BFFE49AFEEF7802C358
:100C860033CE33CED8F9C3120D59502A8032120E04
:100C9600097803C333CE33CED8F9120D584017E482
:100CA6009BFFE49AFEEF7803C333CE33CED8F9FF29
:100CB600C3120D5A400AAF2B120FA3052B020C4587
:100CC600E52BB55206900098E004F0E52A75F00889
:100CD600900097120DE84024E4F0C20090009DE0D9
:100CE60004F0E52A75F004900098120DE8400DE432
:0C0CF60090009DF0121FB6121A43C201BC
:010D020022CE
:04208B0041006700A9
:1020560043D9187F0F7E00121DCA900092120933D1
:0E20660000000000900065E4F0A37402F02278
:09234100900065E0FEA3E0FF221C
:100E2000E4F524F523F522F521FBEB25E0246AF512
:100E300082E43400F583E0FEA3E0FFE4FCFDE5245A
:100E40002FF524E5233EF523ED3522F522EC35215F
:100E5000F5210BBB14D4E4FAF9F8AF24AE23AD228C
:100E6000AC21120851900092120927E47F507EC3F2
:100E7000FDFC900092E0F8A3E0F9A3E0FAA3E0FB08
:100E80001207C6E4FB7A10F9F81208518F288E2752
:100E90008D268C25E47FD87E0EFDFCAB28AA27A9E1
:100EA00026A825D31208F0401AE52894D8F528E59D
:100EB00027940EF527E5269400F526E5259400F500
:100EC000258009E4F528F527F526F525E47B38FA91
:100ED000F9F8AF28AE27AD26AC2512085190006274
:050EE000EEF0A3EFF0AD
:010EE50022EA
:10097000900096E06401703DF0AFAFEF75F010A409
:10098000FFE5AEC4540F7C002FFFEC35F0FE900065
:1009900067E025E0246AF582E43400F583EEF0A3F5
:1009A000EFF0900067E004F0D394144008120E209A
:1009B000E4900067F0900068E475F0011207B0FE63
:1009C000D3E5F094C8EE94005003020ABDE4900011
:1009D00068F0A3F0900063E02414FF900062E0341C
:1009E00000FED3900066E09F900065E09E401912E3
:1009F00019F67C007D0A12077AC3900066E09DF02C
:100A0000900065E09CF0805C900065E0FEA3E0FF54
:100A1000900062E0FCA3E0FDD39FEC9E4019ED9FA7
:100A2000FFEC9EFED3EF9414EE94004037900065E7
:100A3000ECF0A3EDF0802D900064E004F0C3940589
:100A40004022E4F0A3ECF0A3EDF04C70171219F67D
:100A50007C007D0512077AED2401FEE43C900065E0
:100A6000F0A3CEF0C3900066E094E7900065E094B8
:100A70000340077403F0A374E7F0900065E0FEA361
:100A8000E0FFD39464EE9400500475690122D3EF23
:100A90009464EE9400400DD3EF94C8EE940050049B
:100AA00075690422D3EF94C8EE9400400DD3EF94FF
:0E0AB0002CEE94015004756902227569032230
:0323D900AF6922C7
:101DCA00EF4480F5ADC3EF9408EE9400500F740110
:101DDA00A807088002C333D8FCF5AB8011EF24F8BA
:101DEA00FF7401A807088002C333D8FCF5AC75A8B4
:021DFA00402285
:0423A90043AD4022DE
:0300330002213077
:10213000C0E0C083C08253ADDF53ADBF9000967442
:0921400001F0D082D083D0E0321E
:0A231C0043D9201223DFE4F5632209
:10119300E56324FE602E14605224027079E56545F0
:1011A3006470031223DCE565643C45647003122319
:1011B300DF0565E56570020564C3940CE56494037B
:1011C3004057804CE565456470031223DCE5656494
:1011D3003C456470031223DF0565E5657002056411
:1011E300C3941CE564940240308025E56545647032
:1011F300031223DCE565643C456470031223DF05B9
:1012030065E56570020564C3942CE56494014009A7
:0A121300E4F564F565221223DF22E2
:0323DC00D2DD222D
:0323DF00C2DD223A
:102209000563E563D394034003E4F563E4F564F5FA
:0222190065223C
:0323E2008F6322E4
:0323E500AF6322C1
:0423AD00E4F56622CB
:1017E700E56624FE601D14602D14603D2403704DD2
:1017F7000568E56870020567C39410E567940E40B5
:101807003C80370568E56870020567C39420E56783
:10181700941C402980240568E56870020567C39415
:1018270040E5679438401680110568E56870020541
:0E18370067C39480E567947040031220AC22D2
:10221B000566E566D394044003E4F566E4F567F5DB
:02222B00682227
:0423B100E4F56622C7
:0323E800AF6622BB
:10223F00539A7F439A08C283439B807F140223A340
:10222D009000AAE0D394004006D283E014F022C2BD
:02223D008322FA
:0623A3009000AAEFF022F9
:10111300021C1FE493A3F8E493A34003F68001F2B7
:1011230008DFF48029E493A3F85407240CC8C333DD
:10113300C4540F4420C8834004F456800146F6DFAC
:10114300E4800B0102040810204080902074E47EA8
:10115300019360BCA3FF543F30E509541FFEE493A1
:10116300A360010ECF54C025E060A840B8E493A368
:10117300FAE493A3F8E493A3C8C582C8CAC583CA93
:10118300F0A3C8C582C8CAC583CADFE9DEE780BE4B
:01208F000050
:10071300EF8DF0A4A8F0CF8CF0A428CE8DF0A42EFA
:02072300FE22B4
:10072500BC000BBE0029EF8DF084FFADF022E4CCB8
:10073500F875F008EF2FFFEE33FEEC33FCEE9DEC81
:10074500984005FCEE9DFE0FD5F0E9E4CEFD22EDC7
:10075500F8F5F0EE8420D21CFEADF075F008EF2F11
:10076500FFED33FD4007985006D5F0F222C398FD02
:050775000FD5F0EA229F
:10077A00C2D5EC30E709B2D5E4C39DFDE49CFCEE9A
:10078A0030E715B2D5E4C39FFFE49EFE120725C3E6
:10079A00E49DFDE49CFC800312072530D507C3E4E1
:0607AA009FFFE49EFE2209
:1007B000C5F0F8A3E028F0C5F0F8E58215827002D4
:0607C0001583E038F02271
:1007C600E88FF0A4CC8BF0A42CFCE98EF0A42CFCD2
:1007D6008AF0EDA42CFCEA8EF0A4CDA8F08BF0A450
:1007E6002DCC3825F0FDE98FF0A42CCD35F0FCEBAF
:1007F6008EF0A4FEA9F0EB8FF0A4CFC5F02ECD3974
:0F080600FEE43CFCEAA42DCE35F0FDE43CFC22E0
:1008150075F008758200EF2FFFEE33FECD33CDCC9A
:1008250033CCC58233C5829BED9AEC99E58298401D
:100835000CF582EE9BFEED9AFDEC99FC0FD5F0D6FA
:10084500E4CEFBE4CDFAE4CCF9A88222B800C1B924
:100855000059BA002DEC8BF084CFCECDFCE5F0CB62
:10086500F97818EF2FFFEE33FEED33FDEC33FCEB9B
:1008750033FB10D703994004EB99FB0FD8E5E4F956
:10088500FA227818EF2FFFEE33FEED33FDEC33FC43
:10089500C933C910D7059BE99A4007EC9BFCE99A37
:1008A500F90FD8E0E4C9FAE4CCFB2275F010EF2F7C
:1008B500FFEE33FEED33FDCC33CCC833C810D7077C
:1008C5009BEC9AE899400AED9BFDEC9AFCE899F8B7
:0E08D5000FD5F0DAE4CDFBE4CCFAE4C8F9224A
:0D08E300CFF4CFCEF4CECDF4CDCCF4CC22AA
:1008F000EB9FF5F0EA9E42F0E99D42F0E89C45F05E
:0109000022D4
:10090100E8600FECC313FCED13FDEE13FEEF13FFD4
:03091100D8F122F8
:10091400E8600FEFC333FFEE33FEED33FDEC33FC41
:03092400D8F122E5
:0C092700ECF0A3EDF0A3EEF0A3EFF02243
:10093300A8828583F0D083D08212094A12094A1211
:10094300094A12094AE473E493A3C583C5F0C58336
:10095300C8C582C8F0A3C583C5F0C583C8C582C80E
:010963002271
:0C096400A42582F582E5F03583F583229E
:1019F600AC5FAD60AE61AF627810EC4D4E4F7004D7
:101A06007CA57DA5C3EC13FCED13FDEE13FEEF13D1
:101A1600FF5010EC64CCFCED644CFDEE644EFEEF22
:101A260064CEFFD8DF8C5F8D608E618F62EE547F4F
:0D1A3600FE228E5F8F6074A5F561F56222BF
:00000001FF
