:030000000210C526
:1010C50078FFE4F6D8FD9000007F807E01E4F0A370
:0A10D500DFFCDEFA75816902111AD2
:1019500000000001000A0005000A0BB800C800647E
:1019600000020000000000040000FFFFFFFFFFFF77
:101970000014013A04080F05004F013A04080E054F
:101980000043013A04080D050046013A04080F051A
:1019900000B6013A04080E0500B3013A04080D052B
:0219A0000066DF
:042002004100610038
:0B22690090195AE493FE740193FF22C9
:0B22740090195EE493FE740193FF22BA
:0822ED00901958740193FF22BF
:032358007F0122E0
:101DD800AD07ED75F008A42478F582E43419F5838D
:101DE800E493FEED75F008A42479F582E43419F53E
:0C1DF80083E4937C002400FFEC3EFE22FC
:10219A00EF75F008A42475F582E43419F583E49305
:0221AA00FF2212
:0822F500901952740193FF22BD
:0D221E0074432FF582E43400F583E0FF22C5
:0822FD00900000E0C313FF2272
:0A22AB00900000E075F00384FF22AC
:10210600121DD8EF7803C333CE33CED8F9FF7C0047
:052116007D0A12071F05
:01211B0022A1
:101A3B00E4FBFAF528F527F526F5257528E075273B
:101A4B0031F526F525AF28AE27AD26AC257801124A
:101A5B0008FB8F288E278D268C2530D71374132ADD
:101A6B00F582E43400F583EBF00AEAC394065004E4
:061A7B000BBB1FD18A52D3
:011A81002242
:101D4400EF14601214601414601814601A240470E0
:101D54001E90197280089019738003901974E4938B
:101D6400FF22E4FF02221E901964740193FF227F74
:021D740000224B
:101A8200901956740193900000F0901970740193AC
:101A920090004EF0121A3BE4FFEFC395525020EF34
:101AA20075F008A42476F582E43419F583E493FEF4
:101AB20074432FF582E43400F583EEF00F80DAE40C
:061AC20090004CF0A3F0BF
:011AC80022FB
:10096A00E4F521F525F524F523F522F529F528F5F1
:10097A0027F5261223765003020A7C121F198F25A7
:10098A008E248D238C22E4FBEBC395525047AF256E
:10099A00AE24AD23AC2278011208FB8F258E248D5C
:1009AA00238C2230D72CE47F01FEFDFC74132BF537
:1009BA0082E43400F583E0F9F812090EE5294FF5CF
:1009CA0029E5284EF528E5274DF527E5264CF52695
:1009DA0005210B80B3E521C394024015D200E5211D
:1009EA009403400512237980081222F5EF6002C2AF
:1009FA000020002CE4FFFEFDFCAB29AA28A927A8A9
:100A0A0026C31208EA601090004DE004F0700690C8
:100A1A00004CE004F08020E490004CF0A3F0801732
:100A2A0090004AE004F07006900049E004F0E4F512
:100A3A0029F528F527F526122269D390004DE09F63
:100A4A0090004CE09E400A122379E490004CF0A3F7
:100A5A00F0D390004AE0942C900049E09401401DA4
:100A6A001223799000617401F0E4900049F0A3F038
:100A7A00800B901960E4740193FF120BB0AF29AE9A
:050A8A0028AD27AC2699
:010A8F002244
:03005B00021B90F5
:101B9000C0E0C0F0C083C082C0D075D000C000C01B
:101BA00001C002C003C004C005C006C0071217F17F
:101BB000D007D006D005D004D003D002D001D00089
:0B1BC000D0D0D082D083D0F0D0E03233
:04200600021C0000B8
:01238E00222C
:101DA8008D29C2AF75F4028529F5E4F5F38FF27534
:101DB800F1F075F60A00000000000000000000F5D0
:101DC800F4D2AF1220D7EFB529037F01227F00227A
:1020D700C2AF75F402E51D2FF582E4351CF583E4E4
:0720E70093FFE4F5F4D2AF12
:0120EE0022CF
:03235B00AF43226B
:101E8300E4F542539AFB439B0443C114C2C2C2C448
:101E930075D3E875D4B39007447480F0A37414F039
:061EA30012208C8F442286
:0E22100075CF10AD427F14121DA885424422E6
:10208C0075CF107F141220D7EF6401600BEF640240
:08209C006006BF0301227F0072
:0120A4002219
:10201E00D2C49000A1E4F0A304F0900744E0448001
:0C202E00F0A3E0F0E490009FF0A3F0228B
:0D222B000542E542D394034003E4F542224E
:03235E00AF422269
:1011E60012235BEF6401704190009FE0547FFEA3E1
:1011F600E0FFA3E0FCA3E0FD6F7002EC6E6066D337
:10120600ED9FEC9E40109000A0E004F07016900058
:101216009FE004F0800E9000A0E024FFF090009F75
:10122600E034FFF090009F801BD39000A2E0940072
:101236009000A1E09400401BA3E024FFF09000A1E1
:10124600E034FFF0E04480FFA3E0900744CFF0A332
:10125600EFF022E49000A1F0A3F0900744E0547F61
:06126600F0C2C2C2C42266
:1020A500AF8CEFFEAD8A7C00E42DF546EC3EF545A0
:0920B500E4F58CF58A754901225D
:10102A0012235BEF70030210C4E54970030210C477
:10103A00E4F549854547854648E542146029146028
:10104A002B14602D2403702C12237CEF24FE600FD6
:10105A0014600E14600D14600C240470178008804C
:10106A000B800E80078005121370800812126C80A4
:10107A00031212EEE541D394164011754114900003
:10108A00A2E004F070069000A1E004F0E541C394E8
:10109A001250117541149000A2E024FFF09000A1B3
:1010AA00E034FFF0D39000A2E094209000A1E094F5
:0B10BA000340077403F0A37420F02231
:10137000C3E546945FE5459400502EC3E54694329C
:10138000E54594005002802CC3E5469446E545941B
:10139000005004740A803FC39000A2E0946690005D
:1013A000A1E09400504A054122D3E54694FAE54570
:1013B0009400400A9000A1E4F0A3745CF022D3E50D
:1013C000469466E54594004024D3E5469482E5457D
:1013D0009400400774F62541F54122D39000A2E025
:1013E00094529000A1E094004006154122754114EA
:0113F00022DA
:10126C00C3E546942AE5459401502EC3E54694FA0D
:10127C00E54594005002802CC3E546940EE5459458
:10128C00015004740A8040C39000A2E094C5900001
:10129C00A1E09401504B054122D3E54694C2E545AB
:1012AC009401400B9000A17401F0A374BBF022D305
:1012BC00E546942EE54594014024D3E546944AE551
:1012CC00459401400774F62541F54122D39000A2C4
:1012DC00E094B19000A1E0940140061541227541C3
:0212EC001422CA
:1012EE00C3E5469406E5459402502EC3E54694D6D2
:1012FE00E54594015002802CC3E54694EAE54594F9
:10130E00015004740A8040C39000A2E094B590008E
:10131E00A1E09402504B054122D3E546949EE5454B
:10132E009402400B9000A17402F0A374ABF022D390
:10133E00E546940AE54594024024D3E5469426E515
:10134E00459402400774F62541F54122D39000A240
:10135E00E094A19000A1E09402400615412275414F
:02136E00142247
:0F21F2009000A2E004F070069000A1E004F0223B
:0F2201009000A2E024FFF09000A1E034FFF02253
:10157000C3E54694C6E5459400502CC3E5469496D1
:10158000E5459400500F9000A2E02414F09000A1D3
:10159000E03400F022C3E54694AAE54594005004E7
:1015A000740A8035054122D3E54694FAE545940056
:1015B000400F9000A2E024ECF09000A1E034FFF096
:1015C00022D3E54694CAE54594004015D3E54694F8
:1015D000E6E5459400400774F62541F541221541A2
:0515E0002275411422F8
:1015E500C3E546948EE5459401502CC3E546945ECB
:1015F500E5459401500F9000A2E02414F09000A15D
:10160500E03400F022C3E5469472E54594015004A8
:10161500740A8035054122D3E54694C2E545940117
:10162500400F9000A2E024ECF09000A1E034FFF020
:1016350022D3E5469492E54594014015D3E54694B9
:10164500AEE5459401400774F62541F54122154163
:05165500227541142282
:1020EF0075430112238F12236112201EC2DB1222AD
:0720FF007F854442022238F4
:10203A00E4F543122364E4FF122385122354121A8F
:0C204A00C9D2DB12227F12115F02228A31
:101ECF00120EB28F588E578D568C557F007EBA7D6D
:101EDF00DB7C00AB58AA57A956A855C31208EA4095
:051EEF000375590122FA
:1017320012235BEF605AE559B4010C0554E554C31A
:1017420094034003E4F5540553E553C3940A403B24
:10175200E4F553FF7EBA7DDBFCAB58AA57A956A825
:10176200551208EA400CE559700312115F755901D0
:101772008019AF58AE57AD56AC55EF2401F558E479
:101782003EF557E43DF556E43CF555AF591222C9F2
:011792002234
:10115F00AF58AE57AD56AC558F288E278D268C25A0
:10116F0075CF10E528FFE4AD077F0F121DA8AF283C
:10117F00AE27AD26AC2578081208FB8F288E278D59
:10118F00268C2575CF10E528FFE4AD077F0E121DC5
:10119F00A8AF28AE27AD26AC2578081208FB8F28FC
:1011AF008E278D268C2575CF10E528FFE4AD077FA0
:1011BF000D121DA8AF28AE27AD26AC257808120852
:1011CF00FB8F288E278D268C2575CF10E528FFE401
:0711DF00AD077F0C021DA803
:100EB200E4F528F527F526F52575CF107F0C1220CD
:100EC200D7E48F28F527F526F525AE27AD26AC25E4
:100ED200780812090E8F288E278D268C2575CF1043
:100EE2007F0D1220D7E4FCFDFEE5282FF528EE3514
:100EF20027F527ED3526F526EC3525F525AF28AE65
:100F020027AD26FC780812090E8F288E278D268C95
:100F12002575CF107F0E1220D7E4FCFDFEE5282FA9
:100F2200F528EE3527F527ED3526F526EC3525F59E
:100F320025AF28AE27AD26FC780812090E8F288E21
:100F4200278D268C2575CF107F0F1220D7E4FCFD4C
:100F5200FEE5282FF528EE3527F527ED3526F5266F
:0C0F6200EC3525F525AF28AE27AD26FCA8
:010F6E002260
:101CA90075CF10E4FD7F0C121DA875CF10E4FD7FE0
:101CB9000D121DA875CF10E4FD7F0E121DA875CF5A
:101CC90010E4FD7F0F121DA8E4F558F557F556F5F8
:041CD90055F5592242
:0623340043C120022364F6
:03236100C2C522D0
:03236400D2C522BD
:06200A00040A00000000C2
:101CDD0090004BE0FF30E72B547FF012096A8F0D17
:101CED008E0C8D0B8C0AE50D54E0FFE50C5431FE86
:101CFD00E4FDFCFBFAF9F8C31208EA600312227F37
:041D0D001223732208
:06233A00530EBF02227FDA
:0B227F009000A512092D0000000022B5
:1004A8007F207EBF7D027C009000A5E0F8A3E0F9E4
:1004B800A3E0FAA3E0FBC31208EA4005430E40801C
:1004C8001F9000A5E0FCA3E0FDA3E0FEA3E024014B
:1004D800FFE43EFEE43DFDE43CFC9000A51209214A
:1004E800E50D54E0FFE50C5431FEE4FDFCFB7A0118
:1004F800F9F8C31208EA7026E51B20E021E50E2072
:10050800E61C20E0520518E51870020517C3948808
:10051800E51794134041430E0112231D8039E50D60
:1005280054E0FFE50C5431FEE4FDFC7B807A01F9D0
:10053800F8C31208EA6018D3E5189432E517940056
:10054800400DE5189488E517941350031221485379
:100558000EFEE4F517F51812235BEF700302070C83
:10056800E50D54E0FFE50C5431FEE4FDFC7B807A98
:1005780001F9F8C31208EA7024E50E20E61F20E707
:100588003E0514E51470020513C39432E513940074
:10059800402D430E80431B011222958022E50D5405
:1005A80080FFE50C5401FEE4FDFCFBFAF9F8C312E8
:1005B80008EA7003531BFE530E7FE4F513F514E5A8
:1005C8000D54E0FFE50C5431FEE4FDFC7B80FAF9A4
:1005D800F8C31208EA7026E51B20E021E50E20E6A4
:1005E8001C20E2210510E5107002050FC39432E5C6
:1005F8000F94004010430E041223158008530EFB7D
:10060800E4F50FF510E50D54E0FFE50C5431FEE478
:10061800FDFCFB7A10F9F8C31208EA7021E50E20F8
:10062800E61C20E4210509E50970020508C3943297
:10063800E50894004010430E1012232D8008530E35
:10064800EFE4F508F509E50D54E0FFE50C5431FE3B
:10065800E4FDFCFB7A20F9F8C31208EA7021E50EE4
:1006680020E61C20E121051AE51A70020519C39439
:1006780032E51994004010430E0212230D800853EE
:100688000EFDE4F519F51AE50D54E0FFE50C5431BB
:10069800FEE4FDFC7B40FAF9F8C31208EA701EE597
:1006A8000E20E3210516E51670020515C39488E5AA
:1006B8001594134010430E081223678008530EF751
:1006C800E4F515F516E50D54E0FFE50C5431FEE4AC
:1006D800FDFC7B20FAF9F8C31208EA701FE50E202A
:1006E800E61A20E51F0512E51270020511C39432BF
:1006F800E5119400400E430E20022305530EDFE45B
:05070800F511F51222BD
:07232D00B2C57F0A0223463E
:0B228A00530EBF12227F7F0A02234682
:082305001221BE7F0A022346EB
:08230D001221AC7F0A022346F5
:0B22950012222B1222107F0A022346A7
:0323670002228AC5
:0A22B500AF0EEFC413135401FF2213
:0823150012222B7F0A0223466D
:08231D00121CA97F0A022346ED
:102148007F0A12234612235BBF010612203A0211AE
:052158005F1220EF22E0
:101FC60043D90743A17FD2A6D2A5C2A443B1F84301
:0E1FD600C1C3439A624391C0121F3E021AC952
:1020560012235BEF60151222D2121E5B121C731242
:0C20660022451218FC121E30121C3C22F5
:101FA70012235BEF7018055CE55CC394C84003E43B
:0F1FB700F55CE55BC3955C4003C2B322D2B32255
:101EA90012235BEF701FE55AB40104055B8002152C
:101EB9005BE55BC394C84003E4F55AE55BD394142E
:061EC9005003755A0122CE
:0922C900BF0103C2DA22D2DA22BD
:101AC900D2A5D2A4D2A6D281D2D9D2D8D286D28551
:101AD900D2C0D2DAD296D297D2A0D2A1D2A2D2A320
:101AE900D2B6D2C6D2C7D2B5D2B4D2C1D2B7D2B386
:101AF900E4FD7F6E122072E4FD7F6C122072E4FD1A
:051B09007F6A0220725A
:101B0E00C2A5C2A4C2A6C281C2D9C2D8C286C2858B
:101B1E00C2DAC296C2A1C2A2C2A3C2B6C2C6C2C70E
:101B2E00C2B5C2C1C2C0C2B4C2B7C2B3C297C2A00C
:101B3E007DFF7F6E1220727DFF7F6C1220727DFF03
:051B4E007F6A02207215
:0D223800C2C0C2B4C2B7C2B3C297C2A022D6
:01238F00222B
:1018FC001222E48E218F227C007D6412071F1218A5
:10190C004CAD077F6E122072AE21AF227C007D643D
:10191C0012071F7E007F0ACFCDCFCECCCE12071F71
:10192C0012184CAD077F6C122072AE21AF227C00D6
:10193C007D0A12071FAF0512184CAD077F6A1220E3
:03194C0072C281E3
:01194F002275
:101C3C0012238BEF24FE600E146011146017240322
:101C4C00701CC2D9801AD2D9C2D88016D2D9D2D897
:101C5C00C286D28522D2D9D2D8D286C28522D2D9F6
:071C6C00D2D8D286D28522F6
:101E5B00122388EF24FE600B14600F24027012C251
:101E6B00A18010D2A1C2A2D2A322D2A1D2A2C2A37C
:081E7B0022D2A1D2A2D2A322BF
:101E300012237CEF24FE601114601214600424034A
:101E40008012C2A5C2A4D2A622C2A58002D2A5D267
:0B1E5000A4C2A622C2A5D2A4D2A622E2
:0C2245001222B5EF7003D2C122C2C122E8
:0922D20020C503C29622D2962217
:101C730012235EEF14600E146011146017240370B6
:101C83001CC2B5801AD2B5C2B68016D2B5D2B6C2BE
:101C9300C6D2C722D2B5D2B6D2C6C2C722D2B5D215
:061CA300B6D2C6D2C72232
:10184C00EFB40A00504D901859F8282873021877F5
:10185C0002187B02187F02188302188702188B0269
:10186C00188F02189302189702189B7ED780267E39
:10187C001480227ECD801E7E5D801A7E1E80167E98
:10188C005B80127EDB800E7E15800A7EDF80067EFA
:07189C005F8002E4FEAF06CD
:0118A3002222
:101F3E00439A0143A180E4FFFE75CF100FBF00014D
:101F4E000EBE1FF5BF40F212232A12236D7D057FB0
:041F5E0048022072A3
:102072008F258D2612211CAF25121C04121D11AFB3
:0A20820026121C04121D1102213267
:0B22A000EF700453A17F2243A18022B5
:0B225100E4FEEEC39F5004000E80F777
:01225C00225F
:101D11007F05122251D280122251C280E4FF122289
:101D2100A030A7130527E527C394F040F4E4F52775
:101D3100B2C57F011222A07F011222A0C2807F05BD
:031D41000222512A
:101C04008F28122325E4F527E5285480D394004037
:101C14000A12236D7F0512225180031223701223AE
:101C24006A122325E52825E0F5280527E527C3942E
:081C34000840D57F0502225192
:10211C0012236D12236A7F0512225112237012238F
:06212C00257F050222518F
:1021320012237012236A7F0512225112236D122379
:06214200257F0502225179
:03236A00D28022FC
:052325007F05122251AA
:03232A00C280224C
:03236D00D2A722D2
:03237000C2A722DF
:05201000013800C102CF
:101E0400438E02438910758BC0758DF9C28ED2AB97
:101E1400438E04E4F5C9F5C875CBFA75CA32C2CA53
:0C1E2400D2ADD2CA438905C2A9D28C22DB
:0922DB00758B80758DEED28E2208
:03000B000223903D
:01239000321A
:03002B000213F1CC
:1013F100C0E0C0F0C083C082C0D075D000C000C0C2
:1014010001C002C003C004C005C006C007C2CFE5C9
:101411003EB40404D2DC800FE53EC394644008C2AC
:10142100DC753E001222DB053E0539E539C3940A1D
:101431004006753701753900053DE53D7002053CF3
:10144100C39410E53C94274009753C00753D00129A
:1014510020A5121FA7D007D006D005D004D003D0F5
:1014610002D001D000D0D0D082D083D0F0D0E032F1
:10165A0075CF1043913143B103121FC6122172D2C2
:10166A00AF121E04121E831223341222BF121471E7
:10167A0012233A12238E121ECF1223501221E21283
:10168A001B0EE4F524F523F522F5217F807E387DB3
:10169A00017C00AB24AA23A922A821C31208EA507C
:1016AA001A75CF10E5242401F524E43523F523E443
:0E16BA003522F522E43521F52180D002203AB8
:102187001204A80540E540C3940A4006E4F54075EB
:032197003F0122E3
:101FE400121CDD0536E536C3940A4006E4F5367561
:0E1FF4003501120A901211E61221D0021EA928
:10215D00053BE53BC3940A4006E4F53B753A011295
:05216D001732022056AC
:062340001216C8021793FB
:101BCB0012165A75CF10E537B40106E4F53712211A
:101BDB0087E53FB40106E4F53F121FE4E535B40198
:101BEB0006E4F53512215DE53AB40106E4F53A1247
:091BFB00234012102AB28080CAB6
:03001B00021B5372
:101B5300C0E0C0F0C083C082C0D075D000C000C058
:101B630001C002C003C004C005C006C007C28E1274
:101B7300234CD007D006D005D004D003D002D00127
:0D1B8300D000D0D0D082D083D0F0D0E0329E
:0420150041009C00EA
:100CCF0075F00290004F12095EE0FEA3E0FFE52CE5
:100CDF0075F00290001902095EE52B75F002900085
:100CEF000102095EE52B75F00290003102095E7476
:100CFF0025252FF582E43400F58322D3E52D9FEED1
:100D0F006480F8E52C64809822743D252BF582E4ED
:100D1F003400F58322D3FFED9FEE6480F8EC6480FE
:100D2F009822745B252BF582E43400F58322E004CE
:100D3F00F0740D252BF582E43400F58322E52C7534
:100D4F00F00290004F02095EE4F0FFFEFDFCAB4D98
:100D5F00AA4CA94BA84AC30208EAFEC3E52E9FEE90
:100D6F006480F8E52D64809822E54D5551FFE54CE0
:100D7F005550FEE54B554FFDE54A554EFC22742B61
:100D8F00252BF582E43400F58322E0FEA3E0FF7506
:100D9F00F002227E00900098E0FCA3E0FD12070D08
:100DAF008EE78FE622A4FFE0C39FE5F06480F8741E
:100DBF008098227D0A12071FAD037C0002070DE009
:100DCF00FCA3E0C39F2290004EE0FB3395E0FAEBCB
:0D0DDF00AE022290004EE0FF3395E0FE22B0
:0C225D00EF4E6007EF1F70F81E80F522A6
:0214F1008F3436
:1014F30012221E9000AAEFF0AF3412219AEFFB9054
:101503000099E025E0FF900098E033FE7C00120D87
:10151300C2E534120CEA120DCEEC9E50099000AADB
:10152300E06049148036AF3412219AEFFB900098A3
:10153300E0FEA3E0FF7C007D0712070D120DC275CC
:10154300F002E534120CEDE0FCA3E0D39FEC9E40E7
:101553001B9000AAE0FF647E6012EF04FF74432532
:0C15630034F582E43400F583EFF0D2018F
:01156F002259
:1017F100C20390009DE0120CDFE5E5F0A3E5E4F003
:1018010090009DE004F0E0C39552400BE4F090009D
:101811004BE04480F08002D20390009DE0FF122152
:101821009A120DA290009DE0FF12221EE5E2548063
:101831004FF5E290009DE02413F582E43400F58336
:0A184100E04480F5E8300302D2EE27
:01184B00227A
:10147100D2AFC201E490009DF090004BF0121A82AD
:10148100E4FF121D44EF2401FDE433FC7E077FD00D
:1014910012071F900098EEF0A3EFF0E4FF12219ADB
:1014A100120DA27F02121D44EFC454F0FEC006E4E7
:1014B100FF121D44D0E02FF5E17F03121D44E5E248
:1014C10054804FF5E27F04121D44EF6008E5E254B9
:1014D100804480F5E27F01121D448FE31219EF432E
:1014E100A910900013E04480F5E81218A4021F62CD
:03237300D2EE2285
:101EF400E4FD90004BE0547FF0D2EE90004BE020E4
:101F0400E7127FE87E0312225D43CF100DEDC394E8
:041F14003240E8224D
:011F180022A6
:1018A400752520121EF4E4F526E526C39552501B37
:1018B400E526120CDF120D99E526120CEDEEF0A3CD
:1018C400EFF0AF261214F1052680DEAF251525EFC3
:1018D40070D1121F861222ED8F25121EF4E4F52614
:1018E400E526C395525009AF26120F6F052680F0E6
:0718F400AF251525EF70E39D
:0118FB0022CA
:101F6200E4FFEFC39552501B75F002EF120CE2E052
:101F7200FCA3E0FD75F002EF120CEDECF0A3EDF026
:031F82000F80DFEE
:011F85002239
:101F1900E490009EF0F52AE52AC39552500EAF2AA7
:101F2900120F6FAF2A120100052A80EBAF4DAE4C9C
:041F3900AD4BAC4AB6
:011F3D002281
:020100008F2B43
:10010200E4F53375F002EF120CED120D99E52B12A6
:100112000CE2120DCEF52DEC9EF52CE47F01FEFDD6
:10012200FCA92BA80112090E8F518E508D4F8C4EB7
:10013200AF2B121DD88E318F32C3E52D9532E531AA
:10014200120D0F4005752E018003E4F52EE52E6495
:100152000160030202877425252B120D02E0C3946D
:10016200FA500A7425252B120D02E004F0120D78C4
:10017200E4FBFAF9F8C31208EA600302026A90008B
:1001820000E0F530122358EF6028E4F52EF52FE554
:100192002FC39552500F120CFEE0C394014002058A
:1001A2002E052F80EAE52EC394034006740F2530F6
:1001B200F5307425252B120D02E0C3953050030251
:1001C200026AE4F52E1222F5EF7051F52FE52FC3E6
:1001D2009552501AE52B652F60101222AB120CFEBD
:1001E200E0C39F4005752E018004052F80DF122396
:1001F20058EF7052E52E704EF52FE52FC3955250F1
:1002020045E52B652F60111222AB742B252F120DA1
:1002120091E0C39F4002802B052F80DE122358EF0E
:100222007024F530F52FE52FC39552500F120CFEB6
:10023200E0C3940240020530052F80EAE530C39402
:10024200034003752E01E52EB40102D200E54D45AF
:1002520051FFE54C4550FEE54B454FFDE54A454E05
:100262008F4D8E4C8D4BF54A120D18E4F0120D3164
:10027200E4F0120CF3E4F0A3F0740D252BF582E404
:10028200340002045DAF2B122106120D0A4008123F
:100292000D8DE004F0800B90009EE004F0120D8DB5
:1002A200E4F0120DE2C3E49FFDE49EFCC3E52D9D44
:1002B200EC120D0F4066120D0A5061120D18E41275
:1002C2000D3F120D5760030203CA120CF3E52C8591
:1002D2002DF01207AA122274120CF3E0FCA3E0C361
:1002E200120D274009120CE8E475F0018021122258
:1002F20074C3E49FFFE49EFE120CF3E0FCA3E0C390
:10030200120D2740030203CA120CE874FFF5F01223
:1003120007AA120CF3E4F0A3F00203CA90004EE025
:10032200FFFD3395E0FCC3E49DFDE49CFCC3E52D99
:100332009DEC120D0F505A120D18120D3DE4F012E1
:100342000D18E0FE75F00A84E5F07037EEC3946490
:10035200400E120D18E4F0D20190006104F08023E7
:10036200120CE8C083C082E0FCA3E0FDEFA2E71319
:10037200FF3395E0FEC3ED9FFFEC9ED082D083F069
:10038200A3EFF0900097E0652B703D74FFF002033D
:10039200CA120DE2120D0A402F120D18120D5770DB
:1003A20027120D40120D3DE0B4201D120D40E4F065
:1003B20090004EE0A2E713A2E713FF3395E0FE128E
:1003C2000CE8EE8FF01207AA120D784D4E4F700313
:1003D200020469E532AE317802CEA2E713CE13D819
:1003E200F8FFC3E5329FFFE5319EFEC3120D0B50AD
:1003F2006F120D31E004F01222FD8F30E4F52FE58B
:100402002FC39552500F120CFEE0C3940140020517
:100412002E052F80EAE52EC394034006900000E0EB
:10042200F530120D31E0C39530407A120D31E4F00F
:10043200AF51AE50AD4FAC4E1208DDE54D5FFFE55A
:100442004C5EFEE54B5DFDE54A5C8F4D8E4C8D4B5F
:10045200F54A7425252BF582E43400F583E4F02275
:10046200120D31E014F0227425252B120D02120D0B
:10047200577005AF2B1214F1E55214652B702690BC
:10048200009EE0C39552401DE4F52FE52FC395521F
:10049200500D120CFEE06003752E01052F80ECE575
:0504A2002E7002C200F3
:0104A7002232
:101F8600E4FFEFC39552501875F002EF120CE2E031
:101F9600FCA3E0FDEF120D4EECF0A3EDF00F80E296
:011FA6002218
:020F6F008F2CC5
:100F7100EF120CCF120DCEF52EEC9EF52DAF2C12EB
:100F81001DD8AD07AC06D3E52E9DEC120D6F500BAD
:100F9100C3E49DFFE49C120D69500B120CDDE0FED1
:100FA100A3E0FF021017ECA2E713FEED13FFD3122B
:100FB1000D6B500BC3E49FFFE49E120D6950271285
:100FC1000D4CE0FCA3E0FDECC313FEED13FFC3EDFC
:100FD1009FFDEC9EFC120CDDE0C313FEA3E0132D7C
:100FE100FFEC3EFE8030120D4CE0FCA3E0FDAE04B0
:100FF1007803CEC313CE13D8F9FFC3ED9FFDEC9E4A
:10100100FC120CDDE0FEA3E07803CEC313CE13D8AF
:10101100F92DFFEC3EFE120D4CEEF0A3EFF0E52CA6
:08102100120CCFEEF0A3EFF07A
:0110290022A4
:03237600A201229F
:03237900D201226C
:1019EF00E4FFEFC39552502B74252F120D02E4F034
:1019FF00743D2F120D1CE4F0745B2F120D35E4F0C3
:101A0F00EF120CF5E4F0A3F0742B2F120D91E4F00C
:101A1F000F80CFE4F54DF54CF54BF54A90009774D8
:0B1A2F00FFF0E490009AF0A3F0C20169
:011A3A002289
:020BB0008F2A8A
:100BB20090009CE0C394034035E4F0900061E07043
:100BC20022F52BE52BC39552501975F002E52B1235
:100BD2000D51120D99E52B120CEDEEF0A3EFF0057D
:100BE2002B80E01219EFC201E4900061F022900024
:100BF20096E004F0E0B52A08121F86E4900097F010
:100C0200900096E0D3952A5003020CCEE4F52BE532
:100C12002BC39552507A75F002E52B120D51120D2D
:100C220099E52B120CE2120DCEFFEC9EAD07FC9063
:100C32000061E07029120DD57802C333CE33CED8CD
:100C4200F9120D244040E49BFFE49AFEEF7802C3C0
:100C520033CE33CED8F9C3120D25502A8032120D6D
:100C6200D57803C333CE33CED8F9120D244017E41E
:100C72009BFFE49AFEEF7803C333CE33CED8F9FF5D
:100C8200C3120D26400AAF2B120F6F052B020C1157
:100C9200E52BB55206900097E004F0E52A75F008BE
:100CA200900096120DB44024E4F0C20090009CE043
:100CB20004F0E52A75F004900097120DB4400DE49B
:0C0CC20090009CF0121F621219EFC2019A
:010CCE002203
:04201900410066001C
:1021720043D9187F0F7E00121D7690009112092D0F
:05218200000000002236
:0922E400900064E0FEA3E0FF227B
:100DEC00E4F524F523F522F521FBEB25E02469F548
:100DFC0082E43400F583E0FEA3E0FFE4FCFDE5248F
:100E0C002FF524E5233EF523ED3522F522EC352193
:100E1C00F5210BBB14D4E4FAF9F8AF24AE23AD22C0
:100E2C00AC2112084B900091120921E47F507EC333
:100E3C00FDFC900091E0F8A3E0F9A3E0FAA3E0FB3D
:100E4C001207C0E4FB7A10F9F812084B8F288E2792
:100E5C008D268C25E47FD87E0EFDFCAB28AA27A915
:100E6C0026A825D31208EA401AE52894D8F528E5D7
:100E7C0027940EF527E5269400F526E5259400F534
:100E8C00258009E4F528F527F526F525E47B38FAC5
:100E9C00F9F8AF28AE27AD26AC2512084B900062AE
:050EAC00EEF0A3EFF0E1
:010EB100221E
:100A9000900095E06401703DF0AFAFEF75F010A4E9
:100AA000FFE5AEC4540F7C002FFFEC35F0FE900044
:100AB00066E025E02469F582E43400F583EEF0A3D6
:100AC000EFF0900066E004F0D394144008120DECAF
:100AD000E4900066F0900067E475F0011207AAFE4A
:100AE000D3E5F094C8EE94005003020BAFE49000FD
:100AF00067F0A3F0900063E02414FF900062E034FC
:100B000000FED3900065E09F900064E09E401912C3
:100B100019A27C007D0A120774C3900065E09DF065
:100B2000900064E09CF0800D900062E0FFA3E0A3E1
:100B3000CFF0A3EFF0C3900065E094E7900064E08D
:100B4000940340077403F0A374E7F0900064E0702E
:100B500002A3E070171219A27C007D05120774ED44
:100B60002401FEE43C900064F0A3CEF0900064E029
:100B7000FEA3E0FFD39464EE940050047569012253
:100B8000D3EF9464EE9400400DD3EF94C8EE94003C
:100B9000500475690422D3EF94C8EE9400400DD33D
:100BA000EF942CEE940150047569022275690322BA
:03237C00AF692224
:101D7600EF4480F5ADC3EF9408EE9400500F740164
:101D8600A807088002C333D8FCF5AB8011EF24F80E
:101D9600FF7401A807088002C333D8FCF5AC75A808
:021DA6004022D9
:04234C0043AD40223B
:030033000220BEEA
:1020BE00C0E0C083C08253ADDF53ADBF90009574B6
:0920CE0001F0D082D083D0E03291
:0A22BF0043D920122382E4F56322C4
:1016C800E56324FE603014605A24027059E56545CC
:1016D80064700312237FE565B45808E564B4020317
:1016E8001223820565E56570020564C394B0E5645C
:1016F800940440358027E5654564700312237FE52F
:1017080065B40808E564B407031223820565E56536
:1017180070020564C39460E5649409400CE4F564C0
:0A172800F5652202237F12238222BE
:03237F00D2DD228A
:03238200C2DD2297
:1021AC000563E563D394034003E4F563E4F564F558
:0221BC0065229A
:032385008F632241
:03238800AF63221E
:04235000E4F5662228
:10179300E56624FE601D14602D14603D2403704D26
:1017A3000568E56870020567C39410E567940E4009
:1017B3003C80370568E56870020567C39420E567D8
:1017C300941C402980240568E56870020567C3946A
:1017D30040E5679438401680110568E56870020596
:0E17E30067C39480E5679470400312203A2299
:1021BE000566E566D394044003E4F566E4F567F539
:0221CE00682285
:04235400E4F5662224
:03238B00AF662218
:1021E200539A7F439A08C283439B807F14022346FB
:1021D0009000A9E0D394004006D283E014F022C21C
:0221E000832258
:062346009000A9EFF02257
:1010DF00021BCBE493A3F8E493A34003F68001F241
:1010EF0008DFF48029E493A3F85407240CC8C33312
:1010FF00C4540F4420C8834004F456800146F6DFE1
:10110F00E4800B0102040810204080902002E47E4E
:10111F00019360BCA3FF543F30E509541FFEE493D5
:10112F00A360010ECF54C025E060A840B8E493A39C
:10113F00FAE493A3F8E493A3C8C582C8CAC583CAC7
:10114F00F0A3C8C582C8CAC583CADFE9DEE780BE7F
:01201D0000C2
:10070D00EF8DF0A4A8F0CF8CF0A428CE8DF0A42E00
:02071D00FE22BA
:10071F00BC000BBE0029EF8DF084FFADF022E4CCBE
:10072F00F875F008EF2FFFEE33FEEC33FCEE9DEC87
:10073F00984005FCEE9DFE0FD5F0E9E4CEFD22EDCD
:10074F00F8F5F0EE8420D21CFEADF075F008EF2F17
:10075F00FFED33FD4007985006D5F0F222C398FD08
:05076F000FD5F0EA22A5
:10077400C2D5EC30E709B2D5E4C39DFDE49CFCEEA0
:1007840030E715B2D5E4C39FFFE49EFE12071FC3F2
:10079400E49DFDE49CFC800312071F30D507C3E4ED
:0607A4009FFFE49EFE220F
:1007AA00C5F0F8A3E028F0C5F0F8E58215827002DA
:0607BA001583E038F02277
:1007C000E88FF0A4CC8BF0A42CFCE98EF0A42CFCD8
:1007D0008AF0EDA42CFCEA8EF0A4CDA8F08BF0A456
:1007E0002DCC3825F0FDE98FF0A42CCD35F0FCEBB5
:1007F0008EF0A4FEA9F0EB8FF0A4CFC5F02ECD397A
:0F080000FEE43CFCEAA42DCE35F0FDE43CFC22E6
:10080F0075F008758200EF2FFFEE33FECD33CDCCA0
:10081F0033CCC58233C5829BED9AEC99E582984023
:10082F000CF582EE9BFEED9AFDEC99FC0FD5F0D600
:10083F00E4CEFBE4CDFAE4CCF9A88222B800C1B92A
:10084F000059BA002DEC8BF084CFCECDFCE5F0CB68
:10085F00F97818EF2FFFEE33FEED33FDEC33FCEBA1
:10086F0033FB10D703994004EB99FB0FD8E5E4F95C
:10087F00FA227818EF2FFFEE33FEED33FDEC33FC49
:10088F00C933C910D7059BE99A4007EC9BFCE99A3D
:10089F00F90FD8E0E4C9FAE4CCFB2275F010EF2F82
:1008AF00FFEE33FEED33FDCC33CCC833C810D70782
:1008BF009BEC9AE899400AED9BFDEC9AFCE899F8BD
:0E08CF000FD5F0DAE4CDFBE4CCFAE4C8F92250
:0D08DD00CFF4CFCEF4CECDF4CDCCF4CC22B0
:1008EA00EB9FF5F0EA9E42F0E99D42F0E89C45F064
:0108FA0022DB
:1008FB00E8600FECC313FCED13FDEE13FEEF13FFDB
:03090B00D8F122FE
:10090E00E8600FEFC333FFEE33FEED33FDEC33FC47
:03091E00D8F122EB
:0C092100ECF0A3EDF0A3EEF0A3EFF02249
:10092D00A8828583F0D083D0821209441209441223
:10093D000944120944E473E493A3C583C5F0C58348
:10094D00C8C582C8F0A3C583C5F0C583C8C582C814
:01095D002277
:0C095E00A42582F582E5F03583F58322A4
:1019A200AC5FAD60AE61AF627810EC4D4E4F70042B
:1019B2007CA57DA5C3EC13FCED13FDEE13FEEF1326
:1019C200FF5010EC64CCFCED644CFDEE644EFEEF77
:1019D20064CEFFD8DF8C5F8D608E618F62EE547FA4
:0D19E200FE228E5F8F6074A5F561F5622214
:00000001FF
